{
  "contractName": "Form",
  "abi": [
    {
      "inputs": [
        {
          "internalType": "uint256[]",
          "name": "_numbers",
          "type": "uint256[]"
        },
        {
          "internalType": "string[]",
          "name": "_strings",
          "type": "string[]"
        },
        {
          "internalType": "bytes32",
          "name": "_hashValue",
          "type": "bytes32"
        }
      ],
      "stateMutability": "nonpayable",
      "type": "constructor"
    },
    {
      "inputs": [],
      "name": "readForm",
      "outputs": [
        {
          "components": [
            {
              "internalType": "string",
              "name": "caseName",
              "type": "string"
            },
            {
              "internalType": "uint256",
              "name": "caseNumber",
              "type": "uint256"
            },
            {
              "internalType": "string",
              "name": "reasonObtained",
              "type": "string"
            },
            {
              "internalType": "uint256",
              "name": "itemNumber",
              "type": "uint256"
            },
            {
              "internalType": "string",
              "name": "evidenceTypeManufacturer",
              "type": "string"
            },
            {
              "internalType": "string",
              "name": "owner",
              "type": "string"
            },
            {
              "internalType": "string",
              "name": "contentDescription",
              "type": "string"
            },
            {
              "internalType": "uint256",
              "name": "contentOwnerContactInformation",
              "type": "uint256"
            },
            {
              "internalType": "string",
              "name": "forensicAgent",
              "type": "string"
            },
            {
              "internalType": "string",
              "name": "creationMethod",
              "type": "string"
            },
            {
              "internalType": "bytes32",
              "name": "hashValue",
              "type": "bytes32"
            },
            {
              "internalType": "uint256",
              "name": "date",
              "type": "uint256"
            },
            {
              "internalType": "uint256",
              "name": "forensicAgentContactInformation",
              "type": "uint256"
            },
            {
              "components": [
                {
                  "internalType": "uint256",
                  "name": "trackingNumber",
                  "type": "uint256"
                },
                {
                  "internalType": "uint256",
                  "name": "timestamp",
                  "type": "uint256"
                },
                {
                  "internalType": "address",
                  "name": "releasedBy",
                  "type": "address"
                },
                {
                  "internalType": "address",
                  "name": "receivedBy",
                  "type": "address"
                },
                {
                  "internalType": "string",
                  "name": "reasonForChange",
                  "type": "string"
                }
              ],
              "internalType": "struct Log[]",
              "name": "chainOfCustody",
              "type": "tuple[]"
            }
          ],
          "internalType": "struct FormData",
          "name": "",
          "type": "tuple"
        }
      ],
      "stateMutability": "view",
      "type": "function"
    },
    {
      "inputs": [
        {
          "components": [
            {
              "internalType": "uint256",
              "name": "trackingNumber",
              "type": "uint256"
            },
            {
              "internalType": "uint256",
              "name": "timestamp",
              "type": "uint256"
            },
            {
              "internalType": "address",
              "name": "releasedBy",
              "type": "address"
            },
            {
              "internalType": "address",
              "name": "receivedBy",
              "type": "address"
            },
            {
              "internalType": "string",
              "name": "reasonForChange",
              "type": "string"
            }
          ],
          "internalType": "struct Log",
          "name": "_log",
          "type": "tuple"
        }
      ],
      "name": "pushLog",
      "outputs": [],
      "stateMutability": "nonpayable",
      "type": "function"
    },
    {
      "inputs": [],
      "name": "lastLog",
      "outputs": [
        {
          "components": [
            {
              "internalType": "uint256",
              "name": "trackingNumber",
              "type": "uint256"
            },
            {
              "internalType": "uint256",
              "name": "timestamp",
              "type": "uint256"
            },
            {
              "internalType": "address",
              "name": "releasedBy",
              "type": "address"
            },
            {
              "internalType": "address",
              "name": "receivedBy",
              "type": "address"
            },
            {
              "internalType": "string",
              "name": "reasonForChange",
              "type": "string"
            }
          ],
          "internalType": "struct Log",
          "name": "",
          "type": "tuple"
        }
      ],
      "stateMutability": "view",
      "type": "function"
    },
    {
      "inputs": [],
      "name": "isAvailable",
      "outputs": [
        {
          "internalType": "bool",
          "name": "",
          "type": "bool"
        }
      ],
      "stateMutability": "view",
      "type": "function"
    },
    {
      "inputs": [],
      "name": "setAvailable",
      "outputs": [],
      "stateMutability": "nonpayable",
      "type": "function"
    },
    {
      "inputs": [],
      "name": "setTaken",
      "outputs": [],
      "stateMutability": "nonpayable",
      "type": "function"
    },
    {
      "inputs": [
        {
          "internalType": "address",
          "name": "_taker",
          "type": "address"
        }
      ],
      "name": "setGiverTaker",
      "outputs": [],
      "stateMutability": "nonpayable",
      "type": "function"
    },
    {
      "inputs": [],
      "name": "resetGiverTaker",
      "outputs": [],
      "stateMutability": "nonpayable",
      "type": "function"
    },
    {
      "inputs": [],
      "name": "getTaker",
      "outputs": [
        {
          "internalType": "address",
          "name": "",
          "type": "address"
        }
      ],
      "stateMutability": "view",
      "type": "function"
    },
    {
      "inputs": [],
      "name": "getGiver",
      "outputs": [
        {
          "internalType": "address",
          "name": "",
          "type": "address"
        }
      ],
      "stateMutability": "view",
      "type": "function"
    }
  ],
  "bytecode": "0x60806040523480156200001157600080fd5b506040516200230638038062002306833981810160405281019062000037919062000651565b816000815181106200004e576200004d620006eb565b5b6020026020010151600260000190816200006991906200095b565b5081600181518110620000815762000080620006eb565b5b60200260200101516002800190816200009b91906200095b565b5081600281518110620000b357620000b2620006eb565b5b602002602001015160026004019081620000ce91906200095b565b5081600381518110620000e657620000e5620006eb565b5b6020026020010151600260050190816200010191906200095b565b5081600481518110620001195762000118620006eb565b5b6020026020010151600260060190816200013491906200095b565b50816005815181106200014c576200014b620006eb565b5b6020026020010151600260080190816200016791906200095b565b50816006815181106200017f576200017e620006eb565b5b6020026020010151600260090190816200019a91906200095b565b5082600081518110620001b257620001b1620006eb565b5b602002602001015160026001018190555082600181518110620001da57620001d9620006eb565b5b602002602001015160026003018190555082600281518110620002025762000201620006eb565b5b6020026020010151600260070181905550826003815181106200022a5762000229620006eb565b5b60200260200101516002600b018190555082600481518110620002525762000251620006eb565b5b60200260200101516002600c0181905550806002600a018190555050505062000a42565b6000604051905090565b600080fd5b600080fd5b600080fd5b6000601f19601f8301169050919050565b7f4e487b7100000000000000000000000000000000000000000000000000000000600052604160045260246000fd5b620002da826200028f565b810181811067ffffffffffffffff82111715620002fc57620002fb620002a0565b5b80604052505050565b60006200031162000276565b90506200031f8282620002cf565b919050565b600067ffffffffffffffff821115620003425762000341620002a0565b5b602082029050602081019050919050565b600080fd5b6000819050919050565b6200036d8162000358565b81146200037957600080fd5b50565b6000815190506200038d8162000362565b92915050565b6000620003aa620003a48462000324565b62000305565b90508083825260208201905060208402830185811115620003d057620003cf62000353565b5b835b81811015620003fd5780620003e888826200037c565b845260208401935050602081019050620003d2565b5050509392505050565b600082601f8301126200041f576200041e6200028a565b5b81516200043184826020860162000393565b91505092915050565b600067ffffffffffffffff821115620004585762000457620002a0565b5b602082029050602081019050919050565b600080fd5b600067ffffffffffffffff8211156200048c576200048b620002a0565b5b62000497826200028f565b9050602081019050919050565b60005b83811015620004c4578082015181840152602081019050620004a7565b60008484015250505050565b6000620004e7620004e1846200046e565b62000305565b90508281526020810184848401111562000506576200050562000469565b5b62000513848285620004a4565b509392505050565b600082601f8301126200053357620005326200028a565b5b815162000545848260208601620004d0565b91505092915050565b6000620005656200055f846200043a565b62000305565b905080838252602082019050602084028301858111156200058b576200058a62000353565b5b835b81811015620005d957805167ffffffffffffffff811115620005b457620005b36200028a565b5b808601620005c389826200051b565b855260208501945050506020810190506200058d565b5050509392505050565b600082601f830112620005fb57620005fa6200028a565b5b81516200060d8482602086016200054e565b91505092915050565b6000819050919050565b6200062b8162000616565b81146200063757600080fd5b50565b6000815190506200064b8162000620565b92915050565b6000806000606084860312156200066d576200066c62000280565b5b600084015167ffffffffffffffff8111156200068e576200068d62000285565b5b6200069c8682870162000407565b935050602084015167ffffffffffffffff811115620006c057620006bf62000285565b5b620006ce86828701620005e3565b9250506040620006e1868287016200063a565b9150509250925092565b7f4e487b7100000000000000000000000000000000000000000000000000000000600052603260045260246000fd5b600081519050919050565b7f4e487b7100000000000000000000000000000000000000000000000000000000600052602260045260246000fd5b600060028204905060018216806200076d57607f821691505b60208210810362000783576200078262000725565b5b50919050565b60008190508160005260206000209050919050565b60006020601f8301049050919050565b600082821b905092915050565b600060088302620007ed7fffffffffffffffffffffffffffffffffffffffffffffffffffffffffffffffff82620007ae565b620007f98683620007ae565b95508019841693508086168417925050509392505050565b6000819050919050565b60006200083c62000836620008308462000358565b62000811565b62000358565b9050919050565b6000819050919050565b62000858836200081b565b62000870620008678262000843565b848454620007bb565b825550505050565b600090565b6200088762000878565b620008948184846200084d565b505050565b5b81811015620008bc57620008b06000826200087d565b6001810190506200089a565b5050565b601f8211156200090b57620008d58162000789565b620008e0846200079e565b81016020851015620008f0578190505b62000908620008ff856200079e565b83018262000899565b50505b505050565b600082821c905092915050565b6000620009306000198460080262000910565b1980831691505092915050565b60006200094b83836200091d565b9150826002028217905092915050565b62000966826200071a565b67ffffffffffffffff811115620009825762000981620002a0565b5b6200098e825462000754565b6200099b828285620008c0565b600060209050601f831160018114620009d35760008415620009be578287015190505b620009ca85826200093d565b86555062000a3a565b601f198416620009e38662000789565b60005b8281101562000a0d57848901518255600182019150602085019450602081019050620009e6565b8683101562000a2d578489015162000a29601f8916826200091d565b8355505b6001600288020188555050505b505050505050565b6118b48062000a526000396000f3fe608060405234801561001057600080fd5b506004361061009e5760003560e01c806390321988116100665780639032198814610123578063bcd404fa1461013f578063d08145e414610149578063f5c92cda14610167578063f5d19755146101715761009e565b80635426177e146100a3578063651c5d2d146100c15780636d678f52146100df5780637a7d1566146100fb578063856c71dd14610105575b600080fd5b6100ab61018f565b6040516100b8919061112b565b60405180910390f35b6100c9610795565b6040516100d6919061115c565b60405180910390f35b6100f960048036038101906100f491906111b7565b6107bf565b005b610103610886565b005b61010d6108a3565b60405161011a91906111ff565b60405180910390f35b61013d6004803603810190610138919061142d565b6108ba565b005b6101476109a6565b005b610151610adb565b60405161015e91906114ec565b60405180910390f35b61016f610c7e565b005b610179610c9b565b604051610186919061115c565b60405180910390f35b610197610cc4565b6002604051806101c00160405290816000820180546101b59061153d565b80601f01602080910402602001604051908101604052809291908181526020018280546101e19061153d565b801561022e5780601f106102035761010080835404028352916020019161022e565b820191906000526020600020905b81548152906001019060200180831161021157829003601f168201915b50505050508152602001600182015481526020016002820180546102519061153d565b80601f016020809104026020016040519081016040528092919081815260200182805461027d9061153d565b80156102ca5780601f1061029f576101008083540402835291602001916102ca565b820191906000526020600020905b8154815290600101906020018083116102ad57829003601f168201915b50505050508152602001600382015481526020016004820180546102ed9061153d565b80601f01602080910402602001604051908101604052809291908181526020018280546103199061153d565b80156103665780601f1061033b57610100808354040283529160200191610366565b820191906000526020600020905b81548152906001019060200180831161034957829003601f168201915b5050505050815260200160058201805461037f9061153d565b80601f01602080910402602001604051908101604052809291908181526020018280546103ab9061153d565b80156103f85780601f106103cd576101008083540402835291602001916103f8565b820191906000526020600020905b8154815290600101906020018083116103db57829003601f168201915b505050505081526020016006820180546104119061153d565b80601f016020809104026020016040519081016040528092919081815260200182805461043d9061153d565b801561048a5780601f1061045f5761010080835404028352916020019161048a565b820191906000526020600020905b81548152906001019060200180831161046d57829003601f168201915b50505050508152602001600782015481526020016008820180546104ad9061153d565b80601f01602080910402602001604051908101604052809291908181526020018280546104d99061153d565b80156105265780601f106104fb57610100808354040283529160200191610526565b820191906000526020600020905b81548152906001019060200180831161050957829003601f168201915b5050505050815260200160098201805461053f9061153d565b80601f016020809104026020016040519081016040528092919081815260200182805461056b9061153d565b80156105b85780601f1061058d576101008083540402835291602001916105b8565b820191906000526020600020905b81548152906001019060200180831161059b57829003601f168201915b50505050508152602001600a8201548152602001600b8201548152602001600c8201548152602001600d8201805480602002602001604051908101604052809291908181526020016000905b8282101561078857838290600052602060002090600502016040518060a001604052908160008201548152602001600182015481526020016002820160009054906101000a900473ffffffffffffffffffffffffffffffffffffffff1673ffffffffffffffffffffffffffffffffffffffff1673ffffffffffffffffffffffffffffffffffffffff1681526020016003820160009054906101000a900473ffffffffffffffffffffffffffffffffffffffff1673ffffffffffffffffffffffffffffffffffffffff1673ffffffffffffffffffffffffffffffffffffffff1681526020016004820180546106f79061153d565b80601f01602080910402602001604051908101604052809291908181526020018280546107239061153d565b80156107705780601f1061074557610100808354040283529160200191610770565b820191906000526020600020905b81548152906001019060200180831161075357829003601f168201915b50505050508152505081526020019060010190610604565b5050505081525050905090565b6000600160009054906101000a900473ffffffffffffffffffffffffffffffffffffffff16905090565b6107c7610adb565b6060015173ffffffffffffffffffffffffffffffffffffffff163373ffffffffffffffffffffffffffffffffffffffff161461080257600080fd5b33600160006101000a81548173ffffffffffffffffffffffffffffffffffffffff021916908373ffffffffffffffffffffffffffffffffffffffff160217905550806000806101000a81548173ffffffffffffffffffffffffffffffffffffffff021916908373ffffffffffffffffffffffffffffffffffffffff16021790555050565b6001601060006101000a81548160ff021916908315150217905550565b6000601060009054906101000a900460ff16905090565b6002600d01819080600181540180825580915050600190039060005260206000209060050201600090919091909150600082015181600001556020820151816001015560408201518160020160006101000a81548173ffffffffffffffffffffffffffffffffffffffff021916908373ffffffffffffffffffffffffffffffffffffffff16021790555060608201518160030160006101000a81548173ffffffffffffffffffffffffffffffffffffffff021916908373ffffffffffffffffffffffffffffffffffffffff16021790555060808201518160040190816109a0919061171a565b50505050565b3373ffffffffffffffffffffffffffffffffffffffff16600160009054906101000a900473ffffffffffffffffffffffffffffffffffffffff1673ffffffffffffffffffffffffffffffffffffffff161480610a4d57503373ffffffffffffffffffffffffffffffffffffffff1660008054906101000a900473ffffffffffffffffffffffffffffffffffffffff1673ffffffffffffffffffffffffffffffffffffffff16145b610a5657600080fd5b6000600160006101000a81548173ffffffffffffffffffffffffffffffffffffffff021916908373ffffffffffffffffffffffffffffffffffffffff16021790555060008060006101000a81548173ffffffffffffffffffffffffffffffffffffffff021916908373ffffffffffffffffffffffffffffffffffffffff160217905550565b610ae3610d36565b6002600d0160016002600d0180549050610afd919061181b565b81548110610b0e57610b0d61184f565b5b90600052602060002090600502016040518060a001604052908160008201548152602001600182015481526020016002820160009054906101000a900473ffffffffffffffffffffffffffffffffffffffff1673ffffffffffffffffffffffffffffffffffffffff1673ffffffffffffffffffffffffffffffffffffffff1681526020016003820160009054906101000a900473ffffffffffffffffffffffffffffffffffffffff1673ffffffffffffffffffffffffffffffffffffffff1673ffffffffffffffffffffffffffffffffffffffff168152602001600482018054610bf79061153d565b80601f0160208091040260200160405190810160405280929190818152602001828054610c239061153d565b8015610c705780601f10610c4557610100808354040283529160200191610c70565b820191906000526020600020905b815481529060010190602001808311610c5357829003601f168201915b505050505081525050905090565b6000601060006101000a81548160ff021916908315150217905550565b60008060009054906101000a900473ffffffffffffffffffffffffffffffffffffffff16905090565b604051806101c0016040528060608152602001600081526020016060815260200160008152602001606081526020016060815260200160608152602001600081526020016060815260200160608152602001600080191681526020016000815260200160008152602001606081525090565b6040518060a001604052806000815260200160008152602001600073ffffffffffffffffffffffffffffffffffffffff168152602001600073ffffffffffffffffffffffffffffffffffffffff168152602001606081525090565b600081519050919050565b600082825260208201905092915050565b60005b83811015610dcb578082015181840152602081019050610db0565b60008484015250505050565b6000601f19601f8301169050919050565b6000610df382610d91565b610dfd8185610d9c565b9350610e0d818560208601610dad565b610e1681610dd7565b840191505092915050565b6000819050919050565b610e3481610e21565b82525050565b6000819050919050565b610e4d81610e3a565b82525050565b600081519050919050565b600082825260208201905092915050565b6000819050602082019050919050565b600073ffffffffffffffffffffffffffffffffffffffff82169050919050565b6000610eaa82610e7f565b9050919050565b610eba81610e9f565b82525050565b600060a083016000830151610ed86000860182610e2b565b506020830151610eeb6020860182610e2b565b506040830151610efe6040860182610eb1565b506060830151610f116060860182610eb1565b5060808301518482036080860152610f298282610de8565b9150508091505092915050565b6000610f428383610ec0565b905092915050565b6000602082019050919050565b6000610f6282610e53565b610f6c8185610e5e565b935083602082028501610f7e85610e6f565b8060005b85811015610fba5784840389528151610f9b8582610f36565b9450610fa683610f4a565b925060208a01995050600181019050610f82565b50829750879550505050505092915050565b60006101c0830160008301518482036000860152610fea8282610de8565b9150506020830151610fff6020860182610e2b565b50604083015184820360408601526110178282610de8565b915050606083015161102c6060860182610e2b565b50608083015184820360808601526110448282610de8565b91505060a083015184820360a086015261105e8282610de8565b91505060c083015184820360c08601526110788282610de8565b91505060e083015161108d60e0860182610e2b565b506101008301518482036101008601526110a78282610de8565b9150506101208301518482036101208601526110c38282610de8565b9150506101408301516110da610140860182610e44565b506101608301516110ef610160860182610e2b565b50610180830151611104610180860182610e2b565b506101a08301518482036101a086015261111e8282610f57565b9150508091505092915050565b600060208201905081810360008301526111458184610fcc565b905092915050565b61115681610e9f565b82525050565b6000602082019050611171600083018461114d565b92915050565b6000604051905090565b600080fd5b600080fd5b61119481610e9f565b811461119f57600080fd5b50565b6000813590506111b18161118b565b92915050565b6000602082840312156111cd576111cc611181565b5b60006111db848285016111a2565b91505092915050565b60008115159050919050565b6111f9816111e4565b82525050565b600060208201905061121460008301846111f0565b92915050565b600080fd5b7f4e487b7100000000000000000000000000000000000000000000000000000000600052604160045260246000fd5b61125782610dd7565b810181811067ffffffffffffffff821117156112765761127561121f565b5b80604052505050565b6000611289611177565b9050611295828261124e565b919050565b600080fd5b6112a881610e21565b81146112b357600080fd5b50565b6000813590506112c58161129f565b92915050565b600080fd5b600080fd5b600067ffffffffffffffff8211156112f0576112ef61121f565b5b6112f982610dd7565b9050602081019050919050565b82818337600083830152505050565b6000611328611323846112d5565b61127f565b905082815260208101848484011115611344576113436112d0565b5b61134f848285611306565b509392505050565b600082601f83011261136c5761136b6112cb565b5b813561137c848260208601611315565b91505092915050565b600060a0828403121561139b5761139a61121a565b5b6113a560a061127f565b905060006113b5848285016112b6565b60008301525060206113c9848285016112b6565b60208301525060406113dd848285016111a2565b60408301525060606113f1848285016111a2565b606083015250608082013567ffffffffffffffff8111156114155761141461129a565b5b61142184828501611357565b60808301525092915050565b60006020828403121561144357611442611181565b5b600082013567ffffffffffffffff81111561146157611460611186565b5b61146d84828501611385565b91505092915050565b600060a08301600083015161148e6000860182610e2b565b5060208301516114a16020860182610e2b565b5060408301516114b46040860182610eb1565b5060608301516114c76060860182610eb1565b50608083015184820360808601526114df8282610de8565b9150508091505092915050565b600060208201905081810360008301526115068184611476565b905092915050565b7f4e487b7100000000000000000000000000000000000000000000000000000000600052602260045260246000fd5b6000600282049050600182168061155557607f821691505b6020821081036115685761156761150e565b5b50919050565b60008190508160005260206000209050919050565b60006020601f8301049050919050565b600082821b905092915050565b6000600883026115d07fffffffffffffffffffffffffffffffffffffffffffffffffffffffffffffffff82611593565b6115da8683611593565b95508019841693508086168417925050509392505050565b6000819050919050565b600061161761161261160d84610e21565b6115f2565b610e21565b9050919050565b6000819050919050565b611631836115fc565b61164561163d8261161e565b8484546115a0565b825550505050565b600090565b61165a61164d565b611665818484611628565b505050565b5b818110156116895761167e600082611652565b60018101905061166b565b5050565b601f8211156116ce5761169f8161156e565b6116a884611583565b810160208510156116b7578190505b6116cb6116c385611583565b83018261166a565b50505b505050565b600082821c905092915050565b60006116f1600019846008026116d3565b1980831691505092915050565b600061170a83836116e0565b9150826002028217905092915050565b61172382610d91565b67ffffffffffffffff81111561173c5761173b61121f565b5b611746825461153d565b61175182828561168d565b600060209050601f8311600181146117845760008415611772578287015190505b61177c85826116fe565b8655506117e4565b601f1984166117928661156e565b60005b828110156117ba57848901518255600182019150602085019450602081019050611795565b868310156117d757848901516117d3601f8916826116e0565b8355505b6001600288020188555050505b505050505050565b7f4e487b7100000000000000000000000000000000000000000000000000000000600052601160045260246000fd5b600061182682610e21565b915061183183610e21565b9250828203905081811115611849576118486117ec565b5b92915050565b7f4e487b7100000000000000000000000000000000000000000000000000000000600052603260045260246000fdfea2646970667358221220d2bf8354329127f9fb0e5a1d3b3574d53c101c395115af43a5f0e3dfdcb3642764736f6c63430008110033",
  "immutableReferences": {},
  "source": "// SPDX-License-Identifier: MIT\n\n// Pragma indicates the version of Solidity compiler to be used for compilation.\n// In truffle, the version of Solidity compiler is specified in truffle-config.js,\n// if not specified, the default version is 0.5.16.\n\npragma solidity ^0.8.17;\n\n// Contract is a collection of functions and data (its state) that resides at a specific address on the Ethereum blockchain.\n// The following contract is used to create a form for the evidence.\n\n// Struct to store the information of the chain of custody.\n    struct Log {\n        uint trackingNumber;        // Tracking number of the form\n        uint timestamp;             // Epoch time of the change\n        address releasedBy;         // Address of the entity that released the form\n        address receivedBy;         // Address of the entity that received the form\n        string reasonForChange;     // Reason for the change\n    }\n\n// Struct to store the information of the form.\n    struct FormData {\n        string caseName;                        // Name of the case\n        uint caseNumber;                        // Number of the case\n        string reasonObtained;                  // Reason for obtaining the evidence\n        uint itemNumber;                        // Number of the item\n        string evidenceTypeManufacturer;        // Type of the evidence and manufacturer\n        string owner;                           // Name of the owner of the evidence\n\n        string contentDescription;              // Description of the evidence\n        uint contentOwnerContactInformation;    // Contact information of the owner of the evidence\n        string forensicAgent;                     // Name of the forensic agent\n        string creationMethod;                    // Method of creation of the evidence\n\n        bytes32 hashValue;                      // Hash value of the evidence\n        uint date;                              // Date of the evidence\n        uint forensicAgentContactInformation;   // Contact information of the forensic agent\n\n        Log[] chainOfCustody;                   // Chain of custody of the evidence\n    }\n\ncontract Form {\n    address private taker;\n    address private giver;\n    FormData private data;\n    bool private available;\n\n    constructor (uint[] memory _numbers, string[] memory _strings, bytes32 _hashValue) {\n        // _numbers = [_caseNumber, _itemNumber, _contentOwnerContactInformation, _date,\n        //             _forensicAgentContactInformation]\n        // _strings = [_caseName, _reasonObtained, _evidenceTypeManufacturer, _owner, _contentDescription,\n        //             _forensicAgent, _creationMethod]\n        data.caseName = _strings[0];\n        data.reasonObtained = _strings[1];\n        data.evidenceTypeManufacturer = _strings[2];\n        data.owner = _strings[3];\n        data.contentDescription = _strings[4];\n        data.forensicAgent = _strings[5];\n        data.creationMethod = _strings[6];\n\n        data.caseNumber = _numbers[0];\n        data.itemNumber = _numbers[1];\n        data.contentOwnerContactInformation = _numbers[2];\n        data.date = _numbers[3];\n        data.forensicAgentContactInformation = _numbers[4];\n\n        data.hashValue = _hashValue;\n    }\n\n    /**\n    *   @dev Function to read the form data.\n    *\n    *   @return FormData Struct containing the information of the form\n    */\n    function readForm() public view returns (FormData memory) {\n        return data;\n    }\n\n    function pushLog(Log memory _log) public {\n        data.chainOfCustody.push(_log);\n    }\n\n    function lastLog() public view returns (Log memory) {\n        return data.chainOfCustody[data.chainOfCustody.length - 1];\n    }\n\n    function isAvailable() public view returns(bool) {\n        return available;\n    }\n\n    function setAvailable() public {\n        // require(lastLog().receivedBy == msg.sender);\n        available = true;\n    }\n\n    function setTaken() public {\n        // require(lastLog().receivedBy == msg.sender);\n        available = false;\n    }\n\n    function setGiverTaker(address _taker) public {\n        require(msg.sender == lastLog().receivedBy);\n        giver = msg.sender;\n        taker = _taker;\n    }\n\n    function resetGiverTaker() public{\n        require(giver == msg.sender || taker == msg.sender);\n        giver = address(0);\n        taker = address(0);\n    }\n\n    function getTaker() view public returns(address){\n        return taker;\n    }\n\n    function getGiver() view public returns(address){\n        return giver;\n    }\n}",
  "sourcePath": "/Users/lorenzocrespan/Documents/Workspace/University/90748 - Blockchain and Cryptocurrencies/BlueWoodchuck/project/blockchain/contracts/contracts/form.sol",
  "compiler": {
    "name": "solc",
    "version": "0.8.17+commit.8df45f5f.Emscripten.clang"
  },
  "schemaVersion": "3.4.12",
  "updatedAt": "2023-03-08T22:04:01.624Z",
  "devdoc": {
    "kind": "dev",
    "methods": {
      "readForm()": {
        "details": "Function to read the form data.",
        "returns": {
          "_0": "FormData Struct containing the information of the form"
        }
      }
    },
    "version": 1
  },
  "userdoc": {
    "kind": "user",
    "methods": {},
    "version": 1
  }
}