{
  "contractName": "FormFactory",
  "abi": [
    {
      "anonymous": false,
      "inputs": [
        {
          "indexed": false,
          "internalType": "address",
          "name": "caseAddress",
          "type": "address"
        },
        {
          "components": [
            {
              "internalType": "string",
              "name": "caseName",
              "type": "string"
            },
            {
              "internalType": "uint256",
              "name": "caseNumber",
              "type": "uint256"
            },
            {
              "internalType": "string",
              "name": "reasonObtained",
              "type": "string"
            },
            {
              "internalType": "uint256",
              "name": "itemNumber",
              "type": "uint256"
            },
            {
              "internalType": "string",
              "name": "evidenceTypeManufacturer",
              "type": "string"
            },
            {
              "internalType": "string",
              "name": "owner",
              "type": "string"
            },
            {
              "internalType": "string",
              "name": "contentDescription",
              "type": "string"
            },
            {
              "internalType": "uint256",
              "name": "contentOwnerContactInformation",
              "type": "uint256"
            },
            {
              "internalType": "string",
              "name": "forensicAgent",
              "type": "string"
            },
            {
              "internalType": "string",
              "name": "creationMethod",
              "type": "string"
            },
            {
              "internalType": "bytes32",
              "name": "hashValue",
              "type": "bytes32"
            },
            {
              "internalType": "uint256",
              "name": "date",
              "type": "uint256"
            },
            {
              "internalType": "uint256",
              "name": "forensicAgentContactInformation",
              "type": "uint256"
            },
            {
              "components": [
                {
                  "internalType": "uint256",
                  "name": "trackingNumber",
                  "type": "uint256"
                },
                {
                  "internalType": "uint256",
                  "name": "timestamp",
                  "type": "uint256"
                },
                {
                  "internalType": "address",
                  "name": "releasedBy",
                  "type": "address"
                },
                {
                  "internalType": "address",
                  "name": "receivedBy",
                  "type": "address"
                },
                {
                  "internalType": "string",
                  "name": "reasonForChange",
                  "type": "string"
                }
              ],
              "internalType": "struct Log[]",
              "name": "chainOfCustody",
              "type": "tuple[]"
            }
          ],
          "indexed": false,
          "internalType": "struct FormData",
          "name": "data",
          "type": "tuple"
        }
      ],
      "name": "formFound",
      "type": "event"
    },
    {
      "anonymous": false,
      "inputs": [
        {
          "indexed": false,
          "internalType": "uint256",
          "name": "caseNumber",
          "type": "uint256"
        },
        {
          "indexed": false,
          "internalType": "address",
          "name": "caseAddress",
          "type": "address"
        },
        {
          "components": [
            {
              "internalType": "string",
              "name": "caseName",
              "type": "string"
            },
            {
              "internalType": "uint256",
              "name": "caseNumber",
              "type": "uint256"
            },
            {
              "internalType": "string",
              "name": "reasonObtained",
              "type": "string"
            },
            {
              "internalType": "uint256",
              "name": "itemNumber",
              "type": "uint256"
            },
            {
              "internalType": "string",
              "name": "evidenceTypeManufacturer",
              "type": "string"
            },
            {
              "internalType": "string",
              "name": "owner",
              "type": "string"
            },
            {
              "internalType": "string",
              "name": "contentDescription",
              "type": "string"
            },
            {
              "internalType": "uint256",
              "name": "contentOwnerContactInformation",
              "type": "uint256"
            },
            {
              "internalType": "string",
              "name": "forensicAgent",
              "type": "string"
            },
            {
              "internalType": "string",
              "name": "creationMethod",
              "type": "string"
            },
            {
              "internalType": "bytes32",
              "name": "hashValue",
              "type": "bytes32"
            },
            {
              "internalType": "uint256",
              "name": "date",
              "type": "uint256"
            },
            {
              "internalType": "uint256",
              "name": "forensicAgentContactInformation",
              "type": "uint256"
            },
            {
              "components": [
                {
                  "internalType": "uint256",
                  "name": "trackingNumber",
                  "type": "uint256"
                },
                {
                  "internalType": "uint256",
                  "name": "timestamp",
                  "type": "uint256"
                },
                {
                  "internalType": "address",
                  "name": "releasedBy",
                  "type": "address"
                },
                {
                  "internalType": "address",
                  "name": "receivedBy",
                  "type": "address"
                },
                {
                  "internalType": "string",
                  "name": "reasonForChange",
                  "type": "string"
                }
              ],
              "internalType": "struct Log[]",
              "name": "chainOfCustody",
              "type": "tuple[]"
            }
          ],
          "indexed": false,
          "internalType": "struct FormData",
          "name": "data",
          "type": "tuple"
        }
      ],
      "name": "newForm",
      "type": "event"
    },
    {
      "inputs": [
        {
          "internalType": "uint256[]",
          "name": "_numbers",
          "type": "uint256[]"
        },
        {
          "internalType": "string[]",
          "name": "_strings",
          "type": "string[]"
        },
        {
          "internalType": "bytes32",
          "name": "_hashValue",
          "type": "bytes32"
        }
      ],
      "name": "createForm",
      "outputs": [
        {
          "internalType": "address",
          "name": "",
          "type": "address"
        }
      ],
      "stateMutability": "nonpayable",
      "type": "function"
    },
    {
      "inputs": [
        {
          "internalType": "address",
          "name": "_caseAddress",
          "type": "address"
        }
      ],
      "name": "findForm",
      "outputs": [
        {
          "internalType": "contract Form",
          "name": "",
          "type": "address"
        }
      ],
      "stateMutability": "view",
      "type": "function"
    },
    {
      "inputs": [
        {
          "internalType": "contract Form",
          "name": "_form",
          "type": "address"
        }
      ],
      "name": "readForm",
      "outputs": [
        {
          "components": [
            {
              "internalType": "string",
              "name": "caseName",
              "type": "string"
            },
            {
              "internalType": "uint256",
              "name": "caseNumber",
              "type": "uint256"
            },
            {
              "internalType": "string",
              "name": "reasonObtained",
              "type": "string"
            },
            {
              "internalType": "uint256",
              "name": "itemNumber",
              "type": "uint256"
            },
            {
              "internalType": "string",
              "name": "evidenceTypeManufacturer",
              "type": "string"
            },
            {
              "internalType": "string",
              "name": "owner",
              "type": "string"
            },
            {
              "internalType": "string",
              "name": "contentDescription",
              "type": "string"
            },
            {
              "internalType": "uint256",
              "name": "contentOwnerContactInformation",
              "type": "uint256"
            },
            {
              "internalType": "string",
              "name": "forensicAgent",
              "type": "string"
            },
            {
              "internalType": "string",
              "name": "creationMethod",
              "type": "string"
            },
            {
              "internalType": "bytes32",
              "name": "hashValue",
              "type": "bytes32"
            },
            {
              "internalType": "uint256",
              "name": "date",
              "type": "uint256"
            },
            {
              "internalType": "uint256",
              "name": "forensicAgentContactInformation",
              "type": "uint256"
            },
            {
              "components": [
                {
                  "internalType": "uint256",
                  "name": "trackingNumber",
                  "type": "uint256"
                },
                {
                  "internalType": "uint256",
                  "name": "timestamp",
                  "type": "uint256"
                },
                {
                  "internalType": "address",
                  "name": "releasedBy",
                  "type": "address"
                },
                {
                  "internalType": "address",
                  "name": "receivedBy",
                  "type": "address"
                },
                {
                  "internalType": "string",
                  "name": "reasonForChange",
                  "type": "string"
                }
              ],
              "internalType": "struct Log[]",
              "name": "chainOfCustody",
              "type": "tuple[]"
            }
          ],
          "internalType": "struct FormData",
          "name": "",
          "type": "tuple"
        }
      ],
      "stateMutability": "view",
      "type": "function"
    },
    {
      "inputs": [
        {
          "internalType": "address",
          "name": "_caseAddress",
          "type": "address"
        }
      ],
      "name": "readFormAddress",
      "outputs": [
        {
          "components": [
            {
              "internalType": "string",
              "name": "caseName",
              "type": "string"
            },
            {
              "internalType": "uint256",
              "name": "caseNumber",
              "type": "uint256"
            },
            {
              "internalType": "string",
              "name": "reasonObtained",
              "type": "string"
            },
            {
              "internalType": "uint256",
              "name": "itemNumber",
              "type": "uint256"
            },
            {
              "internalType": "string",
              "name": "evidenceTypeManufacturer",
              "type": "string"
            },
            {
              "internalType": "string",
              "name": "owner",
              "type": "string"
            },
            {
              "internalType": "string",
              "name": "contentDescription",
              "type": "string"
            },
            {
              "internalType": "uint256",
              "name": "contentOwnerContactInformation",
              "type": "uint256"
            },
            {
              "internalType": "string",
              "name": "forensicAgent",
              "type": "string"
            },
            {
              "internalType": "string",
              "name": "creationMethod",
              "type": "string"
            },
            {
              "internalType": "bytes32",
              "name": "hashValue",
              "type": "bytes32"
            },
            {
              "internalType": "uint256",
              "name": "date",
              "type": "uint256"
            },
            {
              "internalType": "uint256",
              "name": "forensicAgentContactInformation",
              "type": "uint256"
            },
            {
              "components": [
                {
                  "internalType": "uint256",
                  "name": "trackingNumber",
                  "type": "uint256"
                },
                {
                  "internalType": "uint256",
                  "name": "timestamp",
                  "type": "uint256"
                },
                {
                  "internalType": "address",
                  "name": "releasedBy",
                  "type": "address"
                },
                {
                  "internalType": "address",
                  "name": "receivedBy",
                  "type": "address"
                },
                {
                  "internalType": "string",
                  "name": "reasonForChange",
                  "type": "string"
                }
              ],
              "internalType": "struct Log[]",
              "name": "chainOfCustody",
              "type": "tuple[]"
            }
          ],
          "internalType": "struct FormData",
          "name": "",
          "type": "tuple"
        }
      ],
      "stateMutability": "view",
      "type": "function"
    },
    {
      "inputs": [
        {
          "internalType": "address",
          "name": "_formAddress",
          "type": "address"
        },
        {
          "internalType": "string",
          "name": "_reason",
          "type": "string"
        }
      ],
      "name": "getForm",
      "outputs": [],
      "stateMutability": "nonpayable",
      "type": "function"
    },
    {
      "inputs": [
        {
          "internalType": "uint256",
          "name": "_caseNumber",
          "type": "uint256"
        }
      ],
      "name": "searchCaseNumber",
      "outputs": [
        {
          "internalType": "contract Form",
          "name": "",
          "type": "address"
        }
      ],
      "stateMutability": "nonpayable",
      "type": "function"
    }
  ],
  "bytecode": "0x608060405234801561001057600080fd5b50614347806100206000396000f3fe60806040523480156200001157600080fd5b50600436106200006a5760003560e01c8063057b0110146200006f5780634b194bf014620000a5578063737ab47f14620000db57806374de047a1462000111578063ca8e697f1462000131578063edef556a1462000167575b600080fd5b6200008d600480360381019062000087919062000f1b565b6200019d565b6040516200009c9190620012f9565b60405180910390f35b620000c36004803603810190620000bd919062001362565b620001c3565b604051620000d29190620012f9565b60405180910390f35b620000f96004803603810190620000f39190620013c5565b6200024b565b60405162000108919062001462565b60405180910390f35b6200012f6004803603810190620001299190620015d0565b62000490565b005b6200014f600480360381019062000149919062000f1b565b62000727565b6040516200015e919062001462565b60405180910390f35b6200018560048036038101906200017f919062001839565b6200078f565b604051620001949190620018e4565b60405180910390f35b620001a762000e22565b620001bc620001b68362000727565b620001c3565b9050919050565b620001cd62000e22565b8173ffffffffffffffffffffffffffffffffffffffff16635426177e6040518163ffffffff1660e01b8152600401600060405180830381865afa15801562000219573d6000803e3d6000fd5b505050506040513d6000823e3d601f19601f8201168201806040525081019062000244919062001de6565b9050919050565b600080600280549050116200025f57600080fd5b60005b6002805490508110156200044d5782620002bd600283815481106200028c576200028b62001e37565b5b9060005260206000200160009054906101000a900473ffffffffffffffffffffffffffffffffffffffff166200019d565b602001510362000437577fd7ad6d2ae4b7210969cb5bb7c047c09a12303d3a42234f49ad8d1284b83b917260028281548110620002ff57620002fe62001e37565b5b9060005260206000200160009054906101000a900473ffffffffffffffffffffffffffffffffffffffff16620003766002848154811062000345576200034462001e37565b5b9060005260206000200160009054906101000a900473ffffffffffffffffffffffffffffffffffffffff166200019d565b6040516200038692919062001e66565b60405180910390a160008060028381548110620003a857620003a762001e37565b5b9060005260206000200160009054906101000a900473ffffffffffffffffffffffffffffffffffffffff1673ffffffffffffffffffffffffffffffffffffffff1673ffffffffffffffffffffffffffffffffffffffff16815260200190815260200160002060009054906101000a900473ffffffffffffffffffffffffffffffffffffffff169150506200048b565b8080620004449062001ec9565b91505062000262565b506040517f08c379a0000000000000000000000000000000000000000000000000000000008152600401620004829062001f77565b60405180910390fd5b919050565b60006200049d8362000727565b73ffffffffffffffffffffffffffffffffffffffff1663d08145e46040518163ffffffff1660e01b8152600401600060405180830381865afa158015620004e8573d6000803e3d6000fd5b505050506040513d6000823e3d601f19601f8201168201806040525081019062000513919062001f99565b606001519050620005248362000727565b73ffffffffffffffffffffffffffffffffffffffff1663903219886040518060a001604052806001620005578862000727565b73ffffffffffffffffffffffffffffffffffffffff1663d08145e46040518163ffffffff1660e01b8152600401600060405180830381865afa158015620005a2573d6000803e3d6000fd5b505050506040513d6000823e3d601f19601f82011682018060405250810190620005cd919062001f99565b60000151620005dd919062001fea565b81526020014281526020018473ffffffffffffffffffffffffffffffffffffffff1681526020013373ffffffffffffffffffffffffffffffffffffffff168152602001858152506040518263ffffffff1660e01b8152600401620006429190620020a5565b600060405180830381600087803b1580156200065d57600080fd5b505af115801562000672573d6000803e3d6000fd5b50505050600160003373ffffffffffffffffffffffffffffffffffffffff1673ffffffffffffffffffffffffffffffffffffffff168152602001908152602001600020839080600181540180825580915050600190039060005260206000200160009091909190916101000a81548173ffffffffffffffffffffffffffffffffffffffff021916908373ffffffffffffffffffffffffffffffffffffffff16021790555062000722818462000ac9565b505050565b60008060008373ffffffffffffffffffffffffffffffffffffffff1673ffffffffffffffffffffffffffffffffffffffff16815260200190815260200160002060009054906101000a900473ffffffffffffffffffffffffffffffffffffffff169050919050565b6000806200079c62000deb565b9050848484604051620007af9062000e94565b620007bd9392919062002267565b604051809103906000f080158015620007da573d6000803e3d6000fd5b506000808373ffffffffffffffffffffffffffffffffffffffff1673ffffffffffffffffffffffffffffffffffffffff16815260200190815260200160002060006101000a81548173ffffffffffffffffffffffffffffffffffffffff021916908373ffffffffffffffffffffffffffffffffffffffff1602179055506000808273ffffffffffffffffffffffffffffffffffffffff1673ffffffffffffffffffffffffffffffffffffffff16815260200190815260200160002060009054906101000a900473ffffffffffffffffffffffffffffffffffffffff1673ffffffffffffffffffffffffffffffffffffffff1663903219886040518060a00160405280600081526020014281526020013373ffffffffffffffffffffffffffffffffffffffff1681526020013373ffffffffffffffffffffffffffffffffffffffff1681526020016040518060400160405280600c81526020017f466f726d206372656174656400000000000000000000000000000000000000008152508152506040518263ffffffff1660e01b8152600401620009789190620020a5565b600060405180830381600087803b1580156200099357600080fd5b505af1158015620009a8573d6000803e3d6000fd5b50505050600160003373ffffffffffffffffffffffffffffffffffffffff1673ffffffffffffffffffffffffffffffffffffffff168152602001908152602001600020819080600181540180825580915050600190039060005260206000200160009091909190916101000a81548173ffffffffffffffffffffffffffffffffffffffff021916908373ffffffffffffffffffffffffffffffffffffffff16021790555062000a58600a6200024b565b507fa32121da9500249d8880fce97dd8f5f3f0f54bfedc91bdb545438f69d79d89178560008151811062000a915762000a9062001e37565b5b60200260200101518262000aa5846200019d565b60405162000ab693929190620022c3565b60405180910390a1809150509392505050565b6000600160008473ffffffffffffffffffffffffffffffffffffffff1673ffffffffffffffffffffffffffffffffffffffff168152602001908152602001600020805490501162000b1957600080fd5b6000600160008473ffffffffffffffffffffffffffffffffffffffff1673ffffffffffffffffffffffffffffffffffffffff16815260200190815260200160002080549050905060005b8181101562000de5578273ffffffffffffffffffffffffffffffffffffffff16600160008673ffffffffffffffffffffffffffffffffffffffff1673ffffffffffffffffffffffffffffffffffffffff168152602001908152602001600020828154811062000bd75762000bd662001e37565b5b9060005260206000200160009054906101000a900473ffffffffffffffffffffffffffffffffffffffff1673ffffffffffffffffffffffffffffffffffffffff160362000dcf57600160008573ffffffffffffffffffffffffffffffffffffffff1673ffffffffffffffffffffffffffffffffffffffff16815260200190815260200160002060018362000c6c919062002307565b8154811062000c805762000c7f62001e37565b5b9060005260206000200160009054906101000a900473ffffffffffffffffffffffffffffffffffffffff16600160008673ffffffffffffffffffffffffffffffffffffffff1673ffffffffffffffffffffffffffffffffffffffff168152602001908152602001600020828154811062000cff5762000cfe62001e37565b5b9060005260206000200160006101000a81548173ffffffffffffffffffffffffffffffffffffffff021916908373ffffffffffffffffffffffffffffffffffffffff160217905550600160008573ffffffffffffffffffffffffffffffffffffffff1673ffffffffffffffffffffffffffffffffffffffff16815260200190815260200160002080548062000d995762000d9862002342565b5b6001900381819060005260206000200160006101000a81549073ffffffffffffffffffffffffffffffffffffffff021916905590555b808062000ddc9062001ec9565b91505062000b63565b50505050565b600042443360405160200162000e0493929190620023e6565b6040516020818303038152906040528051906020012060001c905090565b604051806101c0016040528060608152602001600081526020016060815260200160008152602001606081526020016060815260200160608152602001600081526020016060815260200160608152602001600080191681526020016000815260200160008152602001606081525090565b611ee8806200242a83390190565b6000604051905090565b600080fd5b600080fd5b600073ffffffffffffffffffffffffffffffffffffffff82169050919050565b600062000ee38262000eb6565b9050919050565b62000ef58162000ed6565b811462000f0157600080fd5b50565b60008135905062000f158162000eea565b92915050565b60006020828403121562000f345762000f3362000eac565b5b600062000f448482850162000f04565b91505092915050565b600081519050919050565b600082825260208201905092915050565b60005b8381101562000f8957808201518184015260208101905062000f6c565b60008484015250505050565b6000601f19601f8301169050919050565b600062000fb38262000f4d565b62000fbf818562000f58565b935062000fd181856020860162000f69565b62000fdc8162000f95565b840191505092915050565b6000819050919050565b62000ffc8162000fe7565b82525050565b6000819050919050565b620010178162001002565b82525050565b600081519050919050565b600082825260208201905092915050565b6000819050602082019050919050565b620010548162000ed6565b82525050565b600060a08301600083015162001074600086018262000ff1565b50602083015162001089602086018262000ff1565b5060408301516200109e604086018262001049565b506060830151620010b3606086018262001049565b5060808301518482036080860152620010cd828262000fa6565b9150508091505092915050565b6000620010e883836200105a565b905092915050565b6000602082019050919050565b60006200110a826200101d565b62001116818562001028565b9350836020820285016200112a8562001039565b8060005b858110156200116c57848403895281516200114a8582620010da565b94506200115783620010f0565b925060208a019950506001810190506200112e565b50829750879550505050505092915050565b60006101c08301600083015184820360008601526200119e828262000fa6565b9150506020830151620011b5602086018262000ff1565b5060408301518482036040860152620011cf828262000fa6565b9150506060830151620011e6606086018262000ff1565b506080830151848203608086015262001200828262000fa6565b91505060a083015184820360a08601526200121c828262000fa6565b91505060c083015184820360c086015262001238828262000fa6565b91505060e08301516200124f60e086018262000ff1565b506101008301518482036101008601526200126b828262000fa6565b91505061012083015184820361012086015262001289828262000fa6565b915050610140830151620012a26101408601826200100c565b50610160830151620012b961016086018262000ff1565b50610180830151620012d061018086018262000ff1565b506101a08301518482036101a0860152620012ec8282620010fd565b9150508091505092915050565b600060208201905081810360008301526200131581846200117e565b905092915050565b60006200132a8262000ed6565b9050919050565b6200133c816200131d565b81146200134857600080fd5b50565b6000813590506200135c8162001331565b92915050565b6000602082840312156200137b576200137a62000eac565b5b60006200138b848285016200134b565b91505092915050565b6200139f8162000fe7565b8114620013ab57600080fd5b50565b600081359050620013bf8162001394565b92915050565b600060208284031215620013de57620013dd62000eac565b5b6000620013ee84828501620013ae565b91505092915050565b6000819050919050565b6000620014226200141c620014168462000eb6565b620013f7565b62000eb6565b9050919050565b6000620014368262001401565b9050919050565b60006200144a8262001429565b9050919050565b6200145c816200143d565b82525050565b600060208201905062001479600083018462001451565b92915050565b600080fd5b600080fd5b7f4e487b7100000000000000000000000000000000000000000000000000000000600052604160045260246000fd5b620014c38262000f95565b810181811067ffffffffffffffff82111715620014e557620014e462001489565b5b80604052505050565b6000620014fa62000ea2565b9050620015088282620014b8565b919050565b600067ffffffffffffffff8211156200152b576200152a62001489565b5b620015368262000f95565b9050602081019050919050565b82818337600083830152505050565b60006200156962001563846200150d565b620014ee565b90508281526020810184848401111562001588576200158762001484565b5b6200159584828562001543565b509392505050565b600082601f830112620015b557620015b46200147f565b5b8135620015c784826020860162001552565b91505092915050565b60008060408385031215620015ea57620015e962000eac565b5b6000620015fa8582860162000f04565b925050602083013567ffffffffffffffff8111156200161e576200161d62000eb1565b5b6200162c858286016200159d565b9150509250929050565b600067ffffffffffffffff82111562001654576200165362001489565b5b602082029050602081019050919050565b600080fd5b6000620016816200167b8462001636565b620014ee565b90508083825260208201905060208402830185811115620016a757620016a662001665565b5b835b81811015620016d45780620016bf8882620013ae565b845260208401935050602081019050620016a9565b5050509392505050565b600082601f830112620016f657620016f56200147f565b5b8135620017088482602086016200166a565b91505092915050565b600067ffffffffffffffff8211156200172f576200172e62001489565b5b602082029050602081019050919050565b600062001757620017518462001711565b620014ee565b905080838252602082019050602084028301858111156200177d576200177c62001665565b5b835b81811015620017cb57803567ffffffffffffffff811115620017a657620017a56200147f565b5b808601620017b589826200159d565b855260208501945050506020810190506200177f565b5050509392505050565b600082601f830112620017ed57620017ec6200147f565b5b8135620017ff84826020860162001740565b91505092915050565b620018138162001002565b81146200181f57600080fd5b50565b600081359050620018338162001808565b92915050565b60008060006060848603121562001855576200185462000eac565b5b600084013567ffffffffffffffff81111562001876576200187562000eb1565b5b6200188486828701620016de565b935050602084013567ffffffffffffffff811115620018a857620018a762000eb1565b5b620018b686828701620017d5565b9250506040620018c98682870162001822565b9150509250925092565b620018de8162000ed6565b82525050565b6000602082019050620018fb6000830184620018d3565b92915050565b600080fd5b600080fd5b6000620019226200191c846200150d565b620014ee565b90508281526020810184848401111562001941576200194062001484565b5b6200194e84828562000f69565b509392505050565b600082601f8301126200196e576200196d6200147f565b5b8151620019808482602086016200190b565b91505092915050565b6000815190506200199a8162001394565b92915050565b600081519050620019b18162001808565b92915050565b600067ffffffffffffffff821115620019d557620019d462001489565b5b602082029050602081019050919050565b600081519050620019f78162000eea565b92915050565b600060a0828403121562001a165762001a1562001901565b5b62001a2260a0620014ee565b9050600062001a348482850162001989565b600083015250602062001a4a8482850162001989565b602083015250604062001a6084828501620019e6565b604083015250606062001a7684828501620019e6565b606083015250608082015167ffffffffffffffff81111562001a9d5762001a9c62001906565b5b62001aab8482850162001956565b60808301525092915050565b600062001ace62001ac884620019b7565b620014ee565b9050808382526020820190506020840283018581111562001af45762001af362001665565b5b835b8181101562001b4257805167ffffffffffffffff81111562001b1d5762001b1c6200147f565b5b80860162001b2c8982620019fd565b8552602085019450505060208101905062001af6565b5050509392505050565b600082601f83011262001b645762001b636200147f565b5b815162001b7684826020860162001ab7565b91505092915050565b60006101c0828403121562001b995762001b9862001901565b5b62001ba66101c0620014ee565b9050600082015167ffffffffffffffff81111562001bc95762001bc862001906565b5b62001bd78482850162001956565b600083015250602062001bed8482850162001989565b602083015250604082015167ffffffffffffffff81111562001c145762001c1362001906565b5b62001c228482850162001956565b604083015250606062001c388482850162001989565b606083015250608082015167ffffffffffffffff81111562001c5f5762001c5e62001906565b5b62001c6d8482850162001956565b60808301525060a082015167ffffffffffffffff81111562001c945762001c9362001906565b5b62001ca28482850162001956565b60a08301525060c082015167ffffffffffffffff81111562001cc95762001cc862001906565b5b62001cd78482850162001956565b60c08301525060e062001ced8482850162001989565b60e08301525061010082015167ffffffffffffffff81111562001d155762001d1462001906565b5b62001d238482850162001956565b6101008301525061012082015167ffffffffffffffff81111562001d4c5762001d4b62001906565b5b62001d5a8482850162001956565b6101208301525061014062001d7284828501620019a0565b6101408301525061016062001d8a8482850162001989565b6101608301525061018062001da28482850162001989565b610180830152506101a082015167ffffffffffffffff81111562001dcb5762001dca62001906565b5b62001dd98482850162001b4c565b6101a08301525092915050565b60006020828403121562001dff5762001dfe62000eac565b5b600082015167ffffffffffffffff81111562001e205762001e1f62000eb1565b5b62001e2e8482850162001b7f565b91505092915050565b7f4e487b7100000000000000000000000000000000000000000000000000000000600052603260045260246000fd5b600060408201905062001e7d6000830185620018d3565b818103602083015262001e9181846200117e565b90509392505050565b7f4e487b7100000000000000000000000000000000000000000000000000000000600052601160045260246000fd5b600062001ed68262000fe7565b91507fffffffffffffffffffffffffffffffffffffffffffffffffffffffffffffffff820362001f0b5762001f0a62001e9a565b5b600182019050919050565b600082825260208201905092915050565b7f4e6f6e206578697374656e740000000000000000000000000000000000000000600082015250565b600062001f5f600c8362001f16565b915062001f6c8262001f27565b602082019050919050565b6000602082019050818103600083015262001f928162001f50565b9050919050565b60006020828403121562001fb25762001fb162000eac565b5b600082015167ffffffffffffffff81111562001fd35762001fd262000eb1565b5b62001fe184828501620019fd565b91505092915050565b600062001ff78262000fe7565b9150620020048362000fe7565b92508282019050808211156200201f576200201e62001e9a565b5b92915050565b600060a0830160008301516200203f600086018262000ff1565b50602083015162002054602086018262000ff1565b50604083015162002069604086018262001049565b5060608301516200207e606086018262001049565b506080830151848203608086015262002098828262000fa6565b9150508091505092915050565b60006020820190508181036000830152620020c1818462002025565b905092915050565b600081519050919050565b600082825260208201905092915050565b6000819050602082019050919050565b600062002103838362000ff1565b60208301905092915050565b6000602082019050919050565b60006200212982620020c9565b620021358185620020d4565b93506200214283620020e5565b8060005b83811015620021795781516200215d8882620020f5565b97506200216a836200210f565b92505060018101905062002146565b5085935050505092915050565b600081519050919050565b600082825260208201905092915050565b6000819050602082019050919050565b6000620021c0838362000fa6565b905092915050565b6000602082019050919050565b6000620021e28262002186565b620021ee818562002191565b9350836020820285016200220285620021a2565b8060005b85811015620022445784840389528151620022228582620021b2565b94506200222f83620021c8565b925060208a0199505060018101905062002206565b50829750879550505050505092915050565b620022618162001002565b82525050565b600060608201905081810360008301526200228381866200211c565b90508181036020830152620022998185620021d5565b9050620022aa604083018462002256565b949350505050565b620022bd8162000fe7565b82525050565b6000606082019050620022da6000830186620022b2565b620022e96020830185620018d3565b8181036040830152620022fd81846200117e565b9050949350505050565b6000620023148262000fe7565b9150620023218362000fe7565b92508282039050818111156200233c576200233b62001e9a565b5b92915050565b7f4e487b7100000000000000000000000000000000000000000000000000000000600052603160045260246000fd5b6000819050919050565b620023906200238a8262000fe7565b62002371565b82525050565b60008160601b9050919050565b6000620023b08262002396565b9050919050565b6000620023c482620023a3565b9050919050565b620023e0620023da8262000ed6565b620023b7565b82525050565b6000620023f482866200237b565b6020820191506200240682856200237b565b602082019150620024188284620023cb565b60148201915081905094935050505056fe60806040523480156200001157600080fd5b5060405162001ee838038062001ee8833981810160405281019062000037919062000651565b816000815181106200004e576200004d620006eb565b5b60200260200101516000800190816200006891906200095b565b508160018151811062000080576200007f620006eb565b5b6020026020010151600060020190816200009b91906200095b565b5081600281518110620000b357620000b2620006eb565b5b602002602001015160006004019081620000ce91906200095b565b5081600381518110620000e657620000e5620006eb565b5b6020026020010151600060050190816200010191906200095b565b5081600481518110620001195762000118620006eb565b5b6020026020010151600060060190816200013491906200095b565b50816005815181106200014c576200014b620006eb565b5b6020026020010151600060080190816200016791906200095b565b50816006815181106200017f576200017e620006eb565b5b6020026020010151600060090190816200019a91906200095b565b5082600081518110620001b257620001b1620006eb565b5b602002602001015160006001018190555082600181518110620001da57620001d9620006eb565b5b602002602001015160006003018190555082600281518110620002025762000201620006eb565b5b6020026020010151600060070181905550826003815181106200022a5762000229620006eb565b5b60200260200101516000600b018190555082600481518110620002525762000251620006eb565b5b60200260200101516000600c0181905550806000600a018190555050505062000a42565b6000604051905090565b600080fd5b600080fd5b600080fd5b6000601f19601f8301169050919050565b7f4e487b7100000000000000000000000000000000000000000000000000000000600052604160045260246000fd5b620002da826200028f565b810181811067ffffffffffffffff82111715620002fc57620002fb620002a0565b5b80604052505050565b60006200031162000276565b90506200031f8282620002cf565b919050565b600067ffffffffffffffff821115620003425762000341620002a0565b5b602082029050602081019050919050565b600080fd5b6000819050919050565b6200036d8162000358565b81146200037957600080fd5b50565b6000815190506200038d8162000362565b92915050565b6000620003aa620003a48462000324565b62000305565b90508083825260208201905060208402830185811115620003d057620003cf62000353565b5b835b81811015620003fd5780620003e888826200037c565b845260208401935050602081019050620003d2565b5050509392505050565b600082601f8301126200041f576200041e6200028a565b5b81516200043184826020860162000393565b91505092915050565b600067ffffffffffffffff821115620004585762000457620002a0565b5b602082029050602081019050919050565b600080fd5b600067ffffffffffffffff8211156200048c576200048b620002a0565b5b62000497826200028f565b9050602081019050919050565b60005b83811015620004c4578082015181840152602081019050620004a7565b60008484015250505050565b6000620004e7620004e1846200046e565b62000305565b90508281526020810184848401111562000506576200050562000469565b5b62000513848285620004a4565b509392505050565b600082601f8301126200053357620005326200028a565b5b815162000545848260208601620004d0565b91505092915050565b6000620005656200055f846200043a565b62000305565b905080838252602082019050602084028301858111156200058b576200058a62000353565b5b835b81811015620005d957805167ffffffffffffffff811115620005b457620005b36200028a565b5b808601620005c389826200051b565b855260208501945050506020810190506200058d565b5050509392505050565b600082601f830112620005fb57620005fa6200028a565b5b81516200060d8482602086016200054e565b91505092915050565b6000819050919050565b6200062b8162000616565b81146200063757600080fd5b50565b6000815190506200064b8162000620565b92915050565b6000806000606084860312156200066d576200066c62000280565b5b600084015167ffffffffffffffff8111156200068e576200068d62000285565b5b6200069c8682870162000407565b935050602084015167ffffffffffffffff811115620006c057620006bf62000285565b5b620006ce86828701620005e3565b9250506040620006e1868287016200063a565b9150509250925092565b7f4e487b7100000000000000000000000000000000000000000000000000000000600052603260045260246000fd5b600081519050919050565b7f4e487b7100000000000000000000000000000000000000000000000000000000600052602260045260246000fd5b600060028204905060018216806200076d57607f821691505b60208210810362000783576200078262000725565b5b50919050565b60008190508160005260206000209050919050565b60006020601f8301049050919050565b600082821b905092915050565b600060088302620007ed7fffffffffffffffffffffffffffffffffffffffffffffffffffffffffffffffff82620007ae565b620007f98683620007ae565b95508019841693508086168417925050509392505050565b6000819050919050565b60006200083c62000836620008308462000358565b62000811565b62000358565b9050919050565b6000819050919050565b62000858836200081b565b62000870620008678262000843565b848454620007bb565b825550505050565b600090565b6200088762000878565b620008948184846200084d565b505050565b5b81811015620008bc57620008b06000826200087d565b6001810190506200089a565b5050565b601f8211156200090b57620008d58162000789565b620008e0846200079e565b81016020851015620008f0578190505b62000908620008ff856200079e565b83018262000899565b50505b505050565b600082821c905092915050565b6000620009306000198460080262000910565b1980831691505092915050565b60006200094b83836200091d565b9150826002028217905092915050565b62000966826200071a565b67ffffffffffffffff811115620009825762000981620002a0565b5b6200098e825462000754565b6200099b828285620008c0565b600060209050601f831160018114620009d35760008415620009be578287015190505b620009ca85826200093d565b86555062000a3a565b601f198416620009e38662000789565b60005b8281101562000a0d57848901518255600182019150602085019450602081019050620009e6565b8683101562000a2d578489015162000a29601f8916826200091d565b8355505b6001600288020188555050505b505050505050565b6114968062000a526000396000f3fe608060405234801561001057600080fd5b50600436106100415760003560e01c80635426177e146100465780639032198814610064578063d08145e414610080575b600080fd5b61004e61009e565b60405161005b9190610d9a565b60405180910390f35b61007e6004803603810190610079919061100f565b6106a4565b005b610088610790565b60405161009591906110ce565b60405180910390f35b6100a6610933565b6000604051806101c00160405290816000820180546100c49061111f565b80601f01602080910402602001604051908101604052809291908181526020018280546100f09061111f565b801561013d5780601f106101125761010080835404028352916020019161013d565b820191906000526020600020905b81548152906001019060200180831161012057829003601f168201915b50505050508152602001600182015481526020016002820180546101609061111f565b80601f016020809104026020016040519081016040528092919081815260200182805461018c9061111f565b80156101d95780601f106101ae576101008083540402835291602001916101d9565b820191906000526020600020905b8154815290600101906020018083116101bc57829003601f168201915b50505050508152602001600382015481526020016004820180546101fc9061111f565b80601f01602080910402602001604051908101604052809291908181526020018280546102289061111f565b80156102755780601f1061024a57610100808354040283529160200191610275565b820191906000526020600020905b81548152906001019060200180831161025857829003601f168201915b5050505050815260200160058201805461028e9061111f565b80601f01602080910402602001604051908101604052809291908181526020018280546102ba9061111f565b80156103075780601f106102dc57610100808354040283529160200191610307565b820191906000526020600020905b8154815290600101906020018083116102ea57829003601f168201915b505050505081526020016006820180546103209061111f565b80601f016020809104026020016040519081016040528092919081815260200182805461034c9061111f565b80156103995780601f1061036e57610100808354040283529160200191610399565b820191906000526020600020905b81548152906001019060200180831161037c57829003601f168201915b50505050508152602001600782015481526020016008820180546103bc9061111f565b80601f01602080910402602001604051908101604052809291908181526020018280546103e89061111f565b80156104355780601f1061040a57610100808354040283529160200191610435565b820191906000526020600020905b81548152906001019060200180831161041857829003601f168201915b5050505050815260200160098201805461044e9061111f565b80601f016020809104026020016040519081016040528092919081815260200182805461047a9061111f565b80156104c75780601f1061049c576101008083540402835291602001916104c7565b820191906000526020600020905b8154815290600101906020018083116104aa57829003601f168201915b50505050508152602001600a8201548152602001600b8201548152602001600c8201548152602001600d8201805480602002602001604051908101604052809291908181526020016000905b8282101561069757838290600052602060002090600502016040518060a001604052908160008201548152602001600182015481526020016002820160009054906101000a900473ffffffffffffffffffffffffffffffffffffffff1673ffffffffffffffffffffffffffffffffffffffff1673ffffffffffffffffffffffffffffffffffffffff1681526020016003820160009054906101000a900473ffffffffffffffffffffffffffffffffffffffff1673ffffffffffffffffffffffffffffffffffffffff1673ffffffffffffffffffffffffffffffffffffffff1681526020016004820180546106069061111f565b80601f01602080910402602001604051908101604052809291908181526020018280546106329061111f565b801561067f5780601f106106545761010080835404028352916020019161067f565b820191906000526020600020905b81548152906001019060200180831161066257829003601f168201915b50505050508152505081526020019060010190610513565b5050505081525050905090565b6000600d01819080600181540180825580915050600190039060005260206000209060050201600090919091909150600082015181600001556020820151816001015560408201518160020160006101000a81548173ffffffffffffffffffffffffffffffffffffffff021916908373ffffffffffffffffffffffffffffffffffffffff16021790555060608201518160030160006101000a81548173ffffffffffffffffffffffffffffffffffffffff021916908373ffffffffffffffffffffffffffffffffffffffff160217905550608082015181600401908161078a91906112fc565b50505050565b6107986109a5565b6000600d0160016000600d01805490506107b291906113fd565b815481106107c3576107c2611431565b5b90600052602060002090600502016040518060a001604052908160008201548152602001600182015481526020016002820160009054906101000a900473ffffffffffffffffffffffffffffffffffffffff1673ffffffffffffffffffffffffffffffffffffffff1673ffffffffffffffffffffffffffffffffffffffff1681526020016003820160009054906101000a900473ffffffffffffffffffffffffffffffffffffffff1673ffffffffffffffffffffffffffffffffffffffff1673ffffffffffffffffffffffffffffffffffffffff1681526020016004820180546108ac9061111f565b80601f01602080910402602001604051908101604052809291908181526020018280546108d89061111f565b80156109255780601f106108fa57610100808354040283529160200191610925565b820191906000526020600020905b81548152906001019060200180831161090857829003601f168201915b505050505081525050905090565b604051806101c0016040528060608152602001600081526020016060815260200160008152602001606081526020016060815260200160608152602001600081526020016060815260200160608152602001600080191681526020016000815260200160008152602001606081525090565b6040518060a001604052806000815260200160008152602001600073ffffffffffffffffffffffffffffffffffffffff168152602001600073ffffffffffffffffffffffffffffffffffffffff168152602001606081525090565b600081519050919050565b600082825260208201905092915050565b60005b83811015610a3a578082015181840152602081019050610a1f565b60008484015250505050565b6000601f19601f8301169050919050565b6000610a6282610a00565b610a6c8185610a0b565b9350610a7c818560208601610a1c565b610a8581610a46565b840191505092915050565b6000819050919050565b610aa381610a90565b82525050565b6000819050919050565b610abc81610aa9565b82525050565b600081519050919050565b600082825260208201905092915050565b6000819050602082019050919050565b600073ffffffffffffffffffffffffffffffffffffffff82169050919050565b6000610b1982610aee565b9050919050565b610b2981610b0e565b82525050565b600060a083016000830151610b476000860182610a9a565b506020830151610b5a6020860182610a9a565b506040830151610b6d6040860182610b20565b506060830151610b806060860182610b20565b5060808301518482036080860152610b988282610a57565b9150508091505092915050565b6000610bb18383610b2f565b905092915050565b6000602082019050919050565b6000610bd182610ac2565b610bdb8185610acd565b935083602082028501610bed85610ade565b8060005b85811015610c295784840389528151610c0a8582610ba5565b9450610c1583610bb9565b925060208a01995050600181019050610bf1565b50829750879550505050505092915050565b60006101c0830160008301518482036000860152610c598282610a57565b9150506020830151610c6e6020860182610a9a565b5060408301518482036040860152610c868282610a57565b9150506060830151610c9b6060860182610a9a565b5060808301518482036080860152610cb38282610a57565b91505060a083015184820360a0860152610ccd8282610a57565b91505060c083015184820360c0860152610ce78282610a57565b91505060e0830151610cfc60e0860182610a9a565b50610100830151848203610100860152610d168282610a57565b915050610120830151848203610120860152610d328282610a57565b915050610140830151610d49610140860182610ab3565b50610160830151610d5e610160860182610a9a565b50610180830151610d73610180860182610a9a565b506101a08301518482036101a0860152610d8d8282610bc6565b9150508091505092915050565b60006020820190508181036000830152610db48184610c3b565b905092915050565b6000604051905090565b600080fd5b600080fd5b600080fd5b7f4e487b7100000000000000000000000000000000000000000000000000000000600052604160045260246000fd5b610e0d82610a46565b810181811067ffffffffffffffff82111715610e2c57610e2b610dd5565b5b80604052505050565b6000610e3f610dbc565b9050610e4b8282610e04565b919050565b600080fd5b610e5e81610a90565b8114610e6957600080fd5b50565b600081359050610e7b81610e55565b92915050565b610e8a81610b0e565b8114610e9557600080fd5b50565b600081359050610ea781610e81565b92915050565b600080fd5b600080fd5b600067ffffffffffffffff821115610ed257610ed1610dd5565b5b610edb82610a46565b9050602081019050919050565b82818337600083830152505050565b6000610f0a610f0584610eb7565b610e35565b905082815260208101848484011115610f2657610f25610eb2565b5b610f31848285610ee8565b509392505050565b600082601f830112610f4e57610f4d610ead565b5b8135610f5e848260208601610ef7565b91505092915050565b600060a08284031215610f7d57610f7c610dd0565b5b610f8760a0610e35565b90506000610f9784828501610e6c565b6000830152506020610fab84828501610e6c565b6020830152506040610fbf84828501610e98565b6040830152506060610fd384828501610e98565b606083015250608082013567ffffffffffffffff811115610ff757610ff6610e50565b5b61100384828501610f39565b60808301525092915050565b60006020828403121561102557611024610dc6565b5b600082013567ffffffffffffffff81111561104357611042610dcb565b5b61104f84828501610f67565b91505092915050565b600060a0830160008301516110706000860182610a9a565b5060208301516110836020860182610a9a565b5060408301516110966040860182610b20565b5060608301516110a96060860182610b20565b50608083015184820360808601526110c18282610a57565b9150508091505092915050565b600060208201905081810360008301526110e88184611058565b905092915050565b7f4e487b7100000000000000000000000000000000000000000000000000000000600052602260045260246000fd5b6000600282049050600182168061113757607f821691505b60208210810361114a576111496110f0565b5b50919050565b60008190508160005260206000209050919050565b60006020601f8301049050919050565b600082821b905092915050565b6000600883026111b27fffffffffffffffffffffffffffffffffffffffffffffffffffffffffffffffff82611175565b6111bc8683611175565b95508019841693508086168417925050509392505050565b6000819050919050565b60006111f96111f46111ef84610a90565b6111d4565b610a90565b9050919050565b6000819050919050565b611213836111de565b61122761121f82611200565b848454611182565b825550505050565b600090565b61123c61122f565b61124781848461120a565b505050565b5b8181101561126b57611260600082611234565b60018101905061124d565b5050565b601f8211156112b05761128181611150565b61128a84611165565b81016020851015611299578190505b6112ad6112a585611165565b83018261124c565b50505b505050565b600082821c905092915050565b60006112d3600019846008026112b5565b1980831691505092915050565b60006112ec83836112c2565b9150826002028217905092915050565b61130582610a00565b67ffffffffffffffff81111561131e5761131d610dd5565b5b611328825461111f565b61133382828561126f565b600060209050601f8311600181146113665760008415611354578287015190505b61135e85826112e0565b8655506113c6565b601f19841661137486611150565b60005b8281101561139c57848901518255600182019150602085019450602081019050611377565b868310156113b957848901516113b5601f8916826112c2565b8355505b6001600288020188555050505b505050505050565b7f4e487b7100000000000000000000000000000000000000000000000000000000600052601160045260246000fd5b600061140882610a90565b915061141383610a90565b925082820390508181111561142b5761142a6113ce565b5b92915050565b7f4e487b7100000000000000000000000000000000000000000000000000000000600052603260045260246000fdfea2646970667358221220cba95c923d1b14f6f4b05485f90596165816def8e716009d533ca46f0df9da4e64736f6c63430008120033a26469706673582212207b2443876dc239163695563a517ad1781c6fb7888b95f4a5f30c86ebc8c4b3ae64736f6c63430008120033",
  "immutableReferences": {},
  "source": "// SPDX-License-Identifier: MIT\r\n\r\npragma solidity ^0.8.17;\r\n\r\nimport \"./form.sol\";\r\n\r\n// This is a special contract that generates Form contracts, that have their own methods to generate and update their\r\n// attributes, while keeping track of all the forms in the blockchain.\r\n\r\ncontract FormFactory {\r\n    // Events are a way for contract to communicate that something happened on the blockchain to your app front-end,\r\n    // which can be 'listening' for certain events and take action when they happen.\r\n\r\n    // newForm: Event to be emitted when a new form is created.\r\n    // NOTE: If more fields are needed, change the emit in createForm.\r\n    event newForm(uint caseNumber, address caseAddress, FormData data);\r\n    event formFound(address caseAddress, FormData data);\r\n\r\n\r\n    // Mapping to store the forms for the evidence of the cases.\r\n    mapping(address => Form) private addressToForm;\r\n    // Mapping to store the addresses of the forms currently in charge of every user.\r\n    mapping(address => address[]) private userToFormAddresses;\r\n    // Array to store the addresses of the forms for the evidence of the cases.\r\n    address[] private listFormAddress; // TODO: private?\r\n\r\n    /**\r\n    *   @dev Function to create a new form for the evidence of the case.\r\n    *\r\n    *   @param _numbers All numerical information in the form\r\n    *   @param _strings All textual information in the form\r\n    *   @param _hashValue Hash value of the evidence\r\n    */\r\n    function createForm(uint[] memory _numbers, string[] memory _strings, bytes32 _hashValue) public returns (address) {\r\n        // Generation of new address for the form.\r\n        address entityAddress = createAddress();\r\n        // Creation of the new Form directly in the mapping object\r\n        addressToForm[entityAddress] = new Form(_numbers, _strings, _hashValue);\r\n        addressToForm[entityAddress].pushLog(Log(0, block.timestamp, msg.sender, msg.sender, \"Form created\"));\r\n        userToFormAddresses[msg.sender].push(entityAddress);\r\n        searchCaseNumber(uint(10));\r\n        // Emit the event newForm.\r\n        emit newForm(_numbers[0], entityAddress, readFormAddress(entityAddress));\r\n        return entityAddress;\r\n    }\r\n\r\n    /**\r\n    *   @dev Function to get a form from its address.\r\n    *\r\n    *   @param _caseAddress address of the case\r\n    *\r\n    *   @return Form form required\r\n    */\r\n    function findForm(address _caseAddress) public view returns (Form) {\r\n        return addressToForm[_caseAddress];\r\n    }\r\n\r\n    /**\r\n    *   @dev Function to get form data from itself.\r\n    *\r\n    *   @param _form form which data is required\r\n    *\r\n    *   @return FormData Struct that contains the data of the form\r\n    */\r\n    function readForm(Form _form) public view returns (FormData memory) {\r\n        return _form.readForm();\r\n    }\r\n\r\n    /**\r\n    *   @dev Function to get form data from an address.\r\n    *\r\n    *   @param _caseAddress address of the case\r\n    *\r\n    *   @return FormData Struct that contains the data of the form required\r\n    */\r\n    function readFormAddress(address _caseAddress) public view returns (FormData memory) {\r\n        return readForm(findForm(_caseAddress));\r\n    }\r\n\r\n    /**\r\n    *   @dev Function that compute a random address.\r\n    *\r\n    *   @return address randomly generated\r\n    */\r\n    function createAddress() private view returns (address) {\r\n        return address(uint160(uint(keccak256(abi.encodePacked(block.timestamp, block.prevrandao, msg.sender)))));\r\n    }\r\n\r\n    /**\r\n    *   @dev Function that returns the forms in charge of an user.\r\n    *\r\n    *   @return address array with addresses of forms in charge of an user\r\n    */\r\n    function getUserFormAddresses(address _userAddress) private view returns (address[] memory) {\r\n        return userToFormAddresses[_userAddress];\r\n    }\r\n\r\n    function getForm(address _formAddress, string memory _reason) public {\r\n        address previousUser = findForm(_formAddress).lastLog().receivedBy;\r\n\r\n        findForm(_formAddress).pushLog(Log(\r\n                findForm(_formAddress).lastLog().trackingNumber + 1,\r\n                block.timestamp,\r\n                previousUser,\r\n                msg.sender,\r\n                _reason)\r\n        );\r\n        userToFormAddresses[msg.sender].push(_formAddress);\r\n        removeAddressInAUserList(previousUser, _formAddress);\r\n    }\r\n\r\n    /**\r\n    *   @dev Function that search for a form with a certain case number.\r\n    *\r\n    *   @param _caseNumber number of the case\r\n    *\r\n    *   @return Form requested\r\n    */\r\n    function searchCaseNumber(uint _caseNumber) public returns (Form) {\r\n        require(listFormAddress.length > 0);\r\n        for (uint i = 0; i < listFormAddress.length; i++) {\r\n            if (readFormAddress(listFormAddress[i]).caseNumber == _caseNumber) {\r\n                emit formFound(listFormAddress[i], readFormAddress(listFormAddress[i]));\r\n                return addressToForm[listFormAddress[i]];\r\n            }\r\n        }\r\n        revert(\"Non existent\");\r\n    }\r\n\r\n    /**\r\n    *   @dev Function that removes a certain address of a certain user.\r\n    *\r\n    *   @param _userAddress address of the user we want to take the evidence from\r\n    *\r\n    *   @param _formAddress address of the form we want to remove from _userAddress\r\n    */\r\n    function removeAddressInAUserList(address _userAddress, address _formAddress) private {\r\n        require(userToFormAddresses[_userAddress].length > 0);\r\n\r\n        uint userAddressesLength = userToFormAddresses[_userAddress].length;\r\n\r\n        for (uint i = 0; i < userAddressesLength; i++) {// look into the addresses linked to _userAddress\r\n            if (userToFormAddresses[_userAddress][i] == _formAddress) {\r\n                // copy the last element in the index we want to remove\r\n                userToFormAddresses[_userAddress][i] = userToFormAddresses[_userAddress][userAddressesLength - 1];\r\n                userToFormAddresses[_userAddress].pop();  // remove the last element\r\n            }\r\n        }\r\n    }\r\n}",
  "sourcePath": "C:\\Users\\alegt\\IdeaProjects\\BlueWoodchuck\\project\\blockchain\\contracts\\contracts\\formFactory.sol",
  "compiler": {
    "name": "solc",
    "version": "0.8.18+commit.87f61d96.Emscripten.clang"
  },
  "schemaVersion": "3.4.11",
  "updatedAt": "2023-02-08T10:18:12.523Z",
  "devdoc": {
    "kind": "dev",
    "methods": {
      "createForm(uint256[],string[],bytes32)": {
        "details": "Function to create a new form for the evidence of the case.",
        "params": {
          "_hashValue": "Hash value of the evidence",
          "_numbers": "All numerical information in the form",
          "_strings": "All textual information in the form"
        }
      },
      "findForm(address)": {
        "details": "Function to get a form from its address.",
        "params": {
          "_caseAddress": "address of the case"
        },
        "returns": {
          "_0": "Form form required"
        }
      },
      "readForm(address)": {
        "details": "Function to get form data from itself.",
        "params": {
          "_form": "form which data is required"
        },
        "returns": {
          "_0": "FormData Struct that contains the data of the form"
        }
      },
      "readFormAddress(address)": {
        "details": "Function to get form data from an address.",
        "params": {
          "_caseAddress": "address of the case"
        },
        "returns": {
          "_0": "FormData Struct that contains the data of the form required"
        }
      },
      "searchCaseNumber(uint256)": {
        "details": "Function that search for a form with a certain case number.",
        "params": {
          "_caseNumber": "number of the case"
        },
        "returns": {
          "_0": "Form requested"
        }
      }
    },
    "version": 1
  },
  "userdoc": {
    "kind": "user",
    "methods": {},
    "version": 1
  }
}