{
  "contractName": "FormFactory",
  "abi": [
    {
      "anonymous": false,
      "inputs": [
        {
          "indexed": false,
          "internalType": "address",
          "name": "caseAddress",
          "type": "address"
        },
        {
          "components": [
            {
              "internalType": "string",
              "name": "caseName",
              "type": "string"
            },
            {
              "internalType": "uint256",
              "name": "caseNumber",
              "type": "uint256"
            },
            {
              "internalType": "string",
              "name": "reasonObtained",
              "type": "string"
            },
            {
              "internalType": "uint256",
              "name": "itemNumber",
              "type": "uint256"
            },
            {
              "internalType": "string",
              "name": "evidenceTypeManufacturer",
              "type": "string"
            },
            {
              "internalType": "string",
              "name": "owner",
              "type": "string"
            },
            {
              "internalType": "string",
              "name": "contentDescription",
              "type": "string"
            },
            {
              "internalType": "uint256",
              "name": "contentOwnerContactInformation",
              "type": "uint256"
            },
            {
              "internalType": "string",
              "name": "forensicAgent",
              "type": "string"
            },
            {
              "internalType": "string",
              "name": "creationMethod",
              "type": "string"
            },
            {
              "internalType": "bytes32",
              "name": "hashValue",
              "type": "bytes32"
            },
            {
              "internalType": "uint256",
              "name": "date",
              "type": "uint256"
            },
            {
              "internalType": "uint256",
              "name": "forensicAgentContactInformation",
              "type": "uint256"
            },
            {
              "components": [
                {
                  "internalType": "uint256",
                  "name": "trackingNumber",
                  "type": "uint256"
                },
                {
                  "internalType": "uint256",
                  "name": "timestamp",
                  "type": "uint256"
                },
                {
                  "internalType": "address",
                  "name": "releasedBy",
                  "type": "address"
                },
                {
                  "internalType": "address",
                  "name": "receivedBy",
                  "type": "address"
                },
                {
                  "internalType": "string",
                  "name": "reasonForChange",
                  "type": "string"
                }
              ],
              "internalType": "struct Log[]",
              "name": "chainOfCustody",
              "type": "tuple[]"
            }
          ],
          "indexed": false,
          "internalType": "struct FormData",
          "name": "data",
          "type": "tuple"
        }
      ],
      "name": "formFound",
      "type": "event"
    },
    {
      "anonymous": false,
      "inputs": [
        {
          "indexed": false,
          "internalType": "uint256",
          "name": "caseNumber",
          "type": "uint256"
        },
        {
          "indexed": false,
          "internalType": "address",
          "name": "caseAddress",
          "type": "address"
        },
        {
          "components": [
            {
              "internalType": "string",
              "name": "caseName",
              "type": "string"
            },
            {
              "internalType": "uint256",
              "name": "caseNumber",
              "type": "uint256"
            },
            {
              "internalType": "string",
              "name": "reasonObtained",
              "type": "string"
            },
            {
              "internalType": "uint256",
              "name": "itemNumber",
              "type": "uint256"
            },
            {
              "internalType": "string",
              "name": "evidenceTypeManufacturer",
              "type": "string"
            },
            {
              "internalType": "string",
              "name": "owner",
              "type": "string"
            },
            {
              "internalType": "string",
              "name": "contentDescription",
              "type": "string"
            },
            {
              "internalType": "uint256",
              "name": "contentOwnerContactInformation",
              "type": "uint256"
            },
            {
              "internalType": "string",
              "name": "forensicAgent",
              "type": "string"
            },
            {
              "internalType": "string",
              "name": "creationMethod",
              "type": "string"
            },
            {
              "internalType": "bytes32",
              "name": "hashValue",
              "type": "bytes32"
            },
            {
              "internalType": "uint256",
              "name": "date",
              "type": "uint256"
            },
            {
              "internalType": "uint256",
              "name": "forensicAgentContactInformation",
              "type": "uint256"
            },
            {
              "components": [
                {
                  "internalType": "uint256",
                  "name": "trackingNumber",
                  "type": "uint256"
                },
                {
                  "internalType": "uint256",
                  "name": "timestamp",
                  "type": "uint256"
                },
                {
                  "internalType": "address",
                  "name": "releasedBy",
                  "type": "address"
                },
                {
                  "internalType": "address",
                  "name": "receivedBy",
                  "type": "address"
                },
                {
                  "internalType": "string",
                  "name": "reasonForChange",
                  "type": "string"
                }
              ],
              "internalType": "struct Log[]",
              "name": "chainOfCustody",
              "type": "tuple[]"
            }
          ],
          "indexed": false,
          "internalType": "struct FormData",
          "name": "data",
          "type": "tuple"
        }
      ],
      "name": "newForm",
      "type": "event"
    },
    {
      "inputs": [
        {
          "internalType": "uint256[]",
          "name": "_numbers",
          "type": "uint256[]"
        },
        {
          "internalType": "string[]",
          "name": "_strings",
          "type": "string[]"
        },
        {
          "internalType": "bytes32",
          "name": "_hashValue",
          "type": "bytes32"
        }
      ],
      "name": "createForm",
      "outputs": [
        {
          "internalType": "address",
          "name": "",
          "type": "address"
        }
      ],
      "stateMutability": "nonpayable",
      "type": "function"
    },
    {
      "inputs": [
        {
          "internalType": "address",
          "name": "_caseAddress",
          "type": "address"
        }
      ],
      "name": "findForm",
      "outputs": [
        {
          "internalType": "contract Form",
          "name": "",
          "type": "address"
        }
      ],
      "stateMutability": "view",
      "type": "function",
      "constant": true
    },
    {
      "inputs": [
        {
          "internalType": "contract Form",
          "name": "_form",
          "type": "address"
        }
      ],
      "name": "readForm",
      "outputs": [
        {
          "components": [
            {
              "internalType": "string",
              "name": "caseName",
              "type": "string"
            },
            {
              "internalType": "uint256",
              "name": "caseNumber",
              "type": "uint256"
            },
            {
              "internalType": "string",
              "name": "reasonObtained",
              "type": "string"
            },
            {
              "internalType": "uint256",
              "name": "itemNumber",
              "type": "uint256"
            },
            {
              "internalType": "string",
              "name": "evidenceTypeManufacturer",
              "type": "string"
            },
            {
              "internalType": "string",
              "name": "owner",
              "type": "string"
            },
            {
              "internalType": "string",
              "name": "contentDescription",
              "type": "string"
            },
            {
              "internalType": "uint256",
              "name": "contentOwnerContactInformation",
              "type": "uint256"
            },
            {
              "internalType": "string",
              "name": "forensicAgent",
              "type": "string"
            },
            {
              "internalType": "string",
              "name": "creationMethod",
              "type": "string"
            },
            {
              "internalType": "bytes32",
              "name": "hashValue",
              "type": "bytes32"
            },
            {
              "internalType": "uint256",
              "name": "date",
              "type": "uint256"
            },
            {
              "internalType": "uint256",
              "name": "forensicAgentContactInformation",
              "type": "uint256"
            },
            {
              "components": [
                {
                  "internalType": "uint256",
                  "name": "trackingNumber",
                  "type": "uint256"
                },
                {
                  "internalType": "uint256",
                  "name": "timestamp",
                  "type": "uint256"
                },
                {
                  "internalType": "address",
                  "name": "releasedBy",
                  "type": "address"
                },
                {
                  "internalType": "address",
                  "name": "receivedBy",
                  "type": "address"
                },
                {
                  "internalType": "string",
                  "name": "reasonForChange",
                  "type": "string"
                }
              ],
              "internalType": "struct Log[]",
              "name": "chainOfCustody",
              "type": "tuple[]"
            }
          ],
          "internalType": "struct FormData",
          "name": "",
          "type": "tuple"
        }
      ],
      "stateMutability": "view",
      "type": "function",
      "constant": true
    },
    {
      "inputs": [
        {
          "internalType": "address",
          "name": "_caseAddress",
          "type": "address"
        }
      ],
      "name": "readFormAddress",
      "outputs": [
        {
          "components": [
            {
              "internalType": "string",
              "name": "caseName",
              "type": "string"
            },
            {
              "internalType": "uint256",
              "name": "caseNumber",
              "type": "uint256"
            },
            {
              "internalType": "string",
              "name": "reasonObtained",
              "type": "string"
            },
            {
              "internalType": "uint256",
              "name": "itemNumber",
              "type": "uint256"
            },
            {
              "internalType": "string",
              "name": "evidenceTypeManufacturer",
              "type": "string"
            },
            {
              "internalType": "string",
              "name": "owner",
              "type": "string"
            },
            {
              "internalType": "string",
              "name": "contentDescription",
              "type": "string"
            },
            {
              "internalType": "uint256",
              "name": "contentOwnerContactInformation",
              "type": "uint256"
            },
            {
              "internalType": "string",
              "name": "forensicAgent",
              "type": "string"
            },
            {
              "internalType": "string",
              "name": "creationMethod",
              "type": "string"
            },
            {
              "internalType": "bytes32",
              "name": "hashValue",
              "type": "bytes32"
            },
            {
              "internalType": "uint256",
              "name": "date",
              "type": "uint256"
            },
            {
              "internalType": "uint256",
              "name": "forensicAgentContactInformation",
              "type": "uint256"
            },
            {
              "components": [
                {
                  "internalType": "uint256",
                  "name": "trackingNumber",
                  "type": "uint256"
                },
                {
                  "internalType": "uint256",
                  "name": "timestamp",
                  "type": "uint256"
                },
                {
                  "internalType": "address",
                  "name": "releasedBy",
                  "type": "address"
                },
                {
                  "internalType": "address",
                  "name": "receivedBy",
                  "type": "address"
                },
                {
                  "internalType": "string",
                  "name": "reasonForChange",
                  "type": "string"
                }
              ],
              "internalType": "struct Log[]",
              "name": "chainOfCustody",
              "type": "tuple[]"
            }
          ],
          "internalType": "struct FormData",
          "name": "",
          "type": "tuple"
        }
      ],
      "stateMutability": "view",
      "type": "function",
      "constant": true
    },
    {
      "inputs": [
        {
          "internalType": "address",
          "name": "_userAddress",
          "type": "address"
        }
      ],
      "name": "getUserFormAddresses",
      "outputs": [
        {
          "internalType": "address[]",
          "name": "",
          "type": "address[]"
        }
      ],
      "stateMutability": "view",
      "type": "function",
      "constant": true
    },
    {
      "inputs": [
        {
          "internalType": "address",
          "name": "_formAddress",
          "type": "address"
        },
        {
          "internalType": "string",
          "name": "_reason",
          "type": "string"
        }
      ],
      "name": "getForm",
      "outputs": [],
      "stateMutability": "nonpayable",
      "type": "function"
    },
    {
      "inputs": [
        {
          "internalType": "address",
          "name": "_formAddress",
          "type": "address"
        }
      ],
      "name": "releaseForm",
      "outputs": [],
      "stateMutability": "nonpayable",
      "type": "function"
    },
    {
      "inputs": [
        {
          "internalType": "address",
          "name": "_formAddress",
          "type": "address"
        },
        {
          "internalType": "address",
          "name": "_taker",
          "type": "address"
        }
      ],
      "name": "giveForm",
      "outputs": [],
      "stateMutability": "nonpayable",
      "type": "function"
    },
    {
      "inputs": [
        {
          "internalType": "address",
          "name": "_formAddress",
          "type": "address"
        },
        {
          "internalType": "string",
          "name": "_reason",
          "type": "string"
        }
      ],
      "name": "acceptForm",
      "outputs": [],
      "stateMutability": "nonpayable",
      "type": "function"
    },
    {
      "inputs": [
        {
          "internalType": "address",
          "name": "_formAddress",
          "type": "address"
        }
      ],
      "name": "rejectForm",
      "outputs": [],
      "stateMutability": "nonpayable",
      "type": "function"
    },
    {
      "inputs": [
        {
          "internalType": "address",
          "name": "_formAddress",
          "type": "address"
        }
      ],
      "name": "isAFormAvailable",
      "outputs": [
        {
          "internalType": "bool",
          "name": "",
          "type": "bool"
        }
      ],
      "stateMutability": "view",
      "type": "function",
      "constant": true
    },
    {
      "inputs": [],
      "name": "findContractTaker",
      "outputs": [
        {
          "internalType": "address[]",
          "name": "",
          "type": "address[]"
        }
      ],
      "stateMutability": "view",
      "type": "function",
      "constant": true
    },
    {
      "inputs": [
        {
          "internalType": "address",
          "name": "_taker",
          "type": "address"
        }
      ],
      "name": "countFormsForTaker",
      "outputs": [
        {
          "internalType": "uint256",
          "name": "",
          "type": "uint256"
        }
      ],
      "stateMutability": "view",
      "type": "function",
      "constant": true
    },
    {
      "inputs": [
        {
          "internalType": "uint256",
          "name": "_from",
          "type": "uint256"
        }
      ],
      "name": "findContractByDate",
      "outputs": [
        {
          "internalType": "address[]",
          "name": "",
          "type": "address[]"
        }
      ],
      "stateMutability": "view",
      "type": "function",
      "constant": true
    },
    {
      "inputs": [
        {
          "internalType": "uint256",
          "name": "_from",
          "type": "uint256"
        }
      ],
      "name": "countFormsBasedOnDate",
      "outputs": [
        {
          "internalType": "uint256",
          "name": "",
          "type": "uint256"
        }
      ],
      "stateMutability": "view",
      "type": "function",
      "constant": true
    }
  ],
  "bytecode": "0x608060405234801561001057600080fd5b506159ef806100206000396000f3fe60806040523480156200001157600080fd5b50600436106200010c5760003560e01c8063866fba2211620000a5578063edcd5c41116200006f578063edcd5c41146200030d578063edef556a146200032d578063f7f9102c1462000363578063f8fa329b1462000399576200010c565b8063866fba22146200024b5780638b00308c14620002815780638d5194c914620002b7578063ca8e697f14620002d7576200010c565b8063494d8d3311620000e7578063494d8d3314620001895780634b194bf014620001bf578063513d26d814620001f557806374de047a146200022b576200010c565b8063057b01101462000111578063191d12fc146200014757806335ad872d1462000167575b600080fd5b6200012f600480360381019062000129919062002077565b620003b9565b6040516200013e919062002455565b60405180910390f35b6200016560048036038101906200015f919062002479565b620003df565b005b620001716200051b565b6040516200018091906200257d565b60405180910390f35b620001a76004803603810190620001a1919062002077565b62000746565b604051620001b691906200257d565b60405180910390f35b620001dd6004803603810190620001d79190620025e6565b62000815565b604051620001ec919062002455565b60405180910390f35b6200021360048036038101906200020d919062002649565b6200089d565b6040516200022291906200257d565b60405180910390f35b620002496004803603810190620002439190620027cc565b62000aa8565b005b62000269600480360381019062000263919062002077565b62000e1f565b6040516200027891906200284f565b60405180910390f35b6200029f600480360381019062000299919062002077565b62000ea4565b604051620002ae91906200287d565b60405180910390f35b620002d56004803603810190620002cf9190620027cc565b62000fdd565b005b620002f56004803603810190620002ef919062002077565b62001409565b60405162000304919062002905565b60405180910390f35b6200032b600480360381019062000325919062002077565b62001471565b005b6200034b600480360381019062000345919062002b25565b620015a9565b6040516200035a919062002bd0565b60405180910390f35b6200038160048036038101906200037b919062002649565b62001939565b6040516200039091906200287d565b60405180910390f35b620003b76004803603810190620003b1919062002077565b62001a50565b005b620003c362001f7e565b620003d8620003d28362001409565b62000815565b9050919050565b3373ffffffffffffffffffffffffffffffffffffffff16620004018362001409565b73ffffffffffffffffffffffffffffffffffffffff1663d08145e46040518163ffffffff1660e01b8152600401600060405180830381865afa1580156200044c573d6000803e3d6000fd5b505050506040513d6000823e3d601f19601f8201168201806040525081019062000477919062002d5d565b6060015173ffffffffffffffffffffffffffffffffffffffff16146200049c57600080fd5b620004a78262001409565b73ffffffffffffffffffffffffffffffffffffffff1663144610d633836040518363ffffffff1660e01b8152600401620004e392919062002dae565b600060405180830381600087803b158015620004fe57600080fd5b505af115801562000513573d6000803e3d6000fd5b505050505050565b606060006200052a3362000ea4565b905060008167ffffffffffffffff8111156200054b576200054a62002685565b5b6040519080825280602002602001820160405280156200057a5781602001602082028036833780820191505090505b509050600080600090505b6002805490508110156200073c573373ffffffffffffffffffffffffffffffffffffffff16620005f660028381548110620005c557620005c462002ddb565b5b9060005260206000200160009054906101000a900473ffffffffffffffffffffffffffffffffffffffff1662001409565b73ffffffffffffffffffffffffffffffffffffffff1663f5d197556040518163ffffffff1660e01b8152600401602060405180830381865afa15801562000641573d6000803e3d6000fd5b505050506040513d601f19601f8201168201806040525081019062000667919062002e0a565b73ffffffffffffffffffffffffffffffffffffffff16036200072657600281815481106200069a576200069962002ddb565b5b9060005260206000200160009054906101000a900473ffffffffffffffffffffffffffffffffffffffff16838381518110620006db57620006da62002ddb565b5b602002602001019073ffffffffffffffffffffffffffffffffffffffff16908173ffffffffffffffffffffffffffffffffffffffff16815250508180620007229062002e6b565b9250505b8080620007339062002e6b565b91505062000585565b5081935050505090565b6060600160008373ffffffffffffffffffffffffffffffffffffffff1673ffffffffffffffffffffffffffffffffffffffff1681526020019081526020016000208054806020026020016040519081016040528092919081815260200182805480156200080957602002820191906000526020600020905b8160009054906101000a900473ffffffffffffffffffffffffffffffffffffffff1673ffffffffffffffffffffffffffffffffffffffff1681526020019060010190808311620007be575b50505050509050919050565b6200081f62001f7e565b8173ffffffffffffffffffffffffffffffffffffffff16635426177e6040518163ffffffff1660e01b8152600401600060405180830381865afa1580156200086b573d6000803e3d6000fd5b505050506040513d6000823e3d601f19601f820116820180604052508101906200089691906200322d565b9050919050565b60606000620008ac8362001939565b905060008167ffffffffffffffff811115620008cd57620008cc62002685565b5b604051908082528060200260200182016040528015620008fc5781602001602082028036833780820191505090505b509050600080600090505b60028054905081101562000a9c5785620009626002838154811062000931576200093062002ddb565b5b9060005260206000200160009054906101000a900473ffffffffffffffffffffffffffffffffffffffff1662001409565b73ffffffffffffffffffffffffffffffffffffffff16635426177e6040518163ffffffff1660e01b8152600401600060405180830381865afa158015620009ad573d6000803e3d6000fd5b505050506040513d6000823e3d601f19601f82011682018060405250810190620009d891906200322d565b61016001511062000a865760028181548110620009fa57620009f962002ddb565b5b9060005260206000200160009054906101000a900473ffffffffffffffffffffffffffffffffffffffff1683838151811062000a3b5762000a3a62002ddb565b5b602002602001019073ffffffffffffffffffffffffffffffffffffffff16908173ffffffffffffffffffffffffffffffffffffffff1681525050818062000a829062002e6b565b9250505b808062000a939062002e6b565b91505062000907565b50819350505050919050565b62000ab38262001409565b73ffffffffffffffffffffffffffffffffffffffff1663856c71dd6040518163ffffffff1660e01b8152600401602060405180830381865afa15801562000afe573d6000803e3d6000fd5b505050506040513d601f19601f8201168201806040525081019062000b249190620032af565b62000b2e57600080fd5b62000b398262001409565b73ffffffffffffffffffffffffffffffffffffffff1663903219886040518060a00160405280600162000b6c8762001409565b73ffffffffffffffffffffffffffffffffffffffff1663d08145e46040518163ffffffff1660e01b8152600401600060405180830381865afa15801562000bb7573d6000803e3d6000fd5b505050506040513d6000823e3d601f19601f8201168201806040525081019062000be2919062002d5d565b6000015162000bf29190620032e1565b815260200142815260200162000c088662001409565b73ffffffffffffffffffffffffffffffffffffffff1663d08145e46040518163ffffffff1660e01b8152600401600060405180830381865afa15801562000c53573d6000803e3d6000fd5b505050506040513d6000823e3d601f19601f8201168201806040525081019062000c7e919062002d5d565b6060015173ffffffffffffffffffffffffffffffffffffffff1681526020013373ffffffffffffffffffffffffffffffffffffffff168152602001848152506040518263ffffffff1660e01b815260040162000cdb91906200339c565b600060405180830381600087803b15801562000cf657600080fd5b505af115801562000d0b573d6000803e3d6000fd5b50505050600160003373ffffffffffffffffffffffffffffffffffffffff1673ffffffffffffffffffffffffffffffffffffffff168152602001908152602001600020829080600181540180825580915050600190039060005260206000200160009091909190916101000a81548173ffffffffffffffffffffffffffffffffffffffff021916908373ffffffffffffffffffffffffffffffffffffffff16021790555062000dba8262001409565b73ffffffffffffffffffffffffffffffffffffffff1663f5c92cda6040518163ffffffff1660e01b8152600401600060405180830381600087803b15801562000e0257600080fd5b505af115801562000e17573d6000803e3d6000fd5b505050505050565b600062000e2c8262001409565b73ffffffffffffffffffffffffffffffffffffffff1663856c71dd6040518163ffffffff1660e01b8152600401602060405180830381865afa15801562000e77573d6000803e3d6000fd5b505050506040513d601f19601f8201168201806040525081019062000e9d9190620032af565b9050919050565b6000806000905060005b60028054905081101562000fd3578373ffffffffffffffffffffffffffffffffffffffff1662000f1f6002838154811062000eee5762000eed62002ddb565b5b9060005260206000200160009054906101000a900473ffffffffffffffffffffffffffffffffffffffff1662001409565b73ffffffffffffffffffffffffffffffffffffffff1663f5d197556040518163ffffffff1660e01b8152600401602060405180830381865afa15801562000f6a573d6000803e3d6000fd5b505050506040513d601f19601f8201168201806040525081019062000f90919062002e0a565b73ffffffffffffffffffffffffffffffffffffffff160362000fbd57818062000fb99062002e6b565b9250505b808062000fca9062002e6b565b91505062000eae565b5080915050919050565b3373ffffffffffffffffffffffffffffffffffffffff1662000fff8362001409565b73ffffffffffffffffffffffffffffffffffffffff1663f5d197556040518163ffffffff1660e01b8152600401602060405180830381865afa1580156200104a573d6000803e3d6000fd5b505050506040513d601f19601f8201168201806040525081019062001070919062002e0a565b73ffffffffffffffffffffffffffffffffffffffff16146200109157600080fd5b600160003373ffffffffffffffffffffffffffffffffffffffff1673ffffffffffffffffffffffffffffffffffffffff168152602001908152602001600020829080600181540180825580915050600190039060005260206000200160009091909190916101000a81548173ffffffffffffffffffffffffffffffffffffffff021916908373ffffffffffffffffffffffffffffffffffffffff1602179055506200113c8262001409565b73ffffffffffffffffffffffffffffffffffffffff1663903219886040518060a0016040528060016200116f8762001409565b73ffffffffffffffffffffffffffffffffffffffff1663d08145e46040518163ffffffff1660e01b8152600401600060405180830381865afa158015620011ba573d6000803e3d6000fd5b505050506040513d6000823e3d601f19601f82011682018060405250810190620011e5919062002d5d565b60000151620011f59190620032e1565b81526020014281526020016200120b8662001409565b73ffffffffffffffffffffffffffffffffffffffff1663d08145e46040518163ffffffff1660e01b8152600401600060405180830381865afa15801562001256573d6000803e3d6000fd5b505050506040513d6000823e3d601f19601f8201168201806040525081019062001281919062002d5d565b6060015173ffffffffffffffffffffffffffffffffffffffff1681526020013373ffffffffffffffffffffffffffffffffffffffff168152602001848152506040518263ffffffff1660e01b8152600401620012de91906200339c565b600060405180830381600087803b158015620012f957600080fd5b505af11580156200130e573d6000803e3d6000fd5b5050505062001399620013218362001409565b73ffffffffffffffffffffffffffffffffffffffff1663651c5d2d6040518163ffffffff1660e01b8152600401602060405180830381865afa1580156200136c573d6000803e3d6000fd5b505050506040513d601f19601f8201168201806040525081019062001392919062002e0a565b8362001c25565b620013a48262001409565b73ffffffffffffffffffffffffffffffffffffffff1663bcd404fa6040518163ffffffff1660e01b8152600401600060405180830381600087803b158015620013ec57600080fd5b505af115801562001401573d6000803e3d6000fd5b505050505050565b60008060008373ffffffffffffffffffffffffffffffffffffffff1673ffffffffffffffffffffffffffffffffffffffff16815260200190815260200160002060009054906101000a900473ffffffffffffffffffffffffffffffffffffffff169050919050565b3373ffffffffffffffffffffffffffffffffffffffff16620014938262001409565b73ffffffffffffffffffffffffffffffffffffffff1663d08145e46040518163ffffffff1660e01b8152600401600060405180830381865afa158015620014de573d6000803e3d6000fd5b505050506040513d6000823e3d601f19601f8201168201806040525081019062001509919062002d5d565b6060015173ffffffffffffffffffffffffffffffffffffffff16146200152e57600080fd5b620015398162001409565b73ffffffffffffffffffffffffffffffffffffffff16637a7d15666040518163ffffffff1660e01b8152600401600060405180830381600087803b1580156200158157600080fd5b505af115801562001596573d6000803e3d6000fd5b50505050620015a6338262001c25565b50565b600080620015b662001f47565b9050848484604051620015c99062001ff0565b620015d7939291906200355e565b604051809103906000f080158015620015f4573d6000803e3d6000fd5b506000808373ffffffffffffffffffffffffffffffffffffffff1673ffffffffffffffffffffffffffffffffffffffff16815260200190815260200160002060006101000a81548173ffffffffffffffffffffffffffffffffffffffff021916908373ffffffffffffffffffffffffffffffffffffffff1602179055506000808273ffffffffffffffffffffffffffffffffffffffff1673ffffffffffffffffffffffffffffffffffffffff16815260200190815260200160002060009054906101000a900473ffffffffffffffffffffffffffffffffffffffff1673ffffffffffffffffffffffffffffffffffffffff1663903219886040518060a00160405280600081526020014281526020013373ffffffffffffffffffffffffffffffffffffffff1681526020013373ffffffffffffffffffffffffffffffffffffffff1681526020016040518060400160405280600c81526020017f466f726d206372656174656400000000000000000000000000000000000000008152508152506040518263ffffffff1660e01b81526004016200179291906200339c565b600060405180830381600087803b158015620017ad57600080fd5b505af1158015620017c2573d6000803e3d6000fd5b50505050600160003373ffffffffffffffffffffffffffffffffffffffff1673ffffffffffffffffffffffffffffffffffffffff168152602001908152602001600020819080600181540180825580915050600190039060005260206000200160009091909190916101000a81548173ffffffffffffffffffffffffffffffffffffffff021916908373ffffffffffffffffffffffffffffffffffffffff1602179055507fa32121da9500249d8880fce97dd8f5f3f0f54bfedc91bdb545438f69d79d8917856000815181106200189e576200189d62002ddb565b5b602002602001015182620018b284620003b9565b604051620018c393929190620035a9565b60405180910390a16002819080600181540180825580915050600190039060005260206000200160009091909190916101000a81548173ffffffffffffffffffffffffffffffffffffffff021916908373ffffffffffffffffffffffffffffffffffffffff160217905550809150509392505050565b6000806000905060005b60028054905081101562001a4657836200199e600283815481106200196d576200196c62002ddb565b5b9060005260206000200160009054906101000a900473ffffffffffffffffffffffffffffffffffffffff1662001409565b73ffffffffffffffffffffffffffffffffffffffff16635426177e6040518163ffffffff1660e01b8152600401600060405180830381865afa158015620019e9573d6000803e3d6000fd5b505050506040513d6000823e3d601f19601f8201168201806040525081019062001a1491906200322d565b61016001511062001a3057818062001a2c9062002e6b565b9250505b808062001a3d9062002e6b565b91505062001943565b5080915050919050565b3373ffffffffffffffffffffffffffffffffffffffff1662001a728262001409565b73ffffffffffffffffffffffffffffffffffffffff1663f5d197556040518163ffffffff1660e01b8152600401602060405180830381865afa15801562001abd573d6000803e3d6000fd5b505050506040513d601f19601f8201168201806040525081019062001ae3919062002e0a565b73ffffffffffffffffffffffffffffffffffffffff16148062001bac57503373ffffffffffffffffffffffffffffffffffffffff1662001b238262001409565b73ffffffffffffffffffffffffffffffffffffffff1663651c5d2d6040518163ffffffff1660e01b8152600401602060405180830381865afa15801562001b6e573d6000803e3d6000fd5b505050506040513d601f19601f8201168201806040525081019062001b94919062002e0a565b73ffffffffffffffffffffffffffffffffffffffff16145b62001bb657600080fd5b62001bc18162001409565b73ffffffffffffffffffffffffffffffffffffffff1663bcd404fa6040518163ffffffff1660e01b8152600401600060405180830381600087803b15801562001c0957600080fd5b505af115801562001c1e573d6000803e3d6000fd5b5050505050565b6000600160008473ffffffffffffffffffffffffffffffffffffffff1673ffffffffffffffffffffffffffffffffffffffff168152602001908152602001600020805490501162001c7557600080fd5b6000600160008473ffffffffffffffffffffffffffffffffffffffff1673ffffffffffffffffffffffffffffffffffffffff16815260200190815260200160002080549050905060005b8181101562001f41578273ffffffffffffffffffffffffffffffffffffffff16600160008673ffffffffffffffffffffffffffffffffffffffff1673ffffffffffffffffffffffffffffffffffffffff168152602001908152602001600020828154811062001d335762001d3262002ddb565b5b9060005260206000200160009054906101000a900473ffffffffffffffffffffffffffffffffffffffff1673ffffffffffffffffffffffffffffffffffffffff160362001f2b57600160008573ffffffffffffffffffffffffffffffffffffffff1673ffffffffffffffffffffffffffffffffffffffff16815260200190815260200160002060018362001dc89190620035ed565b8154811062001ddc5762001ddb62002ddb565b5b9060005260206000200160009054906101000a900473ffffffffffffffffffffffffffffffffffffffff16600160008673ffffffffffffffffffffffffffffffffffffffff1673ffffffffffffffffffffffffffffffffffffffff168152602001908152602001600020828154811062001e5b5762001e5a62002ddb565b5b9060005260206000200160006101000a81548173ffffffffffffffffffffffffffffffffffffffff021916908373ffffffffffffffffffffffffffffffffffffffff160217905550600160008573ffffffffffffffffffffffffffffffffffffffff1673ffffffffffffffffffffffffffffffffffffffff16815260200190815260200160002080548062001ef55762001ef462003628565b5b6001900381819060005260206000200160006101000a81549073ffffffffffffffffffffffffffffffffffffffff021916905590555b808062001f389062002e6b565b91505062001cbf565b50505050565b600042443360405160200162001f6093929190620036cc565b6040516020818303038152906040528051906020012060001c905090565b604051806101c0016040528060608152602001600081526020016060815260200160008152602001606081526020016060815260200160608152602001600081526020016060815260200160608152602001600080191681526020016000815260200160008152602001606081525090565b6122aa806200371083390190565b6000604051905090565b600080fd5b600080fd5b600073ffffffffffffffffffffffffffffffffffffffff82169050919050565b60006200203f8262002012565b9050919050565b620020518162002032565b81146200205d57600080fd5b50565b600081359050620020718162002046565b92915050565b60006020828403121562002090576200208f62002008565b5b6000620020a08482850162002060565b91505092915050565b600081519050919050565b600082825260208201905092915050565b60005b83811015620020e5578082015181840152602081019050620020c8565b60008484015250505050565b6000601f19601f8301169050919050565b60006200210f82620020a9565b6200211b8185620020b4565b93506200212d818560208601620020c5565b6200213881620020f1565b840191505092915050565b6000819050919050565b620021588162002143565b82525050565b6000819050919050565b62002173816200215e565b82525050565b600081519050919050565b600082825260208201905092915050565b6000819050602082019050919050565b620021b08162002032565b82525050565b600060a083016000830151620021d060008601826200214d565b506020830151620021e560208601826200214d565b506040830151620021fa6040860182620021a5565b5060608301516200220f6060860182620021a5565b506080830151848203608086015262002229828262002102565b9150508091505092915050565b6000620022448383620021b6565b905092915050565b6000602082019050919050565b6000620022668262002179565b62002272818562002184565b935083602082028501620022868562002195565b8060005b85811015620022c85784840389528151620022a6858262002236565b9450620022b3836200224c565b925060208a019950506001810190506200228a565b50829750879550505050505092915050565b60006101c0830160008301518482036000860152620022fa828262002102565b91505060208301516200231160208601826200214d565b50604083015184820360408601526200232b828262002102565b91505060608301516200234260608601826200214d565b50608083015184820360808601526200235c828262002102565b91505060a083015184820360a086015262002378828262002102565b91505060c083015184820360c086015262002394828262002102565b91505060e0830151620023ab60e08601826200214d565b50610100830151848203610100860152620023c7828262002102565b915050610120830151848203610120860152620023e5828262002102565b915050610140830151620023fe61014086018262002168565b50610160830151620024156101608601826200214d565b506101808301516200242c6101808601826200214d565b506101a08301518482036101a086015262002448828262002259565b9150508091505092915050565b60006020820190508181036000830152620024718184620022da565b905092915050565b6000806040838503121562002493576200249262002008565b5b6000620024a38582860162002060565b9250506020620024b68582860162002060565b9150509250929050565b600081519050919050565b600082825260208201905092915050565b6000819050602082019050919050565b6000620024fa8383620021a5565b60208301905092915050565b6000602082019050919050565b60006200252082620024c0565b6200252c8185620024cb565b93506200253983620024dc565b8060005b8381101562002570578151620025548882620024ec565b9750620025618362002506565b9250506001810190506200253d565b5085935050505092915050565b6000602082019050818103600083015262002599818462002513565b905092915050565b6000620025ae8262002032565b9050919050565b620025c081620025a1565b8114620025cc57600080fd5b50565b600081359050620025e081620025b5565b92915050565b600060208284031215620025ff57620025fe62002008565b5b60006200260f84828501620025cf565b91505092915050565b620026238162002143565b81146200262f57600080fd5b50565b600081359050620026438162002618565b92915050565b60006020828403121562002662576200266162002008565b5b6000620026728482850162002632565b91505092915050565b600080fd5b600080fd5b7f4e487b7100000000000000000000000000000000000000000000000000000000600052604160045260246000fd5b620026bf82620020f1565b810181811067ffffffffffffffff82111715620026e157620026e062002685565b5b80604052505050565b6000620026f662001ffe565b9050620027048282620026b4565b919050565b600067ffffffffffffffff82111562002727576200272662002685565b5b6200273282620020f1565b9050602081019050919050565b82818337600083830152505050565b6000620027656200275f8462002709565b620026ea565b90508281526020810184848401111562002784576200278362002680565b5b620027918482856200273f565b509392505050565b600082601f830112620027b157620027b06200267b565b5b8135620027c38482602086016200274e565b91505092915050565b60008060408385031215620027e657620027e562002008565b5b6000620027f68582860162002060565b925050602083013567ffffffffffffffff8111156200281a57620028196200200d565b5b620028288582860162002799565b9150509250929050565b60008115159050919050565b620028498162002832565b82525050565b60006020820190506200286660008301846200283e565b92915050565b620028778162002143565b82525050565b60006020820190506200289460008301846200286c565b92915050565b6000819050919050565b6000620028c5620028bf620028b98462002012565b6200289a565b62002012565b9050919050565b6000620028d982620028a4565b9050919050565b6000620028ed82620028cc565b9050919050565b620028ff81620028e0565b82525050565b60006020820190506200291c6000830184620028f4565b92915050565b600067ffffffffffffffff82111562002940576200293f62002685565b5b602082029050602081019050919050565b600080fd5b60006200296d620029678462002922565b620026ea565b9050808382526020820190506020840283018581111562002993576200299262002951565b5b835b81811015620029c05780620029ab888262002632565b84526020840193505060208101905062002995565b5050509392505050565b600082601f830112620029e257620029e16200267b565b5b8135620029f484826020860162002956565b91505092915050565b600067ffffffffffffffff82111562002a1b5762002a1a62002685565b5b602082029050602081019050919050565b600062002a4362002a3d84620029fd565b620026ea565b9050808382526020820190506020840283018581111562002a695762002a6862002951565b5b835b8181101562002ab757803567ffffffffffffffff81111562002a925762002a916200267b565b5b80860162002aa1898262002799565b8552602085019450505060208101905062002a6b565b5050509392505050565b600082601f83011262002ad95762002ad86200267b565b5b813562002aeb84826020860162002a2c565b91505092915050565b62002aff816200215e565b811462002b0b57600080fd5b50565b60008135905062002b1f8162002af4565b92915050565b60008060006060848603121562002b415762002b4062002008565b5b600084013567ffffffffffffffff81111562002b625762002b616200200d565b5b62002b7086828701620029ca565b935050602084013567ffffffffffffffff81111562002b945762002b936200200d565b5b62002ba28682870162002ac1565b925050604062002bb58682870162002b0e565b9150509250925092565b62002bca8162002032565b82525050565b600060208201905062002be7600083018462002bbf565b92915050565b600080fd5b600080fd5b60008151905062002c088162002618565b92915050565b60008151905062002c1f8162002046565b92915050565b600062002c3c62002c368462002709565b620026ea565b90508281526020810184848401111562002c5b5762002c5a62002680565b5b62002c68848285620020c5565b509392505050565b600082601f83011262002c885762002c876200267b565b5b815162002c9a84826020860162002c25565b91505092915050565b600060a0828403121562002cbc5762002cbb62002bed565b5b62002cc860a0620026ea565b9050600062002cda8482850162002bf7565b600083015250602062002cf08482850162002bf7565b602083015250604062002d068482850162002c0e565b604083015250606062002d1c8482850162002c0e565b606083015250608082015167ffffffffffffffff81111562002d435762002d4262002bf2565b5b62002d518482850162002c70565b60808301525092915050565b60006020828403121562002d765762002d7562002008565b5b600082015167ffffffffffffffff81111562002d975762002d966200200d565b5b62002da58482850162002ca3565b91505092915050565b600060408201905062002dc5600083018562002bbf565b62002dd4602083018462002bbf565b9392505050565b7f4e487b7100000000000000000000000000000000000000000000000000000000600052603260045260246000fd5b60006020828403121562002e235762002e2262002008565b5b600062002e338482850162002c0e565b91505092915050565b7f4e487b7100000000000000000000000000000000000000000000000000000000600052601160045260246000fd5b600062002e788262002143565b91507fffffffffffffffffffffffffffffffffffffffffffffffffffffffffffffffff820362002ead5762002eac62002e3c565b5b600182019050919050565b60008151905062002ec98162002af4565b92915050565b600067ffffffffffffffff82111562002eed5762002eec62002685565b5b602082029050602081019050919050565b600062002f1562002f0f8462002ecf565b620026ea565b9050808382526020820190506020840283018581111562002f3b5762002f3a62002951565b5b835b8181101562002f8957805167ffffffffffffffff81111562002f645762002f636200267b565b5b80860162002f73898262002ca3565b8552602085019450505060208101905062002f3d565b5050509392505050565b600082601f83011262002fab5762002faa6200267b565b5b815162002fbd84826020860162002efe565b91505092915050565b60006101c0828403121562002fe05762002fdf62002bed565b5b62002fed6101c0620026ea565b9050600082015167ffffffffffffffff81111562003010576200300f62002bf2565b5b6200301e8482850162002c70565b6000830152506020620030348482850162002bf7565b602083015250604082015167ffffffffffffffff8111156200305b576200305a62002bf2565b5b620030698482850162002c70565b60408301525060606200307f8482850162002bf7565b606083015250608082015167ffffffffffffffff811115620030a657620030a562002bf2565b5b620030b48482850162002c70565b60808301525060a082015167ffffffffffffffff811115620030db57620030da62002bf2565b5b620030e98482850162002c70565b60a08301525060c082015167ffffffffffffffff81111562003110576200310f62002bf2565b5b6200311e8482850162002c70565b60c08301525060e0620031348482850162002bf7565b60e08301525061010082015167ffffffffffffffff8111156200315c576200315b62002bf2565b5b6200316a8482850162002c70565b6101008301525061012082015167ffffffffffffffff81111562003193576200319262002bf2565b5b620031a18482850162002c70565b61012083015250610140620031b98482850162002eb8565b61014083015250610160620031d18482850162002bf7565b61016083015250610180620031e98482850162002bf7565b610180830152506101a082015167ffffffffffffffff81111562003212576200321162002bf2565b5b620032208482850162002f93565b6101a08301525092915050565b60006020828403121562003246576200324562002008565b5b600082015167ffffffffffffffff8111156200326757620032666200200d565b5b620032758482850162002fc6565b91505092915050565b620032898162002832565b81146200329557600080fd5b50565b600081519050620032a9816200327e565b92915050565b600060208284031215620032c857620032c762002008565b5b6000620032d88482850162003298565b91505092915050565b6000620032ee8262002143565b9150620032fb8362002143565b925082820190508082111562003316576200331562002e3c565b5b92915050565b600060a0830160008301516200333660008601826200214d565b5060208301516200334b60208601826200214d565b506040830151620033606040860182620021a5565b506060830151620033756060860182620021a5565b50608083015184820360808601526200338f828262002102565b9150508091505092915050565b60006020820190508181036000830152620033b881846200331c565b905092915050565b600081519050919050565b600082825260208201905092915050565b6000819050602082019050919050565b6000620033fa83836200214d565b60208301905092915050565b6000602082019050919050565b60006200342082620033c0565b6200342c8185620033cb565b93506200343983620033dc565b8060005b8381101562003470578151620034548882620033ec565b9750620034618362003406565b9250506001810190506200343d565b5085935050505092915050565b600081519050919050565b600082825260208201905092915050565b6000819050602082019050919050565b6000620034b7838362002102565b905092915050565b6000602082019050919050565b6000620034d9826200347d565b620034e5818562003488565b935083602082028501620034f98562003499565b8060005b858110156200353b5784840389528151620035198582620034a9565b94506200352683620034bf565b925060208a01995050600181019050620034fd565b50829750879550505050505092915050565b62003558816200215e565b82525050565b600060608201905081810360008301526200357a818662003413565b90508181036020830152620035908185620034cc565b9050620035a160408301846200354d565b949350505050565b6000606082019050620035c060008301866200286c565b620035cf602083018562002bbf565b8181036040830152620035e38184620022da565b9050949350505050565b6000620035fa8262002143565b9150620036078362002143565b925082820390508181111562003622576200362162002e3c565b5b92915050565b7f4e487b7100000000000000000000000000000000000000000000000000000000600052603160045260246000fd5b6000819050919050565b62003676620036708262002143565b62003657565b82525050565b60008160601b9050919050565b600062003696826200367c565b9050919050565b6000620036aa8262003689565b9050919050565b620036c6620036c08262002032565b6200369d565b82525050565b6000620036da828662003661565b602082019150620036ec828562003661565b602082019150620036fe8284620036b1565b60148201915081905094935050505056fe60806040523480156200001157600080fd5b50604051620022aa380380620022aa8339818101604052810190620000379190620006d4565b816000815181106200004e576200004d6200076e565b5b602002602001015160026000019081620000699190620009de565b50816001815181106200008157620000806200076e565b5b60200260200101516002800190816200009b9190620009de565b5081600281518110620000b357620000b26200076e565b5b602002602001015160026004019081620000ce9190620009de565b5081600381518110620000e657620000e56200076e565b5b602002602001015160026005019081620001019190620009de565b50816004815181106200011957620001186200076e565b5b602002602001015160026006019081620001349190620009de565b50816005815181106200014c576200014b6200076e565b5b602002602001015160026008019081620001679190620009de565b50816006815181106200017f576200017e6200076e565b5b6020026020010151600260090190816200019a9190620009de565b5082600081518110620001b257620001b16200076e565b5b602002602001015160026001018190555082600181518110620001da57620001d96200076e565b5b6020026020010151600260030181905550826002815181106200020257620002016200076e565b5b6020026020010151600260070181905550826003815181106200022a57620002296200076e565b5b60200260200101516002600b0181905550826004815181106200025257620002516200076e565b5b60200260200101516002600c0181905550806002600a018190555060008060006101000a81548173ffffffffffffffffffffffffffffffffffffffff021916908373ffffffffffffffffffffffffffffffffffffffff1602179055506000600160006101000a81548173ffffffffffffffffffffffffffffffffffffffff021916908373ffffffffffffffffffffffffffffffffffffffff16021790555050505062000ac5565b6000604051905090565b600080fd5b600080fd5b600080fd5b6000601f19601f8301169050919050565b7f4e487b7100000000000000000000000000000000000000000000000000000000600052604160045260246000fd5b6200035d8262000312565b810181811067ffffffffffffffff821117156200037f576200037e62000323565b5b80604052505050565b600062000394620002f9565b9050620003a2828262000352565b919050565b600067ffffffffffffffff821115620003c557620003c462000323565b5b602082029050602081019050919050565b600080fd5b6000819050919050565b620003f081620003db565b8114620003fc57600080fd5b50565b6000815190506200041081620003e5565b92915050565b60006200042d6200042784620003a7565b62000388565b90508083825260208201905060208402830185811115620004535762000452620003d6565b5b835b818110156200048057806200046b8882620003ff565b84526020840193505060208101905062000455565b5050509392505050565b600082601f830112620004a257620004a16200030d565b5b8151620004b484826020860162000416565b91505092915050565b600067ffffffffffffffff821115620004db57620004da62000323565b5b602082029050602081019050919050565b600080fd5b600067ffffffffffffffff8211156200050f576200050e62000323565b5b6200051a8262000312565b9050602081019050919050565b60005b83811015620005475780820151818401526020810190506200052a565b60008484015250505050565b60006200056a6200056484620004f1565b62000388565b905082815260208101848484011115620005895762000588620004ec565b5b6200059684828562000527565b509392505050565b600082601f830112620005b657620005b56200030d565b5b8151620005c884826020860162000553565b91505092915050565b6000620005e8620005e284620004bd565b62000388565b905080838252602082019050602084028301858111156200060e576200060d620003d6565b5b835b818110156200065c57805167ffffffffffffffff8111156200063757620006366200030d565b5b8086016200064689826200059e565b8552602085019450505060208101905062000610565b5050509392505050565b600082601f8301126200067e576200067d6200030d565b5b815162000690848260208601620005d1565b91505092915050565b6000819050919050565b620006ae8162000699565b8114620006ba57600080fd5b50565b600081519050620006ce81620006a3565b92915050565b600080600060608486031215620006f057620006ef62000303565b5b600084015167ffffffffffffffff81111562000711576200071062000308565b5b6200071f868287016200048a565b935050602084015167ffffffffffffffff81111562000743576200074262000308565b5b620007518682870162000666565b92505060406200076486828701620006bd565b9150509250925092565b7f4e487b7100000000000000000000000000000000000000000000000000000000600052603260045260246000fd5b600081519050919050565b7f4e487b7100000000000000000000000000000000000000000000000000000000600052602260045260246000fd5b60006002820490506001821680620007f057607f821691505b602082108103620008065762000805620007a8565b5b50919050565b60008190508160005260206000209050919050565b60006020601f8301049050919050565b600082821b905092915050565b600060088302620008707fffffffffffffffffffffffffffffffffffffffffffffffffffffffffffffffff8262000831565b6200087c868362000831565b95508019841693508086168417925050509392505050565b6000819050919050565b6000620008bf620008b9620008b384620003db565b62000894565b620003db565b9050919050565b6000819050919050565b620008db836200089e565b620008f3620008ea82620008c6565b8484546200083e565b825550505050565b600090565b6200090a620008fb565b62000917818484620008d0565b505050565b5b818110156200093f576200093360008262000900565b6001810190506200091d565b5050565b601f8211156200098e5762000958816200080c565b620009638462000821565b8101602085101562000973578190505b6200098b620009828562000821565b8301826200091c565b50505b505050565b600082821c905092915050565b6000620009b36000198460080262000993565b1980831691505092915050565b6000620009ce8383620009a0565b9150826002028217905092915050565b620009e9826200079d565b67ffffffffffffffff81111562000a055762000a0462000323565b5b62000a118254620007d7565b62000a1e82828562000943565b600060209050601f83116001811462000a56576000841562000a41578287015190505b62000a4d8582620009c0565b86555062000abd565b601f19841662000a66866200080c565b60005b8281101562000a905784890151825560018201915060208501945060208101905062000a69565b8683101562000ab0578489015162000aac601f891682620009a0565b8355505b6001600288020188555050505b505050505050565b6117d58062000ad56000396000f3fe608060405234801561001057600080fd5b506004361061009e5760003560e01c806390321988116100665780639032198814610123578063bcd404fa1461013f578063d08145e414610149578063f5c92cda14610167578063f5d19755146101715761009e565b8063144610d6146100a35780635426177e146100bf578063651c5d2d146100dd5780637a7d1566146100fb578063856c71dd14610105575b600080fd5b6100bd60048036038101906100b89190610d11565b61018f565b005b6100c7610214565b6040516100d491906110b9565b60405180910390f35b6100e561081a565b6040516100f291906110ea565b60405180910390f35b610103610844565b005b61010d610861565b60405161011a9190611120565b60405180910390f35b61013d6004803603810190610138919061134e565b610878565b005b610147610964565b005b6101516109e9565b60405161015e919061140d565b60405180910390f35b61016f610b8c565b005b610179610ba9565b60405161018691906110ea565b60405180910390f35b81600160006101000a81548173ffffffffffffffffffffffffffffffffffffffff021916908373ffffffffffffffffffffffffffffffffffffffff160217905550806000806101000a81548173ffffffffffffffffffffffffffffffffffffffff021916908373ffffffffffffffffffffffffffffffffffffffff1602179055505050565b61021c610bd2565b6002604051806101c001604052908160008201805461023a9061145e565b80601f01602080910402602001604051908101604052809291908181526020018280546102669061145e565b80156102b35780601f10610288576101008083540402835291602001916102b3565b820191906000526020600020905b81548152906001019060200180831161029657829003601f168201915b50505050508152602001600182015481526020016002820180546102d69061145e565b80601f01602080910402602001604051908101604052809291908181526020018280546103029061145e565b801561034f5780601f106103245761010080835404028352916020019161034f565b820191906000526020600020905b81548152906001019060200180831161033257829003601f168201915b50505050508152602001600382015481526020016004820180546103729061145e565b80601f016020809104026020016040519081016040528092919081815260200182805461039e9061145e565b80156103eb5780601f106103c0576101008083540402835291602001916103eb565b820191906000526020600020905b8154815290600101906020018083116103ce57829003601f168201915b505050505081526020016005820180546104049061145e565b80601f01602080910402602001604051908101604052809291908181526020018280546104309061145e565b801561047d5780601f106104525761010080835404028352916020019161047d565b820191906000526020600020905b81548152906001019060200180831161046057829003601f168201915b505050505081526020016006820180546104969061145e565b80601f01602080910402602001604051908101604052809291908181526020018280546104c29061145e565b801561050f5780601f106104e45761010080835404028352916020019161050f565b820191906000526020600020905b8154815290600101906020018083116104f257829003601f168201915b50505050508152602001600782015481526020016008820180546105329061145e565b80601f016020809104026020016040519081016040528092919081815260200182805461055e9061145e565b80156105ab5780601f10610580576101008083540402835291602001916105ab565b820191906000526020600020905b81548152906001019060200180831161058e57829003601f168201915b505050505081526020016009820180546105c49061145e565b80601f01602080910402602001604051908101604052809291908181526020018280546105f09061145e565b801561063d5780601f106106125761010080835404028352916020019161063d565b820191906000526020600020905b81548152906001019060200180831161062057829003601f168201915b50505050508152602001600a8201548152602001600b8201548152602001600c8201548152602001600d8201805480602002602001604051908101604052809291908181526020016000905b8282101561080d57838290600052602060002090600502016040518060a001604052908160008201548152602001600182015481526020016002820160009054906101000a900473ffffffffffffffffffffffffffffffffffffffff1673ffffffffffffffffffffffffffffffffffffffff1673ffffffffffffffffffffffffffffffffffffffff1681526020016003820160009054906101000a900473ffffffffffffffffffffffffffffffffffffffff1673ffffffffffffffffffffffffffffffffffffffff1673ffffffffffffffffffffffffffffffffffffffff16815260200160048201805461077c9061145e565b80601f01602080910402602001604051908101604052809291908181526020018280546107a89061145e565b80156107f55780601f106107ca576101008083540402835291602001916107f5565b820191906000526020600020905b8154815290600101906020018083116107d857829003601f168201915b50505050508152505081526020019060010190610689565b5050505081525050905090565b6000600160009054906101000a900473ffffffffffffffffffffffffffffffffffffffff16905090565b6001601060006101000a81548160ff021916908315150217905550565b6000601060009054906101000a900460ff16905090565b6002600d01819080600181540180825580915050600190039060005260206000209060050201600090919091909150600082015181600001556020820151816001015560408201518160020160006101000a81548173ffffffffffffffffffffffffffffffffffffffff021916908373ffffffffffffffffffffffffffffffffffffffff16021790555060608201518160030160006101000a81548173ffffffffffffffffffffffffffffffffffffffff021916908373ffffffffffffffffffffffffffffffffffffffff160217905550608082015181600401908161095e919061163b565b50505050565b6000600160006101000a81548173ffffffffffffffffffffffffffffffffffffffff021916908373ffffffffffffffffffffffffffffffffffffffff16021790555060008060006101000a81548173ffffffffffffffffffffffffffffffffffffffff021916908373ffffffffffffffffffffffffffffffffffffffff160217905550565b6109f1610c44565b6002600d0160016002600d0180549050610a0b919061173c565b81548110610a1c57610a1b611770565b5b90600052602060002090600502016040518060a001604052908160008201548152602001600182015481526020016002820160009054906101000a900473ffffffffffffffffffffffffffffffffffffffff1673ffffffffffffffffffffffffffffffffffffffff1673ffffffffffffffffffffffffffffffffffffffff1681526020016003820160009054906101000a900473ffffffffffffffffffffffffffffffffffffffff1673ffffffffffffffffffffffffffffffffffffffff1673ffffffffffffffffffffffffffffffffffffffff168152602001600482018054610b059061145e565b80601f0160208091040260200160405190810160405280929190818152602001828054610b319061145e565b8015610b7e5780601f10610b5357610100808354040283529160200191610b7e565b820191906000526020600020905b815481529060010190602001808311610b6157829003601f168201915b505050505081525050905090565b6000601060006101000a81548160ff021916908315150217905550565b60008060009054906101000a900473ffffffffffffffffffffffffffffffffffffffff16905090565b604051806101c0016040528060608152602001600081526020016060815260200160008152602001606081526020016060815260200160608152602001600081526020016060815260200160608152602001600080191681526020016000815260200160008152602001606081525090565b6040518060a001604052806000815260200160008152602001600073ffffffffffffffffffffffffffffffffffffffff168152602001600073ffffffffffffffffffffffffffffffffffffffff168152602001606081525090565b6000604051905090565b600080fd5b600080fd5b600073ffffffffffffffffffffffffffffffffffffffff82169050919050565b6000610cde82610cb3565b9050919050565b610cee81610cd3565b8114610cf957600080fd5b50565b600081359050610d0b81610ce5565b92915050565b60008060408385031215610d2857610d27610ca9565b5b6000610d3685828601610cfc565b9250506020610d4785828601610cfc565b9150509250929050565b600081519050919050565b600082825260208201905092915050565b60005b83811015610d8b578082015181840152602081019050610d70565b60008484015250505050565b6000601f19601f8301169050919050565b6000610db382610d51565b610dbd8185610d5c565b9350610dcd818560208601610d6d565b610dd681610d97565b840191505092915050565b6000819050919050565b610df481610de1565b82525050565b6000819050919050565b610e0d81610dfa565b82525050565b600081519050919050565b600082825260208201905092915050565b6000819050602082019050919050565b610e4881610cd3565b82525050565b600060a083016000830151610e666000860182610deb565b506020830151610e796020860182610deb565b506040830151610e8c6040860182610e3f565b506060830151610e9f6060860182610e3f565b5060808301518482036080860152610eb78282610da8565b9150508091505092915050565b6000610ed08383610e4e565b905092915050565b6000602082019050919050565b6000610ef082610e13565b610efa8185610e1e565b935083602082028501610f0c85610e2f565b8060005b85811015610f485784840389528151610f298582610ec4565b9450610f3483610ed8565b925060208a01995050600181019050610f10565b50829750879550505050505092915050565b60006101c0830160008301518482036000860152610f788282610da8565b9150506020830151610f8d6020860182610deb565b5060408301518482036040860152610fa58282610da8565b9150506060830151610fba6060860182610deb565b5060808301518482036080860152610fd28282610da8565b91505060a083015184820360a0860152610fec8282610da8565b91505060c083015184820360c08601526110068282610da8565b91505060e083015161101b60e0860182610deb565b506101008301518482036101008601526110358282610da8565b9150506101208301518482036101208601526110518282610da8565b915050610140830151611068610140860182610e04565b5061016083015161107d610160860182610deb565b50610180830151611092610180860182610deb565b506101a08301518482036101a08601526110ac8282610ee5565b9150508091505092915050565b600060208201905081810360008301526110d38184610f5a565b905092915050565b6110e481610cd3565b82525050565b60006020820190506110ff60008301846110db565b92915050565b60008115159050919050565b61111a81611105565b82525050565b60006020820190506111356000830184611111565b92915050565b600080fd5b7f4e487b7100000000000000000000000000000000000000000000000000000000600052604160045260246000fd5b61117882610d97565b810181811067ffffffffffffffff8211171561119757611196611140565b5b80604052505050565b60006111aa610c9f565b90506111b6828261116f565b919050565b600080fd5b6111c981610de1565b81146111d457600080fd5b50565b6000813590506111e6816111c0565b92915050565b600080fd5b600080fd5b600067ffffffffffffffff82111561121157611210611140565b5b61121a82610d97565b9050602081019050919050565b82818337600083830152505050565b6000611249611244846111f6565b6111a0565b905082815260208101848484011115611265576112646111f1565b5b611270848285611227565b509392505050565b600082601f83011261128d5761128c6111ec565b5b813561129d848260208601611236565b91505092915050565b600060a082840312156112bc576112bb61113b565b5b6112c660a06111a0565b905060006112d6848285016111d7565b60008301525060206112ea848285016111d7565b60208301525060406112fe84828501610cfc565b604083015250606061131284828501610cfc565b606083015250608082013567ffffffffffffffff811115611336576113356111bb565b5b61134284828501611278565b60808301525092915050565b60006020828403121561136457611363610ca9565b5b600082013567ffffffffffffffff81111561138257611381610cae565b5b61138e848285016112a6565b91505092915050565b600060a0830160008301516113af6000860182610deb565b5060208301516113c26020860182610deb565b5060408301516113d56040860182610e3f565b5060608301516113e86060860182610e3f565b50608083015184820360808601526114008282610da8565b9150508091505092915050565b600060208201905081810360008301526114278184611397565b905092915050565b7f4e487b7100000000000000000000000000000000000000000000000000000000600052602260045260246000fd5b6000600282049050600182168061147657607f821691505b6020821081036114895761148861142f565b5b50919050565b60008190508160005260206000209050919050565b60006020601f8301049050919050565b600082821b905092915050565b6000600883026114f17fffffffffffffffffffffffffffffffffffffffffffffffffffffffffffffffff826114b4565b6114fb86836114b4565b95508019841693508086168417925050509392505050565b6000819050919050565b600061153861153361152e84610de1565b611513565b610de1565b9050919050565b6000819050919050565b6115528361151d565b61156661155e8261153f565b8484546114c1565b825550505050565b600090565b61157b61156e565b611586818484611549565b505050565b5b818110156115aa5761159f600082611573565b60018101905061158c565b5050565b601f8211156115ef576115c08161148f565b6115c9846114a4565b810160208510156115d8578190505b6115ec6115e4856114a4565b83018261158b565b50505b505050565b600082821c905092915050565b6000611612600019846008026115f4565b1980831691505092915050565b600061162b8383611601565b9150826002028217905092915050565b61164482610d51565b67ffffffffffffffff81111561165d5761165c611140565b5b611667825461145e565b6116728282856115ae565b600060209050601f8311600181146116a55760008415611693578287015190505b61169d858261161f565b865550611705565b601f1984166116b38661148f565b60005b828110156116db578489015182556001820191506020850194506020810190506116b6565b868310156116f857848901516116f4601f891682611601565b8355505b6001600288020188555050505b505050505050565b7f4e487b7100000000000000000000000000000000000000000000000000000000600052601160045260246000fd5b600061174782610de1565b915061175283610de1565b925082820390508181111561176a5761176961170d565b5b92915050565b7f4e487b7100000000000000000000000000000000000000000000000000000000600052603260045260246000fdfea2646970667358221220c498fd7166f9e4d35250613928aa11e6448b5d9e7e6b5ed206864d0c37f5224e64736f6c63430008110033a264697066735822122029de53a94ccc6969230ff50ca435684da358f3e2bcba14e6c8496f6c7390d62164736f6c63430008110033",
  "immutableReferences": {},
  "source": "// SPDX-License-Identifier: MIT\n\npragma solidity ^0.8.17;\n\nimport \"./form.sol\";\n\n// This is a special contract that generates Form contracts, that have their own methods to generate and update their\n// attributes, while keeping track of all the forms in the blockchain.\n\ncontract FormFactory {\n    // Events are a way for contract to communicate that something happened on the blockchain to your app front-end,\n    // which can be 'listening' for certain events and take action when they happen.\n\n    // newForm: Event to be emitted when a new form is created.\n    // NOTE: If more fields are needed, change the emit in createForm.\n    event newForm(uint caseNumber, address caseAddress, FormData data);\n    event formFound(address caseAddress, FormData data);\n\n    // Mapping to store the forms for the evidence of the cases.\n    mapping(address => Form) private addressToForm;\n    // Mapping to store the addresses of the forms currently in charge of every user.\n    mapping(address => address[]) private userToFormAddresses;\n    // Array to store the addresses of the forms for the evidence of the cases.\n    address[] private listFormAddress; // TODO: private?\n\n    /**\n     *   @dev Function to create a new form for the evidence of the case.\n     *\n     *   @param _numbers All numerical information in the form\n     *   @param _strings All textual information in the form\n     *   @param _hashValue Hash value of the evidence\n     */\n    function createForm(\n        uint[] memory _numbers,\n        string[] memory _strings,\n        bytes32 _hashValue\n    ) public returns (address) {\n        // Generation of new address for the form.\n        address entityAddress = createAddress();\n        // Creation of the new Form directly in the mapping object\n        addressToForm[entityAddress] = new Form(_numbers, _strings, _hashValue);\n        addressToForm[entityAddress].pushLog(\n            Log(0, block.timestamp, msg.sender, msg.sender, \"Form created\")\n        );\n        userToFormAddresses[msg.sender].push(entityAddress);\n        // Emit the event newForm.\n        emit newForm(\n            _numbers[0],\n            entityAddress,\n            readFormAddress(entityAddress)\n        );\n        // Push entityAddress to the list of form addresses.\n        listFormAddress.push(entityAddress);\n        return entityAddress;\n    }\n\n    /**\n     *   @dev Function to get a form from its address.\n     *\n     *   @param _caseAddress address of the case\n     *\n     *   @return Form form required\n     */\n    function findForm(address _caseAddress) public view returns (Form) {\n        return addressToForm[_caseAddress];\n    }\n\n    /**\n     *   @dev Function to get form data from itself.\n     *\n     *   @param _form form which data is required\n     *\n     *   @return FormData Struct that contains the data of the form\n     */\n    function readForm(Form _form) public view returns (FormData memory) {\n        return _form.readForm();\n    }\n\n    /**\n     *   @dev Function to get form data from an address.\n     *\n     *   @param _caseAddress address of the case\n     *\n     *   @return FormData Struct that contains the data of the form required\n     */\n    function readFormAddress(\n        address _caseAddress\n    ) public view returns (FormData memory) {\n        return readForm(findForm(_caseAddress));\n    }\n\n    /**\n     *   @dev Function that compute a random address.\n     *\n     *   @return address randomly generated\n     */\n    function createAddress() private view returns (address) {\n        return\n            address(\n                uint160(\n                    uint(\n                        keccak256(\n                            abi.encodePacked(\n                                block.timestamp,\n                                block.difficulty,\n                                msg.sender\n                            )\n                        )\n                    )\n                )\n            );\n    }\n\n    /**\n     *   @dev Function that returns the forms in charge of an user.\n     *\n     *   @return address array with addresses of forms in charge of an user\n     */\n    function getUserFormAddresses(\n        address _userAddress\n    ) public view returns (address[] memory) {\n        return userToFormAddresses[_userAddress];\n    }\n\n    /**\n     *   @dev Function that makes msg.sender the new owner of a free form.\n     *\n     *   @param _formAddress address of the form\n     *\n     *   @param _reason reason for taking the form (necessary in the chain of custody)\n     *\n     */\n    function getForm(address _formAddress, string memory _reason) public {\n        require(findForm(_formAddress).isAvailable()); // the form must be available in order to be taken\n        findForm(_formAddress).pushLog(\n            Log( // push of a new log in the chain of custody\n                findForm(_formAddress).lastLog().trackingNumber + 1,\n                block.timestamp,\n                findForm(_formAddress).lastLog().receivedBy,\n                msg.sender,\n                _reason\n            )\n        );\n        userToFormAddresses[msg.sender].push(_formAddress); // the form is now added to msg.sender owned forms\n        findForm(_formAddress).setTaken(); // and is marked as not available, no one could take it now\n    }\n\n    /**\n     *   @dev Function that makes a form available, if msg.sender is the current owner.\n     *\n     *   @param _formAddress address of the form to free\n     *\n     */\n    function releaseForm(address _formAddress) public {\n        require(findForm(_formAddress).lastLog().receivedBy == msg.sender); // run only if current owner is msg.sender\n        findForm(_formAddress).setAvailable(); // form is now marked as available\n        removeAddressInAUserList(msg.sender, _formAddress); // and its address is removed from msg.sender list\n    }\n\n    /**\n     *   @dev Function that makes a form available for a given user, if msg.sender is the current owner.\n     *\n     *   @param _formAddress address of the form to give to a user\n     *\n     *   @param _taker address of the future owner of the form\n     */\n    function giveForm(address _formAddress, address _taker) public {\n        require(findForm(_formAddress).lastLog().receivedBy == msg.sender); // run only if current owner is msg.sender\n        findForm(_formAddress).setGiverTaker(msg.sender, _taker);\n        // mandare un evento??\n    }\n\n    /**\n     *   @dev Function that accept a form that has been sent to them.\n     *\n     *   @param _formAddress address of the form to accept\n     *\n     *   @param _reason reason to accept the form\n     */\n    function acceptForm(address _formAddress, string memory _reason) public {\n        require(findForm(_formAddress).getTaker() == msg.sender); // run only if current owner is msg.sender\n        userToFormAddresses[msg.sender].push(_formAddress); // the form is now added to msg.sender owned forms\n        findForm(_formAddress).pushLog(\n            Log( // push of a new log in the chain of custody\n                findForm(_formAddress).lastLog().trackingNumber + 1,\n                block.timestamp,\n                findForm(_formAddress).lastLog().receivedBy,\n                msg.sender,\n                _reason\n            )\n        );\n        removeAddressInAUserList(\n            findForm(_formAddress).getGiver(),\n            _formAddress\n        );\n        findForm(_formAddress).resetGiverTaker();\n    }\n\n    /**\n     *   @dev Function that rejects a form that has been sent to them.\n     *\n     *   @param _formAddress form to reject\n     */\n    function rejectForm(address _formAddress) public {\n        require(\n            findForm(_formAddress).getTaker() == msg.sender ||\n                findForm(_formAddress).getGiver() == msg.sender\n        );\n        findForm(_formAddress).resetGiverTaker();\n    }\n\n    /**\n     *   @dev Function that removes a certain address of a certain user.\n     *\n     *   @param _userAddress address of the user we want to take the evidence from\n     *\n     *   @param _formAddress address of the form we want to remove from _userAddress\n     */\n    function removeAddressInAUserList(\n        address _userAddress,\n        address _formAddress\n    ) private {\n        require(userToFormAddresses[_userAddress].length > 0);\n\n        uint userAddressesLength = userToFormAddresses[_userAddress].length;\n\n        for (uint i = 0; i < userAddressesLength; i++) {\n            // look into the addresses linked to _userAddress\n            if (userToFormAddresses[_userAddress][i] == _formAddress) {\n                // copy the last element in the index we want to remove\n                userToFormAddresses[_userAddress][i] = userToFormAddresses[\n                    _userAddress\n                ][userAddressesLength - 1];\n                userToFormAddresses[_userAddress].pop(); // remove the last element\n            }\n        }\n    }\n\n    function isAFormAvailable(address _formAddress) public view returns (bool) {\n        return findForm(_formAddress).isAvailable();\n    }\n\n    function findContractTaker() public view returns (address[] memory) {\n        // Count the number of forms that match the sender as taker\n        uint count = countFormsForTaker(msg.sender);\n        // Array to store all the forms addresses that match the sender as taker\n        address[] memory listFormAddressTaker = new address[](count);\n        uint j;\n        // Search contract with sender registered as taker\n        for (uint i = 0; i < listFormAddress.length; i++) {\n            if (findForm(listFormAddress[i]).getTaker() == msg.sender) {\n                listFormAddressTaker[j] = listFormAddress[i];\n                j++;\n            }\n        }\n        return listFormAddressTaker;\n    }\n\n    function countFormsForTaker(address _taker) public view returns (uint) {\n        // Count the number of forms that match the sender as taker\n        uint count = 0;\n        for (uint i = 0; i < listFormAddress.length; i++) {\n            if (findForm(listFormAddress[i]).getTaker() == _taker) count++;\n        }\n        return count;\n    }\n\n    function findContractByDate(uint _from) public view returns (address[] memory) {\n        // Count the number of forms that match the sender as taker\n        uint count = countFormsBasedOnDate(_from);\n        // Array to store all the forms addresses that match the sender as taker\n        address[] memory listFormAddressReturned = new address[](count);\n        uint j;\n        // Search contract with sender registered as taker\n        for (uint i = 0; i < listFormAddress.length; i++) {\n            if (findForm(listFormAddress[i]).readForm().date >= _from) {\n                listFormAddressReturned[j] = listFormAddress[i];\n                j++;\n            }\n        }\n        return listFormAddressReturned;\n    }\n\n    function countFormsBasedOnDate(uint _from) public view returns (uint) {\n        uint count = 0;\n        for (uint i = 0; i < listFormAddress.length; i++) {\n            if (findForm(listFormAddress[i]).readForm().date >= _from)\n                count++;\n        }\n        return count;\n    }\n}\n",
  "sourcePath": "/Users/lorenzocrespan/Documents/Workspace/University/90748 - Blockchain and Cryptocurrencies/BlueWoodchuck/project/blockchain/contracts/contracts/formFactory.sol",
  "compiler": {
    "name": "solc",
    "version": "0.8.17+commit.8df45f5f.Emscripten.clang"
  },
  "schemaVersion": "3.4.12",
  "updatedAt": "2023-03-12T19:18:22.122Z",
  "networkType": "ethereum",
  "devdoc": {
    "kind": "dev",
    "methods": {
      "acceptForm(address,string)": {
        "details": "Function that accept a form that has been sent to them.",
        "params": {
          "_formAddress": "address of the form to accept",
          "_reason": "reason to accept the form"
        }
      },
      "createForm(uint256[],string[],bytes32)": {
        "details": "Function to create a new form for the evidence of the case.",
        "params": {
          "_hashValue": "Hash value of the evidence",
          "_numbers": "All numerical information in the form",
          "_strings": "All textual information in the form"
        }
      },
      "findForm(address)": {
        "details": "Function to get a form from its address.",
        "params": {
          "_caseAddress": "address of the case"
        },
        "returns": {
          "_0": "Form form required"
        }
      },
      "getForm(address,string)": {
        "details": "Function that makes msg.sender the new owner of a free form.",
        "params": {
          "_formAddress": "address of the form",
          "_reason": "reason for taking the form (necessary in the chain of custody)"
        }
      },
      "getUserFormAddresses(address)": {
        "details": "Function that returns the forms in charge of an user.",
        "returns": {
          "_0": "address array with addresses of forms in charge of an user"
        }
      },
      "giveForm(address,address)": {
        "details": "Function that makes a form available for a given user, if msg.sender is the current owner.",
        "params": {
          "_formAddress": "address of the form to give to a user",
          "_taker": "address of the future owner of the form"
        }
      },
      "readForm(address)": {
        "details": "Function to get form data from itself.",
        "params": {
          "_form": "form which data is required"
        },
        "returns": {
          "_0": "FormData Struct that contains the data of the form"
        }
      },
      "readFormAddress(address)": {
        "details": "Function to get form data from an address.",
        "params": {
          "_caseAddress": "address of the case"
        },
        "returns": {
          "_0": "FormData Struct that contains the data of the form required"
        }
      },
      "rejectForm(address)": {
        "details": "Function that rejects a form that has been sent to them.",
        "params": {
          "_formAddress": "form to reject"
        }
      },
      "releaseForm(address)": {
        "details": "Function that makes a form available, if msg.sender is the current owner.",
        "params": {
          "_formAddress": "address of the form to free"
        }
      }
    },
    "version": 1
  },
  "userdoc": {
    "kind": "user",
    "methods": {},
    "version": 1
  }
}