{
  "contractName": "Form",
  "abi": [
    {
      "inputs": [
        {
          "internalType": "uint256[]",
          "name": "_numbers",
          "type": "uint256[]"
        },
        {
          "internalType": "string[]",
          "name": "_strings",
          "type": "string[]"
        },
        {
          "internalType": "bytes32",
          "name": "_hashValue",
          "type": "bytes32"
        }
      ],
      "stateMutability": "nonpayable",
      "type": "constructor"
    },
    {
      "inputs": [],
      "name": "readForm",
      "outputs": [
        {
          "components": [
            {
              "internalType": "string",
              "name": "caseName",
              "type": "string"
            },
            {
              "internalType": "uint256",
              "name": "caseNumber",
              "type": "uint256"
            },
            {
              "internalType": "string",
              "name": "reasonObtained",
              "type": "string"
            },
            {
              "internalType": "uint256",
              "name": "itemNumber",
              "type": "uint256"
            },
            {
              "internalType": "string",
              "name": "evidenceTypeManufacturer",
              "type": "string"
            },
            {
              "internalType": "string",
              "name": "owner",
              "type": "string"
            },
            {
              "internalType": "string",
              "name": "contentDescription",
              "type": "string"
            },
            {
              "internalType": "uint256",
              "name": "contentOwnerContactInformation",
              "type": "uint256"
            },
            {
              "internalType": "string",
              "name": "forensicAgent",
              "type": "string"
            },
            {
              "internalType": "string",
              "name": "creationMethod",
              "type": "string"
            },
            {
              "internalType": "bytes32",
              "name": "hashValue",
              "type": "bytes32"
            },
            {
              "internalType": "uint256",
              "name": "date",
              "type": "uint256"
            },
            {
              "internalType": "uint256",
              "name": "forensicAgentContactInformation",
              "type": "uint256"
            },
            {
              "components": [
                {
                  "internalType": "uint256",
                  "name": "trackingNumber",
                  "type": "uint256"
                },
                {
                  "internalType": "uint256",
                  "name": "timestamp",
                  "type": "uint256"
                },
                {
                  "internalType": "address",
                  "name": "releasedBy",
                  "type": "address"
                },
                {
                  "internalType": "address",
                  "name": "receivedBy",
                  "type": "address"
                },
                {
                  "internalType": "string",
                  "name": "reasonForChange",
                  "type": "string"
                }
              ],
              "internalType": "struct Log[]",
              "name": "chainOfCustody",
              "type": "tuple[]"
            }
          ],
          "internalType": "struct FormData",
          "name": "",
          "type": "tuple"
        }
      ],
      "stateMutability": "view",
      "type": "function"
    },
    {
      "inputs": [
        {
          "components": [
            {
              "internalType": "uint256",
              "name": "trackingNumber",
              "type": "uint256"
            },
            {
              "internalType": "uint256",
              "name": "timestamp",
              "type": "uint256"
            },
            {
              "internalType": "address",
              "name": "releasedBy",
              "type": "address"
            },
            {
              "internalType": "address",
              "name": "receivedBy",
              "type": "address"
            },
            {
              "internalType": "string",
              "name": "reasonForChange",
              "type": "string"
            }
          ],
          "internalType": "struct Log",
          "name": "_log",
          "type": "tuple"
        }
      ],
      "name": "pushLog",
      "outputs": [],
      "stateMutability": "nonpayable",
      "type": "function"
    },
    {
      "inputs": [],
      "name": "lastLog",
      "outputs": [
        {
          "components": [
            {
              "internalType": "uint256",
              "name": "trackingNumber",
              "type": "uint256"
            },
            {
              "internalType": "uint256",
              "name": "timestamp",
              "type": "uint256"
            },
            {
              "internalType": "address",
              "name": "releasedBy",
              "type": "address"
            },
            {
              "internalType": "address",
              "name": "receivedBy",
              "type": "address"
            },
            {
              "internalType": "string",
              "name": "reasonForChange",
              "type": "string"
            }
          ],
          "internalType": "struct Log",
          "name": "",
          "type": "tuple"
        }
      ],
      "stateMutability": "view",
      "type": "function"
    }
  ],
  "bytecode": "0x60806040523480156200001157600080fd5b5060405162001ee838038062001ee8833981810160405281019062000037919062000651565b816000815181106200004e576200004d620006eb565b5b60200260200101516000800190816200006891906200095b565b508160018151811062000080576200007f620006eb565b5b6020026020010151600060020190816200009b91906200095b565b5081600281518110620000b357620000b2620006eb565b5b602002602001015160006004019081620000ce91906200095b565b5081600381518110620000e657620000e5620006eb565b5b6020026020010151600060050190816200010191906200095b565b5081600481518110620001195762000118620006eb565b5b6020026020010151600060060190816200013491906200095b565b50816005815181106200014c576200014b620006eb565b5b6020026020010151600060080190816200016791906200095b565b50816006815181106200017f576200017e620006eb565b5b6020026020010151600060090190816200019a91906200095b565b5082600081518110620001b257620001b1620006eb565b5b602002602001015160006001018190555082600181518110620001da57620001d9620006eb565b5b602002602001015160006003018190555082600281518110620002025762000201620006eb565b5b6020026020010151600060070181905550826003815181106200022a5762000229620006eb565b5b60200260200101516000600b018190555082600481518110620002525762000251620006eb565b5b60200260200101516000600c0181905550806000600a018190555050505062000a42565b6000604051905090565b600080fd5b600080fd5b600080fd5b6000601f19601f8301169050919050565b7f4e487b7100000000000000000000000000000000000000000000000000000000600052604160045260246000fd5b620002da826200028f565b810181811067ffffffffffffffff82111715620002fc57620002fb620002a0565b5b80604052505050565b60006200031162000276565b90506200031f8282620002cf565b919050565b600067ffffffffffffffff821115620003425762000341620002a0565b5b602082029050602081019050919050565b600080fd5b6000819050919050565b6200036d8162000358565b81146200037957600080fd5b50565b6000815190506200038d8162000362565b92915050565b6000620003aa620003a48462000324565b62000305565b90508083825260208201905060208402830185811115620003d057620003cf62000353565b5b835b81811015620003fd5780620003e888826200037c565b845260208401935050602081019050620003d2565b5050509392505050565b600082601f8301126200041f576200041e6200028a565b5b81516200043184826020860162000393565b91505092915050565b600067ffffffffffffffff821115620004585762000457620002a0565b5b602082029050602081019050919050565b600080fd5b600067ffffffffffffffff8211156200048c576200048b620002a0565b5b62000497826200028f565b9050602081019050919050565b60005b83811015620004c4578082015181840152602081019050620004a7565b60008484015250505050565b6000620004e7620004e1846200046e565b62000305565b90508281526020810184848401111562000506576200050562000469565b5b62000513848285620004a4565b509392505050565b600082601f8301126200053357620005326200028a565b5b815162000545848260208601620004d0565b91505092915050565b6000620005656200055f846200043a565b62000305565b905080838252602082019050602084028301858111156200058b576200058a62000353565b5b835b81811015620005d957805167ffffffffffffffff811115620005b457620005b36200028a565b5b808601620005c389826200051b565b855260208501945050506020810190506200058d565b5050509392505050565b600082601f830112620005fb57620005fa6200028a565b5b81516200060d8482602086016200054e565b91505092915050565b6000819050919050565b6200062b8162000616565b81146200063757600080fd5b50565b6000815190506200064b8162000620565b92915050565b6000806000606084860312156200066d576200066c62000280565b5b600084015167ffffffffffffffff8111156200068e576200068d62000285565b5b6200069c8682870162000407565b935050602084015167ffffffffffffffff811115620006c057620006bf62000285565b5b620006ce86828701620005e3565b9250506040620006e1868287016200063a565b9150509250925092565b7f4e487b7100000000000000000000000000000000000000000000000000000000600052603260045260246000fd5b600081519050919050565b7f4e487b7100000000000000000000000000000000000000000000000000000000600052602260045260246000fd5b600060028204905060018216806200076d57607f821691505b60208210810362000783576200078262000725565b5b50919050565b60008190508160005260206000209050919050565b60006020601f8301049050919050565b600082821b905092915050565b600060088302620007ed7fffffffffffffffffffffffffffffffffffffffffffffffffffffffffffffffff82620007ae565b620007f98683620007ae565b95508019841693508086168417925050509392505050565b6000819050919050565b60006200083c62000836620008308462000358565b62000811565b62000358565b9050919050565b6000819050919050565b62000858836200081b565b62000870620008678262000843565b848454620007bb565b825550505050565b600090565b6200088762000878565b620008948184846200084d565b505050565b5b81811015620008bc57620008b06000826200087d565b6001810190506200089a565b5050565b601f8211156200090b57620008d58162000789565b620008e0846200079e565b81016020851015620008f0578190505b62000908620008ff856200079e565b83018262000899565b50505b505050565b600082821c905092915050565b6000620009306000198460080262000910565b1980831691505092915050565b60006200094b83836200091d565b9150826002028217905092915050565b62000966826200071a565b67ffffffffffffffff811115620009825762000981620002a0565b5b6200098e825462000754565b6200099b828285620008c0565b600060209050601f831160018114620009d35760008415620009be578287015190505b620009ca85826200093d565b86555062000a3a565b601f198416620009e38662000789565b60005b8281101562000a0d57848901518255600182019150602085019450602081019050620009e6565b8683101562000a2d578489015162000a29601f8916826200091d565b8355505b6001600288020188555050505b505050505050565b6114968062000a526000396000f3fe608060405234801561001057600080fd5b50600436106100415760003560e01c80635426177e146100465780639032198814610064578063d08145e414610080575b600080fd5b61004e61009e565b60405161005b9190610d9a565b60405180910390f35b61007e6004803603810190610079919061100f565b6106a4565b005b610088610790565b60405161009591906110ce565b60405180910390f35b6100a6610933565b6000604051806101c00160405290816000820180546100c49061111f565b80601f01602080910402602001604051908101604052809291908181526020018280546100f09061111f565b801561013d5780601f106101125761010080835404028352916020019161013d565b820191906000526020600020905b81548152906001019060200180831161012057829003601f168201915b50505050508152602001600182015481526020016002820180546101609061111f565b80601f016020809104026020016040519081016040528092919081815260200182805461018c9061111f565b80156101d95780601f106101ae576101008083540402835291602001916101d9565b820191906000526020600020905b8154815290600101906020018083116101bc57829003601f168201915b50505050508152602001600382015481526020016004820180546101fc9061111f565b80601f01602080910402602001604051908101604052809291908181526020018280546102289061111f565b80156102755780601f1061024a57610100808354040283529160200191610275565b820191906000526020600020905b81548152906001019060200180831161025857829003601f168201915b5050505050815260200160058201805461028e9061111f565b80601f01602080910402602001604051908101604052809291908181526020018280546102ba9061111f565b80156103075780601f106102dc57610100808354040283529160200191610307565b820191906000526020600020905b8154815290600101906020018083116102ea57829003601f168201915b505050505081526020016006820180546103209061111f565b80601f016020809104026020016040519081016040528092919081815260200182805461034c9061111f565b80156103995780601f1061036e57610100808354040283529160200191610399565b820191906000526020600020905b81548152906001019060200180831161037c57829003601f168201915b50505050508152602001600782015481526020016008820180546103bc9061111f565b80601f01602080910402602001604051908101604052809291908181526020018280546103e89061111f565b80156104355780601f1061040a57610100808354040283529160200191610435565b820191906000526020600020905b81548152906001019060200180831161041857829003601f168201915b5050505050815260200160098201805461044e9061111f565b80601f016020809104026020016040519081016040528092919081815260200182805461047a9061111f565b80156104c75780601f1061049c576101008083540402835291602001916104c7565b820191906000526020600020905b8154815290600101906020018083116104aa57829003601f168201915b50505050508152602001600a8201548152602001600b8201548152602001600c8201548152602001600d8201805480602002602001604051908101604052809291908181526020016000905b8282101561069757838290600052602060002090600502016040518060a001604052908160008201548152602001600182015481526020016002820160009054906101000a900473ffffffffffffffffffffffffffffffffffffffff1673ffffffffffffffffffffffffffffffffffffffff1673ffffffffffffffffffffffffffffffffffffffff1681526020016003820160009054906101000a900473ffffffffffffffffffffffffffffffffffffffff1673ffffffffffffffffffffffffffffffffffffffff1673ffffffffffffffffffffffffffffffffffffffff1681526020016004820180546106069061111f565b80601f01602080910402602001604051908101604052809291908181526020018280546106329061111f565b801561067f5780601f106106545761010080835404028352916020019161067f565b820191906000526020600020905b81548152906001019060200180831161066257829003601f168201915b50505050508152505081526020019060010190610513565b5050505081525050905090565b6000600d01819080600181540180825580915050600190039060005260206000209060050201600090919091909150600082015181600001556020820151816001015560408201518160020160006101000a81548173ffffffffffffffffffffffffffffffffffffffff021916908373ffffffffffffffffffffffffffffffffffffffff16021790555060608201518160030160006101000a81548173ffffffffffffffffffffffffffffffffffffffff021916908373ffffffffffffffffffffffffffffffffffffffff160217905550608082015181600401908161078a91906112fc565b50505050565b6107986109a5565b6000600d0160016000600d01805490506107b291906113fd565b815481106107c3576107c2611431565b5b90600052602060002090600502016040518060a001604052908160008201548152602001600182015481526020016002820160009054906101000a900473ffffffffffffffffffffffffffffffffffffffff1673ffffffffffffffffffffffffffffffffffffffff1673ffffffffffffffffffffffffffffffffffffffff1681526020016003820160009054906101000a900473ffffffffffffffffffffffffffffffffffffffff1673ffffffffffffffffffffffffffffffffffffffff1673ffffffffffffffffffffffffffffffffffffffff1681526020016004820180546108ac9061111f565b80601f01602080910402602001604051908101604052809291908181526020018280546108d89061111f565b80156109255780601f106108fa57610100808354040283529160200191610925565b820191906000526020600020905b81548152906001019060200180831161090857829003601f168201915b505050505081525050905090565b604051806101c0016040528060608152602001600081526020016060815260200160008152602001606081526020016060815260200160608152602001600081526020016060815260200160608152602001600080191681526020016000815260200160008152602001606081525090565b6040518060a001604052806000815260200160008152602001600073ffffffffffffffffffffffffffffffffffffffff168152602001600073ffffffffffffffffffffffffffffffffffffffff168152602001606081525090565b600081519050919050565b600082825260208201905092915050565b60005b83811015610a3a578082015181840152602081019050610a1f565b60008484015250505050565b6000601f19601f8301169050919050565b6000610a6282610a00565b610a6c8185610a0b565b9350610a7c818560208601610a1c565b610a8581610a46565b840191505092915050565b6000819050919050565b610aa381610a90565b82525050565b6000819050919050565b610abc81610aa9565b82525050565b600081519050919050565b600082825260208201905092915050565b6000819050602082019050919050565b600073ffffffffffffffffffffffffffffffffffffffff82169050919050565b6000610b1982610aee565b9050919050565b610b2981610b0e565b82525050565b600060a083016000830151610b476000860182610a9a565b506020830151610b5a6020860182610a9a565b506040830151610b6d6040860182610b20565b506060830151610b806060860182610b20565b5060808301518482036080860152610b988282610a57565b9150508091505092915050565b6000610bb18383610b2f565b905092915050565b6000602082019050919050565b6000610bd182610ac2565b610bdb8185610acd565b935083602082028501610bed85610ade565b8060005b85811015610c295784840389528151610c0a8582610ba5565b9450610c1583610bb9565b925060208a01995050600181019050610bf1565b50829750879550505050505092915050565b60006101c0830160008301518482036000860152610c598282610a57565b9150506020830151610c6e6020860182610a9a565b5060408301518482036040860152610c868282610a57565b9150506060830151610c9b6060860182610a9a565b5060808301518482036080860152610cb38282610a57565b91505060a083015184820360a0860152610ccd8282610a57565b91505060c083015184820360c0860152610ce78282610a57565b91505060e0830151610cfc60e0860182610a9a565b50610100830151848203610100860152610d168282610a57565b915050610120830151848203610120860152610d328282610a57565b915050610140830151610d49610140860182610ab3565b50610160830151610d5e610160860182610a9a565b50610180830151610d73610180860182610a9a565b506101a08301518482036101a0860152610d8d8282610bc6565b9150508091505092915050565b60006020820190508181036000830152610db48184610c3b565b905092915050565b6000604051905090565b600080fd5b600080fd5b600080fd5b7f4e487b7100000000000000000000000000000000000000000000000000000000600052604160045260246000fd5b610e0d82610a46565b810181811067ffffffffffffffff82111715610e2c57610e2b610dd5565b5b80604052505050565b6000610e3f610dbc565b9050610e4b8282610e04565b919050565b600080fd5b610e5e81610a90565b8114610e6957600080fd5b50565b600081359050610e7b81610e55565b92915050565b610e8a81610b0e565b8114610e9557600080fd5b50565b600081359050610ea781610e81565b92915050565b600080fd5b600080fd5b600067ffffffffffffffff821115610ed257610ed1610dd5565b5b610edb82610a46565b9050602081019050919050565b82818337600083830152505050565b6000610f0a610f0584610eb7565b610e35565b905082815260208101848484011115610f2657610f25610eb2565b5b610f31848285610ee8565b509392505050565b600082601f830112610f4e57610f4d610ead565b5b8135610f5e848260208601610ef7565b91505092915050565b600060a08284031215610f7d57610f7c610dd0565b5b610f8760a0610e35565b90506000610f9784828501610e6c565b6000830152506020610fab84828501610e6c565b6020830152506040610fbf84828501610e98565b6040830152506060610fd384828501610e98565b606083015250608082013567ffffffffffffffff811115610ff757610ff6610e50565b5b61100384828501610f39565b60808301525092915050565b60006020828403121561102557611024610dc6565b5b600082013567ffffffffffffffff81111561104357611042610dcb565b5b61104f84828501610f67565b91505092915050565b600060a0830160008301516110706000860182610a9a565b5060208301516110836020860182610a9a565b5060408301516110966040860182610b20565b5060608301516110a96060860182610b20565b50608083015184820360808601526110c18282610a57565b9150508091505092915050565b600060208201905081810360008301526110e88184611058565b905092915050565b7f4e487b7100000000000000000000000000000000000000000000000000000000600052602260045260246000fd5b6000600282049050600182168061113757607f821691505b60208210810361114a576111496110f0565b5b50919050565b60008190508160005260206000209050919050565b60006020601f8301049050919050565b600082821b905092915050565b6000600883026111b27fffffffffffffffffffffffffffffffffffffffffffffffffffffffffffffffff82611175565b6111bc8683611175565b95508019841693508086168417925050509392505050565b6000819050919050565b60006111f96111f46111ef84610a90565b6111d4565b610a90565b9050919050565b6000819050919050565b611213836111de565b61122761121f82611200565b848454611182565b825550505050565b600090565b61123c61122f565b61124781848461120a565b505050565b5b8181101561126b57611260600082611234565b60018101905061124d565b5050565b601f8211156112b05761128181611150565b61128a84611165565b81016020851015611299578190505b6112ad6112a585611165565b83018261124c565b50505b505050565b600082821c905092915050565b60006112d3600019846008026112b5565b1980831691505092915050565b60006112ec83836112c2565b9150826002028217905092915050565b61130582610a00565b67ffffffffffffffff81111561131e5761131d610dd5565b5b611328825461111f565b61133382828561126f565b600060209050601f8311600181146113665760008415611354578287015190505b61135e85826112e0565b8655506113c6565b601f19841661137486611150565b60005b8281101561139c57848901518255600182019150602085019450602081019050611377565b868310156113b957848901516113b5601f8916826112c2565b8355505b6001600288020188555050505b505050505050565b7f4e487b7100000000000000000000000000000000000000000000000000000000600052601160045260246000fd5b600061140882610a90565b915061141383610a90565b925082820390508181111561142b5761142a6113ce565b5b92915050565b7f4e487b7100000000000000000000000000000000000000000000000000000000600052603260045260246000fdfea264697066735822122055ee912185eb88bc578c41e070a11f0505c7bbf54264daa04bd03e1371d00eea64736f6c63430008110033",
  "immutableReferences": {},
  "source": "// SPDX-License-Identifier: MIT\n\n// Pragma indicates the version of Solidity compiler to be used for compilation.\n// In truffle, the version of Solidity compiler is specified in truffle-config.js,\n// if not specified, the default version is 0.5.16.\n\npragma solidity ^0.8.17;\n\n// Contract is a collection of functions and data (its state) that resides at a specific address on the Ethereum blockchain.\n// The following contract is used to create a form for the evidence.\n\n// Struct to store the information of the chain of custody.\n    struct Log {\n        uint trackingNumber;        // Tracking number of the form\n        uint timestamp;             // Epoch time of the change\n        address releasedBy;         // Address of the entity that released the form\n        address receivedBy;         // Address of the entity that received the form\n        string reasonForChange;     // Reason for the change\n    }\n\n// Struct to store the information of the form.\n    struct FormData {\n        string caseName;                        // Name of the case\n        uint caseNumber;                        // Number of the case\n        string reasonObtained;                  // Reason for obtaining the evidence (?)\n        uint itemNumber;                        // Number of the item\n        string evidenceTypeManufacturer;        // Type of the evidence and manufacturer\n        string owner;                           // Name of the owner of the evidence\n\n        string contentDescription;              // Description of the evidence\n        uint contentOwnerContactInformation;    // Contact information of the owner of the evidence\n        string forensicAgent;                     // Name of the forensic agent\n        string creationMethod;                    // Method of creation of the evidence\n\n        bytes32 hashValue;                      // Hash value of the evidence\n        uint date;                              // Date of the evidence\n        uint forensicAgentContactInformation;   // Contact information of the forensic agent\n\n        Log[] chainOfCustody;                   // Chain of custody of the evidence\n    }\n\ncontract Form {\n    FormData private data;\n\n    constructor (uint[] memory _numbers, string[] memory _strings, bytes32 _hashValue) {\n        // _numbers = [_caseNumber, _itemNumber, _contentOwnerContactInformation, _date,\n        //             _forensicAgentContactInformation]\n        // _strings = [_caseName, _reasonObtained, _evidenceTypeManufacturer, _owner, _contentDescription,\n        //             _forensicAgent, _creationMethod]\n        data.caseName = _strings[0];\n        data.reasonObtained = _strings[1];\n        data.evidenceTypeManufacturer = _strings[2];\n        data.owner = _strings[3];\n        data.contentDescription = _strings[4];\n        data.forensicAgent = _strings[5];\n        data.creationMethod = _strings[6];\n\n        data.caseNumber = _numbers[0];\n        data.itemNumber = _numbers[1];\n        data.contentOwnerContactInformation = _numbers[2];\n        data.date = _numbers[3];\n        data.forensicAgentContactInformation = _numbers[4];\n\n        data.hashValue = _hashValue;\n    }\n\n    /**\n    *   @dev Function to read the form data.\n    *\n    *   @return FormData Struct containing the information of the form\n    */\n\n    function readForm() public view returns (FormData memory) {\n        return data;\n    }\n\n    function pushLog(Log memory _log) public {\n        data.chainOfCustody.push(_log);\n    }\n\n    function lastLog() public view returns (Log memory) {\n        return data.chainOfCustody[data.chainOfCustody.length - 1];\n    }\n}",
  "sourcePath": "/Users/lorenzocrespan/Documents/Workspace/University/BlockchainCryptocurrecies/BlueWoodchuck/project/blockchain/contracts/contracts/form.sol",
  "compiler": {
    "name": "solc",
    "version": "0.8.17+commit.8df45f5f.Emscripten.clang"
  },
  "schemaVersion": "3.4.12",
  "updatedAt": "2023-02-18T18:54:17.302Z",
  "devdoc": {
    "kind": "dev",
    "methods": {
      "readForm()": {
        "details": "Function to read the form data.",
        "returns": {
          "_0": "FormData Struct containing the information of the form"
        }
      }
    },
    "version": 1
  },
  "userdoc": {
    "kind": "user",
    "methods": {},
    "version": 1
  }
}