{
  "contractName": "Form",
  "abi": [
    {
      "anonymous": false,
      "inputs": [
        {
          "indexed": false,
          "internalType": "uint256",
          "name": "caseNumber",
          "type": "uint256"
        },
        {
          "indexed": false,
          "internalType": "address",
          "name": "caseAddress",
          "type": "address"
        }
      ],
      "name": "newForm",
      "type": "event"
    },
    {
      "inputs": [
        {
          "internalType": "uint256",
          "name": "",
          "type": "uint256"
        }
      ],
      "name": "listFormAddress",
      "outputs": [
        {
          "internalType": "address",
          "name": "",
          "type": "address"
        }
      ],
      "stateMutability": "view",
      "type": "function"
    },
    {
      "inputs": [
        {
          "internalType": "address",
          "name": "",
          "type": "address"
        }
      ],
      "name": "listFormMap",
      "outputs": [
        {
          "internalType": "string",
          "name": "caseName",
          "type": "string"
        },
        {
          "internalType": "uint256",
          "name": "caseNumber",
          "type": "uint256"
        }
      ],
      "stateMutability": "view",
      "type": "function"
    },
    {
      "inputs": [
        {
          "internalType": "string",
          "name": "_caseName",
          "type": "string"
        },
        {
          "internalType": "uint256",
          "name": "_caseNumber",
          "type": "uint256"
        }
      ],
      "name": "createForm",
      "outputs": [
        {
          "internalType": "address",
          "name": "",
          "type": "address"
        }
      ],
      "stateMutability": "nonpayable",
      "type": "function"
    },
    {
      "inputs": [
        {
          "internalType": "address",
          "name": "_address",
          "type": "address"
        }
      ],
      "name": "readForm",
      "outputs": [
        {
          "components": [
            {
              "internalType": "string",
              "name": "caseName",
              "type": "string"
            },
            {
              "internalType": "uint256",
              "name": "caseNumber",
              "type": "uint256"
            },
            {
              "components": [
                {
                  "internalType": "uint256",
                  "name": "trackingNumber",
                  "type": "uint256"
                },
                {
                  "internalType": "uint256",
                  "name": "timestamp",
                  "type": "uint256"
                },
                {
                  "internalType": "address",
                  "name": "releasedBy",
                  "type": "address"
                },
                {
                  "internalType": "address",
                  "name": "receivedBy",
                  "type": "address"
                },
                {
                  "internalType": "string",
                  "name": "reasonForChange",
                  "type": "string"
                }
              ],
              "internalType": "struct Form.Log[]",
              "name": "chainOfCustody",
              "type": "tuple[]"
            }
          ],
          "internalType": "struct Form.formData",
          "name": "",
          "type": "tuple"
        }
      ],
      "stateMutability": "view",
      "type": "function"
    }
  ],
  "bytecode": "0x608060405234801561001057600080fd5b50611166806100206000396000f3fe608060405234801561001057600080fd5b506004361061004c5760003560e01c80634b194bf0146100515780637d867fe214610081578063bc1237fe146100b1578063dbc6c4da146100e2575b600080fd5b61006b60048036038101906100669190610850565b610112565b6040516100789190610ac4565b60405180910390f35b61009b60048036038101906100969190610b12565b6103b7565b6040516100a89190610b4e565b60405180910390f35b6100cb60048036038101906100c69190610850565b6103f6565b6040516100d9929190610bc2565b60405180910390f35b6100fc60048036038101906100f79190610d27565b6104a2565b6040516101099190610b4e565b60405180910390f35b61011a6107bd565b6000808373ffffffffffffffffffffffffffffffffffffffff1673ffffffffffffffffffffffffffffffffffffffff16815260200190815260200160002060405180606001604052908160008201805461017390610db2565b80601f016020809104026020016040519081016040528092919081815260200182805461019f90610db2565b80156101ec5780601f106101c1576101008083540402835291602001916101ec565b820191906000526020600020905b8154815290600101906020018083116101cf57829003601f168201915b505050505081526020016001820154815260200160028201805480602002602001604051908101604052809291908181526020016000905b828210156103a857838290600052602060002090600502016040518060a001604052908160008201548152602001600182015481526020016002820160009054906101000a900473ffffffffffffffffffffffffffffffffffffffff1673ffffffffffffffffffffffffffffffffffffffff1673ffffffffffffffffffffffffffffffffffffffff1681526020016003820160009054906101000a900473ffffffffffffffffffffffffffffffffffffffff1673ffffffffffffffffffffffffffffffffffffffff1673ffffffffffffffffffffffffffffffffffffffff16815260200160048201805461031790610db2565b80601f016020809104026020016040519081016040528092919081815260200182805461034390610db2565b80156103905780601f1061036557610100808354040283529160200191610390565b820191906000526020600020905b81548152906001019060200180831161037357829003601f168201915b50505050508152505081526020019060010190610224565b50505050815250509050919050565b600181815481106103c757600080fd5b906000526020600020016000915054906101000a900473ffffffffffffffffffffffffffffffffffffffff1681565b600060205280600052604060002060009150905080600001805461041990610db2565b80601f016020809104026020016040519081016040528092919081815260200182805461044590610db2565b80156104925780601f1061046757610100808354040283529160200191610492565b820191906000526020600020905b81548152906001019060200180831161047557829003601f168201915b5050505050908060010154905082565b6000804244336040516020016104ba93929190610e4c565b6040516020818303038152906040528051906020012060001c9050836000808373ffffffffffffffffffffffffffffffffffffffff1673ffffffffffffffffffffffffffffffffffffffff16815260200190815260200160002060000190816105239190611035565b50826000808373ffffffffffffffffffffffffffffffffffffffff1673ffffffffffffffffffffffffffffffffffffffff168152602001908152602001600020600101819055506000808273ffffffffffffffffffffffffffffffffffffffff1673ffffffffffffffffffffffffffffffffffffffff1681526020019081526020016000206002016040518060a00160405280600081526020014281526020013373ffffffffffffffffffffffffffffffffffffffff1681526020013373ffffffffffffffffffffffffffffffffffffffff1681526020016040518060400160405280600c81526020017f466f726d206372656174656400000000000000000000000000000000000000008152508152509080600181540180825580915050600190039060005260206000209060050201600090919091909150600082015181600001556020820151816001015560408201518160020160006101000a81548173ffffffffffffffffffffffffffffffffffffffff021916908373ffffffffffffffffffffffffffffffffffffffff16021790555060608201518160030160006101000a81548173ffffffffffffffffffffffffffffffffffffffff021916908373ffffffffffffffffffffffffffffffffffffffff16021790555060808201518160040190816107149190611035565b5050506001819080600181540180825580915050600190039060005260206000200160009091909190916101000a81548173ffffffffffffffffffffffffffffffffffffffff021916908373ffffffffffffffffffffffffffffffffffffffff1602179055507f7ddb55586addfe8d14c150380d6c97f16c022067ed537a73e35f2220404122fb83826040516107ab929190611107565b60405180910390a18091505092915050565b60405180606001604052806060815260200160008152602001606081525090565b6000604051905090565b600080fd5b600080fd5b600073ffffffffffffffffffffffffffffffffffffffff82169050919050565b600061081d826107f2565b9050919050565b61082d81610812565b811461083857600080fd5b50565b60008135905061084a81610824565b92915050565b600060208284031215610866576108656107e8565b5b60006108748482850161083b565b91505092915050565b600081519050919050565b600082825260208201905092915050565b60005b838110156108b757808201518184015260208101905061089c565b60008484015250505050565b6000601f19601f8301169050919050565b60006108df8261087d565b6108e98185610888565b93506108f9818560208601610899565b610902816108c3565b840191505092915050565b6000819050919050565b6109208161090d565b82525050565b600081519050919050565b600082825260208201905092915050565b6000819050602082019050919050565b61095b81610812565b82525050565b600060a0830160008301516109796000860182610917565b50602083015161098c6020860182610917565b50604083015161099f6040860182610952565b5060608301516109b26060860182610952565b50608083015184820360808601526109ca82826108d4565b9150508091505092915050565b60006109e38383610961565b905092915050565b6000602082019050919050565b6000610a0382610926565b610a0d8185610931565b935083602082028501610a1f85610942565b8060005b85811015610a5b5784840389528151610a3c85826109d7565b9450610a47836109eb565b925060208a01995050600181019050610a23565b50829750879550505050505092915050565b60006060830160008301518482036000860152610a8a82826108d4565b9150506020830151610a9f6020860182610917565b5060408301518482036040860152610ab782826109f8565b9150508091505092915050565b60006020820190508181036000830152610ade8184610a6d565b905092915050565b610aef8161090d565b8114610afa57600080fd5b50565b600081359050610b0c81610ae6565b92915050565b600060208284031215610b2857610b276107e8565b5b6000610b3684828501610afd565b91505092915050565b610b4881610812565b82525050565b6000602082019050610b636000830184610b3f565b92915050565b600082825260208201905092915050565b6000610b858261087d565b610b8f8185610b69565b9350610b9f818560208601610899565b610ba8816108c3565b840191505092915050565b610bbc8161090d565b82525050565b60006040820190508181036000830152610bdc8185610b7a565b9050610beb6020830184610bb3565b9392505050565b600080fd5b600080fd5b7f4e487b7100000000000000000000000000000000000000000000000000000000600052604160045260246000fd5b610c34826108c3565b810181811067ffffffffffffffff82111715610c5357610c52610bfc565b5b80604052505050565b6000610c666107de565b9050610c728282610c2b565b919050565b600067ffffffffffffffff821115610c9257610c91610bfc565b5b610c9b826108c3565b9050602081019050919050565b82818337600083830152505050565b6000610cca610cc584610c77565b610c5c565b905082815260208101848484011115610ce657610ce5610bf7565b5b610cf1848285610ca8565b509392505050565b600082601f830112610d0e57610d0d610bf2565b5b8135610d1e848260208601610cb7565b91505092915050565b60008060408385031215610d3e57610d3d6107e8565b5b600083013567ffffffffffffffff811115610d5c57610d5b6107ed565b5b610d6885828601610cf9565b9250506020610d7985828601610afd565b9150509250929050565b7f4e487b7100000000000000000000000000000000000000000000000000000000600052602260045260246000fd5b60006002820490506001821680610dca57607f821691505b602082108103610ddd57610ddc610d83565b5b50919050565b6000819050919050565b610dfe610df98261090d565b610de3565b82525050565b60008160601b9050919050565b6000610e1c82610e04565b9050919050565b6000610e2e82610e11565b9050919050565b610e46610e4182610812565b610e23565b82525050565b6000610e588286610ded565b602082019150610e688285610ded565b602082019150610e788284610e35565b601482019150819050949350505050565b60008190508160005260206000209050919050565b60006020601f8301049050919050565b600082821b905092915050565b600060088302610eeb7fffffffffffffffffffffffffffffffffffffffffffffffffffffffffffffffff82610eae565b610ef58683610eae565b95508019841693508086168417925050509392505050565b6000819050919050565b6000610f32610f2d610f288461090d565b610f0d565b61090d565b9050919050565b6000819050919050565b610f4c83610f17565b610f60610f5882610f39565b848454610ebb565b825550505050565b600090565b610f75610f68565b610f80818484610f43565b505050565b5b81811015610fa457610f99600082610f6d565b600181019050610f86565b5050565b601f821115610fe957610fba81610e89565b610fc384610e9e565b81016020851015610fd2578190505b610fe6610fde85610e9e565b830182610f85565b50505b505050565b600082821c905092915050565b600061100c60001984600802610fee565b1980831691505092915050565b60006110258383610ffb565b9150826002028217905092915050565b61103e8261087d565b67ffffffffffffffff81111561105757611056610bfc565b5b6110618254610db2565b61106c828285610fa8565b600060209050601f83116001811461109f576000841561108d578287015190505b6110978582611019565b8655506110ff565b601f1984166110ad86610e89565b60005b828110156110d5578489015182556001820191506020850194506020810190506110b0565b868310156110f257848901516110ee601f891682610ffb565b8355505b6001600288020188555050505b505050505050565b600060408201905061111c6000830185610bb3565b6111296020830184610b3f565b939250505056fea264697066735822122086a07329d4aadba52b9e7d126359ad9bf8becda96f2fa200ae9eb62aa1809d3f64736f6c63430008110033",
  "immutableReferences": {},
  "source": "\n// SPDX-License-Identifier: MIT\n\n// Pragma indicates the version of Solidity compiler to be used for compilation.\n// In truffle, the version of Solidity compiler is specified in truffle-config.js, \n// if not specified, the default version is 0.5.16. \npragma solidity ^0.8.17;\n\n// Contract is a collection of functions and data (its state) that resides at a specific address on the Ethereum blockchain.\n// The following contract is used to create a form for the evidence.\ncontract Form {\n\n    // Events are a way for contract to communicate that something happened on the blockchain to your app front-end, \n    // which can be 'listening' for certain events and take action when they happen.\n\n    // newForm: Event to be emitted when a new form is created.\n    // NOTE: If more fields are needed, change the emit in createForm.\n    event newForm(uint caseNumber, address caseAddress);\n\n    // Struct to store the information of the chain of custody.\n    struct Log {\n        uint trackingNumber;        // Tracking number of the form\n        uint timestamp;             // Epoch time of the change \n        address releasedBy;         // Address of the entity that released the form\n        address receivedBy;         // Address of the entity that received the form\n        string reasonForChange;     // Reason for the change\n    }\n\n\n    // Struct to store the information of the form.\n    struct formData {\n        string caseName;                        // Name of the case\n        uint caseNumber;                        // Number of the case\n        // string reasonObtained;                  // Reason for obtaining the evidence (?)\n        // uint itemNumber;                        // Number of the item\n        // string evidenceTypeManufacturer;        // Type of the evidence and manufacturer\n        // uint Owner;                             // Name of the owner of the evidence\n        // string contentDescription;              // Description of the evidence\n        // uint contentOwnerContactInformation;    // Contact information of the owner of the evidence\n        // string forensicAgent;                   // Name of the forensic agent\n        // string creationMethod;                  // Method of creation of the evidence\n        // bytes32 hashValue;                      // Hash value of the evidence\n        // uint date;                              // Date of the evidence           \n        // uint forensicAgentContactInformation;   // Contact information of the forensic agent\n        Log[] chainOfCustody;                  // Chain of custody of the evidence\n    }\n\n    // Mapping to store the forms for the evidence of the cases.\n    mapping (address => formData) public listFormMap;\n    // Array to store the address of the forms for the evidence of the cases.\n    address[] public listFormAddress;\n\n    /**\n    *   @dev Function to create a new form for the evidence of the case.\n    *\n    *   @param _caseName Name of the case\n    *   @param _caseNumber Number of the case\n    */\n    function createForm(string memory _caseName, uint _caseNumber) public returns (address) {\n        // Generation of new address for the form.\n        address entityAddress = address(uint160(uint(keccak256(abi.encodePacked(block.timestamp, block.difficulty, msg.sender)))));\n        listFormMap[entityAddress].caseName = _caseName;\n        listFormMap[entityAddress].caseNumber = _caseNumber;\n        listFormMap[entityAddress].chainOfCustody.push(Log(0, block.timestamp, msg.sender, msg.sender, \"Form created\"));\n        listFormAddress.push(entityAddress);\n        // Emit the event newForm.\n        emit newForm(_caseNumber, entityAddress);\n        return entityAddress;\n    }\n\n    /** \n    *   @dev Function to read the form for the evidence of the case.\n    *\n    *   @param _address Address of the form\n    *\n    *   @return uint Struct containing the information of the form\n    */\n    function readForm(address _address) public view returns (formData memory) {\n        return (listFormMap[_address]);\n    }\n\n    /*\n        function getLastAccess(uint _id) view returns (address) { // no need for a mapping if forms are public\n            return forms[_id].chainOfCustody[chainOfCustody.length - 1].receivedBy;\n        }\n    */\n}",
  "sourcePath": "/Users/lorenzocrespan/Documents/Workspace/University/90748 - Blockchain and Cryptocurrencies/BlueWoodchuck/project/blockchain/contracts/contracts/form.sol",
  "compiler": {
    "name": "solc",
    "version": "0.8.17+commit.8df45f5f.Emscripten.clang"
  },
  "schemaVersion": "3.4.10",
  "updatedAt": "2023-01-27T10:45:12.227Z",
  "devdoc": {
    "kind": "dev",
    "methods": {
      "createForm(string,uint256)": {
        "details": "Function to create a new form for the evidence of the case.",
        "params": {
          "_caseName": "Name of the case",
          "_caseNumber": "Number of the case"
        }
      },
      "readForm(address)": {
        "details": "Function to read the form for the evidence of the case.",
        "params": {
          "_address": "Address of the form"
        },
        "returns": {
          "_0": "uint Struct containing the information of the form"
        }
      }
    },
    "version": 1
  },
  "userdoc": {
    "kind": "user",
    "methods": {},
    "version": 1
  }
}