{
  "contractName": "Form",
  "abi": [
    {
      "inputs": [
        {
          "internalType": "uint256[]",
          "name": "_numbers",
          "type": "uint256[]"
        },
        {
          "internalType": "string[]",
          "name": "_strings",
          "type": "string[]"
        },
        {
          "internalType": "bytes32",
          "name": "_hashValue",
          "type": "bytes32"
        }
      ],
      "stateMutability": "nonpayable",
      "type": "constructor"
    },
    {
      "inputs": [],
      "name": "readForm",
      "outputs": [
        {
          "components": [
            {
              "internalType": "string",
              "name": "caseName",
              "type": "string"
            },
            {
              "internalType": "uint256",
              "name": "caseNumber",
              "type": "uint256"
            },
            {
              "internalType": "string",
              "name": "reasonObtained",
              "type": "string"
            },
            {
              "internalType": "uint256",
              "name": "itemNumber",
              "type": "uint256"
            },
            {
              "internalType": "string",
              "name": "evidenceTypeManufacturer",
              "type": "string"
            },
            {
              "internalType": "string",
              "name": "owner",
              "type": "string"
            },
            {
              "internalType": "string",
              "name": "contentDescription",
              "type": "string"
            },
            {
              "internalType": "uint256",
              "name": "contentOwnerContactInformation",
              "type": "uint256"
            },
            {
              "internalType": "string",
              "name": "forensicAgent",
              "type": "string"
            },
            {
              "internalType": "string",
              "name": "creationMethod",
              "type": "string"
            },
            {
              "internalType": "bytes32",
              "name": "hashValue",
              "type": "bytes32"
            },
            {
              "internalType": "uint256",
              "name": "date",
              "type": "uint256"
            },
            {
              "internalType": "uint256",
              "name": "forensicAgentContactInformation",
              "type": "uint256"
            },
            {
              "components": [
                {
                  "internalType": "uint256",
                  "name": "trackingNumber",
                  "type": "uint256"
                },
                {
                  "internalType": "uint256",
                  "name": "timestamp",
                  "type": "uint256"
                },
                {
                  "internalType": "address",
                  "name": "releasedBy",
                  "type": "address"
                },
                {
                  "internalType": "address",
                  "name": "receivedBy",
                  "type": "address"
                },
                {
                  "internalType": "string",
                  "name": "reasonForChange",
                  "type": "string"
                }
              ],
              "internalType": "struct Log[]",
              "name": "chainOfCustody",
              "type": "tuple[]"
            }
          ],
          "internalType": "struct FormData",
          "name": "",
          "type": "tuple"
        }
      ],
      "stateMutability": "view",
      "type": "function"
    },
    {
      "inputs": [
        {
          "components": [
            {
              "internalType": "uint256",
              "name": "trackingNumber",
              "type": "uint256"
            },
            {
              "internalType": "uint256",
              "name": "timestamp",
              "type": "uint256"
            },
            {
              "internalType": "address",
              "name": "releasedBy",
              "type": "address"
            },
            {
              "internalType": "address",
              "name": "receivedBy",
              "type": "address"
            },
            {
              "internalType": "string",
              "name": "reasonForChange",
              "type": "string"
            }
          ],
          "internalType": "struct Log",
          "name": "_log",
          "type": "tuple"
        }
      ],
      "name": "pushLog",
      "outputs": [],
      "stateMutability": "nonpayable",
      "type": "function"
    },
    {
      "inputs": [],
      "name": "lastLog",
      "outputs": [
        {
          "components": [
            {
              "internalType": "uint256",
              "name": "trackingNumber",
              "type": "uint256"
            },
            {
              "internalType": "uint256",
              "name": "timestamp",
              "type": "uint256"
            },
            {
              "internalType": "address",
              "name": "releasedBy",
              "type": "address"
            },
            {
              "internalType": "address",
              "name": "receivedBy",
              "type": "address"
            },
            {
              "internalType": "string",
              "name": "reasonForChange",
              "type": "string"
            }
          ],
          "internalType": "struct Log",
          "name": "",
          "type": "tuple"
        }
      ],
      "stateMutability": "view",
      "type": "function"
    },
    {
      "inputs": [],
      "name": "isAvailable",
      "outputs": [
        {
          "internalType": "bool",
          "name": "",
          "type": "bool"
        }
      ],
      "stateMutability": "view",
      "type": "function"
    },
    {
      "inputs": [],
      "name": "setAvailable",
      "outputs": [],
      "stateMutability": "nonpayable",
      "type": "function"
    },
    {
      "inputs": [],
      "name": "setTaken",
      "outputs": [],
      "stateMutability": "nonpayable",
      "type": "function"
    },
    {
      "inputs": [
        {
          "internalType": "address",
          "name": "_giver",
          "type": "address"
        },
        {
          "internalType": "address",
          "name": "_taker",
          "type": "address"
        }
      ],
      "name": "setGiverTaker",
      "outputs": [],
      "stateMutability": "nonpayable",
      "type": "function"
    },
    {
      "inputs": [],
      "name": "resetGiverTaker",
      "outputs": [],
      "stateMutability": "nonpayable",
      "type": "function"
    },
    {
      "inputs": [],
      "name": "getTaker",
      "outputs": [
        {
          "internalType": "address",
          "name": "",
          "type": "address"
        }
      ],
      "stateMutability": "view",
      "type": "function"
    },
    {
      "inputs": [],
      "name": "getGiver",
      "outputs": [
        {
          "internalType": "address",
          "name": "",
          "type": "address"
        }
      ],
      "stateMutability": "view",
      "type": "function"
    }
  ],
  "bytecode": "0x60806040523480156200001157600080fd5b50604051620022aa380380620022aa8339818101604052810190620000379190620006d4565b816000815181106200004e576200004d6200076e565b5b602002602001015160026000019081620000699190620009de565b50816001815181106200008157620000806200076e565b5b60200260200101516002800190816200009b9190620009de565b5081600281518110620000b357620000b26200076e565b5b602002602001015160026004019081620000ce9190620009de565b5081600381518110620000e657620000e56200076e565b5b602002602001015160026005019081620001019190620009de565b50816004815181106200011957620001186200076e565b5b602002602001015160026006019081620001349190620009de565b50816005815181106200014c576200014b6200076e565b5b602002602001015160026008019081620001679190620009de565b50816006815181106200017f576200017e6200076e565b5b6020026020010151600260090190816200019a9190620009de565b5082600081518110620001b257620001b16200076e565b5b602002602001015160026001018190555082600181518110620001da57620001d96200076e565b5b6020026020010151600260030181905550826002815181106200020257620002016200076e565b5b6020026020010151600260070181905550826003815181106200022a57620002296200076e565b5b60200260200101516002600b0181905550826004815181106200025257620002516200076e565b5b60200260200101516002600c0181905550806002600a018190555060008060006101000a81548173ffffffffffffffffffffffffffffffffffffffff021916908373ffffffffffffffffffffffffffffffffffffffff1602179055506000600160006101000a81548173ffffffffffffffffffffffffffffffffffffffff021916908373ffffffffffffffffffffffffffffffffffffffff16021790555050505062000ac5565b6000604051905090565b600080fd5b600080fd5b600080fd5b6000601f19601f8301169050919050565b7f4e487b7100000000000000000000000000000000000000000000000000000000600052604160045260246000fd5b6200035d8262000312565b810181811067ffffffffffffffff821117156200037f576200037e62000323565b5b80604052505050565b600062000394620002f9565b9050620003a2828262000352565b919050565b600067ffffffffffffffff821115620003c557620003c462000323565b5b602082029050602081019050919050565b600080fd5b6000819050919050565b620003f081620003db565b8114620003fc57600080fd5b50565b6000815190506200041081620003e5565b92915050565b60006200042d6200042784620003a7565b62000388565b90508083825260208201905060208402830185811115620004535762000452620003d6565b5b835b818110156200048057806200046b8882620003ff565b84526020840193505060208101905062000455565b5050509392505050565b600082601f830112620004a257620004a16200030d565b5b8151620004b484826020860162000416565b91505092915050565b600067ffffffffffffffff821115620004db57620004da62000323565b5b602082029050602081019050919050565b600080fd5b600067ffffffffffffffff8211156200050f576200050e62000323565b5b6200051a8262000312565b9050602081019050919050565b60005b83811015620005475780820151818401526020810190506200052a565b60008484015250505050565b60006200056a6200056484620004f1565b62000388565b905082815260208101848484011115620005895762000588620004ec565b5b6200059684828562000527565b509392505050565b600082601f830112620005b657620005b56200030d565b5b8151620005c884826020860162000553565b91505092915050565b6000620005e8620005e284620004bd565b62000388565b905080838252602082019050602084028301858111156200060e576200060d620003d6565b5b835b818110156200065c57805167ffffffffffffffff8111156200063757620006366200030d565b5b8086016200064689826200059e565b8552602085019450505060208101905062000610565b5050509392505050565b600082601f8301126200067e576200067d6200030d565b5b815162000690848260208601620005d1565b91505092915050565b6000819050919050565b620006ae8162000699565b8114620006ba57600080fd5b50565b600081519050620006ce81620006a3565b92915050565b600080600060608486031215620006f057620006ef62000303565b5b600084015167ffffffffffffffff81111562000711576200071062000308565b5b6200071f868287016200048a565b935050602084015167ffffffffffffffff81111562000743576200074262000308565b5b620007518682870162000666565b92505060406200076486828701620006bd565b9150509250925092565b7f4e487b7100000000000000000000000000000000000000000000000000000000600052603260045260246000fd5b600081519050919050565b7f4e487b7100000000000000000000000000000000000000000000000000000000600052602260045260246000fd5b60006002820490506001821680620007f057607f821691505b602082108103620008065762000805620007a8565b5b50919050565b60008190508160005260206000209050919050565b60006020601f8301049050919050565b600082821b905092915050565b600060088302620008707fffffffffffffffffffffffffffffffffffffffffffffffffffffffffffffffff8262000831565b6200087c868362000831565b95508019841693508086168417925050509392505050565b6000819050919050565b6000620008bf620008b9620008b384620003db565b62000894565b620003db565b9050919050565b6000819050919050565b620008db836200089e565b620008f3620008ea82620008c6565b8484546200083e565b825550505050565b600090565b6200090a620008fb565b62000917818484620008d0565b505050565b5b818110156200093f576200093360008262000900565b6001810190506200091d565b5050565b601f8211156200098e5762000958816200080c565b620009638462000821565b8101602085101562000973578190505b6200098b620009828562000821565b8301826200091c565b50505b505050565b600082821c905092915050565b6000620009b36000198460080262000993565b1980831691505092915050565b6000620009ce8383620009a0565b9150826002028217905092915050565b620009e9826200079d565b67ffffffffffffffff81111562000a055762000a0462000323565b5b62000a118254620007d7565b62000a1e82828562000943565b600060209050601f83116001811462000a56576000841562000a41578287015190505b62000a4d8582620009c0565b86555062000abd565b601f19841662000a66866200080c565b60005b8281101562000a905784890151825560018201915060208501945060208101905062000a69565b8683101562000ab0578489015162000aac601f891682620009a0565b8355505b6001600288020188555050505b505050505050565b6117d58062000ad56000396000f3fe608060405234801561001057600080fd5b506004361061009e5760003560e01c806390321988116100665780639032198814610123578063bcd404fa1461013f578063d08145e414610149578063f5c92cda14610167578063f5d19755146101715761009e565b8063144610d6146100a35780635426177e146100bf578063651c5d2d146100dd5780637a7d1566146100fb578063856c71dd14610105575b600080fd5b6100bd60048036038101906100b89190610d11565b61018f565b005b6100c7610214565b6040516100d491906110b9565b60405180910390f35b6100e561081a565b6040516100f291906110ea565b60405180910390f35b610103610844565b005b61010d610861565b60405161011a9190611120565b60405180910390f35b61013d6004803603810190610138919061134e565b610878565b005b610147610964565b005b6101516109e9565b60405161015e919061140d565b60405180910390f35b61016f610b8c565b005b610179610ba9565b60405161018691906110ea565b60405180910390f35b81600160006101000a81548173ffffffffffffffffffffffffffffffffffffffff021916908373ffffffffffffffffffffffffffffffffffffffff160217905550806000806101000a81548173ffffffffffffffffffffffffffffffffffffffff021916908373ffffffffffffffffffffffffffffffffffffffff1602179055505050565b61021c610bd2565b6002604051806101c001604052908160008201805461023a9061145e565b80601f01602080910402602001604051908101604052809291908181526020018280546102669061145e565b80156102b35780601f10610288576101008083540402835291602001916102b3565b820191906000526020600020905b81548152906001019060200180831161029657829003601f168201915b50505050508152602001600182015481526020016002820180546102d69061145e565b80601f01602080910402602001604051908101604052809291908181526020018280546103029061145e565b801561034f5780601f106103245761010080835404028352916020019161034f565b820191906000526020600020905b81548152906001019060200180831161033257829003601f168201915b50505050508152602001600382015481526020016004820180546103729061145e565b80601f016020809104026020016040519081016040528092919081815260200182805461039e9061145e565b80156103eb5780601f106103c0576101008083540402835291602001916103eb565b820191906000526020600020905b8154815290600101906020018083116103ce57829003601f168201915b505050505081526020016005820180546104049061145e565b80601f01602080910402602001604051908101604052809291908181526020018280546104309061145e565b801561047d5780601f106104525761010080835404028352916020019161047d565b820191906000526020600020905b81548152906001019060200180831161046057829003601f168201915b505050505081526020016006820180546104969061145e565b80601f01602080910402602001604051908101604052809291908181526020018280546104c29061145e565b801561050f5780601f106104e45761010080835404028352916020019161050f565b820191906000526020600020905b8154815290600101906020018083116104f257829003601f168201915b50505050508152602001600782015481526020016008820180546105329061145e565b80601f016020809104026020016040519081016040528092919081815260200182805461055e9061145e565b80156105ab5780601f10610580576101008083540402835291602001916105ab565b820191906000526020600020905b81548152906001019060200180831161058e57829003601f168201915b505050505081526020016009820180546105c49061145e565b80601f01602080910402602001604051908101604052809291908181526020018280546105f09061145e565b801561063d5780601f106106125761010080835404028352916020019161063d565b820191906000526020600020905b81548152906001019060200180831161062057829003601f168201915b50505050508152602001600a8201548152602001600b8201548152602001600c8201548152602001600d8201805480602002602001604051908101604052809291908181526020016000905b8282101561080d57838290600052602060002090600502016040518060a001604052908160008201548152602001600182015481526020016002820160009054906101000a900473ffffffffffffffffffffffffffffffffffffffff1673ffffffffffffffffffffffffffffffffffffffff1673ffffffffffffffffffffffffffffffffffffffff1681526020016003820160009054906101000a900473ffffffffffffffffffffffffffffffffffffffff1673ffffffffffffffffffffffffffffffffffffffff1673ffffffffffffffffffffffffffffffffffffffff16815260200160048201805461077c9061145e565b80601f01602080910402602001604051908101604052809291908181526020018280546107a89061145e565b80156107f55780601f106107ca576101008083540402835291602001916107f5565b820191906000526020600020905b8154815290600101906020018083116107d857829003601f168201915b50505050508152505081526020019060010190610689565b5050505081525050905090565b6000600160009054906101000a900473ffffffffffffffffffffffffffffffffffffffff16905090565b6001601060006101000a81548160ff021916908315150217905550565b6000601060009054906101000a900460ff16905090565b6002600d01819080600181540180825580915050600190039060005260206000209060050201600090919091909150600082015181600001556020820151816001015560408201518160020160006101000a81548173ffffffffffffffffffffffffffffffffffffffff021916908373ffffffffffffffffffffffffffffffffffffffff16021790555060608201518160030160006101000a81548173ffffffffffffffffffffffffffffffffffffffff021916908373ffffffffffffffffffffffffffffffffffffffff160217905550608082015181600401908161095e919061163b565b50505050565b6000600160006101000a81548173ffffffffffffffffffffffffffffffffffffffff021916908373ffffffffffffffffffffffffffffffffffffffff16021790555060008060006101000a81548173ffffffffffffffffffffffffffffffffffffffff021916908373ffffffffffffffffffffffffffffffffffffffff160217905550565b6109f1610c44565b6002600d0160016002600d0180549050610a0b919061173c565b81548110610a1c57610a1b611770565b5b90600052602060002090600502016040518060a001604052908160008201548152602001600182015481526020016002820160009054906101000a900473ffffffffffffffffffffffffffffffffffffffff1673ffffffffffffffffffffffffffffffffffffffff1673ffffffffffffffffffffffffffffffffffffffff1681526020016003820160009054906101000a900473ffffffffffffffffffffffffffffffffffffffff1673ffffffffffffffffffffffffffffffffffffffff1673ffffffffffffffffffffffffffffffffffffffff168152602001600482018054610b059061145e565b80601f0160208091040260200160405190810160405280929190818152602001828054610b319061145e565b8015610b7e5780601f10610b5357610100808354040283529160200191610b7e565b820191906000526020600020905b815481529060010190602001808311610b6157829003601f168201915b505050505081525050905090565b6000601060006101000a81548160ff021916908315150217905550565b60008060009054906101000a900473ffffffffffffffffffffffffffffffffffffffff16905090565b604051806101c0016040528060608152602001600081526020016060815260200160008152602001606081526020016060815260200160608152602001600081526020016060815260200160608152602001600080191681526020016000815260200160008152602001606081525090565b6040518060a001604052806000815260200160008152602001600073ffffffffffffffffffffffffffffffffffffffff168152602001600073ffffffffffffffffffffffffffffffffffffffff168152602001606081525090565b6000604051905090565b600080fd5b600080fd5b600073ffffffffffffffffffffffffffffffffffffffff82169050919050565b6000610cde82610cb3565b9050919050565b610cee81610cd3565b8114610cf957600080fd5b50565b600081359050610d0b81610ce5565b92915050565b60008060408385031215610d2857610d27610ca9565b5b6000610d3685828601610cfc565b9250506020610d4785828601610cfc565b9150509250929050565b600081519050919050565b600082825260208201905092915050565b60005b83811015610d8b578082015181840152602081019050610d70565b60008484015250505050565b6000601f19601f8301169050919050565b6000610db382610d51565b610dbd8185610d5c565b9350610dcd818560208601610d6d565b610dd681610d97565b840191505092915050565b6000819050919050565b610df481610de1565b82525050565b6000819050919050565b610e0d81610dfa565b82525050565b600081519050919050565b600082825260208201905092915050565b6000819050602082019050919050565b610e4881610cd3565b82525050565b600060a083016000830151610e666000860182610deb565b506020830151610e796020860182610deb565b506040830151610e8c6040860182610e3f565b506060830151610e9f6060860182610e3f565b5060808301518482036080860152610eb78282610da8565b9150508091505092915050565b6000610ed08383610e4e565b905092915050565b6000602082019050919050565b6000610ef082610e13565b610efa8185610e1e565b935083602082028501610f0c85610e2f565b8060005b85811015610f485784840389528151610f298582610ec4565b9450610f3483610ed8565b925060208a01995050600181019050610f10565b50829750879550505050505092915050565b60006101c0830160008301518482036000860152610f788282610da8565b9150506020830151610f8d6020860182610deb565b5060408301518482036040860152610fa58282610da8565b9150506060830151610fba6060860182610deb565b5060808301518482036080860152610fd28282610da8565b91505060a083015184820360a0860152610fec8282610da8565b91505060c083015184820360c08601526110068282610da8565b91505060e083015161101b60e0860182610deb565b506101008301518482036101008601526110358282610da8565b9150506101208301518482036101208601526110518282610da8565b915050610140830151611068610140860182610e04565b5061016083015161107d610160860182610deb565b50610180830151611092610180860182610deb565b506101a08301518482036101a08601526110ac8282610ee5565b9150508091505092915050565b600060208201905081810360008301526110d38184610f5a565b905092915050565b6110e481610cd3565b82525050565b60006020820190506110ff60008301846110db565b92915050565b60008115159050919050565b61111a81611105565b82525050565b60006020820190506111356000830184611111565b92915050565b600080fd5b7f4e487b7100000000000000000000000000000000000000000000000000000000600052604160045260246000fd5b61117882610d97565b810181811067ffffffffffffffff8211171561119757611196611140565b5b80604052505050565b60006111aa610c9f565b90506111b6828261116f565b919050565b600080fd5b6111c981610de1565b81146111d457600080fd5b50565b6000813590506111e6816111c0565b92915050565b600080fd5b600080fd5b600067ffffffffffffffff82111561121157611210611140565b5b61121a82610d97565b9050602081019050919050565b82818337600083830152505050565b6000611249611244846111f6565b6111a0565b905082815260208101848484011115611265576112646111f1565b5b611270848285611227565b509392505050565b600082601f83011261128d5761128c6111ec565b5b813561129d848260208601611236565b91505092915050565b600060a082840312156112bc576112bb61113b565b5b6112c660a06111a0565b905060006112d6848285016111d7565b60008301525060206112ea848285016111d7565b60208301525060406112fe84828501610cfc565b604083015250606061131284828501610cfc565b606083015250608082013567ffffffffffffffff811115611336576113356111bb565b5b61134284828501611278565b60808301525092915050565b60006020828403121561136457611363610ca9565b5b600082013567ffffffffffffffff81111561138257611381610cae565b5b61138e848285016112a6565b91505092915050565b600060a0830160008301516113af6000860182610deb565b5060208301516113c26020860182610deb565b5060408301516113d56040860182610e3f565b5060608301516113e86060860182610e3f565b50608083015184820360808601526114008282610da8565b9150508091505092915050565b600060208201905081810360008301526114278184611397565b905092915050565b7f4e487b7100000000000000000000000000000000000000000000000000000000600052602260045260246000fd5b6000600282049050600182168061147657607f821691505b6020821081036114895761148861142f565b5b50919050565b60008190508160005260206000209050919050565b60006020601f8301049050919050565b600082821b905092915050565b6000600883026114f17fffffffffffffffffffffffffffffffffffffffffffffffffffffffffffffffff826114b4565b6114fb86836114b4565b95508019841693508086168417925050509392505050565b6000819050919050565b600061153861153361152e84610de1565b611513565b610de1565b9050919050565b6000819050919050565b6115528361151d565b61156661155e8261153f565b8484546114c1565b825550505050565b600090565b61157b61156e565b611586818484611549565b505050565b5b818110156115aa5761159f600082611573565b60018101905061158c565b5050565b601f8211156115ef576115c08161148f565b6115c9846114a4565b810160208510156115d8578190505b6115ec6115e4856114a4565b83018261158b565b50505b505050565b600082821c905092915050565b6000611612600019846008026115f4565b1980831691505092915050565b600061162b8383611601565b9150826002028217905092915050565b61164482610d51565b67ffffffffffffffff81111561165d5761165c611140565b5b611667825461145e565b6116728282856115ae565b600060209050601f8311600181146116a55760008415611693578287015190505b61169d858261161f565b865550611705565b601f1984166116b38661148f565b60005b828110156116db578489015182556001820191506020850194506020810190506116b6565b868310156116f857848901516116f4601f891682611601565b8355505b6001600288020188555050505b505050505050565b7f4e487b7100000000000000000000000000000000000000000000000000000000600052601160045260246000fd5b600061174782610de1565b915061175283610de1565b925082820390508181111561176a5761176961170d565b5b92915050565b7f4e487b7100000000000000000000000000000000000000000000000000000000600052603260045260246000fdfea2646970667358221220c498fd7166f9e4d35250613928aa11e6448b5d9e7e6b5ed206864d0c37f5224e64736f6c63430008110033",
  "immutableReferences": {},
  "source": "// SPDX-License-Identifier: MIT\n\n// Pragma indicates the version of Solidity compiler to be used for compilation.\n// In truffle, the version of Solidity compiler is specified in truffle-config.js,\n// if not specified, the default version is 0.5.16.\n\npragma solidity ^0.8.17;\n\n// Contract is a collection of functions and data (its state) that resides at a specific address on the Ethereum blockchain.\n// The following contract is used to create a form for the evidence.\n\n// Struct to store the information of the chain of custody.\n    struct Log {\n        uint trackingNumber;        // Tracking number of the form\n        uint timestamp;             // Epoch time of the change\n        address releasedBy;         // Address of the entity that released the form\n        address receivedBy;         // Address of the entity that received the form\n        string reasonForChange;     // Reason for the change\n    }\n\n// Struct to store the information of the form.\n    struct FormData {\n        string caseName;                        // Name of the case\n        uint caseNumber;                        // Number of the case\n        string reasonObtained;                  // Reason for obtaining the evidence\n        uint itemNumber;                        // Number of the item\n        string evidenceTypeManufacturer;        // Type of the evidence and manufacturer\n        string owner;                           // Name of the owner of the evidence\n\n        string contentDescription;              // Description of the evidence\n        uint contentOwnerContactInformation;    // Contact information of the owner of the evidence\n        string forensicAgent;                     // Name of the forensic agent\n        string creationMethod;                    // Method of creation of the evidence\n\n        bytes32 hashValue;                      // Hash value of the evidence\n        uint date;                              // Date of the evidence\n        uint forensicAgentContactInformation;   // Contact information of the forensic agent\n\n        Log[] chainOfCustody;                   // Chain of custody of the evidence\n    }\n\ncontract Form {\n    address private taker;\n    address private giver;\n    FormData private data;\n    bool private available;\n\n    constructor (uint[] memory _numbers, string[] memory _strings, bytes32 _hashValue) {\n        // _numbers = [_caseNumber, _itemNumber, _contentOwnerContactInformation, _date,\n        //             _forensicAgentContactInformation]\n        // _strings = [_caseName, _reasonObtained, _evidenceTypeManufacturer, _owner, _contentDescription,\n        //             _forensicAgent, _creationMethod]\n        data.caseName = _strings[0];\n        data.reasonObtained = _strings[1];\n        data.evidenceTypeManufacturer = _strings[2];\n        data.owner = _strings[3];\n        data.contentDescription = _strings[4];\n        data.forensicAgent = _strings[5];\n        data.creationMethod = _strings[6];\n\n        data.caseNumber = _numbers[0];\n        data.itemNumber = _numbers[1];\n        data.contentOwnerContactInformation = _numbers[2];\n        data.date = _numbers[3];\n        data.forensicAgentContactInformation = _numbers[4];\n\n        data.hashValue = _hashValue;\n        taker = address(0);\n        giver = address(0);\n    }\n\n    /**\n    *   @dev Function to read the form data.\n    *\n    *   @return FormData Struct containing the information of the form\n    */\n    function readForm() public view returns (FormData memory) {\n        return data;\n    }\n\n    function pushLog(Log memory _log) public {\n        data.chainOfCustody.push(_log);\n    }\n\n    function lastLog() public view returns (Log memory) {\n        return data.chainOfCustody[data.chainOfCustody.length - 1];\n    }\n\n    function isAvailable() public view returns(bool) {\n        return available;\n    }\n\n    function setAvailable() public {\n        // require(lastLog().receivedBy == msg.sender);\n        available = true;\n    }\n\n    function setTaken() public {\n        // require(lastLog().receivedBy == msg.sender);\n        available = false;\n    }\n\n    function setGiverTaker(address _giver, address _taker) public {\n        // require(msg.sender == lastLog().receivedBy);\n        giver = _giver;\n        taker = _taker;\n    }\n\n    function resetGiverTaker() public {\n        // require(giver == msg.sender || taker == msg.sender);\n        // reset giver and taker\n        giver = address(0);\n        taker = address(0);\n    }\n\n    function getTaker() view public returns(address){\n        return taker;\n    }\n\n    function getGiver() view public returns(address){\n        return giver;\n    }\n}",
  "sourcePath": "/Users/lorenzocrespan/Documents/Workspace/University/90748 - Blockchain and Cryptocurrencies/BlueWoodchuck/project/blockchain/contracts/contracts/form.sol",
  "compiler": {
    "name": "solc",
    "version": "0.8.17+commit.8df45f5f.Emscripten.clang"
  },
  "schemaVersion": "3.4.12",
  "updatedAt": "2023-03-11T16:51:14.432Z",
  "devdoc": {
    "kind": "dev",
    "methods": {
      "readForm()": {
        "details": "Function to read the form data.",
        "returns": {
          "_0": "FormData Struct containing the information of the form"
        }
      }
    },
    "version": 1
  },
  "userdoc": {
    "kind": "user",
    "methods": {},
    "version": 1
  }
}