{
  "contractName": "FormFactory",
  "abi": [
    {
      "anonymous": false,
      "inputs": [
        {
          "indexed": false,
          "internalType": "address",
          "name": "caseAddress",
          "type": "address"
        },
        {
          "components": [
            {
              "internalType": "string",
              "name": "caseName",
              "type": "string"
            },
            {
              "internalType": "uint256",
              "name": "caseNumber",
              "type": "uint256"
            },
            {
              "internalType": "string",
              "name": "reasonObtained",
              "type": "string"
            },
            {
              "internalType": "uint256",
              "name": "itemNumber",
              "type": "uint256"
            },
            {
              "internalType": "string",
              "name": "evidenceTypeManufacturer",
              "type": "string"
            },
            {
              "internalType": "string",
              "name": "owner",
              "type": "string"
            },
            {
              "internalType": "string",
              "name": "contentDescription",
              "type": "string"
            },
            {
              "internalType": "uint256",
              "name": "contentOwnerContactInformation",
              "type": "uint256"
            },
            {
              "internalType": "string",
              "name": "forensicAgent",
              "type": "string"
            },
            {
              "internalType": "string",
              "name": "creationMethod",
              "type": "string"
            },
            {
              "internalType": "bytes32",
              "name": "hashValue",
              "type": "bytes32"
            },
            {
              "internalType": "uint256",
              "name": "date",
              "type": "uint256"
            },
            {
              "internalType": "uint256",
              "name": "forensicAgentContactInformation",
              "type": "uint256"
            },
            {
              "components": [
                {
                  "internalType": "uint256",
                  "name": "trackingNumber",
                  "type": "uint256"
                },
                {
                  "internalType": "uint256",
                  "name": "timestamp",
                  "type": "uint256"
                },
                {
                  "internalType": "address",
                  "name": "releasedBy",
                  "type": "address"
                },
                {
                  "internalType": "address",
                  "name": "receivedBy",
                  "type": "address"
                },
                {
                  "internalType": "string",
                  "name": "reasonForChange",
                  "type": "string"
                }
              ],
              "internalType": "struct Log[]",
              "name": "chainOfCustody",
              "type": "tuple[]"
            }
          ],
          "indexed": false,
          "internalType": "struct FormData",
          "name": "data",
          "type": "tuple"
        }
      ],
      "name": "formFound",
      "type": "event"
    },
    {
      "anonymous": false,
      "inputs": [
        {
          "indexed": false,
          "internalType": "uint256",
          "name": "caseNumber",
          "type": "uint256"
        },
        {
          "indexed": false,
          "internalType": "address",
          "name": "caseAddress",
          "type": "address"
        },
        {
          "components": [
            {
              "internalType": "string",
              "name": "caseName",
              "type": "string"
            },
            {
              "internalType": "uint256",
              "name": "caseNumber",
              "type": "uint256"
            },
            {
              "internalType": "string",
              "name": "reasonObtained",
              "type": "string"
            },
            {
              "internalType": "uint256",
              "name": "itemNumber",
              "type": "uint256"
            },
            {
              "internalType": "string",
              "name": "evidenceTypeManufacturer",
              "type": "string"
            },
            {
              "internalType": "string",
              "name": "owner",
              "type": "string"
            },
            {
              "internalType": "string",
              "name": "contentDescription",
              "type": "string"
            },
            {
              "internalType": "uint256",
              "name": "contentOwnerContactInformation",
              "type": "uint256"
            },
            {
              "internalType": "string",
              "name": "forensicAgent",
              "type": "string"
            },
            {
              "internalType": "string",
              "name": "creationMethod",
              "type": "string"
            },
            {
              "internalType": "bytes32",
              "name": "hashValue",
              "type": "bytes32"
            },
            {
              "internalType": "uint256",
              "name": "date",
              "type": "uint256"
            },
            {
              "internalType": "uint256",
              "name": "forensicAgentContactInformation",
              "type": "uint256"
            },
            {
              "components": [
                {
                  "internalType": "uint256",
                  "name": "trackingNumber",
                  "type": "uint256"
                },
                {
                  "internalType": "uint256",
                  "name": "timestamp",
                  "type": "uint256"
                },
                {
                  "internalType": "address",
                  "name": "releasedBy",
                  "type": "address"
                },
                {
                  "internalType": "address",
                  "name": "receivedBy",
                  "type": "address"
                },
                {
                  "internalType": "string",
                  "name": "reasonForChange",
                  "type": "string"
                }
              ],
              "internalType": "struct Log[]",
              "name": "chainOfCustody",
              "type": "tuple[]"
            }
          ],
          "indexed": false,
          "internalType": "struct FormData",
          "name": "data",
          "type": "tuple"
        }
      ],
      "name": "newForm",
      "type": "event"
    },
    {
      "inputs": [
        {
          "internalType": "uint256[]",
          "name": "_numbers",
          "type": "uint256[]"
        },
        {
          "internalType": "string[]",
          "name": "_strings",
          "type": "string[]"
        },
        {
          "internalType": "bytes32",
          "name": "_hashValue",
          "type": "bytes32"
        }
      ],
      "name": "createForm",
      "outputs": [
        {
          "internalType": "address",
          "name": "",
          "type": "address"
        }
      ],
      "stateMutability": "nonpayable",
      "type": "function"
    },
    {
      "inputs": [
        {
          "internalType": "address",
          "name": "_caseAddress",
          "type": "address"
        }
      ],
      "name": "findForm",
      "outputs": [
        {
          "internalType": "contract Form",
          "name": "",
          "type": "address"
        }
      ],
      "stateMutability": "view",
      "type": "function",
      "constant": true
    },
    {
      "inputs": [
        {
          "internalType": "contract Form",
          "name": "_form",
          "type": "address"
        }
      ],
      "name": "readForm",
      "outputs": [
        {
          "components": [
            {
              "internalType": "string",
              "name": "caseName",
              "type": "string"
            },
            {
              "internalType": "uint256",
              "name": "caseNumber",
              "type": "uint256"
            },
            {
              "internalType": "string",
              "name": "reasonObtained",
              "type": "string"
            },
            {
              "internalType": "uint256",
              "name": "itemNumber",
              "type": "uint256"
            },
            {
              "internalType": "string",
              "name": "evidenceTypeManufacturer",
              "type": "string"
            },
            {
              "internalType": "string",
              "name": "owner",
              "type": "string"
            },
            {
              "internalType": "string",
              "name": "contentDescription",
              "type": "string"
            },
            {
              "internalType": "uint256",
              "name": "contentOwnerContactInformation",
              "type": "uint256"
            },
            {
              "internalType": "string",
              "name": "forensicAgent",
              "type": "string"
            },
            {
              "internalType": "string",
              "name": "creationMethod",
              "type": "string"
            },
            {
              "internalType": "bytes32",
              "name": "hashValue",
              "type": "bytes32"
            },
            {
              "internalType": "uint256",
              "name": "date",
              "type": "uint256"
            },
            {
              "internalType": "uint256",
              "name": "forensicAgentContactInformation",
              "type": "uint256"
            },
            {
              "components": [
                {
                  "internalType": "uint256",
                  "name": "trackingNumber",
                  "type": "uint256"
                },
                {
                  "internalType": "uint256",
                  "name": "timestamp",
                  "type": "uint256"
                },
                {
                  "internalType": "address",
                  "name": "releasedBy",
                  "type": "address"
                },
                {
                  "internalType": "address",
                  "name": "receivedBy",
                  "type": "address"
                },
                {
                  "internalType": "string",
                  "name": "reasonForChange",
                  "type": "string"
                }
              ],
              "internalType": "struct Log[]",
              "name": "chainOfCustody",
              "type": "tuple[]"
            }
          ],
          "internalType": "struct FormData",
          "name": "",
          "type": "tuple"
        }
      ],
      "stateMutability": "view",
      "type": "function",
      "constant": true
    },
    {
      "inputs": [
        {
          "internalType": "address",
          "name": "_caseAddress",
          "type": "address"
        }
      ],
      "name": "readFormAddress",
      "outputs": [
        {
          "components": [
            {
              "internalType": "string",
              "name": "caseName",
              "type": "string"
            },
            {
              "internalType": "uint256",
              "name": "caseNumber",
              "type": "uint256"
            },
            {
              "internalType": "string",
              "name": "reasonObtained",
              "type": "string"
            },
            {
              "internalType": "uint256",
              "name": "itemNumber",
              "type": "uint256"
            },
            {
              "internalType": "string",
              "name": "evidenceTypeManufacturer",
              "type": "string"
            },
            {
              "internalType": "string",
              "name": "owner",
              "type": "string"
            },
            {
              "internalType": "string",
              "name": "contentDescription",
              "type": "string"
            },
            {
              "internalType": "uint256",
              "name": "contentOwnerContactInformation",
              "type": "uint256"
            },
            {
              "internalType": "string",
              "name": "forensicAgent",
              "type": "string"
            },
            {
              "internalType": "string",
              "name": "creationMethod",
              "type": "string"
            },
            {
              "internalType": "bytes32",
              "name": "hashValue",
              "type": "bytes32"
            },
            {
              "internalType": "uint256",
              "name": "date",
              "type": "uint256"
            },
            {
              "internalType": "uint256",
              "name": "forensicAgentContactInformation",
              "type": "uint256"
            },
            {
              "components": [
                {
                  "internalType": "uint256",
                  "name": "trackingNumber",
                  "type": "uint256"
                },
                {
                  "internalType": "uint256",
                  "name": "timestamp",
                  "type": "uint256"
                },
                {
                  "internalType": "address",
                  "name": "releasedBy",
                  "type": "address"
                },
                {
                  "internalType": "address",
                  "name": "receivedBy",
                  "type": "address"
                },
                {
                  "internalType": "string",
                  "name": "reasonForChange",
                  "type": "string"
                }
              ],
              "internalType": "struct Log[]",
              "name": "chainOfCustody",
              "type": "tuple[]"
            }
          ],
          "internalType": "struct FormData",
          "name": "",
          "type": "tuple"
        }
      ],
      "stateMutability": "view",
      "type": "function",
      "constant": true
    },
    {
      "inputs": [
        {
          "internalType": "address",
          "name": "_userAddress",
          "type": "address"
        }
      ],
      "name": "getUserFormAddresses",
      "outputs": [
        {
          "internalType": "address[]",
          "name": "",
          "type": "address[]"
        }
      ],
      "stateMutability": "view",
      "type": "function",
      "constant": true
    },
    {
      "inputs": [
        {
          "internalType": "address",
          "name": "_formAddress",
          "type": "address"
        },
        {
          "internalType": "string",
          "name": "_reason",
          "type": "string"
        }
      ],
      "name": "getForm",
      "outputs": [],
      "stateMutability": "nonpayable",
      "type": "function"
    },
    {
      "inputs": [
        {
          "internalType": "address",
          "name": "_formAddress",
          "type": "address"
        }
      ],
      "name": "releaseForm",
      "outputs": [],
      "stateMutability": "nonpayable",
      "type": "function"
    },
    {
      "inputs": [
        {
          "internalType": "address",
          "name": "_formAddress",
          "type": "address"
        },
        {
          "internalType": "address",
          "name": "_taker",
          "type": "address"
        }
      ],
      "name": "giveForm",
      "outputs": [],
      "stateMutability": "nonpayable",
      "type": "function"
    },
    {
      "inputs": [
        {
          "internalType": "address",
          "name": "_formAddress",
          "type": "address"
        },
        {
          "internalType": "string",
          "name": "_reason",
          "type": "string"
        }
      ],
      "name": "acceptForm",
      "outputs": [],
      "stateMutability": "nonpayable",
      "type": "function"
    },
    {
      "inputs": [
        {
          "internalType": "address",
          "name": "_formAddress",
          "type": "address"
        }
      ],
      "name": "rejectForm",
      "outputs": [],
      "stateMutability": "nonpayable",
      "type": "function"
    },
    {
      "inputs": [
        {
          "internalType": "address",
          "name": "_formAddress",
          "type": "address"
        }
      ],
      "name": "isAFormAvailable",
      "outputs": [
        {
          "internalType": "bool",
          "name": "",
          "type": "bool"
        }
      ],
      "stateMutability": "view",
      "type": "function",
      "constant": true
    },
    {
      "inputs": [],
      "name": "findContractTaker",
      "outputs": [
        {
          "internalType": "address[]",
          "name": "",
          "type": "address[]"
        }
      ],
      "stateMutability": "view",
      "type": "function",
      "constant": true
    },
    {
      "inputs": [
        {
          "internalType": "address",
          "name": "_taker",
          "type": "address"
        }
      ],
      "name": "countFormsForTaker",
      "outputs": [
        {
          "internalType": "uint256",
          "name": "",
          "type": "uint256"
        }
      ],
      "stateMutability": "view",
      "type": "function",
      "constant": true
    }
  ],
  "bytecode": "0x608060405234801561001057600080fd5b50615605806100206000396000f3fe60806040523480156200001157600080fd5b5060043610620000e25760003560e01c8063866fba221162000099578063ca8e697f116200006f578063ca8e697f1462000277578063edcd5c4114620002ad578063edef556a14620002cd578063f8fa329b146200030357620000e2565b8063866fba2214620001eb5780638b00308c14620002215780638d5194c9146200025757620000e2565b8063057b011014620000e7578063191d12fc146200011d57806335ad872d146200013d578063494d8d33146200015f5780634b194bf0146200019557806374de047a14620001cb575b600080fd5b620001056004803603810190620000ff919062001cbf565b62000323565b6040516200011491906200209d565b60405180910390f35b6200013b6004803603810190620001359190620020c1565b62000349565b005b6200014762000485565b604051620001569190620021c5565b60405180910390f35b6200017d600480360381019062000177919062001cbf565b620006b0565b6040516200018c9190620021c5565b60405180910390f35b620001b36004803603810190620001ad91906200222e565b6200077f565b604051620001c291906200209d565b60405180910390f35b620001e96004803603810190620001e39190620023b1565b62000807565b005b62000209600480360381019062000203919062001cbf565b62000b7e565b60405162000218919062002434565b60405180910390f35b6200023f600480360381019062000239919062001cbf565b62000c03565b6040516200024e919062002462565b60405180910390f35b6200027560048036038101906200026f9190620023b1565b62000d3c565b005b6200029560048036038101906200028f919062001cbf565b62001168565b604051620002a49190620024ea565b60405180910390f35b620002cb6004803603810190620002c5919062001cbf565b620011d0565b005b620002eb6004803603810190620002e591906200273b565b62001308565b604051620002fa9190620027e6565b60405180910390f35b6200032160048036038101906200031b919062001cbf565b62001698565b005b6200032d62001bc6565b620003426200033c8362001168565b6200077f565b9050919050565b3373ffffffffffffffffffffffffffffffffffffffff166200036b8362001168565b73ffffffffffffffffffffffffffffffffffffffff1663d08145e46040518163ffffffff1660e01b8152600401600060405180830381865afa158015620003b6573d6000803e3d6000fd5b505050506040513d6000823e3d601f19601f82011682018060405250810190620003e1919062002973565b6060015173ffffffffffffffffffffffffffffffffffffffff16146200040657600080fd5b620004118262001168565b73ffffffffffffffffffffffffffffffffffffffff1663144610d633836040518363ffffffff1660e01b81526004016200044d929190620029c4565b600060405180830381600087803b1580156200046857600080fd5b505af11580156200047d573d6000803e3d6000fd5b505050505050565b60606000620004943362000c03565b905060008167ffffffffffffffff811115620004b557620004b46200226a565b5b604051908082528060200260200182016040528015620004e45781602001602082028036833780820191505090505b509050600080600090505b600280549050811015620006a6573373ffffffffffffffffffffffffffffffffffffffff1662000560600283815481106200052f576200052e620029f1565b5b9060005260206000200160009054906101000a900473ffffffffffffffffffffffffffffffffffffffff1662001168565b73ffffffffffffffffffffffffffffffffffffffff1663f5d197556040518163ffffffff1660e01b8152600401602060405180830381865afa158015620005ab573d6000803e3d6000fd5b505050506040513d601f19601f82011682018060405250810190620005d1919062002a20565b73ffffffffffffffffffffffffffffffffffffffff1603620006905760028181548110620006045762000603620029f1565b5b9060005260206000200160009054906101000a900473ffffffffffffffffffffffffffffffffffffffff16838381518110620006455762000644620029f1565b5b602002602001019073ffffffffffffffffffffffffffffffffffffffff16908173ffffffffffffffffffffffffffffffffffffffff168152505081806200068c9062002a81565b9250505b80806200069d9062002a81565b915050620004ef565b5081935050505090565b6060600160008373ffffffffffffffffffffffffffffffffffffffff1673ffffffffffffffffffffffffffffffffffffffff1681526020019081526020016000208054806020026020016040519081016040528092919081815260200182805480156200077357602002820191906000526020600020905b8160009054906101000a900473ffffffffffffffffffffffffffffffffffffffff1673ffffffffffffffffffffffffffffffffffffffff168152602001906001019080831162000728575b50505050509050919050565b6200078962001bc6565b8173ffffffffffffffffffffffffffffffffffffffff16635426177e6040518163ffffffff1660e01b8152600401600060405180830381865afa158015620007d5573d6000803e3d6000fd5b505050506040513d6000823e3d601f19601f8201168201806040525081019062000800919062002e43565b9050919050565b620008128262001168565b73ffffffffffffffffffffffffffffffffffffffff1663856c71dd6040518163ffffffff1660e01b8152600401602060405180830381865afa1580156200085d573d6000803e3d6000fd5b505050506040513d601f19601f8201168201806040525081019062000883919062002ec5565b6200088d57600080fd5b620008988262001168565b73ffffffffffffffffffffffffffffffffffffffff1663903219886040518060a001604052806001620008cb8762001168565b73ffffffffffffffffffffffffffffffffffffffff1663d08145e46040518163ffffffff1660e01b8152600401600060405180830381865afa15801562000916573d6000803e3d6000fd5b505050506040513d6000823e3d601f19601f8201168201806040525081019062000941919062002973565b6000015162000951919062002ef7565b8152602001428152602001620009678662001168565b73ffffffffffffffffffffffffffffffffffffffff1663d08145e46040518163ffffffff1660e01b8152600401600060405180830381865afa158015620009b2573d6000803e3d6000fd5b505050506040513d6000823e3d601f19601f82011682018060405250810190620009dd919062002973565b6060015173ffffffffffffffffffffffffffffffffffffffff1681526020013373ffffffffffffffffffffffffffffffffffffffff168152602001848152506040518263ffffffff1660e01b815260040162000a3a919062002fb2565b600060405180830381600087803b15801562000a5557600080fd5b505af115801562000a6a573d6000803e3d6000fd5b50505050600160003373ffffffffffffffffffffffffffffffffffffffff1673ffffffffffffffffffffffffffffffffffffffff168152602001908152602001600020829080600181540180825580915050600190039060005260206000200160009091909190916101000a81548173ffffffffffffffffffffffffffffffffffffffff021916908373ffffffffffffffffffffffffffffffffffffffff16021790555062000b198262001168565b73ffffffffffffffffffffffffffffffffffffffff1663f5c92cda6040518163ffffffff1660e01b8152600401600060405180830381600087803b15801562000b6157600080fd5b505af115801562000b76573d6000803e3d6000fd5b505050505050565b600062000b8b8262001168565b73ffffffffffffffffffffffffffffffffffffffff1663856c71dd6040518163ffffffff1660e01b8152600401602060405180830381865afa15801562000bd6573d6000803e3d6000fd5b505050506040513d601f19601f8201168201806040525081019062000bfc919062002ec5565b9050919050565b6000806000905060005b60028054905081101562000d32578373ffffffffffffffffffffffffffffffffffffffff1662000c7e6002838154811062000c4d5762000c4c620029f1565b5b9060005260206000200160009054906101000a900473ffffffffffffffffffffffffffffffffffffffff1662001168565b73ffffffffffffffffffffffffffffffffffffffff1663f5d197556040518163ffffffff1660e01b8152600401602060405180830381865afa15801562000cc9573d6000803e3d6000fd5b505050506040513d601f19601f8201168201806040525081019062000cef919062002a20565b73ffffffffffffffffffffffffffffffffffffffff160362000d1c57818062000d189062002a81565b9250505b808062000d299062002a81565b91505062000c0d565b5080915050919050565b3373ffffffffffffffffffffffffffffffffffffffff1662000d5e8362001168565b73ffffffffffffffffffffffffffffffffffffffff1663f5d197556040518163ffffffff1660e01b8152600401602060405180830381865afa15801562000da9573d6000803e3d6000fd5b505050506040513d601f19601f8201168201806040525081019062000dcf919062002a20565b73ffffffffffffffffffffffffffffffffffffffff161462000df057600080fd5b600160003373ffffffffffffffffffffffffffffffffffffffff1673ffffffffffffffffffffffffffffffffffffffff168152602001908152602001600020829080600181540180825580915050600190039060005260206000200160009091909190916101000a81548173ffffffffffffffffffffffffffffffffffffffff021916908373ffffffffffffffffffffffffffffffffffffffff16021790555062000e9b8262001168565b73ffffffffffffffffffffffffffffffffffffffff1663903219886040518060a00160405280600162000ece8762001168565b73ffffffffffffffffffffffffffffffffffffffff1663d08145e46040518163ffffffff1660e01b8152600401600060405180830381865afa15801562000f19573d6000803e3d6000fd5b505050506040513d6000823e3d601f19601f8201168201806040525081019062000f44919062002973565b6000015162000f54919062002ef7565b815260200142815260200162000f6a8662001168565b73ffffffffffffffffffffffffffffffffffffffff1663d08145e46040518163ffffffff1660e01b8152600401600060405180830381865afa15801562000fb5573d6000803e3d6000fd5b505050506040513d6000823e3d601f19601f8201168201806040525081019062000fe0919062002973565b6060015173ffffffffffffffffffffffffffffffffffffffff1681526020013373ffffffffffffffffffffffffffffffffffffffff168152602001848152506040518263ffffffff1660e01b81526004016200103d919062002fb2565b600060405180830381600087803b1580156200105857600080fd5b505af11580156200106d573d6000803e3d6000fd5b50505050620010f8620010808362001168565b73ffffffffffffffffffffffffffffffffffffffff1663651c5d2d6040518163ffffffff1660e01b8152600401602060405180830381865afa158015620010cb573d6000803e3d6000fd5b505050506040513d601f19601f82011682018060405250810190620010f1919062002a20565b836200186d565b620011038262001168565b73ffffffffffffffffffffffffffffffffffffffff1663bcd404fa6040518163ffffffff1660e01b8152600401600060405180830381600087803b1580156200114b57600080fd5b505af115801562001160573d6000803e3d6000fd5b505050505050565b60008060008373ffffffffffffffffffffffffffffffffffffffff1673ffffffffffffffffffffffffffffffffffffffff16815260200190815260200160002060009054906101000a900473ffffffffffffffffffffffffffffffffffffffff169050919050565b3373ffffffffffffffffffffffffffffffffffffffff16620011f28262001168565b73ffffffffffffffffffffffffffffffffffffffff1663d08145e46040518163ffffffff1660e01b8152600401600060405180830381865afa1580156200123d573d6000803e3d6000fd5b505050506040513d6000823e3d601f19601f8201168201806040525081019062001268919062002973565b6060015173ffffffffffffffffffffffffffffffffffffffff16146200128d57600080fd5b620012988162001168565b73ffffffffffffffffffffffffffffffffffffffff16637a7d15666040518163ffffffff1660e01b8152600401600060405180830381600087803b158015620012e057600080fd5b505af1158015620012f5573d6000803e3d6000fd5b505050506200130533826200186d565b50565b6000806200131562001b8f565b9050848484604051620013289062001c38565b620013369392919062003174565b604051809103906000f08015801562001353573d6000803e3d6000fd5b506000808373ffffffffffffffffffffffffffffffffffffffff1673ffffffffffffffffffffffffffffffffffffffff16815260200190815260200160002060006101000a81548173ffffffffffffffffffffffffffffffffffffffff021916908373ffffffffffffffffffffffffffffffffffffffff1602179055506000808273ffffffffffffffffffffffffffffffffffffffff1673ffffffffffffffffffffffffffffffffffffffff16815260200190815260200160002060009054906101000a900473ffffffffffffffffffffffffffffffffffffffff1673ffffffffffffffffffffffffffffffffffffffff1663903219886040518060a00160405280600081526020014281526020013373ffffffffffffffffffffffffffffffffffffffff1681526020013373ffffffffffffffffffffffffffffffffffffffff1681526020016040518060400160405280600c81526020017f466f726d206372656174656400000000000000000000000000000000000000008152508152506040518263ffffffff1660e01b8152600401620014f1919062002fb2565b600060405180830381600087803b1580156200150c57600080fd5b505af115801562001521573d6000803e3d6000fd5b50505050600160003373ffffffffffffffffffffffffffffffffffffffff1673ffffffffffffffffffffffffffffffffffffffff168152602001908152602001600020819080600181540180825580915050600190039060005260206000200160009091909190916101000a81548173ffffffffffffffffffffffffffffffffffffffff021916908373ffffffffffffffffffffffffffffffffffffffff1602179055507fa32121da9500249d8880fce97dd8f5f3f0f54bfedc91bdb545438f69d79d891785600081518110620015fd57620015fc620029f1565b5b602002602001015182620016118462000323565b6040516200162293929190620031bf565b60405180910390a16002819080600181540180825580915050600190039060005260206000200160009091909190916101000a81548173ffffffffffffffffffffffffffffffffffffffff021916908373ffffffffffffffffffffffffffffffffffffffff160217905550809150509392505050565b3373ffffffffffffffffffffffffffffffffffffffff16620016ba8262001168565b73ffffffffffffffffffffffffffffffffffffffff1663f5d197556040518163ffffffff1660e01b8152600401602060405180830381865afa15801562001705573d6000803e3d6000fd5b505050506040513d601f19601f820116820180604052508101906200172b919062002a20565b73ffffffffffffffffffffffffffffffffffffffff161480620017f457503373ffffffffffffffffffffffffffffffffffffffff166200176b8262001168565b73ffffffffffffffffffffffffffffffffffffffff1663651c5d2d6040518163ffffffff1660e01b8152600401602060405180830381865afa158015620017b6573d6000803e3d6000fd5b505050506040513d601f19601f82011682018060405250810190620017dc919062002a20565b73ffffffffffffffffffffffffffffffffffffffff16145b620017fe57600080fd5b620018098162001168565b73ffffffffffffffffffffffffffffffffffffffff1663bcd404fa6040518163ffffffff1660e01b8152600401600060405180830381600087803b1580156200185157600080fd5b505af115801562001866573d6000803e3d6000fd5b5050505050565b6000600160008473ffffffffffffffffffffffffffffffffffffffff1673ffffffffffffffffffffffffffffffffffffffff1681526020019081526020016000208054905011620018bd57600080fd5b6000600160008473ffffffffffffffffffffffffffffffffffffffff1673ffffffffffffffffffffffffffffffffffffffff16815260200190815260200160002080549050905060005b8181101562001b89578273ffffffffffffffffffffffffffffffffffffffff16600160008673ffffffffffffffffffffffffffffffffffffffff1673ffffffffffffffffffffffffffffffffffffffff16815260200190815260200160002082815481106200197b576200197a620029f1565b5b9060005260206000200160009054906101000a900473ffffffffffffffffffffffffffffffffffffffff1673ffffffffffffffffffffffffffffffffffffffff160362001b7357600160008573ffffffffffffffffffffffffffffffffffffffff1673ffffffffffffffffffffffffffffffffffffffff16815260200190815260200160002060018362001a10919062003203565b8154811062001a245762001a23620029f1565b5b9060005260206000200160009054906101000a900473ffffffffffffffffffffffffffffffffffffffff16600160008673ffffffffffffffffffffffffffffffffffffffff1673ffffffffffffffffffffffffffffffffffffffff168152602001908152602001600020828154811062001aa35762001aa2620029f1565b5b9060005260206000200160006101000a81548173ffffffffffffffffffffffffffffffffffffffff021916908373ffffffffffffffffffffffffffffffffffffffff160217905550600160008573ffffffffffffffffffffffffffffffffffffffff1673ffffffffffffffffffffffffffffffffffffffff16815260200190815260200160002080548062001b3d5762001b3c6200323e565b5b6001900381819060005260206000200160006101000a81549073ffffffffffffffffffffffffffffffffffffffff021916905590555b808062001b809062002a81565b91505062001907565b50505050565b600042443360405160200162001ba893929190620032e2565b6040516020818303038152906040528051906020012060001c905090565b604051806101c0016040528060608152602001600081526020016060815260200160008152602001606081526020016060815260200160608152602001600081526020016060815260200160608152602001600080191681526020016000815260200160008152602001606081525090565b6122aa806200332683390190565b6000604051905090565b600080fd5b600080fd5b600073ffffffffffffffffffffffffffffffffffffffff82169050919050565b600062001c878262001c5a565b9050919050565b62001c998162001c7a565b811462001ca557600080fd5b50565b60008135905062001cb98162001c8e565b92915050565b60006020828403121562001cd85762001cd762001c50565b5b600062001ce88482850162001ca8565b91505092915050565b600081519050919050565b600082825260208201905092915050565b60005b8381101562001d2d57808201518184015260208101905062001d10565b60008484015250505050565b6000601f19601f8301169050919050565b600062001d578262001cf1565b62001d63818562001cfc565b935062001d7581856020860162001d0d565b62001d808162001d39565b840191505092915050565b6000819050919050565b62001da08162001d8b565b82525050565b6000819050919050565b62001dbb8162001da6565b82525050565b600081519050919050565b600082825260208201905092915050565b6000819050602082019050919050565b62001df88162001c7a565b82525050565b600060a08301600083015162001e18600086018262001d95565b50602083015162001e2d602086018262001d95565b50604083015162001e42604086018262001ded565b50606083015162001e57606086018262001ded565b506080830151848203608086015262001e71828262001d4a565b9150508091505092915050565b600062001e8c838362001dfe565b905092915050565b6000602082019050919050565b600062001eae8262001dc1565b62001eba818562001dcc565b93508360208202850162001ece8562001ddd565b8060005b8581101562001f10578484038952815162001eee858262001e7e565b945062001efb8362001e94565b925060208a0199505060018101905062001ed2565b50829750879550505050505092915050565b60006101c083016000830151848203600086015262001f42828262001d4a565b915050602083015162001f59602086018262001d95565b506040830151848203604086015262001f73828262001d4a565b915050606083015162001f8a606086018262001d95565b506080830151848203608086015262001fa4828262001d4a565b91505060a083015184820360a086015262001fc0828262001d4a565b91505060c083015184820360c086015262001fdc828262001d4a565b91505060e083015162001ff360e086018262001d95565b506101008301518482036101008601526200200f828262001d4a565b9150506101208301518482036101208601526200202d828262001d4a565b9150506101408301516200204661014086018262001db0565b506101608301516200205d61016086018262001d95565b506101808301516200207461018086018262001d95565b506101a08301518482036101a086015262002090828262001ea1565b9150508091505092915050565b60006020820190508181036000830152620020b9818462001f22565b905092915050565b60008060408385031215620020db57620020da62001c50565b5b6000620020eb8582860162001ca8565b9250506020620020fe8582860162001ca8565b9150509250929050565b600081519050919050565b600082825260208201905092915050565b6000819050602082019050919050565b600062002142838362001ded565b60208301905092915050565b6000602082019050919050565b6000620021688262002108565b62002174818562002113565b9350620021818362002124565b8060005b83811015620021b85781516200219c888262002134565b9750620021a9836200214e565b92505060018101905062002185565b5085935050505092915050565b60006020820190508181036000830152620021e181846200215b565b905092915050565b6000620021f68262001c7a565b9050919050565b6200220881620021e9565b81146200221457600080fd5b50565b6000813590506200222881620021fd565b92915050565b60006020828403121562002247576200224662001c50565b5b6000620022578482850162002217565b91505092915050565b600080fd5b600080fd5b7f4e487b7100000000000000000000000000000000000000000000000000000000600052604160045260246000fd5b620022a48262001d39565b810181811067ffffffffffffffff82111715620022c657620022c56200226a565b5b80604052505050565b6000620022db62001c46565b9050620022e9828262002299565b919050565b600067ffffffffffffffff8211156200230c576200230b6200226a565b5b620023178262001d39565b9050602081019050919050565b82818337600083830152505050565b60006200234a6200234484620022ee565b620022cf565b90508281526020810184848401111562002369576200236862002265565b5b6200237684828562002324565b509392505050565b600082601f83011262002396576200239562002260565b5b8135620023a884826020860162002333565b91505092915050565b60008060408385031215620023cb57620023ca62001c50565b5b6000620023db8582860162001ca8565b925050602083013567ffffffffffffffff811115620023ff57620023fe62001c55565b5b6200240d858286016200237e565b9150509250929050565b60008115159050919050565b6200242e8162002417565b82525050565b60006020820190506200244b600083018462002423565b92915050565b6200245c8162001d8b565b82525050565b600060208201905062002479600083018462002451565b92915050565b6000819050919050565b6000620024aa620024a46200249e8462001c5a565b6200247f565b62001c5a565b9050919050565b6000620024be8262002489565b9050919050565b6000620024d282620024b1565b9050919050565b620024e481620024c5565b82525050565b6000602082019050620025016000830184620024d9565b92915050565b600067ffffffffffffffff8211156200252557620025246200226a565b5b602082029050602081019050919050565b600080fd5b620025468162001d8b565b81146200255257600080fd5b50565b60008135905062002566816200253b565b92915050565b6000620025836200257d8462002507565b620022cf565b90508083825260208201905060208402830185811115620025a957620025a862002536565b5b835b81811015620025d65780620025c1888262002555565b845260208401935050602081019050620025ab565b5050509392505050565b600082601f830112620025f857620025f762002260565b5b81356200260a8482602086016200256c565b91505092915050565b600067ffffffffffffffff8211156200263157620026306200226a565b5b602082029050602081019050919050565b600062002659620026538462002613565b620022cf565b905080838252602082019050602084028301858111156200267f576200267e62002536565b5b835b81811015620026cd57803567ffffffffffffffff811115620026a857620026a762002260565b5b808601620026b789826200237e565b8552602085019450505060208101905062002681565b5050509392505050565b600082601f830112620026ef57620026ee62002260565b5b81356200270184826020860162002642565b91505092915050565b620027158162001da6565b81146200272157600080fd5b50565b60008135905062002735816200270a565b92915050565b60008060006060848603121562002757576200275662001c50565b5b600084013567ffffffffffffffff81111562002778576200277762001c55565b5b6200278686828701620025e0565b935050602084013567ffffffffffffffff811115620027aa57620027a962001c55565b5b620027b886828701620026d7565b9250506040620027cb8682870162002724565b9150509250925092565b620027e08162001c7a565b82525050565b6000602082019050620027fd6000830184620027d5565b92915050565b600080fd5b600080fd5b6000815190506200281e816200253b565b92915050565b600081519050620028358162001c8e565b92915050565b6000620028526200284c84620022ee565b620022cf565b90508281526020810184848401111562002871576200287062002265565b5b6200287e84828562001d0d565b509392505050565b600082601f8301126200289e576200289d62002260565b5b8151620028b08482602086016200283b565b91505092915050565b600060a08284031215620028d257620028d162002803565b5b620028de60a0620022cf565b90506000620028f0848285016200280d565b600083015250602062002906848285016200280d565b60208301525060406200291c8482850162002824565b6040830152506060620029328482850162002824565b606083015250608082015167ffffffffffffffff81111562002959576200295862002808565b5b620029678482850162002886565b60808301525092915050565b6000602082840312156200298c576200298b62001c50565b5b600082015167ffffffffffffffff811115620029ad57620029ac62001c55565b5b620029bb84828501620028b9565b91505092915050565b6000604082019050620029db6000830185620027d5565b620029ea6020830184620027d5565b9392505050565b7f4e487b7100000000000000000000000000000000000000000000000000000000600052603260045260246000fd5b60006020828403121562002a395762002a3862001c50565b5b600062002a498482850162002824565b91505092915050565b7f4e487b7100000000000000000000000000000000000000000000000000000000600052601160045260246000fd5b600062002a8e8262001d8b565b91507fffffffffffffffffffffffffffffffffffffffffffffffffffffffffffffffff820362002ac35762002ac262002a52565b5b600182019050919050565b60008151905062002adf816200270a565b92915050565b600067ffffffffffffffff82111562002b035762002b026200226a565b5b602082029050602081019050919050565b600062002b2b62002b258462002ae5565b620022cf565b9050808382526020820190506020840283018581111562002b515762002b5062002536565b5b835b8181101562002b9f57805167ffffffffffffffff81111562002b7a5762002b7962002260565b5b80860162002b898982620028b9565b8552602085019450505060208101905062002b53565b5050509392505050565b600082601f83011262002bc15762002bc062002260565b5b815162002bd384826020860162002b14565b91505092915050565b60006101c0828403121562002bf65762002bf562002803565b5b62002c036101c0620022cf565b9050600082015167ffffffffffffffff81111562002c265762002c2562002808565b5b62002c348482850162002886565b600083015250602062002c4a848285016200280d565b602083015250604082015167ffffffffffffffff81111562002c715762002c7062002808565b5b62002c7f8482850162002886565b604083015250606062002c95848285016200280d565b606083015250608082015167ffffffffffffffff81111562002cbc5762002cbb62002808565b5b62002cca8482850162002886565b60808301525060a082015167ffffffffffffffff81111562002cf15762002cf062002808565b5b62002cff8482850162002886565b60a08301525060c082015167ffffffffffffffff81111562002d265762002d2562002808565b5b62002d348482850162002886565b60c08301525060e062002d4a848285016200280d565b60e08301525061010082015167ffffffffffffffff81111562002d725762002d7162002808565b5b62002d808482850162002886565b6101008301525061012082015167ffffffffffffffff81111562002da95762002da862002808565b5b62002db78482850162002886565b6101208301525061014062002dcf8482850162002ace565b6101408301525061016062002de7848285016200280d565b6101608301525061018062002dff848285016200280d565b610180830152506101a082015167ffffffffffffffff81111562002e285762002e2762002808565b5b62002e368482850162002ba9565b6101a08301525092915050565b60006020828403121562002e5c5762002e5b62001c50565b5b600082015167ffffffffffffffff81111562002e7d5762002e7c62001c55565b5b62002e8b8482850162002bdc565b91505092915050565b62002e9f8162002417565b811462002eab57600080fd5b50565b60008151905062002ebf8162002e94565b92915050565b60006020828403121562002ede5762002edd62001c50565b5b600062002eee8482850162002eae565b91505092915050565b600062002f048262001d8b565b915062002f118362001d8b565b925082820190508082111562002f2c5762002f2b62002a52565b5b92915050565b600060a08301600083015162002f4c600086018262001d95565b50602083015162002f61602086018262001d95565b50604083015162002f76604086018262001ded565b50606083015162002f8b606086018262001ded565b506080830151848203608086015262002fa5828262001d4a565b9150508091505092915050565b6000602082019050818103600083015262002fce818462002f32565b905092915050565b600081519050919050565b600082825260208201905092915050565b6000819050602082019050919050565b600062003010838362001d95565b60208301905092915050565b6000602082019050919050565b6000620030368262002fd6565b62003042818562002fe1565b93506200304f8362002ff2565b8060005b83811015620030865781516200306a888262003002565b975062003077836200301c565b92505060018101905062003053565b5085935050505092915050565b600081519050919050565b600082825260208201905092915050565b6000819050602082019050919050565b6000620030cd838362001d4a565b905092915050565b6000602082019050919050565b6000620030ef8262003093565b620030fb81856200309e565b9350836020820285016200310f85620030af565b8060005b858110156200315157848403895281516200312f8582620030bf565b94506200313c83620030d5565b925060208a0199505060018101905062003113565b50829750879550505050505092915050565b6200316e8162001da6565b82525050565b6000606082019050818103600083015262003190818662003029565b90508181036020830152620031a68185620030e2565b9050620031b7604083018462003163565b949350505050565b6000606082019050620031d6600083018662002451565b620031e56020830185620027d5565b8181036040830152620031f9818462001f22565b9050949350505050565b6000620032108262001d8b565b91506200321d8362001d8b565b925082820390508181111562003238576200323762002a52565b5b92915050565b7f4e487b7100000000000000000000000000000000000000000000000000000000600052603160045260246000fd5b6000819050919050565b6200328c620032868262001d8b565b6200326d565b82525050565b60008160601b9050919050565b6000620032ac8262003292565b9050919050565b6000620032c0826200329f565b9050919050565b620032dc620032d68262001c7a565b620032b3565b82525050565b6000620032f0828662003277565b60208201915062003302828562003277565b602082019150620033148284620032c7565b60148201915081905094935050505056fe60806040523480156200001157600080fd5b50604051620022aa380380620022aa8339818101604052810190620000379190620006d4565b816000815181106200004e576200004d6200076e565b5b602002602001015160026000019081620000699190620009de565b50816001815181106200008157620000806200076e565b5b60200260200101516002800190816200009b9190620009de565b5081600281518110620000b357620000b26200076e565b5b602002602001015160026004019081620000ce9190620009de565b5081600381518110620000e657620000e56200076e565b5b602002602001015160026005019081620001019190620009de565b50816004815181106200011957620001186200076e565b5b602002602001015160026006019081620001349190620009de565b50816005815181106200014c576200014b6200076e565b5b602002602001015160026008019081620001679190620009de565b50816006815181106200017f576200017e6200076e565b5b6020026020010151600260090190816200019a9190620009de565b5082600081518110620001b257620001b16200076e565b5b602002602001015160026001018190555082600181518110620001da57620001d96200076e565b5b6020026020010151600260030181905550826002815181106200020257620002016200076e565b5b6020026020010151600260070181905550826003815181106200022a57620002296200076e565b5b60200260200101516002600b0181905550826004815181106200025257620002516200076e565b5b60200260200101516002600c0181905550806002600a018190555060008060006101000a81548173ffffffffffffffffffffffffffffffffffffffff021916908373ffffffffffffffffffffffffffffffffffffffff1602179055506000600160006101000a81548173ffffffffffffffffffffffffffffffffffffffff021916908373ffffffffffffffffffffffffffffffffffffffff16021790555050505062000ac5565b6000604051905090565b600080fd5b600080fd5b600080fd5b6000601f19601f8301169050919050565b7f4e487b7100000000000000000000000000000000000000000000000000000000600052604160045260246000fd5b6200035d8262000312565b810181811067ffffffffffffffff821117156200037f576200037e62000323565b5b80604052505050565b600062000394620002f9565b9050620003a2828262000352565b919050565b600067ffffffffffffffff821115620003c557620003c462000323565b5b602082029050602081019050919050565b600080fd5b6000819050919050565b620003f081620003db565b8114620003fc57600080fd5b50565b6000815190506200041081620003e5565b92915050565b60006200042d6200042784620003a7565b62000388565b90508083825260208201905060208402830185811115620004535762000452620003d6565b5b835b818110156200048057806200046b8882620003ff565b84526020840193505060208101905062000455565b5050509392505050565b600082601f830112620004a257620004a16200030d565b5b8151620004b484826020860162000416565b91505092915050565b600067ffffffffffffffff821115620004db57620004da62000323565b5b602082029050602081019050919050565b600080fd5b600067ffffffffffffffff8211156200050f576200050e62000323565b5b6200051a8262000312565b9050602081019050919050565b60005b83811015620005475780820151818401526020810190506200052a565b60008484015250505050565b60006200056a6200056484620004f1565b62000388565b905082815260208101848484011115620005895762000588620004ec565b5b6200059684828562000527565b509392505050565b600082601f830112620005b657620005b56200030d565b5b8151620005c884826020860162000553565b91505092915050565b6000620005e8620005e284620004bd565b62000388565b905080838252602082019050602084028301858111156200060e576200060d620003d6565b5b835b818110156200065c57805167ffffffffffffffff8111156200063757620006366200030d565b5b8086016200064689826200059e565b8552602085019450505060208101905062000610565b5050509392505050565b600082601f8301126200067e576200067d6200030d565b5b815162000690848260208601620005d1565b91505092915050565b6000819050919050565b620006ae8162000699565b8114620006ba57600080fd5b50565b600081519050620006ce81620006a3565b92915050565b600080600060608486031215620006f057620006ef62000303565b5b600084015167ffffffffffffffff81111562000711576200071062000308565b5b6200071f868287016200048a565b935050602084015167ffffffffffffffff81111562000743576200074262000308565b5b620007518682870162000666565b92505060406200076486828701620006bd565b9150509250925092565b7f4e487b7100000000000000000000000000000000000000000000000000000000600052603260045260246000fd5b600081519050919050565b7f4e487b7100000000000000000000000000000000000000000000000000000000600052602260045260246000fd5b60006002820490506001821680620007f057607f821691505b602082108103620008065762000805620007a8565b5b50919050565b60008190508160005260206000209050919050565b60006020601f8301049050919050565b600082821b905092915050565b600060088302620008707fffffffffffffffffffffffffffffffffffffffffffffffffffffffffffffffff8262000831565b6200087c868362000831565b95508019841693508086168417925050509392505050565b6000819050919050565b6000620008bf620008b9620008b384620003db565b62000894565b620003db565b9050919050565b6000819050919050565b620008db836200089e565b620008f3620008ea82620008c6565b8484546200083e565b825550505050565b600090565b6200090a620008fb565b62000917818484620008d0565b505050565b5b818110156200093f576200093360008262000900565b6001810190506200091d565b5050565b601f8211156200098e5762000958816200080c565b620009638462000821565b8101602085101562000973578190505b6200098b620009828562000821565b8301826200091c565b50505b505050565b600082821c905092915050565b6000620009b36000198460080262000993565b1980831691505092915050565b6000620009ce8383620009a0565b9150826002028217905092915050565b620009e9826200079d565b67ffffffffffffffff81111562000a055762000a0462000323565b5b62000a118254620007d7565b62000a1e82828562000943565b600060209050601f83116001811462000a56576000841562000a41578287015190505b62000a4d8582620009c0565b86555062000abd565b601f19841662000a66866200080c565b60005b8281101562000a905784890151825560018201915060208501945060208101905062000a69565b8683101562000ab0578489015162000aac601f891682620009a0565b8355505b6001600288020188555050505b505050505050565b6117d58062000ad56000396000f3fe608060405234801561001057600080fd5b506004361061009e5760003560e01c806390321988116100665780639032198814610123578063bcd404fa1461013f578063d08145e414610149578063f5c92cda14610167578063f5d19755146101715761009e565b8063144610d6146100a35780635426177e146100bf578063651c5d2d146100dd5780637a7d1566146100fb578063856c71dd14610105575b600080fd5b6100bd60048036038101906100b89190610d11565b61018f565b005b6100c7610214565b6040516100d491906110b9565b60405180910390f35b6100e561081a565b6040516100f291906110ea565b60405180910390f35b610103610844565b005b61010d610861565b60405161011a9190611120565b60405180910390f35b61013d6004803603810190610138919061134e565b610878565b005b610147610964565b005b6101516109e9565b60405161015e919061140d565b60405180910390f35b61016f610b8c565b005b610179610ba9565b60405161018691906110ea565b60405180910390f35b81600160006101000a81548173ffffffffffffffffffffffffffffffffffffffff021916908373ffffffffffffffffffffffffffffffffffffffff160217905550806000806101000a81548173ffffffffffffffffffffffffffffffffffffffff021916908373ffffffffffffffffffffffffffffffffffffffff1602179055505050565b61021c610bd2565b6002604051806101c001604052908160008201805461023a9061145e565b80601f01602080910402602001604051908101604052809291908181526020018280546102669061145e565b80156102b35780601f10610288576101008083540402835291602001916102b3565b820191906000526020600020905b81548152906001019060200180831161029657829003601f168201915b50505050508152602001600182015481526020016002820180546102d69061145e565b80601f01602080910402602001604051908101604052809291908181526020018280546103029061145e565b801561034f5780601f106103245761010080835404028352916020019161034f565b820191906000526020600020905b81548152906001019060200180831161033257829003601f168201915b50505050508152602001600382015481526020016004820180546103729061145e565b80601f016020809104026020016040519081016040528092919081815260200182805461039e9061145e565b80156103eb5780601f106103c0576101008083540402835291602001916103eb565b820191906000526020600020905b8154815290600101906020018083116103ce57829003601f168201915b505050505081526020016005820180546104049061145e565b80601f01602080910402602001604051908101604052809291908181526020018280546104309061145e565b801561047d5780601f106104525761010080835404028352916020019161047d565b820191906000526020600020905b81548152906001019060200180831161046057829003601f168201915b505050505081526020016006820180546104969061145e565b80601f01602080910402602001604051908101604052809291908181526020018280546104c29061145e565b801561050f5780601f106104e45761010080835404028352916020019161050f565b820191906000526020600020905b8154815290600101906020018083116104f257829003601f168201915b50505050508152602001600782015481526020016008820180546105329061145e565b80601f016020809104026020016040519081016040528092919081815260200182805461055e9061145e565b80156105ab5780601f10610580576101008083540402835291602001916105ab565b820191906000526020600020905b81548152906001019060200180831161058e57829003601f168201915b505050505081526020016009820180546105c49061145e565b80601f01602080910402602001604051908101604052809291908181526020018280546105f09061145e565b801561063d5780601f106106125761010080835404028352916020019161063d565b820191906000526020600020905b81548152906001019060200180831161062057829003601f168201915b50505050508152602001600a8201548152602001600b8201548152602001600c8201548152602001600d8201805480602002602001604051908101604052809291908181526020016000905b8282101561080d57838290600052602060002090600502016040518060a001604052908160008201548152602001600182015481526020016002820160009054906101000a900473ffffffffffffffffffffffffffffffffffffffff1673ffffffffffffffffffffffffffffffffffffffff1673ffffffffffffffffffffffffffffffffffffffff1681526020016003820160009054906101000a900473ffffffffffffffffffffffffffffffffffffffff1673ffffffffffffffffffffffffffffffffffffffff1673ffffffffffffffffffffffffffffffffffffffff16815260200160048201805461077c9061145e565b80601f01602080910402602001604051908101604052809291908181526020018280546107a89061145e565b80156107f55780601f106107ca576101008083540402835291602001916107f5565b820191906000526020600020905b8154815290600101906020018083116107d857829003601f168201915b50505050508152505081526020019060010190610689565b5050505081525050905090565b6000600160009054906101000a900473ffffffffffffffffffffffffffffffffffffffff16905090565b6001601060006101000a81548160ff021916908315150217905550565b6000601060009054906101000a900460ff16905090565b6002600d01819080600181540180825580915050600190039060005260206000209060050201600090919091909150600082015181600001556020820151816001015560408201518160020160006101000a81548173ffffffffffffffffffffffffffffffffffffffff021916908373ffffffffffffffffffffffffffffffffffffffff16021790555060608201518160030160006101000a81548173ffffffffffffffffffffffffffffffffffffffff021916908373ffffffffffffffffffffffffffffffffffffffff160217905550608082015181600401908161095e919061163b565b50505050565b6000600160006101000a81548173ffffffffffffffffffffffffffffffffffffffff021916908373ffffffffffffffffffffffffffffffffffffffff16021790555060008060006101000a81548173ffffffffffffffffffffffffffffffffffffffff021916908373ffffffffffffffffffffffffffffffffffffffff160217905550565b6109f1610c44565b6002600d0160016002600d0180549050610a0b919061173c565b81548110610a1c57610a1b611770565b5b90600052602060002090600502016040518060a001604052908160008201548152602001600182015481526020016002820160009054906101000a900473ffffffffffffffffffffffffffffffffffffffff1673ffffffffffffffffffffffffffffffffffffffff1673ffffffffffffffffffffffffffffffffffffffff1681526020016003820160009054906101000a900473ffffffffffffffffffffffffffffffffffffffff1673ffffffffffffffffffffffffffffffffffffffff1673ffffffffffffffffffffffffffffffffffffffff168152602001600482018054610b059061145e565b80601f0160208091040260200160405190810160405280929190818152602001828054610b319061145e565b8015610b7e5780601f10610b5357610100808354040283529160200191610b7e565b820191906000526020600020905b815481529060010190602001808311610b6157829003601f168201915b505050505081525050905090565b6000601060006101000a81548160ff021916908315150217905550565b60008060009054906101000a900473ffffffffffffffffffffffffffffffffffffffff16905090565b604051806101c0016040528060608152602001600081526020016060815260200160008152602001606081526020016060815260200160608152602001600081526020016060815260200160608152602001600080191681526020016000815260200160008152602001606081525090565b6040518060a001604052806000815260200160008152602001600073ffffffffffffffffffffffffffffffffffffffff168152602001600073ffffffffffffffffffffffffffffffffffffffff168152602001606081525090565b6000604051905090565b600080fd5b600080fd5b600073ffffffffffffffffffffffffffffffffffffffff82169050919050565b6000610cde82610cb3565b9050919050565b610cee81610cd3565b8114610cf957600080fd5b50565b600081359050610d0b81610ce5565b92915050565b60008060408385031215610d2857610d27610ca9565b5b6000610d3685828601610cfc565b9250506020610d4785828601610cfc565b9150509250929050565b600081519050919050565b600082825260208201905092915050565b60005b83811015610d8b578082015181840152602081019050610d70565b60008484015250505050565b6000601f19601f8301169050919050565b6000610db382610d51565b610dbd8185610d5c565b9350610dcd818560208601610d6d565b610dd681610d97565b840191505092915050565b6000819050919050565b610df481610de1565b82525050565b6000819050919050565b610e0d81610dfa565b82525050565b600081519050919050565b600082825260208201905092915050565b6000819050602082019050919050565b610e4881610cd3565b82525050565b600060a083016000830151610e666000860182610deb565b506020830151610e796020860182610deb565b506040830151610e8c6040860182610e3f565b506060830151610e9f6060860182610e3f565b5060808301518482036080860152610eb78282610da8565b9150508091505092915050565b6000610ed08383610e4e565b905092915050565b6000602082019050919050565b6000610ef082610e13565b610efa8185610e1e565b935083602082028501610f0c85610e2f565b8060005b85811015610f485784840389528151610f298582610ec4565b9450610f3483610ed8565b925060208a01995050600181019050610f10565b50829750879550505050505092915050565b60006101c0830160008301518482036000860152610f788282610da8565b9150506020830151610f8d6020860182610deb565b5060408301518482036040860152610fa58282610da8565b9150506060830151610fba6060860182610deb565b5060808301518482036080860152610fd28282610da8565b91505060a083015184820360a0860152610fec8282610da8565b91505060c083015184820360c08601526110068282610da8565b91505060e083015161101b60e0860182610deb565b506101008301518482036101008601526110358282610da8565b9150506101208301518482036101208601526110518282610da8565b915050610140830151611068610140860182610e04565b5061016083015161107d610160860182610deb565b50610180830151611092610180860182610deb565b506101a08301518482036101a08601526110ac8282610ee5565b9150508091505092915050565b600060208201905081810360008301526110d38184610f5a565b905092915050565b6110e481610cd3565b82525050565b60006020820190506110ff60008301846110db565b92915050565b60008115159050919050565b61111a81611105565b82525050565b60006020820190506111356000830184611111565b92915050565b600080fd5b7f4e487b7100000000000000000000000000000000000000000000000000000000600052604160045260246000fd5b61117882610d97565b810181811067ffffffffffffffff8211171561119757611196611140565b5b80604052505050565b60006111aa610c9f565b90506111b6828261116f565b919050565b600080fd5b6111c981610de1565b81146111d457600080fd5b50565b6000813590506111e6816111c0565b92915050565b600080fd5b600080fd5b600067ffffffffffffffff82111561121157611210611140565b5b61121a82610d97565b9050602081019050919050565b82818337600083830152505050565b6000611249611244846111f6565b6111a0565b905082815260208101848484011115611265576112646111f1565b5b611270848285611227565b509392505050565b600082601f83011261128d5761128c6111ec565b5b813561129d848260208601611236565b91505092915050565b600060a082840312156112bc576112bb61113b565b5b6112c660a06111a0565b905060006112d6848285016111d7565b60008301525060206112ea848285016111d7565b60208301525060406112fe84828501610cfc565b604083015250606061131284828501610cfc565b606083015250608082013567ffffffffffffffff811115611336576113356111bb565b5b61134284828501611278565b60808301525092915050565b60006020828403121561136457611363610ca9565b5b600082013567ffffffffffffffff81111561138257611381610cae565b5b61138e848285016112a6565b91505092915050565b600060a0830160008301516113af6000860182610deb565b5060208301516113c26020860182610deb565b5060408301516113d56040860182610e3f565b5060608301516113e86060860182610e3f565b50608083015184820360808601526114008282610da8565b9150508091505092915050565b600060208201905081810360008301526114278184611397565b905092915050565b7f4e487b7100000000000000000000000000000000000000000000000000000000600052602260045260246000fd5b6000600282049050600182168061147657607f821691505b6020821081036114895761148861142f565b5b50919050565b60008190508160005260206000209050919050565b60006020601f8301049050919050565b600082821b905092915050565b6000600883026114f17fffffffffffffffffffffffffffffffffffffffffffffffffffffffffffffffff826114b4565b6114fb86836114b4565b95508019841693508086168417925050509392505050565b6000819050919050565b600061153861153361152e84610de1565b611513565b610de1565b9050919050565b6000819050919050565b6115528361151d565b61156661155e8261153f565b8484546114c1565b825550505050565b600090565b61157b61156e565b611586818484611549565b505050565b5b818110156115aa5761159f600082611573565b60018101905061158c565b5050565b601f8211156115ef576115c08161148f565b6115c9846114a4565b810160208510156115d8578190505b6115ec6115e4856114a4565b83018261158b565b50505b505050565b600082821c905092915050565b6000611612600019846008026115f4565b1980831691505092915050565b600061162b8383611601565b9150826002028217905092915050565b61164482610d51565b67ffffffffffffffff81111561165d5761165c611140565b5b611667825461145e565b6116728282856115ae565b600060209050601f8311600181146116a55760008415611693578287015190505b61169d858261161f565b865550611705565b601f1984166116b38661148f565b60005b828110156116db578489015182556001820191506020850194506020810190506116b6565b868310156116f857848901516116f4601f891682611601565b8355505b6001600288020188555050505b505050505050565b7f4e487b7100000000000000000000000000000000000000000000000000000000600052601160045260246000fd5b600061174782610de1565b915061175283610de1565b925082820390508181111561176a5761176961170d565b5b92915050565b7f4e487b7100000000000000000000000000000000000000000000000000000000600052603260045260246000fdfea2646970667358221220c498fd7166f9e4d35250613928aa11e6448b5d9e7e6b5ed206864d0c37f5224e64736f6c63430008110033a2646970667358221220aca0af0d425fbe5340d7cca3b88fdf9b1170e9eb42869fcbe7675f5891d7a37b64736f6c63430008110033",
  "immutableReferences": {},
  "source": "// SPDX-License-Identifier: MIT\n\npragma solidity ^0.8.17;\n\nimport \"./form.sol\";\n\n// This is a special contract that generates Form contracts, that have their own methods to generate and update their\n// attributes, while keeping track of all the forms in the blockchain.\n\ncontract FormFactory {\n    // Events are a way for contract to communicate that something happened on the blockchain to your app front-end,\n    // which can be 'listening' for certain events and take action when they happen.\n\n    // newForm: Event to be emitted when a new form is created.\n    // NOTE: If more fields are needed, change the emit in createForm.\n    event newForm(uint caseNumber, address caseAddress, FormData data);\n    event formFound(address caseAddress, FormData data);\n\n    // Mapping to store the forms for the evidence of the cases.\n    mapping(address => Form) private addressToForm;\n    // Mapping to store the addresses of the forms currently in charge of every user.\n    mapping(address => address[]) private userToFormAddresses;\n    // Array to store the addresses of the forms for the evidence of the cases.\n    address[] private listFormAddress; // TODO: private?\n\n    /**\n     *   @dev Function to create a new form for the evidence of the case.\n     *\n     *   @param _numbers All numerical information in the form\n     *   @param _strings All textual information in the form\n     *   @param _hashValue Hash value of the evidence\n     */\n    function createForm(\n        uint[] memory _numbers,\n        string[] memory _strings,\n        bytes32 _hashValue\n    ) public returns (address) {\n        // Generation of new address for the form.\n        address entityAddress = createAddress();\n        // Creation of the new Form directly in the mapping object\n        addressToForm[entityAddress] = new Form(_numbers, _strings, _hashValue);\n        addressToForm[entityAddress].pushLog(\n            Log(0, block.timestamp, msg.sender, msg.sender, \"Form created\")\n        );\n        userToFormAddresses[msg.sender].push(entityAddress);\n        // Emit the event newForm.\n        emit newForm(\n            _numbers[0],\n            entityAddress,\n            readFormAddress(entityAddress)\n        );\n        // Push entityAddress to the list of form addresses.\n        listFormAddress.push(entityAddress);\n        return entityAddress;\n    }\n\n    /**\n     *   @dev Function to get a form from its address.\n     *\n     *   @param _caseAddress address of the case\n     *\n     *   @return Form form required\n     */\n    function findForm(address _caseAddress) public view returns (Form) {\n        return addressToForm[_caseAddress];\n    }\n\n    /**\n     *   @dev Function to get form data from itself.\n     *\n     *   @param _form form which data is required\n     *\n     *   @return FormData Struct that contains the data of the form\n     */\n    function readForm(Form _form) public view returns (FormData memory) {\n        return _form.readForm();\n    }\n\n    /**\n     *   @dev Function to get form data from an address.\n     *\n     *   @param _caseAddress address of the case\n     *\n     *   @return FormData Struct that contains the data of the form required\n     */\n    function readFormAddress(\n        address _caseAddress\n    ) public view returns (FormData memory) {\n        return readForm(findForm(_caseAddress));\n    }\n\n    /**\n     *   @dev Function that compute a random address.\n     *\n     *   @return address randomly generated\n     */\n    function createAddress() private view returns (address) {\n        return\n            address(\n                uint160(\n                    uint(\n                        keccak256(\n                            abi.encodePacked(\n                                block.timestamp,\n                                block.difficulty,\n                                msg.sender\n                            )\n                        )\n                    )\n                )\n            );\n    }\n\n    /**\n     *   @dev Function that returns the forms in charge of an user.\n     *\n     *   @return address array with addresses of forms in charge of an user\n     */\n    function getUserFormAddresses(\n        address _userAddress\n    ) public view returns (address[] memory) {\n        return userToFormAddresses[_userAddress];\n    }\n\n    /**\n     *   @dev Function that makes msg.sender the new owner of a free form.\n     *\n     *   @param _formAddress address of the form\n     *\n     *   @param _reason reason for taking the form (necessary in the chain of custody)\n     *\n     */\n    function getForm(address _formAddress, string memory _reason) public {\n        require(findForm(_formAddress).isAvailable()); // the form must be available in order to be taken\n        findForm(_formAddress).pushLog(\n            Log( // push of a new log in the chain of custody\n                findForm(_formAddress).lastLog().trackingNumber + 1,\n                block.timestamp,\n                findForm(_formAddress).lastLog().receivedBy,\n                msg.sender,\n                _reason\n            )\n        );\n        userToFormAddresses[msg.sender].push(_formAddress); // the form is now added to msg.sender owned forms\n        findForm(_formAddress).setTaken(); // and is marked as not available, no one could take it now\n    }\n\n    /**\n     *   @dev Function that makes a form available, if msg.sender is the current owner.\n     *\n     *   @param _formAddress address of the form to free\n     *\n     */\n    function releaseForm(address _formAddress) public {\n        require(findForm(_formAddress).lastLog().receivedBy == msg.sender); // run only if current owner is msg.sender\n        findForm(_formAddress).setAvailable(); // form is now marked as available\n        removeAddressInAUserList(msg.sender, _formAddress); // and its address is removed from msg.sender list\n    }\n\n    /**\n     *   @dev Function that makes a form available for a given user, if msg.sender is the current owner.\n     *\n     *   @param _formAddress address of the form to give to a user\n     *\n     *   @param _taker address of the future owner of the form\n     */\n    function giveForm(address _formAddress, address _taker) public {\n        require(findForm(_formAddress).lastLog().receivedBy == msg.sender); // run only if current owner is msg.sender\n        findForm(_formAddress).setGiverTaker(msg.sender, _taker);\n        // mandare un evento??\n    }\n\n    /**\n     *   @dev Function that accept a form that has been sent to them.\n     *\n     *   @param _formAddress address of the form to accept\n     *\n     *   @param _reason reason to accept the form\n     */\n    function acceptForm(address _formAddress, string memory _reason) public {\n        require(findForm(_formAddress).getTaker() == msg.sender); // run only if current owner is msg.sender\n        userToFormAddresses[msg.sender].push(_formAddress); // the form is now added to msg.sender owned forms\n        findForm(_formAddress).pushLog(\n            Log( // push of a new log in the chain of custody\n                findForm(_formAddress).lastLog().trackingNumber + 1,\n                block.timestamp,\n                findForm(_formAddress).lastLog().receivedBy,\n                msg.sender,\n                _reason\n            )\n        );\n        removeAddressInAUserList(\n            findForm(_formAddress).getGiver(),\n            _formAddress\n        );\n        findForm(_formAddress).resetGiverTaker();\n    }\n\n    /**\n     *   @dev Function that rejects a form that has been sent to them.\n     *\n     *   @param _formAddress form to reject\n     */\n    function rejectForm(address _formAddress) public {\n        require(\n            findForm(_formAddress).getTaker() == msg.sender ||\n                findForm(_formAddress).getGiver() == msg.sender\n        );\n        findForm(_formAddress).resetGiverTaker();\n    }\n\n    /**\n     *   @dev Function that removes a certain address of a certain user.\n     *\n     *   @param _userAddress address of the user we want to take the evidence from\n     *\n     *   @param _formAddress address of the form we want to remove from _userAddress\n     */\n    function removeAddressInAUserList(\n        address _userAddress,\n        address _formAddress\n    ) private {\n        require(userToFormAddresses[_userAddress].length > 0);\n\n        uint userAddressesLength = userToFormAddresses[_userAddress].length;\n\n        for (uint i = 0; i < userAddressesLength; i++) {\n            // look into the addresses linked to _userAddress\n            if (userToFormAddresses[_userAddress][i] == _formAddress) {\n                // copy the last element in the index we want to remove\n                userToFormAddresses[_userAddress][i] = userToFormAddresses[\n                    _userAddress\n                ][userAddressesLength - 1];\n                userToFormAddresses[_userAddress].pop(); // remove the last element\n            }\n        }\n    }\n\n    function isAFormAvailable(address _formAddress) public view returns (bool) {\n        return findForm(_formAddress).isAvailable();\n    }\n\n    function findContractTaker() public view returns (address[] memory) {\n        // Count the number of forms that match the sender as taker\n        uint count = countFormsForTaker(msg.sender);\n        // Array to store all the forms addresses that match the sender as taker\n        address[] memory listFormAddressTaker = new address[](count);\n        uint j;\n        // Search contract with sender registered as taker\n        for (uint i = 0; i < listFormAddress.length; i++) {\n            if (findForm(listFormAddress[i]).getTaker() == msg.sender) {\n                listFormAddressTaker[j] = listFormAddress[i];\n                j++;\n            }\n        }\n        return listFormAddressTaker;\n    }\n\n    function countFormsForTaker(address _taker) public view returns (uint) {\n        // Count the number of forms that match the sender as taker\n        uint count = 0;\n        for (uint i = 0; i < listFormAddress.length; i++) {\n            if (findForm(listFormAddress[i]).getTaker() == _taker) count++;\n        }\n        return count;\n    }\n}\n",
  "sourcePath": "/Users/lorenzocrespan/Documents/Workspace/University/90748 - Blockchain and Cryptocurrencies/BlueWoodchuck/project/blockchain/contracts/contracts/formFactory.sol",
  "compiler": {
    "name": "solc",
    "version": "0.8.17+commit.8df45f5f.Emscripten.clang"
  },
  "schemaVersion": "3.4.12",
  "updatedAt": "2023-03-11T16:51:17.504Z",
  "networkType": "ethereum",
  "devdoc": {
    "kind": "dev",
    "methods": {
      "acceptForm(address,string)": {
        "details": "Function that accept a form that has been sent to them.",
        "params": {
          "_formAddress": "address of the form to accept",
          "_reason": "reason to accept the form"
        }
      },
      "createForm(uint256[],string[],bytes32)": {
        "details": "Function to create a new form for the evidence of the case.",
        "params": {
          "_hashValue": "Hash value of the evidence",
          "_numbers": "All numerical information in the form",
          "_strings": "All textual information in the form"
        }
      },
      "findForm(address)": {
        "details": "Function to get a form from its address.",
        "params": {
          "_caseAddress": "address of the case"
        },
        "returns": {
          "_0": "Form form required"
        }
      },
      "getForm(address,string)": {
        "details": "Function that makes msg.sender the new owner of a free form.",
        "params": {
          "_formAddress": "address of the form",
          "_reason": "reason for taking the form (necessary in the chain of custody)"
        }
      },
      "getUserFormAddresses(address)": {
        "details": "Function that returns the forms in charge of an user.",
        "returns": {
          "_0": "address array with addresses of forms in charge of an user"
        }
      },
      "giveForm(address,address)": {
        "details": "Function that makes a form available for a given user, if msg.sender is the current owner.",
        "params": {
          "_formAddress": "address of the form to give to a user",
          "_taker": "address of the future owner of the form"
        }
      },
      "readForm(address)": {
        "details": "Function to get form data from itself.",
        "params": {
          "_form": "form which data is required"
        },
        "returns": {
          "_0": "FormData Struct that contains the data of the form"
        }
      },
      "readFormAddress(address)": {
        "details": "Function to get form data from an address.",
        "params": {
          "_caseAddress": "address of the case"
        },
        "returns": {
          "_0": "FormData Struct that contains the data of the form required"
        }
      },
      "rejectForm(address)": {
        "details": "Function that rejects a form that has been sent to them.",
        "params": {
          "_formAddress": "form to reject"
        }
      },
      "releaseForm(address)": {
        "details": "Function that makes a form available, if msg.sender is the current owner.",
        "params": {
          "_formAddress": "address of the form to free"
        }
      }
    },
    "version": 1
  },
  "userdoc": {
    "kind": "user",
    "methods": {},
    "version": 1
  }
}