{
  "contractName": "Form",
  "abi": [
    {
      "inputs": [
        {
          "internalType": "uint256[]",
          "name": "_numbers",
          "type": "uint256[]"
        },
        {
          "internalType": "string[]",
          "name": "_strings",
          "type": "string[]"
        },
        {
          "internalType": "bytes32",
          "name": "_hashValue",
          "type": "bytes32"
        }
      ],
      "stateMutability": "nonpayable",
      "type": "constructor"
    },
    {
      "inputs": [],
      "name": "readForm",
      "outputs": [
        {
          "components": [
            {
              "internalType": "string",
              "name": "caseName",
              "type": "string"
            },
            {
              "internalType": "uint256",
              "name": "caseNumber",
              "type": "uint256"
            },
            {
              "internalType": "string",
              "name": "reasonObtained",
              "type": "string"
            },
            {
              "internalType": "uint256",
              "name": "itemNumber",
              "type": "uint256"
            },
            {
              "internalType": "string",
              "name": "evidenceTypeManufacturer",
              "type": "string"
            },
            {
              "internalType": "string",
              "name": "owner",
              "type": "string"
            },
            {
              "internalType": "string",
              "name": "contentDescription",
              "type": "string"
            },
            {
              "internalType": "uint256",
              "name": "contentOwnerContactInformation",
              "type": "uint256"
            },
            {
              "internalType": "string",
              "name": "forensicAgent",
              "type": "string"
            },
            {
              "internalType": "string",
              "name": "creationMethod",
              "type": "string"
            },
            {
              "internalType": "bytes32",
              "name": "hashValue",
              "type": "bytes32"
            },
            {
              "internalType": "uint256",
              "name": "date",
              "type": "uint256"
            },
            {
              "internalType": "uint256",
              "name": "forensicAgentContactInformation",
              "type": "uint256"
            },
            {
              "components": [
                {
                  "internalType": "uint256",
                  "name": "trackingNumber",
                  "type": "uint256"
                },
                {
                  "internalType": "uint256",
                  "name": "timestamp",
                  "type": "uint256"
                },
                {
                  "internalType": "address",
                  "name": "releasedBy",
                  "type": "address"
                },
                {
                  "internalType": "address",
                  "name": "receivedBy",
                  "type": "address"
                },
                {
                  "internalType": "string",
                  "name": "reasonForChange",
                  "type": "string"
                }
              ],
              "internalType": "struct Log[]",
              "name": "chainOfCustody",
              "type": "tuple[]"
            }
          ],
          "internalType": "struct FormData",
          "name": "",
          "type": "tuple"
        }
      ],
      "stateMutability": "view",
      "type": "function"
    },
    {
      "inputs": [
        {
          "components": [
            {
              "internalType": "uint256",
              "name": "trackingNumber",
              "type": "uint256"
            },
            {
              "internalType": "uint256",
              "name": "timestamp",
              "type": "uint256"
            },
            {
              "internalType": "address",
              "name": "releasedBy",
              "type": "address"
            },
            {
              "internalType": "address",
              "name": "receivedBy",
              "type": "address"
            },
            {
              "internalType": "string",
              "name": "reasonForChange",
              "type": "string"
            }
          ],
          "internalType": "struct Log",
          "name": "_log",
          "type": "tuple"
        }
      ],
      "name": "pushLog",
      "outputs": [],
      "stateMutability": "nonpayable",
      "type": "function"
    }
  ],
  "bytecode": "0x60806040523480156200001157600080fd5b5060405162001b9738038062001b97833981810160405281019062000037919062000651565b816000815181106200004e576200004d620006eb565b5b60200260200101516000800190816200006891906200095b565b508160018151811062000080576200007f620006eb565b5b6020026020010151600060020190816200009b91906200095b565b5081600281518110620000b357620000b2620006eb565b5b602002602001015160006004019081620000ce91906200095b565b5081600381518110620000e657620000e5620006eb565b5b6020026020010151600060050190816200010191906200095b565b5081600481518110620001195762000118620006eb565b5b6020026020010151600060060190816200013491906200095b565b50816005815181106200014c576200014b620006eb565b5b6020026020010151600060080190816200016791906200095b565b50816006815181106200017f576200017e620006eb565b5b6020026020010151600060090190816200019a91906200095b565b5082600081518110620001b257620001b1620006eb565b5b602002602001015160006001018190555082600181518110620001da57620001d9620006eb565b5b602002602001015160006003018190555082600281518110620002025762000201620006eb565b5b6020026020010151600060070181905550826003815181106200022a5762000229620006eb565b5b60200260200101516000600b018190555082600481518110620002525762000251620006eb565b5b60200260200101516000600c0181905550806000600a018190555050505062000a42565b6000604051905090565b600080fd5b600080fd5b600080fd5b6000601f19601f8301169050919050565b7f4e487b7100000000000000000000000000000000000000000000000000000000600052604160045260246000fd5b620002da826200028f565b810181811067ffffffffffffffff82111715620002fc57620002fb620002a0565b5b80604052505050565b60006200031162000276565b90506200031f8282620002cf565b919050565b600067ffffffffffffffff821115620003425762000341620002a0565b5b602082029050602081019050919050565b600080fd5b6000819050919050565b6200036d8162000358565b81146200037957600080fd5b50565b6000815190506200038d8162000362565b92915050565b6000620003aa620003a48462000324565b62000305565b90508083825260208201905060208402830185811115620003d057620003cf62000353565b5b835b81811015620003fd5780620003e888826200037c565b845260208401935050602081019050620003d2565b5050509392505050565b600082601f8301126200041f576200041e6200028a565b5b81516200043184826020860162000393565b91505092915050565b600067ffffffffffffffff821115620004585762000457620002a0565b5b602082029050602081019050919050565b600080fd5b600067ffffffffffffffff8211156200048c576200048b620002a0565b5b62000497826200028f565b9050602081019050919050565b60005b83811015620004c4578082015181840152602081019050620004a7565b60008484015250505050565b6000620004e7620004e1846200046e565b62000305565b90508281526020810184848401111562000506576200050562000469565b5b62000513848285620004a4565b509392505050565b600082601f8301126200053357620005326200028a565b5b815162000545848260208601620004d0565b91505092915050565b6000620005656200055f846200043a565b62000305565b905080838252602082019050602084028301858111156200058b576200058a62000353565b5b835b81811015620005d957805167ffffffffffffffff811115620005b457620005b36200028a565b5b808601620005c389826200051b565b855260208501945050506020810190506200058d565b5050509392505050565b600082601f830112620005fb57620005fa6200028a565b5b81516200060d8482602086016200054e565b91505092915050565b6000819050919050565b6200062b8162000616565b81146200063757600080fd5b50565b6000815190506200064b8162000620565b92915050565b6000806000606084860312156200066d576200066c62000280565b5b600084015167ffffffffffffffff8111156200068e576200068d62000285565b5b6200069c8682870162000407565b935050602084015167ffffffffffffffff811115620006c057620006bf62000285565b5b620006ce86828701620005e3565b9250506040620006e1868287016200063a565b9150509250925092565b7f4e487b7100000000000000000000000000000000000000000000000000000000600052603260045260246000fd5b600081519050919050565b7f4e487b7100000000000000000000000000000000000000000000000000000000600052602260045260246000fd5b600060028204905060018216806200076d57607f821691505b60208210810362000783576200078262000725565b5b50919050565b60008190508160005260206000209050919050565b60006020601f8301049050919050565b600082821b905092915050565b600060088302620007ed7fffffffffffffffffffffffffffffffffffffffffffffffffffffffffffffffff82620007ae565b620007f98683620007ae565b95508019841693508086168417925050509392505050565b6000819050919050565b60006200083c62000836620008308462000358565b62000811565b62000358565b9050919050565b6000819050919050565b62000858836200081b565b62000870620008678262000843565b848454620007bb565b825550505050565b600090565b6200088762000878565b620008948184846200084d565b505050565b5b81811015620008bc57620008b06000826200087d565b6001810190506200089a565b5050565b601f8211156200090b57620008d58162000789565b620008e0846200079e565b81016020851015620008f0578190505b62000908620008ff856200079e565b83018262000899565b50505b505050565b600082821c905092915050565b6000620009306000198460080262000910565b1980831691505092915050565b60006200094b83836200091d565b9150826002028217905092915050565b62000966826200071a565b67ffffffffffffffff811115620009825762000981620002a0565b5b6200098e825462000754565b6200099b828285620008c0565b600060209050601f831160018114620009d35760008415620009be578287015190505b620009ca85826200093d565b86555062000a3a565b601f198416620009e38662000789565b60005b8281101562000a0d57848901518255600182019150602085019450602081019050620009e6565b8683101562000a2d578489015162000a29601f8916826200091d565b8355505b6001600288020188555050505b505050505050565b6111458062000a526000396000f3fe608060405234801561001057600080fd5b50600436106100365760003560e01c80635426177e1461003b5780639032198814610059575b600080fd5b610043610075565b6040516100509190610b73565b60405180910390f35b610073600480360381019061006e9190610de8565b61067b565b005b61007d610767565b6000604051806101c001604052908160008201805461009b90610e60565b80601f01602080910402602001604051908101604052809291908181526020018280546100c790610e60565b80156101145780601f106100e957610100808354040283529160200191610114565b820191906000526020600020905b8154815290600101906020018083116100f757829003601f168201915b505050505081526020016001820154815260200160028201805461013790610e60565b80601f016020809104026020016040519081016040528092919081815260200182805461016390610e60565b80156101b05780601f10610185576101008083540402835291602001916101b0565b820191906000526020600020905b81548152906001019060200180831161019357829003601f168201915b50505050508152602001600382015481526020016004820180546101d390610e60565b80601f01602080910402602001604051908101604052809291908181526020018280546101ff90610e60565b801561024c5780601f106102215761010080835404028352916020019161024c565b820191906000526020600020905b81548152906001019060200180831161022f57829003601f168201915b5050505050815260200160058201805461026590610e60565b80601f016020809104026020016040519081016040528092919081815260200182805461029190610e60565b80156102de5780601f106102b3576101008083540402835291602001916102de565b820191906000526020600020905b8154815290600101906020018083116102c157829003601f168201915b505050505081526020016006820180546102f790610e60565b80601f016020809104026020016040519081016040528092919081815260200182805461032390610e60565b80156103705780601f1061034557610100808354040283529160200191610370565b820191906000526020600020905b81548152906001019060200180831161035357829003601f168201915b505050505081526020016007820154815260200160088201805461039390610e60565b80601f01602080910402602001604051908101604052809291908181526020018280546103bf90610e60565b801561040c5780601f106103e15761010080835404028352916020019161040c565b820191906000526020600020905b8154815290600101906020018083116103ef57829003601f168201915b5050505050815260200160098201805461042590610e60565b80601f016020809104026020016040519081016040528092919081815260200182805461045190610e60565b801561049e5780601f106104735761010080835404028352916020019161049e565b820191906000526020600020905b81548152906001019060200180831161048157829003601f168201915b50505050508152602001600a8201548152602001600b8201548152602001600c8201548152602001600d8201805480602002602001604051908101604052809291908181526020016000905b8282101561066e57838290600052602060002090600502016040518060a001604052908160008201548152602001600182015481526020016002820160009054906101000a900473ffffffffffffffffffffffffffffffffffffffff1673ffffffffffffffffffffffffffffffffffffffff1673ffffffffffffffffffffffffffffffffffffffff1681526020016003820160009054906101000a900473ffffffffffffffffffffffffffffffffffffffff1673ffffffffffffffffffffffffffffffffffffffff1673ffffffffffffffffffffffffffffffffffffffff1681526020016004820180546105dd90610e60565b80601f016020809104026020016040519081016040528092919081815260200182805461060990610e60565b80156106565780601f1061062b57610100808354040283529160200191610656565b820191906000526020600020905b81548152906001019060200180831161063957829003601f168201915b505050505081525050815260200190600101906104ea565b5050505081525050905090565b6000600d01819080600181540180825580915050600190039060005260206000209060050201600090919091909150600082015181600001556020820151816001015560408201518160020160006101000a81548173ffffffffffffffffffffffffffffffffffffffff021916908373ffffffffffffffffffffffffffffffffffffffff16021790555060608201518160030160006101000a81548173ffffffffffffffffffffffffffffffffffffffff021916908373ffffffffffffffffffffffffffffffffffffffff1602179055506080820151816004019081610761919061103d565b50505050565b604051806101c0016040528060608152602001600081526020016060815260200160008152602001606081526020016060815260200160608152602001600081526020016060815260200160608152602001600080191681526020016000815260200160008152602001606081525090565b600081519050919050565b600082825260208201905092915050565b60005b838110156108135780820151818401526020810190506107f8565b60008484015250505050565b6000601f19601f8301169050919050565b600061083b826107d9565b61084581856107e4565b93506108558185602086016107f5565b61085e8161081f565b840191505092915050565b6000819050919050565b61087c81610869565b82525050565b6000819050919050565b61089581610882565b82525050565b600081519050919050565b600082825260208201905092915050565b6000819050602082019050919050565b600073ffffffffffffffffffffffffffffffffffffffff82169050919050565b60006108f2826108c7565b9050919050565b610902816108e7565b82525050565b600060a0830160008301516109206000860182610873565b5060208301516109336020860182610873565b50604083015161094660408601826108f9565b50606083015161095960608601826108f9565b50608083015184820360808601526109718282610830565b9150508091505092915050565b600061098a8383610908565b905092915050565b6000602082019050919050565b60006109aa8261089b565b6109b481856108a6565b9350836020820285016109c6856108b7565b8060005b85811015610a0257848403895281516109e3858261097e565b94506109ee83610992565b925060208a019950506001810190506109ca565b50829750879550505050505092915050565b60006101c0830160008301518482036000860152610a328282610830565b9150506020830151610a476020860182610873565b5060408301518482036040860152610a5f8282610830565b9150506060830151610a746060860182610873565b5060808301518482036080860152610a8c8282610830565b91505060a083015184820360a0860152610aa68282610830565b91505060c083015184820360c0860152610ac08282610830565b91505060e0830151610ad560e0860182610873565b50610100830151848203610100860152610aef8282610830565b915050610120830151848203610120860152610b0b8282610830565b915050610140830151610b2261014086018261088c565b50610160830151610b37610160860182610873565b50610180830151610b4c610180860182610873565b506101a08301518482036101a0860152610b66828261099f565b9150508091505092915050565b60006020820190508181036000830152610b8d8184610a14565b905092915050565b6000604051905090565b600080fd5b600080fd5b600080fd5b7f4e487b7100000000000000000000000000000000000000000000000000000000600052604160045260246000fd5b610be68261081f565b810181811067ffffffffffffffff82111715610c0557610c04610bae565b5b80604052505050565b6000610c18610b95565b9050610c248282610bdd565b919050565b600080fd5b610c3781610869565b8114610c4257600080fd5b50565b600081359050610c5481610c2e565b92915050565b610c63816108e7565b8114610c6e57600080fd5b50565b600081359050610c8081610c5a565b92915050565b600080fd5b600080fd5b600067ffffffffffffffff821115610cab57610caa610bae565b5b610cb48261081f565b9050602081019050919050565b82818337600083830152505050565b6000610ce3610cde84610c90565b610c0e565b905082815260208101848484011115610cff57610cfe610c8b565b5b610d0a848285610cc1565b509392505050565b600082601f830112610d2757610d26610c86565b5b8135610d37848260208601610cd0565b91505092915050565b600060a08284031215610d5657610d55610ba9565b5b610d6060a0610c0e565b90506000610d7084828501610c45565b6000830152506020610d8484828501610c45565b6020830152506040610d9884828501610c71565b6040830152506060610dac84828501610c71565b606083015250608082013567ffffffffffffffff811115610dd057610dcf610c29565b5b610ddc84828501610d12565b60808301525092915050565b600060208284031215610dfe57610dfd610b9f565b5b600082013567ffffffffffffffff811115610e1c57610e1b610ba4565b5b610e2884828501610d40565b91505092915050565b7f4e487b7100000000000000000000000000000000000000000000000000000000600052602260045260246000fd5b60006002820490506001821680610e7857607f821691505b602082108103610e8b57610e8a610e31565b5b50919050565b60008190508160005260206000209050919050565b60006020601f8301049050919050565b600082821b905092915050565b600060088302610ef37fffffffffffffffffffffffffffffffffffffffffffffffffffffffffffffffff82610eb6565b610efd8683610eb6565b95508019841693508086168417925050509392505050565b6000819050919050565b6000610f3a610f35610f3084610869565b610f15565b610869565b9050919050565b6000819050919050565b610f5483610f1f565b610f68610f6082610f41565b848454610ec3565b825550505050565b600090565b610f7d610f70565b610f88818484610f4b565b505050565b5b81811015610fac57610fa1600082610f75565b600181019050610f8e565b5050565b601f821115610ff157610fc281610e91565b610fcb84610ea6565b81016020851015610fda578190505b610fee610fe685610ea6565b830182610f8d565b50505b505050565b600082821c905092915050565b600061101460001984600802610ff6565b1980831691505092915050565b600061102d8383611003565b9150826002028217905092915050565b611046826107d9565b67ffffffffffffffff81111561105f5761105e610bae565b5b6110698254610e60565b611074828285610fb0565b600060209050601f8311600181146110a75760008415611095578287015190505b61109f8582611021565b865550611107565b601f1984166110b586610e91565b60005b828110156110dd578489015182556001820191506020850194506020810190506110b8565b868310156110fa57848901516110f6601f891682611003565b8355505b6001600288020188555050505b50505050505056fea26469706673582212203b8ee3d64e19228c9a8b65d4edb59ed695b0acbde6dc1c641347c2264df7816764736f6c63430008120033",
  "immutableReferences": {},
  "source": "// SPDX-License-Identifier: MIT\r\n\r\n// Pragma indicates the version of Solidity compiler to be used for compilation.\r\n// In truffle, the version of Solidity compiler is specified in truffle-config.js,\r\n// if not specified, the default version is 0.5.16.\r\n\r\npragma solidity ^0.8.17;\r\n\r\n// Contract is a collection of functions and data (its state) that resides at a specific address on the Ethereum blockchain.\r\n// The following contract is used to create a form for the evidence.\r\n\r\n// Struct to store the information of the chain of custody.\r\n    struct Log {\r\n        uint trackingNumber;        // Tracking number of the form\r\n        uint timestamp;             // Epoch time of the change\r\n        address releasedBy;         // Address of the entity that released the form\r\n        address receivedBy;         // Address of the entity that received the form\r\n        string reasonForChange;     // Reason for the change\r\n    }\r\n\r\n// Struct to store the information of the form.\r\n    struct FormData {\r\n        string caseName;                        // Name of the case\r\n        uint caseNumber;                        // Number of the case\r\n        string reasonObtained;                  // Reason for obtaining the evidence (?)\r\n        uint itemNumber;                        // Number of the item\r\n        string evidenceTypeManufacturer;        // Type of the evidence and manufacturer\r\n        string owner;                           // Name of the owner of the evidence\r\n\r\n        string contentDescription;              // Description of the evidence\r\n        uint contentOwnerContactInformation;    // Contact information of the owner of the evidence\r\n        string forensicAgent;                     // Name of the forensic agent\r\n        string creationMethod;                    // Method of creation of the evidence\r\n\r\n        bytes32 hashValue;                      // Hash value of the evidence\r\n        uint date;                              // Date of the evidence\r\n        uint forensicAgentContactInformation;   // Contact information of the forensic agent\r\n\r\n        Log[] chainOfCustody;                   // Chain of custody of the evidence\r\n    }\r\n\r\ncontract Form {\r\n    FormData private data;\r\n\r\n    constructor (uint[] memory _numbers, string[] memory _strings, bytes32 _hashValue) {\r\n        // _numbers = [_caseNumber, _itemNumber, _contentOwnerContactInformation, _date,\r\n        //             _forensicAgentContactInformation]\r\n        // _strings = [_caseName, _reasonObtained, _evidenceTypeManufacturer, _owner, _contentDescription,\r\n        //             _forensicAgent, _creationMethod]\r\n        data.caseName = _strings[0];\r\n        data.reasonObtained = _strings[1];\r\n        data.evidenceTypeManufacturer = _strings[2];\r\n        data.owner = _strings[3];\r\n        data.contentDescription = _strings[4];\r\n        data.forensicAgent = _strings[5];\r\n        data.creationMethod = _strings[6];\r\n\r\n        data.caseNumber = _numbers[0];\r\n        data.itemNumber = _numbers[1];\r\n        data.contentOwnerContactInformation = _numbers[2];\r\n        data.date = _numbers[3];\r\n        data.forensicAgentContactInformation = _numbers[4];\r\n\r\n        data.hashValue = _hashValue;\r\n    }\r\n\r\n    /**\r\n    *   @dev Function to read the form data.\r\n    *\r\n    *   @return FormData Struct containing the information of the form\r\n    */\r\n\r\n    function readForm() public view returns (FormData memory) {\r\n        return data;\r\n    }\r\n\r\n    function pushLog(Log memory _log) public {\r\n        data.chainOfCustody.push(_log);\r\n    }\r\n}",
  "sourcePath": "C:\\Users\\alegt\\IdeaProjects\\BlueWoodchuck\\project\\blockchain\\contracts\\contracts\\form.sol",
  "compiler": {
    "name": "solc",
    "version": "0.8.18+commit.87f61d96.Emscripten.clang"
  },
  "schemaVersion": "3.4.11",
  "updatedAt": "2023-02-03T13:39:21.287Z",
  "devdoc": {
    "kind": "dev",
    "methods": {
      "readForm()": {
        "details": "Function to read the form data.",
        "returns": {
          "_0": "FormData Struct containing the information of the form"
        }
      }
    },
    "version": 1
  },
  "userdoc": {
    "kind": "user",
    "methods": {},
    "version": 1
  }
}