{
  "contractName": "FormFactory",
  "abi": [
    {
      "anonymous": false,
      "inputs": [
        {
          "indexed": false,
          "internalType": "address",
          "name": "caseAddress",
          "type": "address"
        },
        {
          "components": [
            {
              "internalType": "string",
              "name": "caseName",
              "type": "string"
            },
            {
              "internalType": "uint256",
              "name": "caseNumber",
              "type": "uint256"
            },
            {
              "internalType": "string",
              "name": "reasonObtained",
              "type": "string"
            },
            {
              "internalType": "uint256",
              "name": "itemNumber",
              "type": "uint256"
            },
            {
              "internalType": "string",
              "name": "evidenceTypeManufacturer",
              "type": "string"
            },
            {
              "internalType": "string",
              "name": "owner",
              "type": "string"
            },
            {
              "internalType": "string",
              "name": "contentDescription",
              "type": "string"
            },
            {
              "internalType": "uint256",
              "name": "contentOwnerContactInformation",
              "type": "uint256"
            },
            {
              "internalType": "string",
              "name": "forensicAgent",
              "type": "string"
            },
            {
              "internalType": "string",
              "name": "creationMethod",
              "type": "string"
            },
            {
              "internalType": "bytes32",
              "name": "hashValue",
              "type": "bytes32"
            },
            {
              "internalType": "uint256",
              "name": "date",
              "type": "uint256"
            },
            {
              "internalType": "uint256",
              "name": "forensicAgentContactInformation",
              "type": "uint256"
            },
            {
              "components": [
                {
                  "internalType": "uint256",
                  "name": "trackingNumber",
                  "type": "uint256"
                },
                {
                  "internalType": "uint256",
                  "name": "timestamp",
                  "type": "uint256"
                },
                {
                  "internalType": "address",
                  "name": "releasedBy",
                  "type": "address"
                },
                {
                  "internalType": "address",
                  "name": "receivedBy",
                  "type": "address"
                },
                {
                  "internalType": "string",
                  "name": "reasonForChange",
                  "type": "string"
                }
              ],
              "internalType": "struct Log[]",
              "name": "chainOfCustody",
              "type": "tuple[]"
            }
          ],
          "indexed": false,
          "internalType": "struct FormData",
          "name": "data",
          "type": "tuple"
        }
      ],
      "name": "formFound",
      "type": "event"
    },
    {
      "anonymous": false,
      "inputs": [
        {
          "indexed": false,
          "internalType": "uint256",
          "name": "caseNumber",
          "type": "uint256"
        },
        {
          "indexed": false,
          "internalType": "address",
          "name": "caseAddress",
          "type": "address"
        },
        {
          "components": [
            {
              "internalType": "string",
              "name": "caseName",
              "type": "string"
            },
            {
              "internalType": "uint256",
              "name": "caseNumber",
              "type": "uint256"
            },
            {
              "internalType": "string",
              "name": "reasonObtained",
              "type": "string"
            },
            {
              "internalType": "uint256",
              "name": "itemNumber",
              "type": "uint256"
            },
            {
              "internalType": "string",
              "name": "evidenceTypeManufacturer",
              "type": "string"
            },
            {
              "internalType": "string",
              "name": "owner",
              "type": "string"
            },
            {
              "internalType": "string",
              "name": "contentDescription",
              "type": "string"
            },
            {
              "internalType": "uint256",
              "name": "contentOwnerContactInformation",
              "type": "uint256"
            },
            {
              "internalType": "string",
              "name": "forensicAgent",
              "type": "string"
            },
            {
              "internalType": "string",
              "name": "creationMethod",
              "type": "string"
            },
            {
              "internalType": "bytes32",
              "name": "hashValue",
              "type": "bytes32"
            },
            {
              "internalType": "uint256",
              "name": "date",
              "type": "uint256"
            },
            {
              "internalType": "uint256",
              "name": "forensicAgentContactInformation",
              "type": "uint256"
            },
            {
              "components": [
                {
                  "internalType": "uint256",
                  "name": "trackingNumber",
                  "type": "uint256"
                },
                {
                  "internalType": "uint256",
                  "name": "timestamp",
                  "type": "uint256"
                },
                {
                  "internalType": "address",
                  "name": "releasedBy",
                  "type": "address"
                },
                {
                  "internalType": "address",
                  "name": "receivedBy",
                  "type": "address"
                },
                {
                  "internalType": "string",
                  "name": "reasonForChange",
                  "type": "string"
                }
              ],
              "internalType": "struct Log[]",
              "name": "chainOfCustody",
              "type": "tuple[]"
            }
          ],
          "indexed": false,
          "internalType": "struct FormData",
          "name": "data",
          "type": "tuple"
        }
      ],
      "name": "newForm",
      "type": "event"
    },
    {
      "inputs": [
        {
          "internalType": "uint256[]",
          "name": "_numbers",
          "type": "uint256[]"
        },
        {
          "internalType": "string[]",
          "name": "_strings",
          "type": "string[]"
        },
        {
          "internalType": "bytes32",
          "name": "_hashValue",
          "type": "bytes32"
        }
      ],
      "name": "createForm",
      "outputs": [
        {
          "internalType": "address",
          "name": "",
          "type": "address"
        }
      ],
      "stateMutability": "nonpayable",
      "type": "function"
    },
    {
      "inputs": [
        {
          "internalType": "address",
          "name": "_caseAddress",
          "type": "address"
        }
      ],
      "name": "findForm",
      "outputs": [
        {
          "internalType": "contract Form",
          "name": "",
          "type": "address"
        }
      ],
      "stateMutability": "view",
      "type": "function",
      "constant": true
    },
    {
      "inputs": [
        {
          "internalType": "contract Form",
          "name": "_form",
          "type": "address"
        }
      ],
      "name": "readForm",
      "outputs": [
        {
          "components": [
            {
              "internalType": "string",
              "name": "caseName",
              "type": "string"
            },
            {
              "internalType": "uint256",
              "name": "caseNumber",
              "type": "uint256"
            },
            {
              "internalType": "string",
              "name": "reasonObtained",
              "type": "string"
            },
            {
              "internalType": "uint256",
              "name": "itemNumber",
              "type": "uint256"
            },
            {
              "internalType": "string",
              "name": "evidenceTypeManufacturer",
              "type": "string"
            },
            {
              "internalType": "string",
              "name": "owner",
              "type": "string"
            },
            {
              "internalType": "string",
              "name": "contentDescription",
              "type": "string"
            },
            {
              "internalType": "uint256",
              "name": "contentOwnerContactInformation",
              "type": "uint256"
            },
            {
              "internalType": "string",
              "name": "forensicAgent",
              "type": "string"
            },
            {
              "internalType": "string",
              "name": "creationMethod",
              "type": "string"
            },
            {
              "internalType": "bytes32",
              "name": "hashValue",
              "type": "bytes32"
            },
            {
              "internalType": "uint256",
              "name": "date",
              "type": "uint256"
            },
            {
              "internalType": "uint256",
              "name": "forensicAgentContactInformation",
              "type": "uint256"
            },
            {
              "components": [
                {
                  "internalType": "uint256",
                  "name": "trackingNumber",
                  "type": "uint256"
                },
                {
                  "internalType": "uint256",
                  "name": "timestamp",
                  "type": "uint256"
                },
                {
                  "internalType": "address",
                  "name": "releasedBy",
                  "type": "address"
                },
                {
                  "internalType": "address",
                  "name": "receivedBy",
                  "type": "address"
                },
                {
                  "internalType": "string",
                  "name": "reasonForChange",
                  "type": "string"
                }
              ],
              "internalType": "struct Log[]",
              "name": "chainOfCustody",
              "type": "tuple[]"
            }
          ],
          "internalType": "struct FormData",
          "name": "",
          "type": "tuple"
        }
      ],
      "stateMutability": "view",
      "type": "function",
      "constant": true
    },
    {
      "inputs": [
        {
          "internalType": "address",
          "name": "_caseAddress",
          "type": "address"
        }
      ],
      "name": "readFormAddress",
      "outputs": [
        {
          "components": [
            {
              "internalType": "string",
              "name": "caseName",
              "type": "string"
            },
            {
              "internalType": "uint256",
              "name": "caseNumber",
              "type": "uint256"
            },
            {
              "internalType": "string",
              "name": "reasonObtained",
              "type": "string"
            },
            {
              "internalType": "uint256",
              "name": "itemNumber",
              "type": "uint256"
            },
            {
              "internalType": "string",
              "name": "evidenceTypeManufacturer",
              "type": "string"
            },
            {
              "internalType": "string",
              "name": "owner",
              "type": "string"
            },
            {
              "internalType": "string",
              "name": "contentDescription",
              "type": "string"
            },
            {
              "internalType": "uint256",
              "name": "contentOwnerContactInformation",
              "type": "uint256"
            },
            {
              "internalType": "string",
              "name": "forensicAgent",
              "type": "string"
            },
            {
              "internalType": "string",
              "name": "creationMethod",
              "type": "string"
            },
            {
              "internalType": "bytes32",
              "name": "hashValue",
              "type": "bytes32"
            },
            {
              "internalType": "uint256",
              "name": "date",
              "type": "uint256"
            },
            {
              "internalType": "uint256",
              "name": "forensicAgentContactInformation",
              "type": "uint256"
            },
            {
              "components": [
                {
                  "internalType": "uint256",
                  "name": "trackingNumber",
                  "type": "uint256"
                },
                {
                  "internalType": "uint256",
                  "name": "timestamp",
                  "type": "uint256"
                },
                {
                  "internalType": "address",
                  "name": "releasedBy",
                  "type": "address"
                },
                {
                  "internalType": "address",
                  "name": "receivedBy",
                  "type": "address"
                },
                {
                  "internalType": "string",
                  "name": "reasonForChange",
                  "type": "string"
                }
              ],
              "internalType": "struct Log[]",
              "name": "chainOfCustody",
              "type": "tuple[]"
            }
          ],
          "internalType": "struct FormData",
          "name": "",
          "type": "tuple"
        }
      ],
      "stateMutability": "view",
      "type": "function",
      "constant": true
    },
    {
      "inputs": [
        {
          "internalType": "address",
          "name": "_userAddress",
          "type": "address"
        }
      ],
      "name": "getUserFormAddresses",
      "outputs": [
        {
          "internalType": "address[]",
          "name": "",
          "type": "address[]"
        }
      ],
      "stateMutability": "view",
      "type": "function",
      "constant": true
    },
    {
      "inputs": [
        {
          "internalType": "address",
          "name": "_formAddress",
          "type": "address"
        },
        {
          "internalType": "string",
          "name": "_reason",
          "type": "string"
        }
      ],
      "name": "getForm",
      "outputs": [],
      "stateMutability": "nonpayable",
      "type": "function"
    },
    {
      "inputs": [
        {
          "internalType": "address",
          "name": "_formAddress",
          "type": "address"
        }
      ],
      "name": "releaseForm",
      "outputs": [],
      "stateMutability": "nonpayable",
      "type": "function"
    },
    {
      "inputs": [
        {
          "internalType": "address",
          "name": "_formAddress",
          "type": "address"
        },
        {
          "internalType": "address",
          "name": "_taker",
          "type": "address"
        }
      ],
      "name": "giveForm",
      "outputs": [],
      "stateMutability": "nonpayable",
      "type": "function"
    },
    {
      "inputs": [
        {
          "internalType": "address",
          "name": "_formAddress",
          "type": "address"
        },
        {
          "internalType": "string",
          "name": "_reason",
          "type": "string"
        }
      ],
      "name": "acceptForm",
      "outputs": [],
      "stateMutability": "nonpayable",
      "type": "function"
    },
    {
      "inputs": [
        {
          "internalType": "address",
          "name": "_formAddress",
          "type": "address"
        }
      ],
      "name": "rejectForm",
      "outputs": [],
      "stateMutability": "nonpayable",
      "type": "function"
    },
    {
      "inputs": [
        {
          "internalType": "address",
          "name": "_formAddress",
          "type": "address"
        }
      ],
      "name": "isAFormAvailable",
      "outputs": [
        {
          "internalType": "bool",
          "name": "",
          "type": "bool"
        }
      ],
      "stateMutability": "view",
      "type": "function",
      "constant": true
    }
  ],
  "bytecode": "0x608060405234801561001057600080fd5b50615094806100206000396000f3fe60806040523480156200001157600080fd5b5060043610620000b85760003560e01c8063866fba22116200007b578063866fba22146200019f5780638d5194c914620001d5578063ca8e697f14620001f5578063edcd5c41146200022b578063edef556a146200024b578063f8fa329b146200028157620000b8565b8063057b011014620000bd578063191d12fc14620000f3578063494d8d3314620001135780634b194bf0146200014957806374de047a146200017f575b600080fd5b620000db6004803603810190620000d59190620016f9565b620002a1565b604051620000ea919062001ad7565b60405180910390f35b6200011160048036038101906200010b919062001afb565b620002c7565b005b6200013160048036038101906200012b9190620016f9565b62000401565b60405162000140919062001bff565b60405180910390f35b62000167600480360381019062000161919062001c68565b620004d0565b60405162000176919062001ad7565b60405180910390f35b6200019d600480360381019062000197919062001deb565b62000558565b005b620001bd6004803603810190620001b79190620016f9565b620008cf565b604051620001cc919062001e6e565b60405180910390f35b620001f36004803603810190620001ed919062001deb565b62000954565b005b6200021360048036038101906200020d9190620016f9565b62000d80565b60405162000222919062001ef6565b60405180910390f35b620002496004803603810190620002439190620016f9565b62000de8565b005b62000269600480360381019062000263919062002147565b62000e57565b604051620002789190620021f2565b60405180910390f35b6200029f6004803603810190620002999190620016f9565b62001184565b005b620002ab62001600565b620002c0620002ba8362000d80565b620004d0565b9050919050565b3373ffffffffffffffffffffffffffffffffffffffff16620002e98362000d80565b73ffffffffffffffffffffffffffffffffffffffff1663d08145e46040518163ffffffff1660e01b8152600401600060405180830381865afa15801562000334573d6000803e3d6000fd5b505050506040513d6000823e3d601f19601f820116820180604052508101906200035f91906200237f565b6060015173ffffffffffffffffffffffffffffffffffffffff16146200038457600080fd5b6200038f8262000d80565b73ffffffffffffffffffffffffffffffffffffffff16636d678f52826040518263ffffffff1660e01b8152600401620003c99190620021f2565b600060405180830381600087803b158015620003e457600080fd5b505af1158015620003f9573d6000803e3d6000fd5b505050505050565b6060600160008373ffffffffffffffffffffffffffffffffffffffff1673ffffffffffffffffffffffffffffffffffffffff168152602001908152602001600020805480602002602001604051908101604052809291908181526020018280548015620004c457602002820191906000526020600020905b8160009054906101000a900473ffffffffffffffffffffffffffffffffffffffff1673ffffffffffffffffffffffffffffffffffffffff168152602001906001019080831162000479575b50505050509050919050565b620004da62001600565b8173ffffffffffffffffffffffffffffffffffffffff16635426177e6040518163ffffffff1660e01b8152600401600060405180830381865afa15801562000526573d6000803e3d6000fd5b505050506040513d6000823e3d601f19601f8201168201806040525081019062000551919062002745565b9050919050565b620005638262000d80565b73ffffffffffffffffffffffffffffffffffffffff1663856c71dd6040518163ffffffff1660e01b8152600401602060405180830381865afa158015620005ae573d6000803e3d6000fd5b505050506040513d601f19601f82011682018060405250810190620005d49190620027c7565b620005de57600080fd5b620005e98262000d80565b73ffffffffffffffffffffffffffffffffffffffff1663903219886040518060a0016040528060016200061c8762000d80565b73ffffffffffffffffffffffffffffffffffffffff1663d08145e46040518163ffffffff1660e01b8152600401600060405180830381865afa15801562000667573d6000803e3d6000fd5b505050506040513d6000823e3d601f19601f820116820180604052508101906200069291906200237f565b60000151620006a2919062002828565b8152602001428152602001620006b88662000d80565b73ffffffffffffffffffffffffffffffffffffffff1663d08145e46040518163ffffffff1660e01b8152600401600060405180830381865afa15801562000703573d6000803e3d6000fd5b505050506040513d6000823e3d601f19601f820116820180604052508101906200072e91906200237f565b6060015173ffffffffffffffffffffffffffffffffffffffff1681526020013373ffffffffffffffffffffffffffffffffffffffff168152602001848152506040518263ffffffff1660e01b81526004016200078b9190620028e3565b600060405180830381600087803b158015620007a657600080fd5b505af1158015620007bb573d6000803e3d6000fd5b50505050600160003373ffffffffffffffffffffffffffffffffffffffff1673ffffffffffffffffffffffffffffffffffffffff168152602001908152602001600020829080600181540180825580915050600190039060005260206000200160009091909190916101000a81548173ffffffffffffffffffffffffffffffffffffffff021916908373ffffffffffffffffffffffffffffffffffffffff1602179055506200086a8262000d80565b73ffffffffffffffffffffffffffffffffffffffff1663f5c92cda6040518163ffffffff1660e01b8152600401600060405180830381600087803b158015620008b257600080fd5b505af1158015620008c7573d6000803e3d6000fd5b505050505050565b6000620008dc8262000d80565b73ffffffffffffffffffffffffffffffffffffffff1663856c71dd6040518163ffffffff1660e01b8152600401602060405180830381865afa15801562000927573d6000803e3d6000fd5b505050506040513d601f19601f820116820180604052508101906200094d9190620027c7565b9050919050565b3373ffffffffffffffffffffffffffffffffffffffff16620009768362000d80565b73ffffffffffffffffffffffffffffffffffffffff1663f5d197556040518163ffffffff1660e01b8152600401602060405180830381865afa158015620009c1573d6000803e3d6000fd5b505050506040513d601f19601f82011682018060405250810190620009e7919062002907565b73ffffffffffffffffffffffffffffffffffffffff161462000a0857600080fd5b600160003373ffffffffffffffffffffffffffffffffffffffff1673ffffffffffffffffffffffffffffffffffffffff168152602001908152602001600020829080600181540180825580915050600190039060005260206000200160009091909190916101000a81548173ffffffffffffffffffffffffffffffffffffffff021916908373ffffffffffffffffffffffffffffffffffffffff16021790555062000ab38262000d80565b73ffffffffffffffffffffffffffffffffffffffff1663903219886040518060a00160405280600162000ae68762000d80565b73ffffffffffffffffffffffffffffffffffffffff1663d08145e46040518163ffffffff1660e01b8152600401600060405180830381865afa15801562000b31573d6000803e3d6000fd5b505050506040513d6000823e3d601f19601f8201168201806040525081019062000b5c91906200237f565b6000015162000b6c919062002828565b815260200142815260200162000b828662000d80565b73ffffffffffffffffffffffffffffffffffffffff1663d08145e46040518163ffffffff1660e01b8152600401600060405180830381865afa15801562000bcd573d6000803e3d6000fd5b505050506040513d6000823e3d601f19601f8201168201806040525081019062000bf891906200237f565b6060015173ffffffffffffffffffffffffffffffffffffffff1681526020013373ffffffffffffffffffffffffffffffffffffffff168152602001848152506040518263ffffffff1660e01b815260040162000c559190620028e3565b600060405180830381600087803b15801562000c7057600080fd5b505af115801562000c85573d6000803e3d6000fd5b5050505062000d1062000c988362000d80565b73ffffffffffffffffffffffffffffffffffffffff1663651c5d2d6040518163ffffffff1660e01b8152600401602060405180830381865afa15801562000ce3573d6000803e3d6000fd5b505050506040513d601f19601f8201168201806040525081019062000d09919062002907565b83620012a7565b62000d1b8262000d80565b73ffffffffffffffffffffffffffffffffffffffff1663bcd404fa6040518163ffffffff1660e01b8152600401600060405180830381600087803b15801562000d6357600080fd5b505af115801562000d78573d6000803e3d6000fd5b505050505050565b60008060008373ffffffffffffffffffffffffffffffffffffffff1673ffffffffffffffffffffffffffffffffffffffff16815260200190815260200160002060009054906101000a900473ffffffffffffffffffffffffffffffffffffffff169050919050565b62000df38162000d80565b73ffffffffffffffffffffffffffffffffffffffff16637a7d15666040518163ffffffff1660e01b8152600401600060405180830381600087803b15801562000e3b57600080fd5b505af115801562000e50573d6000803e3d6000fd5b5050505050565b60008062000e64620015c9565b905084848460405162000e779062001672565b62000e859392919062002ad7565b604051809103906000f08015801562000ea2573d6000803e3d6000fd5b506000808373ffffffffffffffffffffffffffffffffffffffff1673ffffffffffffffffffffffffffffffffffffffff16815260200190815260200160002060006101000a81548173ffffffffffffffffffffffffffffffffffffffff021916908373ffffffffffffffffffffffffffffffffffffffff1602179055506000808273ffffffffffffffffffffffffffffffffffffffff1673ffffffffffffffffffffffffffffffffffffffff16815260200190815260200160002060009054906101000a900473ffffffffffffffffffffffffffffffffffffffff1673ffffffffffffffffffffffffffffffffffffffff1663903219886040518060a00160405280600081526020014281526020013373ffffffffffffffffffffffffffffffffffffffff1681526020013373ffffffffffffffffffffffffffffffffffffffff1681526020016040518060400160405280600c81526020017f466f726d206372656174656400000000000000000000000000000000000000008152508152506040518263ffffffff1660e01b8152600401620010409190620028e3565b600060405180830381600087803b1580156200105b57600080fd5b505af115801562001070573d6000803e3d6000fd5b50505050600160003373ffffffffffffffffffffffffffffffffffffffff1673ffffffffffffffffffffffffffffffffffffffff168152602001908152602001600020819080600181540180825580915050600190039060005260206000200160009091909190916101000a81548173ffffffffffffffffffffffffffffffffffffffff021916908373ffffffffffffffffffffffffffffffffffffffff1602179055507fa32121da9500249d8880fce97dd8f5f3f0f54bfedc91bdb545438f69d79d8917856000815181106200114c576200114b62002b22565b5b6020026020010151826200116084620002a1565b604051620011719392919062002b62565b60405180910390a1809150509392505050565b3373ffffffffffffffffffffffffffffffffffffffff16620011a68262000d80565b73ffffffffffffffffffffffffffffffffffffffff1663f5d197556040518163ffffffff1660e01b8152600401602060405180830381865afa158015620011f1573d6000803e3d6000fd5b505050506040513d601f19601f8201168201806040525081019062001217919062002907565b73ffffffffffffffffffffffffffffffffffffffff16146200123857600080fd5b620012438162000d80565b73ffffffffffffffffffffffffffffffffffffffff1663bcd404fa6040518163ffffffff1660e01b8152600401600060405180830381600087803b1580156200128b57600080fd5b505af1158015620012a0573d6000803e3d6000fd5b5050505050565b6000600160008473ffffffffffffffffffffffffffffffffffffffff1673ffffffffffffffffffffffffffffffffffffffff1681526020019081526020016000208054905011620012f757600080fd5b6000600160008473ffffffffffffffffffffffffffffffffffffffff1673ffffffffffffffffffffffffffffffffffffffff16815260200190815260200160002080549050905060005b81811015620015c3578273ffffffffffffffffffffffffffffffffffffffff16600160008673ffffffffffffffffffffffffffffffffffffffff1673ffffffffffffffffffffffffffffffffffffffff1681526020019081526020016000208281548110620013b557620013b462002b22565b5b9060005260206000200160009054906101000a900473ffffffffffffffffffffffffffffffffffffffff1673ffffffffffffffffffffffffffffffffffffffff1603620015ad57600160008573ffffffffffffffffffffffffffffffffffffffff1673ffffffffffffffffffffffffffffffffffffffff1681526020019081526020016000206001836200144a919062002ba6565b815481106200145e576200145d62002b22565b5b9060005260206000200160009054906101000a900473ffffffffffffffffffffffffffffffffffffffff16600160008673ffffffffffffffffffffffffffffffffffffffff1673ffffffffffffffffffffffffffffffffffffffff1681526020019081526020016000208281548110620014dd57620014dc62002b22565b5b9060005260206000200160006101000a81548173ffffffffffffffffffffffffffffffffffffffff021916908373ffffffffffffffffffffffffffffffffffffffff160217905550600160008573ffffffffffffffffffffffffffffffffffffffff1673ffffffffffffffffffffffffffffffffffffffff16815260200190815260200160002080548062001577576200157662002be1565b5b6001900381819060005260206000200160006101000a81549073ffffffffffffffffffffffffffffffffffffffff021916905590555b8080620015ba9062002c10565b91505062001341565b50505050565b6000424433604051602001620015e29392919062002cd2565b6040516020818303038152906040528051906020012060001c905090565b604051806101c0016040528060608152602001600081526020016060815260200160008152602001606081526020016060815260200160608152602001600081526020016060815260200160608152602001600080191681526020016000815260200160008152602001606081525090565b6123498062002d1683390190565b6000604051905090565b600080fd5b600080fd5b600073ffffffffffffffffffffffffffffffffffffffff82169050919050565b6000620016c18262001694565b9050919050565b620016d381620016b4565b8114620016df57600080fd5b50565b600081359050620016f381620016c8565b92915050565b6000602082840312156200171257620017116200168a565b5b60006200172284828501620016e2565b91505092915050565b600081519050919050565b600082825260208201905092915050565b60005b83811015620017675780820151818401526020810190506200174a565b60008484015250505050565b6000601f19601f8301169050919050565b600062001791826200172b565b6200179d818562001736565b9350620017af81856020860162001747565b620017ba8162001773565b840191505092915050565b6000819050919050565b620017da81620017c5565b82525050565b6000819050919050565b620017f581620017e0565b82525050565b600081519050919050565b600082825260208201905092915050565b6000819050602082019050919050565b6200183281620016b4565b82525050565b600060a083016000830151620018526000860182620017cf565b506020830151620018676020860182620017cf565b5060408301516200187c604086018262001827565b50606083015162001891606086018262001827565b5060808301518482036080860152620018ab828262001784565b9150508091505092915050565b6000620018c6838362001838565b905092915050565b6000602082019050919050565b6000620018e882620017fb565b620018f4818562001806565b935083602082028501620019088562001817565b8060005b858110156200194a5784840389528151620019288582620018b8565b94506200193583620018ce565b925060208a019950506001810190506200190c565b50829750879550505050505092915050565b60006101c08301600083015184820360008601526200197c828262001784565b9150506020830151620019936020860182620017cf565b5060408301518482036040860152620019ad828262001784565b9150506060830151620019c46060860182620017cf565b5060808301518482036080860152620019de828262001784565b91505060a083015184820360a0860152620019fa828262001784565b91505060c083015184820360c086015262001a16828262001784565b91505060e083015162001a2d60e0860182620017cf565b5061010083015184820361010086015262001a49828262001784565b91505061012083015184820361012086015262001a67828262001784565b91505061014083015162001a80610140860182620017ea565b5061016083015162001a97610160860182620017cf565b5061018083015162001aae610180860182620017cf565b506101a08301518482036101a086015262001aca8282620018db565b9150508091505092915050565b6000602082019050818103600083015262001af381846200195c565b905092915050565b6000806040838503121562001b155762001b146200168a565b5b600062001b2585828601620016e2565b925050602062001b3885828601620016e2565b9150509250929050565b600081519050919050565b600082825260208201905092915050565b6000819050602082019050919050565b600062001b7c838362001827565b60208301905092915050565b6000602082019050919050565b600062001ba28262001b42565b62001bae818562001b4d565b935062001bbb8362001b5e565b8060005b8381101562001bf257815162001bd6888262001b6e565b975062001be38362001b88565b92505060018101905062001bbf565b5085935050505092915050565b6000602082019050818103600083015262001c1b818462001b95565b905092915050565b600062001c3082620016b4565b9050919050565b62001c428162001c23565b811462001c4e57600080fd5b50565b60008135905062001c628162001c37565b92915050565b60006020828403121562001c815762001c806200168a565b5b600062001c918482850162001c51565b91505092915050565b600080fd5b600080fd5b7f4e487b7100000000000000000000000000000000000000000000000000000000600052604160045260246000fd5b62001cde8262001773565b810181811067ffffffffffffffff8211171562001d005762001cff62001ca4565b5b80604052505050565b600062001d1562001680565b905062001d23828262001cd3565b919050565b600067ffffffffffffffff82111562001d465762001d4562001ca4565b5b62001d518262001773565b9050602081019050919050565b82818337600083830152505050565b600062001d8462001d7e8462001d28565b62001d09565b90508281526020810184848401111562001da35762001da262001c9f565b5b62001db084828562001d5e565b509392505050565b600082601f83011262001dd05762001dcf62001c9a565b5b813562001de284826020860162001d6d565b91505092915050565b6000806040838503121562001e055762001e046200168a565b5b600062001e1585828601620016e2565b925050602083013567ffffffffffffffff81111562001e395762001e386200168f565b5b62001e478582860162001db8565b9150509250929050565b60008115159050919050565b62001e688162001e51565b82525050565b600060208201905062001e85600083018462001e5d565b92915050565b6000819050919050565b600062001eb662001eb062001eaa8462001694565b62001e8b565b62001694565b9050919050565b600062001eca8262001e95565b9050919050565b600062001ede8262001ebd565b9050919050565b62001ef08162001ed1565b82525050565b600060208201905062001f0d600083018462001ee5565b92915050565b600067ffffffffffffffff82111562001f315762001f3062001ca4565b5b602082029050602081019050919050565b600080fd5b62001f5281620017c5565b811462001f5e57600080fd5b50565b60008135905062001f728162001f47565b92915050565b600062001f8f62001f898462001f13565b62001d09565b9050808382526020820190506020840283018581111562001fb55762001fb462001f42565b5b835b8181101562001fe2578062001fcd888262001f61565b84526020840193505060208101905062001fb7565b5050509392505050565b600082601f83011262002004576200200362001c9a565b5b81356200201684826020860162001f78565b91505092915050565b600067ffffffffffffffff8211156200203d576200203c62001ca4565b5b602082029050602081019050919050565b6000620020656200205f846200201f565b62001d09565b905080838252602082019050602084028301858111156200208b576200208a62001f42565b5b835b81811015620020d957803567ffffffffffffffff811115620020b457620020b362001c9a565b5b808601620020c3898262001db8565b855260208501945050506020810190506200208d565b5050509392505050565b600082601f830112620020fb57620020fa62001c9a565b5b81356200210d8482602086016200204e565b91505092915050565b6200212181620017e0565b81146200212d57600080fd5b50565b600081359050620021418162002116565b92915050565b6000806000606084860312156200216357620021626200168a565b5b600084013567ffffffffffffffff8111156200218457620021836200168f565b5b620021928682870162001fec565b935050602084013567ffffffffffffffff811115620021b657620021b56200168f565b5b620021c486828701620020e3565b9250506040620021d78682870162002130565b9150509250925092565b620021ec81620016b4565b82525050565b6000602082019050620022096000830184620021e1565b92915050565b600080fd5b600080fd5b6000815190506200222a8162001f47565b92915050565b6000815190506200224181620016c8565b92915050565b60006200225e620022588462001d28565b62001d09565b9050828152602081018484840111156200227d576200227c62001c9f565b5b6200228a84828562001747565b509392505050565b600082601f830112620022aa57620022a962001c9a565b5b8151620022bc84826020860162002247565b91505092915050565b600060a08284031215620022de57620022dd6200220f565b5b620022ea60a062001d09565b90506000620022fc8482850162002219565b6000830152506020620023128482850162002219565b6020830152506040620023288482850162002230565b60408301525060606200233e8482850162002230565b606083015250608082015167ffffffffffffffff81111562002365576200236462002214565b5b620023738482850162002292565b60808301525092915050565b6000602082840312156200239857620023976200168a565b5b600082015167ffffffffffffffff811115620023b957620023b86200168f565b5b620023c784828501620022c5565b91505092915050565b600081519050620023e18162002116565b92915050565b600067ffffffffffffffff82111562002405576200240462001ca4565b5b602082029050602081019050919050565b60006200242d6200242784620023e7565b62001d09565b9050808382526020820190506020840283018581111562002453576200245262001f42565b5b835b81811015620024a157805167ffffffffffffffff8111156200247c576200247b62001c9a565b5b8086016200248b8982620022c5565b8552602085019450505060208101905062002455565b5050509392505050565b600082601f830112620024c357620024c262001c9a565b5b8151620024d584826020860162002416565b91505092915050565b60006101c08284031215620024f857620024f76200220f565b5b620025056101c062001d09565b9050600082015167ffffffffffffffff81111562002528576200252762002214565b5b620025368482850162002292565b60008301525060206200254c8482850162002219565b602083015250604082015167ffffffffffffffff81111562002573576200257262002214565b5b620025818482850162002292565b6040830152506060620025978482850162002219565b606083015250608082015167ffffffffffffffff811115620025be57620025bd62002214565b5b620025cc8482850162002292565b60808301525060a082015167ffffffffffffffff811115620025f357620025f262002214565b5b620026018482850162002292565b60a08301525060c082015167ffffffffffffffff81111562002628576200262762002214565b5b620026368482850162002292565b60c08301525060e06200264c8482850162002219565b60e08301525061010082015167ffffffffffffffff81111562002674576200267362002214565b5b620026828482850162002292565b6101008301525061012082015167ffffffffffffffff811115620026ab57620026aa62002214565b5b620026b98482850162002292565b61012083015250610140620026d184828501620023d0565b61014083015250610160620026e98482850162002219565b61016083015250610180620027018482850162002219565b610180830152506101a082015167ffffffffffffffff8111156200272a576200272962002214565b5b6200273884828501620024ab565b6101a08301525092915050565b6000602082840312156200275e576200275d6200168a565b5b600082015167ffffffffffffffff8111156200277f576200277e6200168f565b5b6200278d84828501620024de565b91505092915050565b620027a18162001e51565b8114620027ad57600080fd5b50565b600081519050620027c18162002796565b92915050565b600060208284031215620027e057620027df6200168a565b5b6000620027f084828501620027b0565b91505092915050565b7f4e487b7100000000000000000000000000000000000000000000000000000000600052601160045260246000fd5b60006200283582620017c5565b91506200284283620017c5565b92508282019050808211156200285d576200285c620027f9565b5b92915050565b600060a0830160008301516200287d6000860182620017cf565b506020830151620028926020860182620017cf565b506040830151620028a7604086018262001827565b506060830151620028bc606086018262001827565b5060808301518482036080860152620028d6828262001784565b9150508091505092915050565b60006020820190508181036000830152620028ff818462002863565b905092915050565b60006020828403121562002920576200291f6200168a565b5b6000620029308482850162002230565b91505092915050565b600081519050919050565b600082825260208201905092915050565b6000819050602082019050919050565b6000620029738383620017cf565b60208301905092915050565b6000602082019050919050565b6000620029998262002939565b620029a5818562002944565b9350620029b28362002955565b8060005b83811015620029e9578151620029cd888262002965565b9750620029da836200297f565b925050600181019050620029b6565b5085935050505092915050565b600081519050919050565b600082825260208201905092915050565b6000819050602082019050919050565b600062002a30838362001784565b905092915050565b6000602082019050919050565b600062002a5282620029f6565b62002a5e818562002a01565b93508360208202850162002a728562002a12565b8060005b8581101562002ab4578484038952815162002a92858262002a22565b945062002a9f8362002a38565b925060208a0199505060018101905062002a76565b50829750879550505050505092915050565b62002ad181620017e0565b82525050565b6000606082019050818103600083015262002af381866200298c565b9050818103602083015262002b09818562002a45565b905062002b1a604083018462002ac6565b949350505050565b7f4e487b7100000000000000000000000000000000000000000000000000000000600052603260045260246000fd5b62002b5c81620017c5565b82525050565b600060608201905062002b79600083018662002b51565b62002b886020830185620021e1565b818103604083015262002b9c81846200195c565b9050949350505050565b600062002bb382620017c5565b915062002bc083620017c5565b925082820390508181111562002bdb5762002bda620027f9565b5b92915050565b7f4e487b7100000000000000000000000000000000000000000000000000000000600052603160045260246000fd5b600062002c1d82620017c5565b91507fffffffffffffffffffffffffffffffffffffffffffffffffffffffffffffffff820362002c525762002c51620027f9565b5b600182019050919050565b6000819050919050565b62002c7c62002c7682620017c5565b62002c5d565b82525050565b60008160601b9050919050565b600062002c9c8262002c82565b9050919050565b600062002cb08262002c8f565b9050919050565b62002ccc62002cc682620016b4565b62002ca3565b82525050565b600062002ce0828662002c67565b60208201915062002cf2828562002c67565b60208201915062002d04828462002cb7565b60148201915081905094935050505056fe60806040523480156200001157600080fd5b506040516200234938038062002349833981810160405281019062000037919062000651565b816000815181106200004e576200004d620006eb565b5b6020026020010151600260000190816200006991906200095b565b5081600181518110620000815762000080620006eb565b5b60200260200101516002800190816200009b91906200095b565b5081600281518110620000b357620000b2620006eb565b5b602002602001015160026004019081620000ce91906200095b565b5081600381518110620000e657620000e5620006eb565b5b6020026020010151600260050190816200010191906200095b565b5081600481518110620001195762000118620006eb565b5b6020026020010151600260060190816200013491906200095b565b50816005815181106200014c576200014b620006eb565b5b6020026020010151600260080190816200016791906200095b565b50816006815181106200017f576200017e620006eb565b5b6020026020010151600260090190816200019a91906200095b565b5082600081518110620001b257620001b1620006eb565b5b602002602001015160026001018190555082600181518110620001da57620001d9620006eb565b5b602002602001015160026003018190555082600281518110620002025762000201620006eb565b5b6020026020010151600260070181905550826003815181106200022a5762000229620006eb565b5b60200260200101516002600b018190555082600481518110620002525762000251620006eb565b5b60200260200101516002600c0181905550806002600a018190555050505062000a42565b6000604051905090565b600080fd5b600080fd5b600080fd5b6000601f19601f8301169050919050565b7f4e487b7100000000000000000000000000000000000000000000000000000000600052604160045260246000fd5b620002da826200028f565b810181811067ffffffffffffffff82111715620002fc57620002fb620002a0565b5b80604052505050565b60006200031162000276565b90506200031f8282620002cf565b919050565b600067ffffffffffffffff821115620003425762000341620002a0565b5b602082029050602081019050919050565b600080fd5b6000819050919050565b6200036d8162000358565b81146200037957600080fd5b50565b6000815190506200038d8162000362565b92915050565b6000620003aa620003a48462000324565b62000305565b90508083825260208201905060208402830185811115620003d057620003cf62000353565b5b835b81811015620003fd5780620003e888826200037c565b845260208401935050602081019050620003d2565b5050509392505050565b600082601f8301126200041f576200041e6200028a565b5b81516200043184826020860162000393565b91505092915050565b600067ffffffffffffffff821115620004585762000457620002a0565b5b602082029050602081019050919050565b600080fd5b600067ffffffffffffffff8211156200048c576200048b620002a0565b5b62000497826200028f565b9050602081019050919050565b60005b83811015620004c4578082015181840152602081019050620004a7565b60008484015250505050565b6000620004e7620004e1846200046e565b62000305565b90508281526020810184848401111562000506576200050562000469565b5b62000513848285620004a4565b509392505050565b600082601f8301126200053357620005326200028a565b5b815162000545848260208601620004d0565b91505092915050565b6000620005656200055f846200043a565b62000305565b905080838252602082019050602084028301858111156200058b576200058a62000353565b5b835b81811015620005d957805167ffffffffffffffff811115620005b457620005b36200028a565b5b808601620005c389826200051b565b855260208501945050506020810190506200058d565b5050509392505050565b600082601f830112620005fb57620005fa6200028a565b5b81516200060d8482602086016200054e565b91505092915050565b6000819050919050565b6200062b8162000616565b81146200063757600080fd5b50565b6000815190506200064b8162000620565b92915050565b6000806000606084860312156200066d576200066c62000280565b5b600084015167ffffffffffffffff8111156200068e576200068d62000285565b5b6200069c8682870162000407565b935050602084015167ffffffffffffffff811115620006c057620006bf62000285565b5b620006ce86828701620005e3565b9250506040620006e1868287016200063a565b9150509250925092565b7f4e487b7100000000000000000000000000000000000000000000000000000000600052603260045260246000fd5b600081519050919050565b7f4e487b7100000000000000000000000000000000000000000000000000000000600052602260045260246000fd5b600060028204905060018216806200076d57607f821691505b60208210810362000783576200078262000725565b5b50919050565b60008190508160005260206000209050919050565b60006020601f8301049050919050565b600082821b905092915050565b600060088302620007ed7fffffffffffffffffffffffffffffffffffffffffffffffffffffffffffffffff82620007ae565b620007f98683620007ae565b95508019841693508086168417925050509392505050565b6000819050919050565b60006200083c62000836620008308462000358565b62000811565b62000358565b9050919050565b6000819050919050565b62000858836200081b565b62000870620008678262000843565b848454620007bb565b825550505050565b600090565b6200088762000878565b620008948184846200084d565b505050565b5b81811015620008bc57620008b06000826200087d565b6001810190506200089a565b5050565b601f8211156200090b57620008d58162000789565b620008e0846200079e565b81016020851015620008f0578190505b62000908620008ff856200079e565b83018262000899565b50505b505050565b600082821c905092915050565b6000620009306000198460080262000910565b1980831691505092915050565b60006200094b83836200091d565b9150826002028217905092915050565b62000966826200071a565b67ffffffffffffffff811115620009825762000981620002a0565b5b6200098e825462000754565b6200099b828285620008c0565b600060209050601f831160018114620009d35760008415620009be578287015190505b620009ca85826200093d565b86555062000a3a565b601f198416620009e38662000789565b60005b8281101562000a0d57848901518255600182019150602085019450602081019050620009e6565b8683101562000a2d578489015162000a29601f8916826200091d565b8355505b6001600288020188555050505b505050505050565b6118f78062000a526000396000f3fe608060405234801561001057600080fd5b506004361061009e5760003560e01c806390321988116100665780639032198814610123578063bcd404fa1461013f578063d08145e414610149578063f5c92cda14610167578063f5d19755146101715761009e565b80635426177e146100a3578063651c5d2d146100c15780636d678f52146100df5780637a7d1566146100fb578063856c71dd14610105575b600080fd5b6100ab61018f565b6040516100b8919061116e565b60405180910390f35b6100c9610795565b6040516100d6919061119f565b60405180910390f35b6100f960048036038101906100f491906111fa565b6107bf565b005b610103610886565b005b61010d6108e6565b60405161011a9190611242565b60405180910390f35b61013d60048036038101906101389190611470565b6108fd565b005b6101476109e9565b005b610151610b1e565b60405161015e919061152f565b60405180910390f35b61016f610cc1565b005b610179610cde565b604051610186919061119f565b60405180910390f35b610197610d07565b6002604051806101c00160405290816000820180546101b590611580565b80601f01602080910402602001604051908101604052809291908181526020018280546101e190611580565b801561022e5780601f106102035761010080835404028352916020019161022e565b820191906000526020600020905b81548152906001019060200180831161021157829003601f168201915b505050505081526020016001820154815260200160028201805461025190611580565b80601f016020809104026020016040519081016040528092919081815260200182805461027d90611580565b80156102ca5780601f1061029f576101008083540402835291602001916102ca565b820191906000526020600020905b8154815290600101906020018083116102ad57829003601f168201915b50505050508152602001600382015481526020016004820180546102ed90611580565b80601f016020809104026020016040519081016040528092919081815260200182805461031990611580565b80156103665780601f1061033b57610100808354040283529160200191610366565b820191906000526020600020905b81548152906001019060200180831161034957829003601f168201915b5050505050815260200160058201805461037f90611580565b80601f01602080910402602001604051908101604052809291908181526020018280546103ab90611580565b80156103f85780601f106103cd576101008083540402835291602001916103f8565b820191906000526020600020905b8154815290600101906020018083116103db57829003601f168201915b5050505050815260200160068201805461041190611580565b80601f016020809104026020016040519081016040528092919081815260200182805461043d90611580565b801561048a5780601f1061045f5761010080835404028352916020019161048a565b820191906000526020600020905b81548152906001019060200180831161046d57829003601f168201915b50505050508152602001600782015481526020016008820180546104ad90611580565b80601f01602080910402602001604051908101604052809291908181526020018280546104d990611580565b80156105265780601f106104fb57610100808354040283529160200191610526565b820191906000526020600020905b81548152906001019060200180831161050957829003601f168201915b5050505050815260200160098201805461053f90611580565b80601f016020809104026020016040519081016040528092919081815260200182805461056b90611580565b80156105b85780601f1061058d576101008083540402835291602001916105b8565b820191906000526020600020905b81548152906001019060200180831161059b57829003601f168201915b50505050508152602001600a8201548152602001600b8201548152602001600c8201548152602001600d8201805480602002602001604051908101604052809291908181526020016000905b8282101561078857838290600052602060002090600502016040518060a001604052908160008201548152602001600182015481526020016002820160009054906101000a900473ffffffffffffffffffffffffffffffffffffffff1673ffffffffffffffffffffffffffffffffffffffff1673ffffffffffffffffffffffffffffffffffffffff1681526020016003820160009054906101000a900473ffffffffffffffffffffffffffffffffffffffff1673ffffffffffffffffffffffffffffffffffffffff1673ffffffffffffffffffffffffffffffffffffffff1681526020016004820180546106f790611580565b80601f016020809104026020016040519081016040528092919081815260200182805461072390611580565b80156107705780601f1061074557610100808354040283529160200191610770565b820191906000526020600020905b81548152906001019060200180831161075357829003601f168201915b50505050508152505081526020019060010190610604565b5050505081525050905090565b6000600160009054906101000a900473ffffffffffffffffffffffffffffffffffffffff16905090565b6107c7610b1e565b6060015173ffffffffffffffffffffffffffffffffffffffff163373ffffffffffffffffffffffffffffffffffffffff161461080257600080fd5b33600160006101000a81548173ffffffffffffffffffffffffffffffffffffffff021916908373ffffffffffffffffffffffffffffffffffffffff160217905550806000806101000a81548173ffffffffffffffffffffffffffffffffffffffff021916908373ffffffffffffffffffffffffffffffffffffffff16021790555050565b3373ffffffffffffffffffffffffffffffffffffffff166108a5610b1e565b6060015173ffffffffffffffffffffffffffffffffffffffff16146108c957600080fd5b6001601060006101000a81548160ff021916908315150217905550565b6000601060009054906101000a900460ff16905090565b6002600d01819080600181540180825580915050600190039060005260206000209060050201600090919091909150600082015181600001556020820151816001015560408201518160020160006101000a81548173ffffffffffffffffffffffffffffffffffffffff021916908373ffffffffffffffffffffffffffffffffffffffff16021790555060608201518160030160006101000a81548173ffffffffffffffffffffffffffffffffffffffff021916908373ffffffffffffffffffffffffffffffffffffffff16021790555060808201518160040190816109e3919061175d565b50505050565b3373ffffffffffffffffffffffffffffffffffffffff16600160009054906101000a900473ffffffffffffffffffffffffffffffffffffffff1673ffffffffffffffffffffffffffffffffffffffff161480610a9057503373ffffffffffffffffffffffffffffffffffffffff1660008054906101000a900473ffffffffffffffffffffffffffffffffffffffff1673ffffffffffffffffffffffffffffffffffffffff16145b610a9957600080fd5b6000600160006101000a81548173ffffffffffffffffffffffffffffffffffffffff021916908373ffffffffffffffffffffffffffffffffffffffff16021790555060008060006101000a81548173ffffffffffffffffffffffffffffffffffffffff021916908373ffffffffffffffffffffffffffffffffffffffff160217905550565b610b26610d79565b6002600d0160016002600d0180549050610b40919061185e565b81548110610b5157610b50611892565b5b90600052602060002090600502016040518060a001604052908160008201548152602001600182015481526020016002820160009054906101000a900473ffffffffffffffffffffffffffffffffffffffff1673ffffffffffffffffffffffffffffffffffffffff1673ffffffffffffffffffffffffffffffffffffffff1681526020016003820160009054906101000a900473ffffffffffffffffffffffffffffffffffffffff1673ffffffffffffffffffffffffffffffffffffffff1673ffffffffffffffffffffffffffffffffffffffff168152602001600482018054610c3a90611580565b80601f0160208091040260200160405190810160405280929190818152602001828054610c6690611580565b8015610cb35780601f10610c8857610100808354040283529160200191610cb3565b820191906000526020600020905b815481529060010190602001808311610c9657829003601f168201915b505050505081525050905090565b6001601060006101000a81548160ff021916908315150217905550565b60008060009054906101000a900473ffffffffffffffffffffffffffffffffffffffff16905090565b604051806101c0016040528060608152602001600081526020016060815260200160008152602001606081526020016060815260200160608152602001600081526020016060815260200160608152602001600080191681526020016000815260200160008152602001606081525090565b6040518060a001604052806000815260200160008152602001600073ffffffffffffffffffffffffffffffffffffffff168152602001600073ffffffffffffffffffffffffffffffffffffffff168152602001606081525090565b600081519050919050565b600082825260208201905092915050565b60005b83811015610e0e578082015181840152602081019050610df3565b60008484015250505050565b6000601f19601f8301169050919050565b6000610e3682610dd4565b610e408185610ddf565b9350610e50818560208601610df0565b610e5981610e1a565b840191505092915050565b6000819050919050565b610e7781610e64565b82525050565b6000819050919050565b610e9081610e7d565b82525050565b600081519050919050565b600082825260208201905092915050565b6000819050602082019050919050565b600073ffffffffffffffffffffffffffffffffffffffff82169050919050565b6000610eed82610ec2565b9050919050565b610efd81610ee2565b82525050565b600060a083016000830151610f1b6000860182610e6e565b506020830151610f2e6020860182610e6e565b506040830151610f416040860182610ef4565b506060830151610f546060860182610ef4565b5060808301518482036080860152610f6c8282610e2b565b9150508091505092915050565b6000610f858383610f03565b905092915050565b6000602082019050919050565b6000610fa582610e96565b610faf8185610ea1565b935083602082028501610fc185610eb2565b8060005b85811015610ffd5784840389528151610fde8582610f79565b9450610fe983610f8d565b925060208a01995050600181019050610fc5565b50829750879550505050505092915050565b60006101c083016000830151848203600086015261102d8282610e2b565b91505060208301516110426020860182610e6e565b506040830151848203604086015261105a8282610e2b565b915050606083015161106f6060860182610e6e565b50608083015184820360808601526110878282610e2b565b91505060a083015184820360a08601526110a18282610e2b565b91505060c083015184820360c08601526110bb8282610e2b565b91505060e08301516110d060e0860182610e6e565b506101008301518482036101008601526110ea8282610e2b565b9150506101208301518482036101208601526111068282610e2b565b91505061014083015161111d610140860182610e87565b50610160830151611132610160860182610e6e565b50610180830151611147610180860182610e6e565b506101a08301518482036101a08601526111618282610f9a565b9150508091505092915050565b60006020820190508181036000830152611188818461100f565b905092915050565b61119981610ee2565b82525050565b60006020820190506111b46000830184611190565b92915050565b6000604051905090565b600080fd5b600080fd5b6111d781610ee2565b81146111e257600080fd5b50565b6000813590506111f4816111ce565b92915050565b6000602082840312156112105761120f6111c4565b5b600061121e848285016111e5565b91505092915050565b60008115159050919050565b61123c81611227565b82525050565b60006020820190506112576000830184611233565b92915050565b600080fd5b7f4e487b7100000000000000000000000000000000000000000000000000000000600052604160045260246000fd5b61129a82610e1a565b810181811067ffffffffffffffff821117156112b9576112b8611262565b5b80604052505050565b60006112cc6111ba565b90506112d88282611291565b919050565b600080fd5b6112eb81610e64565b81146112f657600080fd5b50565b600081359050611308816112e2565b92915050565b600080fd5b600080fd5b600067ffffffffffffffff82111561133357611332611262565b5b61133c82610e1a565b9050602081019050919050565b82818337600083830152505050565b600061136b61136684611318565b6112c2565b90508281526020810184848401111561138757611386611313565b5b611392848285611349565b509392505050565b600082601f8301126113af576113ae61130e565b5b81356113bf848260208601611358565b91505092915050565b600060a082840312156113de576113dd61125d565b5b6113e860a06112c2565b905060006113f8848285016112f9565b600083015250602061140c848285016112f9565b6020830152506040611420848285016111e5565b6040830152506060611434848285016111e5565b606083015250608082013567ffffffffffffffff811115611458576114576112dd565b5b6114648482850161139a565b60808301525092915050565b600060208284031215611486576114856111c4565b5b600082013567ffffffffffffffff8111156114a4576114a36111c9565b5b6114b0848285016113c8565b91505092915050565b600060a0830160008301516114d16000860182610e6e565b5060208301516114e46020860182610e6e565b5060408301516114f76040860182610ef4565b50606083015161150a6060860182610ef4565b50608083015184820360808601526115228282610e2b565b9150508091505092915050565b6000602082019050818103600083015261154981846114b9565b905092915050565b7f4e487b7100000000000000000000000000000000000000000000000000000000600052602260045260246000fd5b6000600282049050600182168061159857607f821691505b6020821081036115ab576115aa611551565b5b50919050565b60008190508160005260206000209050919050565b60006020601f8301049050919050565b600082821b905092915050565b6000600883026116137fffffffffffffffffffffffffffffffffffffffffffffffffffffffffffffffff826115d6565b61161d86836115d6565b95508019841693508086168417925050509392505050565b6000819050919050565b600061165a61165561165084610e64565b611635565b610e64565b9050919050565b6000819050919050565b6116748361163f565b61168861168082611661565b8484546115e3565b825550505050565b600090565b61169d611690565b6116a881848461166b565b505050565b5b818110156116cc576116c1600082611695565b6001810190506116ae565b5050565b601f821115611711576116e2816115b1565b6116eb846115c6565b810160208510156116fa578190505b61170e611706856115c6565b8301826116ad565b50505b505050565b600082821c905092915050565b600061173460001984600802611716565b1980831691505092915050565b600061174d8383611723565b9150826002028217905092915050565b61176682610dd4565b67ffffffffffffffff81111561177f5761177e611262565b5b6117898254611580565b6117948282856116d0565b600060209050601f8311600181146117c757600084156117b5578287015190505b6117bf8582611741565b865550611827565b601f1984166117d5866115b1565b60005b828110156117fd578489015182556001820191506020850194506020810190506117d8565b8683101561181a5784890151611816601f891682611723565b8355505b6001600288020188555050505b505050505050565b7f4e487b7100000000000000000000000000000000000000000000000000000000600052601160045260246000fd5b600061186982610e64565b915061187483610e64565b925082820390508181111561188c5761188b61182f565b5b92915050565b7f4e487b7100000000000000000000000000000000000000000000000000000000600052603260045260246000fdfea264697066735822122021648840c48d962907b9baa6ecf9e8b277ef20045c256431d4eb5c5539099ed164736f6c63430008110033a26469706673582212207188161e3cd22ecc6e0a6cfc70c06407256286d44dea58b7b4ffb82f8b925c5664736f6c63430008110033",
  "immutableReferences": {},
  "source": "// SPDX-License-Identifier: MIT\n\npragma solidity ^0.8.17;\n\nimport \"./form.sol\";\n\n// This is a special contract that generates Form contracts, that have their own methods to generate and update their\n// attributes, while keeping track of all the forms in the blockchain.\n\ncontract FormFactory {\n    // Events are a way for contract to communicate that something happened on the blockchain to your app front-end,\n    // which can be 'listening' for certain events and take action when they happen.\n\n    // newForm: Event to be emitted when a new form is created.\n    // NOTE: If more fields are needed, change the emit in createForm.\n    event newForm(uint caseNumber, address caseAddress, FormData data);\n    event formFound(address caseAddress, FormData data);\n\n    // Mapping to store the forms for the evidence of the cases.\n    mapping(address => Form) private addressToForm;\n    // Mapping to store the addresses of the forms currently in charge of every user.\n    mapping(address => address[]) private userToFormAddresses;\n    // Array to store the addresses of the forms for the evidence of the cases.\n    address[] private listFormAddress; // TODO: private?\n\n    /**\n     *   @dev Function to create a new form for the evidence of the case.\n     *\n     *   @param _numbers All numerical information in the form\n     *   @param _strings All textual information in the form\n     *   @param _hashValue Hash value of the evidence\n     */\n    function createForm(\n        uint[] memory _numbers,\n        string[] memory _strings,\n        bytes32 _hashValue\n    ) public returns (address) {\n        // Generation of new address for the form.\n        address entityAddress = createAddress();\n        // Creation of the new Form directly in the mapping object\n        addressToForm[entityAddress] = new Form(_numbers, _strings, _hashValue);\n        addressToForm[entityAddress].pushLog(\n            Log(0, block.timestamp, msg.sender, msg.sender, \"Form created\")\n        );\n        userToFormAddresses[msg.sender].push(entityAddress);\n        // Emit the event newForm.\n        emit newForm(\n            _numbers[0],\n            entityAddress,\n            readFormAddress(entityAddress)\n        );\n        return entityAddress;\n    }\n\n    /**\n     *   @dev Function to get a form from its address.\n     *\n     *   @param _caseAddress address of the case\n     *\n     *   @return Form form required\n     */\n    function findForm(address _caseAddress) public view returns (Form) {\n        return addressToForm[_caseAddress];\n    }\n\n    /**\n     *   @dev Function to get form data from itself.\n     *\n     *   @param _form form which data is required\n     *\n     *   @return FormData Struct that contains the data of the form\n     */\n    function readForm(Form _form) public view returns (FormData memory) {\n        return _form.readForm();\n    }\n\n    /**\n     *   @dev Function to get form data from an address.\n     *\n     *   @param _caseAddress address of the case\n     *\n     *   @return FormData Struct that contains the data of the form required\n     */\n    function readFormAddress(\n        address _caseAddress\n    ) public view returns (FormData memory) {\n        return readForm(findForm(_caseAddress));\n    }\n\n    /**\n     *   @dev Function that compute a random address.\n     *\n     *   @return address randomly generated\n     */\n    function createAddress() private view returns (address) {\n        return\n            address(\n                uint160(\n                    uint(\n                        keccak256(\n                            abi.encodePacked(\n                                block.timestamp,\n                                block.difficulty,\n                                msg.sender\n                            )\n                        )\n                    )\n                )\n            );\n    }\n\n    /**\n     *   @dev Function that returns the forms in charge of an user.\n     *\n     *   @return address array with addresses of forms in charge of an user\n     */\n    function getUserFormAddresses(\n        address _userAddress\n    ) public view returns (address[] memory) {\n        return userToFormAddresses[_userAddress];\n    }\n\n    /**\n     *   @dev Function that makes msg.sender the new owner of a free form.\n     *\n     *   @param _formAddress address of the form\n     *\n     *   @param _reason reason for taking the form (necessary in the chain of custody)\n     *\n     */\n    function getForm(address _formAddress, string memory _reason) public {\n        require(findForm(_formAddress).isAvailable()); // the form must be available in order to be taken\n        findForm(_formAddress).pushLog(\n            Log( // push of a new log in the chain of custody\n                findForm(_formAddress).lastLog().trackingNumber + 1,\n                block.timestamp,\n                findForm(_formAddress).lastLog().receivedBy,\n                msg.sender,\n                _reason\n            )\n        );\n        userToFormAddresses[msg.sender].push(_formAddress); // the form is now added to msg.sender owned forms\n        findForm(_formAddress).setTaken(); // and is marked as not available, no one could take it now\n    }\n\n    /**\n     *   @dev Function that makes a form available, if msg.sender is the current owner.\n     *\n     *   @param _formAddress address of the form to free\n     *\n     */\n    function releaseForm(address _formAddress) public {\n        // require(findForm(_formAddress).lastLog().receivedBy == msg.sender); // run only if current owner is msg.sender\n        findForm(_formAddress).setAvailable(); // form is now marked as available\n        // removeAddressInAUserList(msg.sender, _formAddress); // and its address is removed from msg.sender list\n    }\n\n    /**\n     *   @dev Function that makes a form available for a given user, if msg.sender is the current owner.\n     *\n     *   @param _formAddress address of the form to give to a user\n     *\n     *   @param _taker address of the future owner of the form\n     */\n    function giveForm(address _formAddress, address _taker) public {\n        require(findForm(_formAddress).lastLog().receivedBy == msg.sender); // run only if current owner is msg.sender\n        findForm(_formAddress).setGiverTaker(_taker);\n        // mandare un evento??\n    }\n\n    /**\n     *   @dev Function that accept a form that has been sent to them.\n     *\n     *   @param _formAddress address of the form to accept\n     *\n     *   @param _reason reason to accept the form\n     */\n    function acceptForm(address _formAddress, string memory _reason) public {\n        require(findForm(_formAddress).getTaker() == msg.sender); // run only if current owner is msg.sender\n        userToFormAddresses[msg.sender].push(_formAddress); // the form is now added to msg.sender owned forms\n        findForm(_formAddress).pushLog(\n            Log( // push of a new log in the chain of custody\n                findForm(_formAddress).lastLog().trackingNumber + 1,\n                block.timestamp,\n                findForm(_formAddress).lastLog().receivedBy,\n                msg.sender,\n                _reason\n            )\n        );\n        removeAddressInAUserList(\n            findForm(_formAddress).getGiver(),\n            _formAddress\n        );\n        findForm(_formAddress).resetGiverTaker();\n    }\n\n    /**\n     *   @dev Function that rejects a form that has been sent to them.\n     *\n     *   @param _formAddress form to reject\n     */\n    function rejectForm(address _formAddress) public {\n        require(findForm(_formAddress).getTaker() == msg.sender);\n        findForm(_formAddress).resetGiverTaker();\n    }\n\n    /**\n     *   @dev Function that removes a certain address of a certain user.\n     *\n     *   @param _userAddress address of the user we want to take the evidence from\n     *\n     *   @param _formAddress address of the form we want to remove from _userAddress\n     */\n    function removeAddressInAUserList(\n        address _userAddress,\n        address _formAddress\n    ) private {\n        require(userToFormAddresses[_userAddress].length > 0);\n\n        uint userAddressesLength = userToFormAddresses[_userAddress].length;\n\n        for (uint i = 0; i < userAddressesLength; i++) {\n            // look into the addresses linked to _userAddress\n            if (userToFormAddresses[_userAddress][i] == _formAddress) {\n                // copy the last element in the index we want to remove\n                userToFormAddresses[_userAddress][i] = userToFormAddresses[\n                    _userAddress\n                ][userAddressesLength - 1];\n                userToFormAddresses[_userAddress].pop(); // remove the last element\n            }\n        }\n    }\n\n    function isAFormAvailable(address _formAddress) public view returns (bool) {\n        return findForm(_formAddress).isAvailable();\n    }\n}\n",
  "sourcePath": "/Users/lorenzocrespan/Documents/Workspace/University/90748 - Blockchain and Cryptocurrencies/BlueWoodchuck/project/blockchain/contracts/contracts/formFactory.sol",
  "compiler": {
    "name": "solc",
    "version": "0.8.17+commit.8df45f5f.Emscripten.clang"
  },
  "schemaVersion": "3.4.12",
  "updatedAt": "2023-03-08T14:24:14.977Z",
  "networkType": "ethereum",
  "devdoc": {
    "kind": "dev",
    "methods": {
      "acceptForm(address,string)": {
        "details": "Function that accept a form that has been sent to them.",
        "params": {
          "_formAddress": "address of the form to accept",
          "_reason": "reason to accept the form"
        }
      },
      "createForm(uint256[],string[],bytes32)": {
        "details": "Function to create a new form for the evidence of the case.",
        "params": {
          "_hashValue": "Hash value of the evidence",
          "_numbers": "All numerical information in the form",
          "_strings": "All textual information in the form"
        }
      },
      "findForm(address)": {
        "details": "Function to get a form from its address.",
        "params": {
          "_caseAddress": "address of the case"
        },
        "returns": {
          "_0": "Form form required"
        }
      },
      "getForm(address,string)": {
        "details": "Function that makes msg.sender the new owner of a free form.",
        "params": {
          "_formAddress": "address of the form",
          "_reason": "reason for taking the form (necessary in the chain of custody)"
        }
      },
      "getUserFormAddresses(address)": {
        "details": "Function that returns the forms in charge of an user.",
        "returns": {
          "_0": "address array with addresses of forms in charge of an user"
        }
      },
      "giveForm(address,address)": {
        "details": "Function that makes a form available for a given user, if msg.sender is the current owner.",
        "params": {
          "_formAddress": "address of the form to give to a user",
          "_taker": "address of the future owner of the form"
        }
      },
      "readForm(address)": {
        "details": "Function to get form data from itself.",
        "params": {
          "_form": "form which data is required"
        },
        "returns": {
          "_0": "FormData Struct that contains the data of the form"
        }
      },
      "readFormAddress(address)": {
        "details": "Function to get form data from an address.",
        "params": {
          "_caseAddress": "address of the case"
        },
        "returns": {
          "_0": "FormData Struct that contains the data of the form required"
        }
      },
      "rejectForm(address)": {
        "details": "Function that rejects a form that has been sent to them.",
        "params": {
          "_formAddress": "form to reject"
        }
      },
      "releaseForm(address)": {
        "details": "Function that makes a form available, if msg.sender is the current owner.",
        "params": {
          "_formAddress": "address of the form to free"
        }
      }
    },
    "version": 1
  },
  "userdoc": {
    "kind": "user",
    "methods": {},
    "version": 1
  }
}