{
  "contractName": "Form",
  "abi": [
    {
      "inputs": [
        {
          "internalType": "uint256[]",
          "name": "_numbers",
          "type": "uint256[]"
        },
        {
          "internalType": "string[]",
          "name": "_strings",
          "type": "string[]"
        },
        {
          "internalType": "bytes32",
          "name": "_hashValue",
          "type": "bytes32"
        }
      ],
      "stateMutability": "nonpayable",
      "type": "constructor"
    },
    {
      "anonymous": false,
      "inputs": [
        {
          "indexed": false,
          "internalType": "address",
          "name": "giver",
          "type": "address"
        },
        {
          "indexed": false,
          "internalType": "address",
          "name": "taker",
          "type": "address"
        }
      ],
      "name": "giverTakerSet",
      "type": "event"
    },
    {
      "anonymous": false,
      "inputs": [
        {
          "indexed": false,
          "internalType": "address",
          "name": "giver",
          "type": "address"
        },
        {
          "indexed": false,
          "internalType": "address",
          "name": "taker",
          "type": "address"
        }
      ],
      "name": "resetDone",
      "type": "event"
    },
    {
      "inputs": [],
      "name": "readForm",
      "outputs": [
        {
          "components": [
            {
              "internalType": "string",
              "name": "caseName",
              "type": "string"
            },
            {
              "internalType": "uint256",
              "name": "caseNumber",
              "type": "uint256"
            },
            {
              "internalType": "string",
              "name": "reasonObtained",
              "type": "string"
            },
            {
              "internalType": "uint256",
              "name": "itemNumber",
              "type": "uint256"
            },
            {
              "internalType": "string",
              "name": "evidenceTypeManufacturer",
              "type": "string"
            },
            {
              "internalType": "string",
              "name": "owner",
              "type": "string"
            },
            {
              "internalType": "string",
              "name": "contentDescription",
              "type": "string"
            },
            {
              "internalType": "uint256",
              "name": "contentOwnerContactInformation",
              "type": "uint256"
            },
            {
              "internalType": "string",
              "name": "forensicAgent",
              "type": "string"
            },
            {
              "internalType": "bytes32",
              "name": "hashValue",
              "type": "bytes32"
            },
            {
              "internalType": "uint256",
              "name": "date",
              "type": "uint256"
            },
            {
              "internalType": "uint256",
              "name": "forensicAgentContactInformation",
              "type": "uint256"
            },
            {
              "components": [
                {
                  "internalType": "uint256",
                  "name": "trackingNumber",
                  "type": "uint256"
                },
                {
                  "internalType": "uint256",
                  "name": "timestamp",
                  "type": "uint256"
                },
                {
                  "internalType": "address",
                  "name": "releasedBy",
                  "type": "address"
                },
                {
                  "internalType": "address",
                  "name": "receivedBy",
                  "type": "address"
                },
                {
                  "internalType": "string",
                  "name": "reasonForChange",
                  "type": "string"
                }
              ],
              "internalType": "struct Log[]",
              "name": "chainOfCustody",
              "type": "tuple[]"
            }
          ],
          "internalType": "struct FormData",
          "name": "",
          "type": "tuple"
        }
      ],
      "stateMutability": "view",
      "type": "function"
    },
    {
      "inputs": [
        {
          "components": [
            {
              "internalType": "uint256",
              "name": "trackingNumber",
              "type": "uint256"
            },
            {
              "internalType": "uint256",
              "name": "timestamp",
              "type": "uint256"
            },
            {
              "internalType": "address",
              "name": "releasedBy",
              "type": "address"
            },
            {
              "internalType": "address",
              "name": "receivedBy",
              "type": "address"
            },
            {
              "internalType": "string",
              "name": "reasonForChange",
              "type": "string"
            }
          ],
          "internalType": "struct Log",
          "name": "_log",
          "type": "tuple"
        }
      ],
      "name": "pushLog",
      "outputs": [],
      "stateMutability": "nonpayable",
      "type": "function"
    },
    {
      "inputs": [],
      "name": "lastLog",
      "outputs": [
        {
          "components": [
            {
              "internalType": "uint256",
              "name": "trackingNumber",
              "type": "uint256"
            },
            {
              "internalType": "uint256",
              "name": "timestamp",
              "type": "uint256"
            },
            {
              "internalType": "address",
              "name": "releasedBy",
              "type": "address"
            },
            {
              "internalType": "address",
              "name": "receivedBy",
              "type": "address"
            },
            {
              "internalType": "string",
              "name": "reasonForChange",
              "type": "string"
            }
          ],
          "internalType": "struct Log",
          "name": "",
          "type": "tuple"
        }
      ],
      "stateMutability": "view",
      "type": "function"
    },
    {
      "inputs": [],
      "name": "isAvailable",
      "outputs": [
        {
          "internalType": "bool",
          "name": "",
          "type": "bool"
        }
      ],
      "stateMutability": "view",
      "type": "function"
    },
    {
      "inputs": [
        {
          "internalType": "address",
          "name": "_sender",
          "type": "address"
        }
      ],
      "name": "setAvailable",
      "outputs": [],
      "stateMutability": "nonpayable",
      "type": "function"
    },
    {
      "inputs": [
        {
          "internalType": "address",
          "name": "_sender",
          "type": "address"
        }
      ],
      "name": "setTaken",
      "outputs": [],
      "stateMutability": "nonpayable",
      "type": "function"
    },
    {
      "inputs": [
        {
          "internalType": "address",
          "name": "_giver",
          "type": "address"
        },
        {
          "internalType": "address",
          "name": "_taker",
          "type": "address"
        }
      ],
      "name": "setGiverTaker",
      "outputs": [
        {
          "internalType": "bool",
          "name": "",
          "type": "bool"
        }
      ],
      "stateMutability": "nonpayable",
      "type": "function"
    },
    {
      "inputs": [
        {
          "internalType": "address",
          "name": "_sender",
          "type": "address"
        }
      ],
      "name": "resetGiverTaker",
      "outputs": [],
      "stateMutability": "nonpayable",
      "type": "function"
    },
    {
      "inputs": [],
      "name": "getTaker",
      "outputs": [
        {
          "internalType": "address",
          "name": "",
          "type": "address"
        }
      ],
      "stateMutability": "view",
      "type": "function"
    },
    {
      "inputs": [],
      "name": "getGiver",
      "outputs": [
        {
          "internalType": "address",
          "name": "",
          "type": "address"
        }
      ],
      "stateMutability": "view",
      "type": "function"
    }
  ],
  "bytecode": "0x60806040523480156200001157600080fd5b50604051620024593803806200245983398181016040528101906200003791906200061e565b816000815181106200004e576200004d620006b8565b5b60200260200101516002600001908162000069919062000928565b5081600181518110620000815762000080620006b8565b5b60200260200101516002800190816200009b919062000928565b5081600281518110620000b357620000b2620006b8565b5b602002602001015160026004019081620000ce919062000928565b5081600381518110620000e657620000e5620006b8565b5b60200260200101516002600501908162000101919062000928565b5081600481518110620001195762000118620006b8565b5b60200260200101516002600601908162000134919062000928565b50816005815181106200014c576200014b620006b8565b5b60200260200101516002600801908162000167919062000928565b50826000815181106200017f576200017e620006b8565b5b602002602001015160026001018190555082600181518110620001a757620001a6620006b8565b5b602002602001015160026003018190555082600281518110620001cf57620001ce620006b8565b5b602002602001015160026007018190555082600381518110620001f757620001f6620006b8565b5b60200260200101516002600a0181905550826004815181106200021f576200021e620006b8565b5b60200260200101516002600b01819055508060026009018190555050505062000a0f565b6000604051905090565b600080fd5b600080fd5b600080fd5b6000601f19601f8301169050919050565b7f4e487b7100000000000000000000000000000000000000000000000000000000600052604160045260246000fd5b620002a7826200025c565b810181811067ffffffffffffffff82111715620002c957620002c86200026d565b5b80604052505050565b6000620002de62000243565b9050620002ec82826200029c565b919050565b600067ffffffffffffffff8211156200030f576200030e6200026d565b5b602082029050602081019050919050565b600080fd5b6000819050919050565b6200033a8162000325565b81146200034657600080fd5b50565b6000815190506200035a816200032f565b92915050565b6000620003776200037184620002f1565b620002d2565b905080838252602082019050602084028301858111156200039d576200039c62000320565b5b835b81811015620003ca5780620003b5888262000349565b8452602084019350506020810190506200039f565b5050509392505050565b600082601f830112620003ec57620003eb62000257565b5b8151620003fe84826020860162000360565b91505092915050565b600067ffffffffffffffff8211156200042557620004246200026d565b5b602082029050602081019050919050565b600080fd5b600067ffffffffffffffff8211156200045957620004586200026d565b5b62000464826200025c565b9050602081019050919050565b60005b838110156200049157808201518184015260208101905062000474565b60008484015250505050565b6000620004b4620004ae846200043b565b620002d2565b905082815260208101848484011115620004d357620004d262000436565b5b620004e084828562000471565b509392505050565b600082601f8301126200050057620004ff62000257565b5b8151620005128482602086016200049d565b91505092915050565b6000620005326200052c8462000407565b620002d2565b9050808382526020820190506020840283018581111562000558576200055762000320565b5b835b81811015620005a657805167ffffffffffffffff81111562000581576200058062000257565b5b808601620005908982620004e8565b855260208501945050506020810190506200055a565b5050509392505050565b600082601f830112620005c857620005c762000257565b5b8151620005da8482602086016200051b565b91505092915050565b6000819050919050565b620005f881620005e3565b81146200060457600080fd5b50565b6000815190506200061881620005ed565b92915050565b6000806000606084860312156200063a57620006396200024d565b5b600084015167ffffffffffffffff8111156200065b576200065a62000252565b5b6200066986828701620003d4565b935050602084015167ffffffffffffffff8111156200068d576200068c62000252565b5b6200069b86828701620005b0565b9250506040620006ae8682870162000607565b9150509250925092565b7f4e487b7100000000000000000000000000000000000000000000000000000000600052603260045260246000fd5b600081519050919050565b7f4e487b7100000000000000000000000000000000000000000000000000000000600052602260045260246000fd5b600060028204905060018216806200073a57607f821691505b60208210810362000750576200074f620006f2565b5b50919050565b60008190508160005260206000209050919050565b60006020601f8301049050919050565b600082821b905092915050565b600060088302620007ba7fffffffffffffffffffffffffffffffffffffffffffffffffffffffffffffffff826200077b565b620007c686836200077b565b95508019841693508086168417925050509392505050565b6000819050919050565b60006200080962000803620007fd8462000325565b620007de565b62000325565b9050919050565b6000819050919050565b6200082583620007e8565b6200083d620008348262000810565b84845462000788565b825550505050565b600090565b6200085462000845565b620008618184846200081a565b505050565b5b8181101562000889576200087d6000826200084a565b60018101905062000867565b5050565b601f821115620008d857620008a28162000756565b620008ad846200076b565b81016020851015620008bd578190505b620008d5620008cc856200076b565b83018262000866565b50505b505050565b600082821c905092915050565b6000620008fd60001984600802620008dd565b1980831691505092915050565b6000620009188383620008ea565b9150826002028217905092915050565b6200093382620006e7565b67ffffffffffffffff8111156200094f576200094e6200026d565b5b6200095b825462000721565b620009688282856200088d565b600060209050601f831160018114620009a057600084156200098b578287015190505b6200099785826200090a565b86555062000a07565b601f198416620009b08662000756565b60005b82811015620009da57848901518255600182019150602085019450602081019050620009b3565b86831015620009fa5784890151620009f6601f891682620008ea565b8355505b6001600288020188555050505b505050505050565b611a3a8062000a1f6000396000f3fe608060405234801561001057600080fd5b506004361061009e5760003560e01c806390321988116100665780639032198814610149578063d08145e414610165578063d5e3e00314610183578063e70837c11461019f578063f5d19755146101bb5761009e565b8063144610d6146100a357806331e6a102146100d35780635426177e146100ef578063651c5d2d1461010d578063856c71dd1461012b575b600080fd5b6100bd60048036038101906100b89190610f3c565b6101d9565b6040516100ca9190610f97565b60405180910390f35b6100ed60048036038101906100e89190610fb2565b610324565b005b6100f76104d5565b604051610104919061132b565b60405180910390f35b610115610a49565b604051610122919061135c565b60405180910390f35b610133610a73565b6040516101409190610f97565b60405180910390f35b610163600480360381019061015e919061158a565b610a8a565b005b61016d610b76565b60405161017a9190611649565b60405180910390f35b61019d60048036038101906101989190610fb2565b610d19565b005b6101b960048036038101906101b49190610fb2565b610d7a565b005b6101c3610ddb565b6040516101d0919061135c565b60405180910390f35b60006101e3610b76565b6060015173ffffffffffffffffffffffffffffffffffffffff168373ffffffffffffffffffffffffffffffffffffffff161461021e57600080fd5b82600160006101000a81548173ffffffffffffffffffffffffffffffffffffffff021916908373ffffffffffffffffffffffffffffffffffffffff160217905550816000806101000a81548173ffffffffffffffffffffffffffffffffffffffff021916908373ffffffffffffffffffffffffffffffffffffffff1602179055507f22026653417e6fbbc2650a9b4cef7b576c347eb94e0a4f4345886e6acdd824f2600160009054906101000a900473ffffffffffffffffffffffffffffffffffffffff1660008054906101000a900473ffffffffffffffffffffffffffffffffffffffff1660405161031292919061166b565b60405180910390a16001905092915050565b8073ffffffffffffffffffffffffffffffffffffffff16600160009054906101000a900473ffffffffffffffffffffffffffffffffffffffff1673ffffffffffffffffffffffffffffffffffffffff1614806103cb57508073ffffffffffffffffffffffffffffffffffffffff1660008054906101000a900473ffffffffffffffffffffffffffffffffffffffff1673ffffffffffffffffffffffffffffffffffffffff16145b6103d457600080fd5b6000600160006101000a81548173ffffffffffffffffffffffffffffffffffffffff021916908373ffffffffffffffffffffffffffffffffffffffff16021790555060008060006101000a81548173ffffffffffffffffffffffffffffffffffffffff021916908373ffffffffffffffffffffffffffffffffffffffff1602179055507f27f5f16bf3c2ec0bedcb00fd7ff054996a34b397ff24da30f34dbe9c2fc385af600160009054906101000a900473ffffffffffffffffffffffffffffffffffffffff1660008054906101000a900473ffffffffffffffffffffffffffffffffffffffff166040516104ca92919061166b565b60405180910390a150565b6104dd610e04565b6002604051806101a00160405290816000820180546104fb906116c3565b80601f0160208091040260200160405190810160405280929190818152602001828054610527906116c3565b80156105745780601f1061054957610100808354040283529160200191610574565b820191906000526020600020905b81548152906001019060200180831161055757829003601f168201915b5050505050815260200160018201548152602001600282018054610597906116c3565b80601f01602080910402602001604051908101604052809291908181526020018280546105c3906116c3565b80156106105780601f106105e557610100808354040283529160200191610610565b820191906000526020600020905b8154815290600101906020018083116105f357829003601f168201915b5050505050815260200160038201548152602001600482018054610633906116c3565b80601f016020809104026020016040519081016040528092919081815260200182805461065f906116c3565b80156106ac5780601f10610681576101008083540402835291602001916106ac565b820191906000526020600020905b81548152906001019060200180831161068f57829003601f168201915b505050505081526020016005820180546106c5906116c3565b80601f01602080910402602001604051908101604052809291908181526020018280546106f1906116c3565b801561073e5780601f106107135761010080835404028352916020019161073e565b820191906000526020600020905b81548152906001019060200180831161072157829003601f168201915b50505050508152602001600682018054610757906116c3565b80601f0160208091040260200160405190810160405280929190818152602001828054610783906116c3565b80156107d05780601f106107a5576101008083540402835291602001916107d0565b820191906000526020600020905b8154815290600101906020018083116107b357829003601f168201915b50505050508152602001600782015481526020016008820180546107f3906116c3565b80601f016020809104026020016040519081016040528092919081815260200182805461081f906116c3565b801561086c5780601f106108415761010080835404028352916020019161086c565b820191906000526020600020905b81548152906001019060200180831161084f57829003601f168201915b5050505050815260200160098201548152602001600a8201548152602001600b8201548152602001600c8201805480602002602001604051908101604052809291908181526020016000905b82821015610a3c57838290600052602060002090600502016040518060a001604052908160008201548152602001600182015481526020016002820160009054906101000a900473ffffffffffffffffffffffffffffffffffffffff1673ffffffffffffffffffffffffffffffffffffffff1673ffffffffffffffffffffffffffffffffffffffff1681526020016003820160009054906101000a900473ffffffffffffffffffffffffffffffffffffffff1673ffffffffffffffffffffffffffffffffffffffff1673ffffffffffffffffffffffffffffffffffffffff1681526020016004820180546109ab906116c3565b80601f01602080910402602001604051908101604052809291908181526020018280546109d7906116c3565b8015610a245780601f106109f957610100808354040283529160200191610a24565b820191906000526020600020905b815481529060010190602001808311610a0757829003601f168201915b505050505081525050815260200190600101906108b8565b5050505081525050905090565b6000600160009054906101000a900473ffffffffffffffffffffffffffffffffffffffff16905090565b6000600f60009054906101000a900460ff16905090565b6002600c01819080600181540180825580915050600190039060005260206000209060050201600090919091909150600082015181600001556020820151816001015560408201518160020160006101000a81548173ffffffffffffffffffffffffffffffffffffffff021916908373ffffffffffffffffffffffffffffffffffffffff16021790555060608201518160030160006101000a81548173ffffffffffffffffffffffffffffffffffffffff021916908373ffffffffffffffffffffffffffffffffffffffff1602179055506080820151816004019081610b7091906118a0565b50505050565b610b7e610e6f565b6002600c0160016002600c0180549050610b9891906119a1565b81548110610ba957610ba86119d5565b5b90600052602060002090600502016040518060a001604052908160008201548152602001600182015481526020016002820160009054906101000a900473ffffffffffffffffffffffffffffffffffffffff1673ffffffffffffffffffffffffffffffffffffffff1673ffffffffffffffffffffffffffffffffffffffff1681526020016003820160009054906101000a900473ffffffffffffffffffffffffffffffffffffffff1673ffffffffffffffffffffffffffffffffffffffff1673ffffffffffffffffffffffffffffffffffffffff168152602001600482018054610c92906116c3565b80601f0160208091040260200160405190810160405280929190818152602001828054610cbe906116c3565b8015610d0b5780601f10610ce057610100808354040283529160200191610d0b565b820191906000526020600020905b815481529060010190602001808311610cee57829003601f168201915b505050505081525050905090565b610d21610b76565b6060015173ffffffffffffffffffffffffffffffffffffffff168173ffffffffffffffffffffffffffffffffffffffff1614610d5c57600080fd5b6001600f60006101000a81548160ff02191690831515021790555050565b610d82610b76565b6060015173ffffffffffffffffffffffffffffffffffffffff168173ffffffffffffffffffffffffffffffffffffffff1614610dbd57600080fd5b6000600f60006101000a81548160ff02191690831515021790555050565b60008060009054906101000a900473ffffffffffffffffffffffffffffffffffffffff16905090565b604051806101a00160405280606081526020016000815260200160608152602001600081526020016060815260200160608152602001606081526020016000815260200160608152602001600080191681526020016000815260200160008152602001606081525090565b6040518060a001604052806000815260200160008152602001600073ffffffffffffffffffffffffffffffffffffffff168152602001600073ffffffffffffffffffffffffffffffffffffffff168152602001606081525090565b6000604051905090565b600080fd5b600080fd5b600073ffffffffffffffffffffffffffffffffffffffff82169050919050565b6000610f0982610ede565b9050919050565b610f1981610efe565b8114610f2457600080fd5b50565b600081359050610f3681610f10565b92915050565b60008060408385031215610f5357610f52610ed4565b5b6000610f6185828601610f27565b9250506020610f7285828601610f27565b9150509250929050565b60008115159050919050565b610f9181610f7c565b82525050565b6000602082019050610fac6000830184610f88565b92915050565b600060208284031215610fc857610fc7610ed4565b5b6000610fd684828501610f27565b91505092915050565b600081519050919050565b600082825260208201905092915050565b60005b83811015611019578082015181840152602081019050610ffe565b60008484015250505050565b6000601f19601f8301169050919050565b600061104182610fdf565b61104b8185610fea565b935061105b818560208601610ffb565b61106481611025565b840191505092915050565b6000819050919050565b6110828161106f565b82525050565b6000819050919050565b61109b81611088565b82525050565b600081519050919050565b600082825260208201905092915050565b6000819050602082019050919050565b6110d681610efe565b82525050565b600060a0830160008301516110f46000860182611079565b5060208301516111076020860182611079565b50604083015161111a60408601826110cd565b50606083015161112d60608601826110cd565b50608083015184820360808601526111458282611036565b9150508091505092915050565b600061115e83836110dc565b905092915050565b6000602082019050919050565b600061117e826110a1565b61118881856110ac565b93508360208202850161119a856110bd565b8060005b858110156111d657848403895281516111b78582611152565b94506111c283611166565b925060208a0199505060018101905061119e565b50829750879550505050505092915050565b60006101a08301600083015184820360008601526112068282611036565b915050602083015161121b6020860182611079565b50604083015184820360408601526112338282611036565b91505060608301516112486060860182611079565b50608083015184820360808601526112608282611036565b91505060a083015184820360a086015261127a8282611036565b91505060c083015184820360c08601526112948282611036565b91505060e08301516112a960e0860182611079565b506101008301518482036101008601526112c38282611036565b9150506101208301516112da610120860182611092565b506101408301516112ef610140860182611079565b50610160830151611304610160860182611079565b5061018083015184820361018086015261131e8282611173565b9150508091505092915050565b6000602082019050818103600083015261134581846111e8565b905092915050565b61135681610efe565b82525050565b6000602082019050611371600083018461134d565b92915050565b600080fd5b7f4e487b7100000000000000000000000000000000000000000000000000000000600052604160045260246000fd5b6113b482611025565b810181811067ffffffffffffffff821117156113d3576113d261137c565b5b80604052505050565b60006113e6610eca565b90506113f282826113ab565b919050565b600080fd5b6114058161106f565b811461141057600080fd5b50565b600081359050611422816113fc565b92915050565b600080fd5b600080fd5b600067ffffffffffffffff82111561144d5761144c61137c565b5b61145682611025565b9050602081019050919050565b82818337600083830152505050565b600061148561148084611432565b6113dc565b9050828152602081018484840111156114a1576114a061142d565b5b6114ac848285611463565b509392505050565b600082601f8301126114c9576114c8611428565b5b81356114d9848260208601611472565b91505092915050565b600060a082840312156114f8576114f7611377565b5b61150260a06113dc565b9050600061151284828501611413565b600083015250602061152684828501611413565b602083015250604061153a84828501610f27565b604083015250606061154e84828501610f27565b606083015250608082013567ffffffffffffffff811115611572576115716113f7565b5b61157e848285016114b4565b60808301525092915050565b6000602082840312156115a05761159f610ed4565b5b600082013567ffffffffffffffff8111156115be576115bd610ed9565b5b6115ca848285016114e2565b91505092915050565b600060a0830160008301516115eb6000860182611079565b5060208301516115fe6020860182611079565b50604083015161161160408601826110cd565b50606083015161162460608601826110cd565b506080830151848203608086015261163c8282611036565b9150508091505092915050565b6000602082019050818103600083015261166381846115d3565b905092915050565b6000604082019050611680600083018561134d565b61168d602083018461134d565b9392505050565b7f4e487b7100000000000000000000000000000000000000000000000000000000600052602260045260246000fd5b600060028204905060018216806116db57607f821691505b6020821081036116ee576116ed611694565b5b50919050565b60008190508160005260206000209050919050565b60006020601f8301049050919050565b600082821b905092915050565b6000600883026117567fffffffffffffffffffffffffffffffffffffffffffffffffffffffffffffffff82611719565b6117608683611719565b95508019841693508086168417925050509392505050565b6000819050919050565b600061179d6117986117938461106f565b611778565b61106f565b9050919050565b6000819050919050565b6117b783611782565b6117cb6117c3826117a4565b848454611726565b825550505050565b600090565b6117e06117d3565b6117eb8184846117ae565b505050565b5b8181101561180f576118046000826117d8565b6001810190506117f1565b5050565b601f82111561185457611825816116f4565b61182e84611709565b8101602085101561183d578190505b61185161184985611709565b8301826117f0565b50505b505050565b600082821c905092915050565b600061187760001984600802611859565b1980831691505092915050565b60006118908383611866565b9150826002028217905092915050565b6118a982610fdf565b67ffffffffffffffff8111156118c2576118c161137c565b5b6118cc82546116c3565b6118d7828285611813565b600060209050601f83116001811461190a57600084156118f8578287015190505b6119028582611884565b86555061196a565b601f198416611918866116f4565b60005b828110156119405784890151825560018201915060208501945060208101905061191b565b8683101561195d5784890151611959601f891682611866565b8355505b6001600288020188555050505b505050505050565b7f4e487b7100000000000000000000000000000000000000000000000000000000600052601160045260246000fd5b60006119ac8261106f565b91506119b78361106f565b92508282039050818111156119cf576119ce611972565b5b92915050565b7f4e487b7100000000000000000000000000000000000000000000000000000000600052603260045260246000fdfea2646970667358221220daaa5af0a3795af50053a5059f3d49acf26fa86d13718204f674a7f5c4d8135764736f6c63430008110033",
  "immutableReferences": {},
  "source": "// SPDX-License-Identifier: MIT\r\n\r\n// Pragma indicates the version of Solidity compiler to be used for compilation.\r\n// In truffle, the version of Solidity compiler is specified in truffle-config.js,\r\n// if not specified, the default version is 0.5.16.\r\n\r\npragma solidity ^0.8.17;\r\n\r\n// Contract is a collection of functions and data (its state) that resides at a specific address on the Ethereum blockchain.\r\n// The following contract is used to create a form for the evidence.\r\n\r\n// Struct to store the information of the chain of custody.\r\n    struct Log {\r\n        uint trackingNumber;        // Tracking number of the form\r\n        uint timestamp;             // Epoch time of the change\r\n        address releasedBy;         // Address of the entity that released the form\r\n        address receivedBy;         // Address of the entity that received the form\r\n        string reasonForChange;     // Reason for the change\r\n    }\r\n\r\n// Struct to store the information of the form.\r\n    struct FormData {\r\n        string caseName;                        // Name of the case\r\n        uint caseNumber;                        // Number of the case\r\n        string reasonObtained;                  // Reason for obtaining the evidence\r\n        uint itemNumber;                        // Number of the item\r\n        string evidenceTypeManufacturer;        // Type of the evidence and manufacturer\r\n        string owner;                           // Name of the owner of the evidence\r\n\r\n        string contentDescription;              // Description of the evidence\r\n        uint contentOwnerContactInformation;    // Contact information of the owner of the evidence\r\n        string forensicAgent;                   // Name of the forensic agent\r\n\r\n        bytes32 hashValue;                      // Hash value of the evidence\r\n        uint date;                              // Date of the evidence\r\n        uint forensicAgentContactInformation;   // Contact information of the forensic agent\r\n\r\n        Log[] chainOfCustody;                   // Chain of custody of the evidence\r\n    }\r\n\r\ncontract Form {\r\n    address private taker;\r\n    address private giver;\r\n    FormData private data;\r\n    bool private available;\r\n\r\n    constructor (uint[] memory _numbers, string[] memory _strings, bytes32 _hashValue) {\r\n        // _numbers = [_caseNumber, _itemNumber, _contentOwnerContactInformation, _date,\r\n        //             _forensicAgentContactInformation]\r\n        // _strings = [_caseName, _reasonObtained, _evidenceTypeManufacturer, _owner, _contentDescription,\r\n        //             _forensicAgent]\r\n        data.caseName = _strings[0];\r\n        data.reasonObtained = _strings[1];\r\n        data.evidenceTypeManufacturer = _strings[2];\r\n        data.owner = _strings[3];\r\n        data.contentDescription = _strings[4];\r\n        data.forensicAgent = _strings[5];\r\n\r\n        data.caseNumber = _numbers[0];\r\n        data.itemNumber = _numbers[1];\r\n        data.contentOwnerContactInformation = _numbers[2];\r\n        data.date = _numbers[3];\r\n        data.forensicAgentContactInformation = _numbers[4];\r\n\r\n        data.hashValue = _hashValue;\r\n    }\r\n\r\n    /**\r\n    *   @dev Function to read the form data.\r\n    *\r\n    *   @return FormData Struct containing the information of the form\r\n    */\r\n    function readForm() public view returns (FormData memory) {\r\n        return data;\r\n    }\r\n\r\n    function pushLog(Log memory _log) public {\r\n        data.chainOfCustody.push(_log);\r\n    }\r\n\r\n    function lastLog() public view returns (Log memory) {\r\n        return data.chainOfCustody[data.chainOfCustody.length - 1];\r\n    }\r\n\r\n    function isAvailable() public view returns(bool) {\r\n        return available;\r\n    }\r\n\r\n    function setAvailable(address _sender) public {\r\n        require(_sender == lastLog().receivedBy);\r\n        available = true;\r\n    }\r\n\r\n    function setTaken(address _sender) public {\r\n        require(_sender == lastLog().receivedBy);\r\n        available = false;\r\n    }\r\n\r\n    event giverTakerSet(address giver, address taker);\r\n    function setGiverTaker(address _giver, address _taker) public returns(bool) {\r\n        require(_giver == lastLog().receivedBy);\r\n        giver = _giver;\r\n        taker = _taker;\r\n        emit giverTakerSet(giver, taker);\r\n        return true;\r\n    }\r\n\r\n    event resetDone(address giver, address taker);\r\n    function resetGiverTaker(address _sender) public {\r\n        require(giver == _sender || taker == _sender);\r\n        // reset giver and taker\r\n        giver = address(0);\r\n        taker = address(0);\r\n        emit resetDone(giver, taker);\r\n    }\r\n\r\n    function getTaker() view public returns(address){\r\n        return taker;\r\n    }\r\n\r\n    function getGiver() view public returns(address){\r\n        return giver;\r\n    }\r\n}",
  "sourcePath": "C:\\Users\\alegt\\IdeaProjects\\BlueWoodchuck\\project\\blockchain\\contracts\\contracts\\form.sol",
  "compiler": {
    "name": "solc",
    "version": "0.8.17+commit.8df45f5f.Emscripten.clang"
  },
  "schemaVersion": "3.4.11",
  "updatedAt": "2023-03-27T14:37:07.771Z",
  "devdoc": {
    "kind": "dev",
    "methods": {
      "readForm()": {
        "details": "Function to read the form data.",
        "returns": {
          "_0": "FormData Struct containing the information of the form"
        }
      }
    },
    "version": 1
  },
  "userdoc": {
    "kind": "user",
    "methods": {},
    "version": 1
  }
}