{
  "contractName": "FormFactory",
  "abi": [
    {
      "anonymous": false,
      "inputs": [
        {
          "indexed": false,
          "internalType": "address",
          "name": "caseAddress",
          "type": "address"
        },
        {
          "components": [
            {
              "internalType": "string",
              "name": "caseName",
              "type": "string"
            },
            {
              "internalType": "uint256",
              "name": "caseNumber",
              "type": "uint256"
            },
            {
              "internalType": "string",
              "name": "reasonObtained",
              "type": "string"
            },
            {
              "internalType": "uint256",
              "name": "itemNumber",
              "type": "uint256"
            },
            {
              "internalType": "string",
              "name": "evidenceTypeManufacturer",
              "type": "string"
            },
            {
              "internalType": "string",
              "name": "owner",
              "type": "string"
            },
            {
              "internalType": "string",
              "name": "contentDescription",
              "type": "string"
            },
            {
              "internalType": "uint256",
              "name": "contentOwnerContactInformation",
              "type": "uint256"
            },
            {
              "internalType": "string",
              "name": "forensicAgent",
              "type": "string"
            },
            {
              "internalType": "string",
              "name": "creationMethod",
              "type": "string"
            },
            {
              "internalType": "bytes32",
              "name": "hashValue",
              "type": "bytes32"
            },
            {
              "internalType": "uint256",
              "name": "date",
              "type": "uint256"
            },
            {
              "internalType": "uint256",
              "name": "forensicAgentContactInformation",
              "type": "uint256"
            },
            {
              "components": [
                {
                  "internalType": "uint256",
                  "name": "trackingNumber",
                  "type": "uint256"
                },
                {
                  "internalType": "uint256",
                  "name": "timestamp",
                  "type": "uint256"
                },
                {
                  "internalType": "address",
                  "name": "releasedBy",
                  "type": "address"
                },
                {
                  "internalType": "address",
                  "name": "receivedBy",
                  "type": "address"
                },
                {
                  "internalType": "string",
                  "name": "reasonForChange",
                  "type": "string"
                }
              ],
              "internalType": "struct Log[]",
              "name": "chainOfCustody",
              "type": "tuple[]"
            }
          ],
          "indexed": false,
          "internalType": "struct FormData",
          "name": "data",
          "type": "tuple"
        }
      ],
      "name": "formFound",
      "type": "event"
    },
    {
      "anonymous": false,
      "inputs": [
        {
          "indexed": false,
          "internalType": "uint256",
          "name": "caseNumber",
          "type": "uint256"
        },
        {
          "indexed": false,
          "internalType": "address",
          "name": "caseAddress",
          "type": "address"
        },
        {
          "components": [
            {
              "internalType": "string",
              "name": "caseName",
              "type": "string"
            },
            {
              "internalType": "uint256",
              "name": "caseNumber",
              "type": "uint256"
            },
            {
              "internalType": "string",
              "name": "reasonObtained",
              "type": "string"
            },
            {
              "internalType": "uint256",
              "name": "itemNumber",
              "type": "uint256"
            },
            {
              "internalType": "string",
              "name": "evidenceTypeManufacturer",
              "type": "string"
            },
            {
              "internalType": "string",
              "name": "owner",
              "type": "string"
            },
            {
              "internalType": "string",
              "name": "contentDescription",
              "type": "string"
            },
            {
              "internalType": "uint256",
              "name": "contentOwnerContactInformation",
              "type": "uint256"
            },
            {
              "internalType": "string",
              "name": "forensicAgent",
              "type": "string"
            },
            {
              "internalType": "string",
              "name": "creationMethod",
              "type": "string"
            },
            {
              "internalType": "bytes32",
              "name": "hashValue",
              "type": "bytes32"
            },
            {
              "internalType": "uint256",
              "name": "date",
              "type": "uint256"
            },
            {
              "internalType": "uint256",
              "name": "forensicAgentContactInformation",
              "type": "uint256"
            },
            {
              "components": [
                {
                  "internalType": "uint256",
                  "name": "trackingNumber",
                  "type": "uint256"
                },
                {
                  "internalType": "uint256",
                  "name": "timestamp",
                  "type": "uint256"
                },
                {
                  "internalType": "address",
                  "name": "releasedBy",
                  "type": "address"
                },
                {
                  "internalType": "address",
                  "name": "receivedBy",
                  "type": "address"
                },
                {
                  "internalType": "string",
                  "name": "reasonForChange",
                  "type": "string"
                }
              ],
              "internalType": "struct Log[]",
              "name": "chainOfCustody",
              "type": "tuple[]"
            }
          ],
          "indexed": false,
          "internalType": "struct FormData",
          "name": "data",
          "type": "tuple"
        }
      ],
      "name": "newForm",
      "type": "event"
    },
    {
      "inputs": [
        {
          "internalType": "uint256[]",
          "name": "_numbers",
          "type": "uint256[]"
        },
        {
          "internalType": "string[]",
          "name": "_strings",
          "type": "string[]"
        },
        {
          "internalType": "bytes32",
          "name": "_hashValue",
          "type": "bytes32"
        }
      ],
      "name": "createForm",
      "outputs": [
        {
          "internalType": "address",
          "name": "",
          "type": "address"
        }
      ],
      "stateMutability": "nonpayable",
      "type": "function"
    },
    {
      "inputs": [
        {
          "internalType": "address",
          "name": "_caseAddress",
          "type": "address"
        }
      ],
      "name": "findForm",
      "outputs": [
        {
          "internalType": "contract Form",
          "name": "",
          "type": "address"
        }
      ],
      "stateMutability": "view",
      "type": "function",
      "constant": true
    },
    {
      "inputs": [
        {
          "internalType": "contract Form",
          "name": "_form",
          "type": "address"
        }
      ],
      "name": "readForm",
      "outputs": [
        {
          "components": [
            {
              "internalType": "string",
              "name": "caseName",
              "type": "string"
            },
            {
              "internalType": "uint256",
              "name": "caseNumber",
              "type": "uint256"
            },
            {
              "internalType": "string",
              "name": "reasonObtained",
              "type": "string"
            },
            {
              "internalType": "uint256",
              "name": "itemNumber",
              "type": "uint256"
            },
            {
              "internalType": "string",
              "name": "evidenceTypeManufacturer",
              "type": "string"
            },
            {
              "internalType": "string",
              "name": "owner",
              "type": "string"
            },
            {
              "internalType": "string",
              "name": "contentDescription",
              "type": "string"
            },
            {
              "internalType": "uint256",
              "name": "contentOwnerContactInformation",
              "type": "uint256"
            },
            {
              "internalType": "string",
              "name": "forensicAgent",
              "type": "string"
            },
            {
              "internalType": "string",
              "name": "creationMethod",
              "type": "string"
            },
            {
              "internalType": "bytes32",
              "name": "hashValue",
              "type": "bytes32"
            },
            {
              "internalType": "uint256",
              "name": "date",
              "type": "uint256"
            },
            {
              "internalType": "uint256",
              "name": "forensicAgentContactInformation",
              "type": "uint256"
            },
            {
              "components": [
                {
                  "internalType": "uint256",
                  "name": "trackingNumber",
                  "type": "uint256"
                },
                {
                  "internalType": "uint256",
                  "name": "timestamp",
                  "type": "uint256"
                },
                {
                  "internalType": "address",
                  "name": "releasedBy",
                  "type": "address"
                },
                {
                  "internalType": "address",
                  "name": "receivedBy",
                  "type": "address"
                },
                {
                  "internalType": "string",
                  "name": "reasonForChange",
                  "type": "string"
                }
              ],
              "internalType": "struct Log[]",
              "name": "chainOfCustody",
              "type": "tuple[]"
            }
          ],
          "internalType": "struct FormData",
          "name": "",
          "type": "tuple"
        }
      ],
      "stateMutability": "view",
      "type": "function",
      "constant": true
    },
    {
      "inputs": [
        {
          "internalType": "address",
          "name": "_caseAddress",
          "type": "address"
        }
      ],
      "name": "readFormAddress",
      "outputs": [
        {
          "components": [
            {
              "internalType": "string",
              "name": "caseName",
              "type": "string"
            },
            {
              "internalType": "uint256",
              "name": "caseNumber",
              "type": "uint256"
            },
            {
              "internalType": "string",
              "name": "reasonObtained",
              "type": "string"
            },
            {
              "internalType": "uint256",
              "name": "itemNumber",
              "type": "uint256"
            },
            {
              "internalType": "string",
              "name": "evidenceTypeManufacturer",
              "type": "string"
            },
            {
              "internalType": "string",
              "name": "owner",
              "type": "string"
            },
            {
              "internalType": "string",
              "name": "contentDescription",
              "type": "string"
            },
            {
              "internalType": "uint256",
              "name": "contentOwnerContactInformation",
              "type": "uint256"
            },
            {
              "internalType": "string",
              "name": "forensicAgent",
              "type": "string"
            },
            {
              "internalType": "string",
              "name": "creationMethod",
              "type": "string"
            },
            {
              "internalType": "bytes32",
              "name": "hashValue",
              "type": "bytes32"
            },
            {
              "internalType": "uint256",
              "name": "date",
              "type": "uint256"
            },
            {
              "internalType": "uint256",
              "name": "forensicAgentContactInformation",
              "type": "uint256"
            },
            {
              "components": [
                {
                  "internalType": "uint256",
                  "name": "trackingNumber",
                  "type": "uint256"
                },
                {
                  "internalType": "uint256",
                  "name": "timestamp",
                  "type": "uint256"
                },
                {
                  "internalType": "address",
                  "name": "releasedBy",
                  "type": "address"
                },
                {
                  "internalType": "address",
                  "name": "receivedBy",
                  "type": "address"
                },
                {
                  "internalType": "string",
                  "name": "reasonForChange",
                  "type": "string"
                }
              ],
              "internalType": "struct Log[]",
              "name": "chainOfCustody",
              "type": "tuple[]"
            }
          ],
          "internalType": "struct FormData",
          "name": "",
          "type": "tuple"
        }
      ],
      "stateMutability": "view",
      "type": "function",
      "constant": true
    },
    {
      "inputs": [
        {
          "internalType": "address",
          "name": "_userAddress",
          "type": "address"
        }
      ],
      "name": "getUserFormAddresses",
      "outputs": [
        {
          "internalType": "address[]",
          "name": "",
          "type": "address[]"
        }
      ],
      "stateMutability": "view",
      "type": "function",
      "constant": true
    },
    {
      "inputs": [
        {
          "internalType": "address",
          "name": "_formAddress",
          "type": "address"
        },
        {
          "internalType": "string",
          "name": "_reason",
          "type": "string"
        }
      ],
      "name": "getForm",
      "outputs": [],
      "stateMutability": "nonpayable",
      "type": "function"
    },
    {
      "inputs": [
        {
          "internalType": "address",
          "name": "_formAddress",
          "type": "address"
        }
      ],
      "name": "releaseForm",
      "outputs": [],
      "stateMutability": "nonpayable",
      "type": "function"
    },
    {
      "inputs": [
        {
          "internalType": "address",
          "name": "_formAddress",
          "type": "address"
        },
        {
          "internalType": "address",
          "name": "_taker",
          "type": "address"
        }
      ],
      "name": "giveForm",
      "outputs": [],
      "stateMutability": "nonpayable",
      "type": "function"
    },
    {
      "inputs": [
        {
          "internalType": "address",
          "name": "_formAddress",
          "type": "address"
        },
        {
          "internalType": "string",
          "name": "_reason",
          "type": "string"
        }
      ],
      "name": "acceptForm",
      "outputs": [],
      "stateMutability": "nonpayable",
      "type": "function"
    },
    {
      "inputs": [
        {
          "internalType": "address",
          "name": "_formAddress",
          "type": "address"
        }
      ],
      "name": "rejectForm",
      "outputs": [],
      "stateMutability": "nonpayable",
      "type": "function"
    },
    {
      "inputs": [
        {
          "internalType": "address",
          "name": "_formAddress",
          "type": "address"
        }
      ],
      "name": "isAFormAvailable",
      "outputs": [
        {
          "internalType": "bool",
          "name": "",
          "type": "bool"
        }
      ],
      "stateMutability": "view",
      "type": "function",
      "constant": true
    }
  ],
  "bytecode": "0x608060405234801561001057600080fd5b5061511a806100206000396000f3fe60806040523480156200001157600080fd5b5060043610620000b85760003560e01c8063866fba22116200007b578063866fba22146200019f5780638d5194c914620001d5578063ca8e697f14620001f5578063edcd5c41146200022b578063edef556a146200024b578063f8fa329b146200028157620000b8565b8063057b011014620000bd578063191d12fc14620000f3578063494d8d3314620001135780634b194bf0146200014957806374de047a146200017f575b600080fd5b620000db6004803603810190620000d59190620017c2565b620002a1565b604051620000ea919062001ba0565b60405180910390f35b6200011160048036038101906200010b919062001bc4565b620002c7565b005b6200013160048036038101906200012b9190620017c2565b62000401565b60405162000140919062001cc8565b60405180910390f35b62000167600480360381019062000161919062001d31565b620004d0565b60405162000176919062001ba0565b60405180910390f35b6200019d600480360381019062000197919062001eb4565b62000558565b005b620001bd6004803603810190620001b79190620017c2565b620008cf565b604051620001cc919062001f37565b60405180910390f35b620001f36004803603810190620001ed919062001eb4565b62000954565b005b6200021360048036038101906200020d9190620017c2565b62000d80565b60405162000222919062001fbf565b60405180910390f35b620002496004803603810190620002439190620017c2565b62000de8565b005b62000269600480360381019062000263919062002210565b62000f20565b604051620002789190620022bb565b60405180910390f35b6200029f6004803603810190620002999190620017c2565b6200124d565b005b620002ab620016c9565b620002c0620002ba8362000d80565b620004d0565b9050919050565b3373ffffffffffffffffffffffffffffffffffffffff16620002e98362000d80565b73ffffffffffffffffffffffffffffffffffffffff1663d08145e46040518163ffffffff1660e01b8152600401600060405180830381865afa15801562000334573d6000803e3d6000fd5b505050506040513d6000823e3d601f19601f820116820180604052508101906200035f919062002448565b6060015173ffffffffffffffffffffffffffffffffffffffff16146200038457600080fd5b6200038f8262000d80565b73ffffffffffffffffffffffffffffffffffffffff16636d678f52826040518263ffffffff1660e01b8152600401620003c99190620022bb565b600060405180830381600087803b158015620003e457600080fd5b505af1158015620003f9573d6000803e3d6000fd5b505050505050565b6060600160008373ffffffffffffffffffffffffffffffffffffffff1673ffffffffffffffffffffffffffffffffffffffff168152602001908152602001600020805480602002602001604051908101604052809291908181526020018280548015620004c457602002820191906000526020600020905b8160009054906101000a900473ffffffffffffffffffffffffffffffffffffffff1673ffffffffffffffffffffffffffffffffffffffff168152602001906001019080831162000479575b50505050509050919050565b620004da620016c9565b8173ffffffffffffffffffffffffffffffffffffffff16635426177e6040518163ffffffff1660e01b8152600401600060405180830381865afa15801562000526573d6000803e3d6000fd5b505050506040513d6000823e3d601f19601f820116820180604052508101906200055191906200280e565b9050919050565b620005638262000d80565b73ffffffffffffffffffffffffffffffffffffffff1663856c71dd6040518163ffffffff1660e01b8152600401602060405180830381865afa158015620005ae573d6000803e3d6000fd5b505050506040513d601f19601f82011682018060405250810190620005d4919062002890565b620005de57600080fd5b620005e98262000d80565b73ffffffffffffffffffffffffffffffffffffffff1663903219886040518060a0016040528060016200061c8762000d80565b73ffffffffffffffffffffffffffffffffffffffff1663d08145e46040518163ffffffff1660e01b8152600401600060405180830381865afa15801562000667573d6000803e3d6000fd5b505050506040513d6000823e3d601f19601f8201168201806040525081019062000692919062002448565b60000151620006a29190620028f1565b8152602001428152602001620006b88662000d80565b73ffffffffffffffffffffffffffffffffffffffff1663d08145e46040518163ffffffff1660e01b8152600401600060405180830381865afa15801562000703573d6000803e3d6000fd5b505050506040513d6000823e3d601f19601f820116820180604052508101906200072e919062002448565b6060015173ffffffffffffffffffffffffffffffffffffffff1681526020013373ffffffffffffffffffffffffffffffffffffffff168152602001848152506040518263ffffffff1660e01b81526004016200078b9190620029ac565b600060405180830381600087803b158015620007a657600080fd5b505af1158015620007bb573d6000803e3d6000fd5b50505050600160003373ffffffffffffffffffffffffffffffffffffffff1673ffffffffffffffffffffffffffffffffffffffff168152602001908152602001600020829080600181540180825580915050600190039060005260206000200160009091909190916101000a81548173ffffffffffffffffffffffffffffffffffffffff021916908373ffffffffffffffffffffffffffffffffffffffff1602179055506200086a8262000d80565b73ffffffffffffffffffffffffffffffffffffffff1663f5c92cda6040518163ffffffff1660e01b8152600401600060405180830381600087803b158015620008b257600080fd5b505af1158015620008c7573d6000803e3d6000fd5b505050505050565b6000620008dc8262000d80565b73ffffffffffffffffffffffffffffffffffffffff1663856c71dd6040518163ffffffff1660e01b8152600401602060405180830381865afa15801562000927573d6000803e3d6000fd5b505050506040513d601f19601f820116820180604052508101906200094d919062002890565b9050919050565b3373ffffffffffffffffffffffffffffffffffffffff16620009768362000d80565b73ffffffffffffffffffffffffffffffffffffffff1663f5d197556040518163ffffffff1660e01b8152600401602060405180830381865afa158015620009c1573d6000803e3d6000fd5b505050506040513d601f19601f82011682018060405250810190620009e79190620029d0565b73ffffffffffffffffffffffffffffffffffffffff161462000a0857600080fd5b600160003373ffffffffffffffffffffffffffffffffffffffff1673ffffffffffffffffffffffffffffffffffffffff168152602001908152602001600020829080600181540180825580915050600190039060005260206000200160009091909190916101000a81548173ffffffffffffffffffffffffffffffffffffffff021916908373ffffffffffffffffffffffffffffffffffffffff16021790555062000ab38262000d80565b73ffffffffffffffffffffffffffffffffffffffff1663903219886040518060a00160405280600162000ae68762000d80565b73ffffffffffffffffffffffffffffffffffffffff1663d08145e46040518163ffffffff1660e01b8152600401600060405180830381865afa15801562000b31573d6000803e3d6000fd5b505050506040513d6000823e3d601f19601f8201168201806040525081019062000b5c919062002448565b6000015162000b6c9190620028f1565b815260200142815260200162000b828662000d80565b73ffffffffffffffffffffffffffffffffffffffff1663d08145e46040518163ffffffff1660e01b8152600401600060405180830381865afa15801562000bcd573d6000803e3d6000fd5b505050506040513d6000823e3d601f19601f8201168201806040525081019062000bf8919062002448565b6060015173ffffffffffffffffffffffffffffffffffffffff1681526020013373ffffffffffffffffffffffffffffffffffffffff168152602001848152506040518263ffffffff1660e01b815260040162000c559190620029ac565b600060405180830381600087803b15801562000c7057600080fd5b505af115801562000c85573d6000803e3d6000fd5b5050505062000d1062000c988362000d80565b73ffffffffffffffffffffffffffffffffffffffff1663651c5d2d6040518163ffffffff1660e01b8152600401602060405180830381865afa15801562000ce3573d6000803e3d6000fd5b505050506040513d601f19601f8201168201806040525081019062000d099190620029d0565b8362001370565b62000d1b8262000d80565b73ffffffffffffffffffffffffffffffffffffffff1663bcd404fa6040518163ffffffff1660e01b8152600401600060405180830381600087803b15801562000d6357600080fd5b505af115801562000d78573d6000803e3d6000fd5b505050505050565b60008060008373ffffffffffffffffffffffffffffffffffffffff1673ffffffffffffffffffffffffffffffffffffffff16815260200190815260200160002060009054906101000a900473ffffffffffffffffffffffffffffffffffffffff169050919050565b3373ffffffffffffffffffffffffffffffffffffffff1662000e0a8262000d80565b73ffffffffffffffffffffffffffffffffffffffff1663d08145e46040518163ffffffff1660e01b8152600401600060405180830381865afa15801562000e55573d6000803e3d6000fd5b505050506040513d6000823e3d601f19601f8201168201806040525081019062000e80919062002448565b6060015173ffffffffffffffffffffffffffffffffffffffff161462000ea557600080fd5b62000eb08162000d80565b73ffffffffffffffffffffffffffffffffffffffff16637a7d15666040518163ffffffff1660e01b8152600401600060405180830381600087803b15801562000ef857600080fd5b505af115801562000f0d573d6000803e3d6000fd5b5050505062000f1d338262001370565b50565b60008062000f2d62001692565b905084848460405162000f40906200173b565b62000f4e9392919062002ba0565b604051809103906000f08015801562000f6b573d6000803e3d6000fd5b506000808373ffffffffffffffffffffffffffffffffffffffff1673ffffffffffffffffffffffffffffffffffffffff16815260200190815260200160002060006101000a81548173ffffffffffffffffffffffffffffffffffffffff021916908373ffffffffffffffffffffffffffffffffffffffff1602179055506000808273ffffffffffffffffffffffffffffffffffffffff1673ffffffffffffffffffffffffffffffffffffffff16815260200190815260200160002060009054906101000a900473ffffffffffffffffffffffffffffffffffffffff1673ffffffffffffffffffffffffffffffffffffffff1663903219886040518060a00160405280600081526020014281526020013373ffffffffffffffffffffffffffffffffffffffff1681526020013373ffffffffffffffffffffffffffffffffffffffff1681526020016040518060400160405280600c81526020017f466f726d206372656174656400000000000000000000000000000000000000008152508152506040518263ffffffff1660e01b8152600401620011099190620029ac565b600060405180830381600087803b1580156200112457600080fd5b505af115801562001139573d6000803e3d6000fd5b50505050600160003373ffffffffffffffffffffffffffffffffffffffff1673ffffffffffffffffffffffffffffffffffffffff168152602001908152602001600020819080600181540180825580915050600190039060005260206000200160009091909190916101000a81548173ffffffffffffffffffffffffffffffffffffffff021916908373ffffffffffffffffffffffffffffffffffffffff1602179055507fa32121da9500249d8880fce97dd8f5f3f0f54bfedc91bdb545438f69d79d89178560008151811062001215576200121462002beb565b5b6020026020010151826200122984620002a1565b6040516200123a9392919062002c2b565b60405180910390a1809150509392505050565b3373ffffffffffffffffffffffffffffffffffffffff166200126f8262000d80565b73ffffffffffffffffffffffffffffffffffffffff1663f5d197556040518163ffffffff1660e01b8152600401602060405180830381865afa158015620012ba573d6000803e3d6000fd5b505050506040513d601f19601f82011682018060405250810190620012e09190620029d0565b73ffffffffffffffffffffffffffffffffffffffff16146200130157600080fd5b6200130c8162000d80565b73ffffffffffffffffffffffffffffffffffffffff1663bcd404fa6040518163ffffffff1660e01b8152600401600060405180830381600087803b1580156200135457600080fd5b505af115801562001369573d6000803e3d6000fd5b5050505050565b6000600160008473ffffffffffffffffffffffffffffffffffffffff1673ffffffffffffffffffffffffffffffffffffffff1681526020019081526020016000208054905011620013c057600080fd5b6000600160008473ffffffffffffffffffffffffffffffffffffffff1673ffffffffffffffffffffffffffffffffffffffff16815260200190815260200160002080549050905060005b818110156200168c578273ffffffffffffffffffffffffffffffffffffffff16600160008673ffffffffffffffffffffffffffffffffffffffff1673ffffffffffffffffffffffffffffffffffffffff16815260200190815260200160002082815481106200147e576200147d62002beb565b5b9060005260206000200160009054906101000a900473ffffffffffffffffffffffffffffffffffffffff1673ffffffffffffffffffffffffffffffffffffffff16036200167657600160008573ffffffffffffffffffffffffffffffffffffffff1673ffffffffffffffffffffffffffffffffffffffff16815260200190815260200160002060018362001513919062002c6f565b8154811062001527576200152662002beb565b5b9060005260206000200160009054906101000a900473ffffffffffffffffffffffffffffffffffffffff16600160008673ffffffffffffffffffffffffffffffffffffffff1673ffffffffffffffffffffffffffffffffffffffff1681526020019081526020016000208281548110620015a657620015a562002beb565b5b9060005260206000200160006101000a81548173ffffffffffffffffffffffffffffffffffffffff021916908373ffffffffffffffffffffffffffffffffffffffff160217905550600160008573ffffffffffffffffffffffffffffffffffffffff1673ffffffffffffffffffffffffffffffffffffffff16815260200190815260200160002080548062001640576200163f62002caa565b5b6001900381819060005260206000200160006101000a81549073ffffffffffffffffffffffffffffffffffffffff021916905590555b8080620016839062002cd9565b9150506200140a565b50505050565b6000424433604051602001620016ab9392919062002d9b565b6040516020818303038152906040528051906020012060001c905090565b604051806101c0016040528060608152602001600081526020016060815260200160008152602001606081526020016060815260200160608152602001600081526020016060815260200160608152602001600080191681526020016000815260200160008152602001606081525090565b6123068062002ddf83390190565b6000604051905090565b600080fd5b600080fd5b600073ffffffffffffffffffffffffffffffffffffffff82169050919050565b60006200178a826200175d565b9050919050565b6200179c816200177d565b8114620017a857600080fd5b50565b600081359050620017bc8162001791565b92915050565b600060208284031215620017db57620017da62001753565b5b6000620017eb84828501620017ab565b91505092915050565b600081519050919050565b600082825260208201905092915050565b60005b838110156200183057808201518184015260208101905062001813565b60008484015250505050565b6000601f19601f8301169050919050565b60006200185a82620017f4565b620018668185620017ff565b93506200187881856020860162001810565b62001883816200183c565b840191505092915050565b6000819050919050565b620018a3816200188e565b82525050565b6000819050919050565b620018be81620018a9565b82525050565b600081519050919050565b600082825260208201905092915050565b6000819050602082019050919050565b620018fb816200177d565b82525050565b600060a0830160008301516200191b600086018262001898565b50602083015162001930602086018262001898565b506040830151620019456040860182620018f0565b5060608301516200195a6060860182620018f0565b50608083015184820360808601526200197482826200184d565b9150508091505092915050565b60006200198f838362001901565b905092915050565b6000602082019050919050565b6000620019b182620018c4565b620019bd8185620018cf565b935083602082028501620019d185620018e0565b8060005b8581101562001a135784840389528151620019f1858262001981565b9450620019fe8362001997565b925060208a01995050600181019050620019d5565b50829750879550505050505092915050565b60006101c083016000830151848203600086015262001a4582826200184d565b915050602083015162001a5c602086018262001898565b506040830151848203604086015262001a7682826200184d565b915050606083015162001a8d606086018262001898565b506080830151848203608086015262001aa782826200184d565b91505060a083015184820360a086015262001ac382826200184d565b91505060c083015184820360c086015262001adf82826200184d565b91505060e083015162001af660e086018262001898565b5061010083015184820361010086015262001b1282826200184d565b91505061012083015184820361012086015262001b3082826200184d565b91505061014083015162001b49610140860182620018b3565b5061016083015162001b6061016086018262001898565b5061018083015162001b7761018086018262001898565b506101a08301518482036101a086015262001b938282620019a4565b9150508091505092915050565b6000602082019050818103600083015262001bbc818462001a25565b905092915050565b6000806040838503121562001bde5762001bdd62001753565b5b600062001bee85828601620017ab565b925050602062001c0185828601620017ab565b9150509250929050565b600081519050919050565b600082825260208201905092915050565b6000819050602082019050919050565b600062001c458383620018f0565b60208301905092915050565b6000602082019050919050565b600062001c6b8262001c0b565b62001c77818562001c16565b935062001c848362001c27565b8060005b8381101562001cbb57815162001c9f888262001c37565b975062001cac8362001c51565b92505060018101905062001c88565b5085935050505092915050565b6000602082019050818103600083015262001ce4818462001c5e565b905092915050565b600062001cf9826200177d565b9050919050565b62001d0b8162001cec565b811462001d1757600080fd5b50565b60008135905062001d2b8162001d00565b92915050565b60006020828403121562001d4a5762001d4962001753565b5b600062001d5a8482850162001d1a565b91505092915050565b600080fd5b600080fd5b7f4e487b7100000000000000000000000000000000000000000000000000000000600052604160045260246000fd5b62001da7826200183c565b810181811067ffffffffffffffff8211171562001dc95762001dc862001d6d565b5b80604052505050565b600062001dde62001749565b905062001dec828262001d9c565b919050565b600067ffffffffffffffff82111562001e0f5762001e0e62001d6d565b5b62001e1a826200183c565b9050602081019050919050565b82818337600083830152505050565b600062001e4d62001e478462001df1565b62001dd2565b90508281526020810184848401111562001e6c5762001e6b62001d68565b5b62001e7984828562001e27565b509392505050565b600082601f83011262001e995762001e9862001d63565b5b813562001eab84826020860162001e36565b91505092915050565b6000806040838503121562001ece5762001ecd62001753565b5b600062001ede85828601620017ab565b925050602083013567ffffffffffffffff81111562001f025762001f0162001758565b5b62001f108582860162001e81565b9150509250929050565b60008115159050919050565b62001f318162001f1a565b82525050565b600060208201905062001f4e600083018462001f26565b92915050565b6000819050919050565b600062001f7f62001f7962001f73846200175d565b62001f54565b6200175d565b9050919050565b600062001f938262001f5e565b9050919050565b600062001fa78262001f86565b9050919050565b62001fb98162001f9a565b82525050565b600060208201905062001fd6600083018462001fae565b92915050565b600067ffffffffffffffff82111562001ffa5762001ff962001d6d565b5b602082029050602081019050919050565b600080fd5b6200201b816200188e565b81146200202757600080fd5b50565b6000813590506200203b8162002010565b92915050565b600062002058620020528462001fdc565b62001dd2565b905080838252602082019050602084028301858111156200207e576200207d6200200b565b5b835b81811015620020ab57806200209688826200202a565b84526020840193505060208101905062002080565b5050509392505050565b600082601f830112620020cd57620020cc62001d63565b5b8135620020df84826020860162002041565b91505092915050565b600067ffffffffffffffff82111562002106576200210562001d6d565b5b602082029050602081019050919050565b60006200212e6200212884620020e8565b62001dd2565b905080838252602082019050602084028301858111156200215457620021536200200b565b5b835b81811015620021a257803567ffffffffffffffff8111156200217d576200217c62001d63565b5b8086016200218c898262001e81565b8552602085019450505060208101905062002156565b5050509392505050565b600082601f830112620021c457620021c362001d63565b5b8135620021d684826020860162002117565b91505092915050565b620021ea81620018a9565b8114620021f657600080fd5b50565b6000813590506200220a81620021df565b92915050565b6000806000606084860312156200222c576200222b62001753565b5b600084013567ffffffffffffffff8111156200224d576200224c62001758565b5b6200225b86828701620020b5565b935050602084013567ffffffffffffffff8111156200227f576200227e62001758565b5b6200228d86828701620021ac565b9250506040620022a086828701620021f9565b9150509250925092565b620022b5816200177d565b82525050565b6000602082019050620022d26000830184620022aa565b92915050565b600080fd5b600080fd5b600081519050620022f38162002010565b92915050565b6000815190506200230a8162001791565b92915050565b600062002327620023218462001df1565b62001dd2565b90508281526020810184848401111562002346576200234562001d68565b5b6200235384828562001810565b509392505050565b600082601f83011262002373576200237262001d63565b5b81516200238584826020860162002310565b91505092915050565b600060a08284031215620023a757620023a6620022d8565b5b620023b360a062001dd2565b90506000620023c584828501620022e2565b6000830152506020620023db84828501620022e2565b6020830152506040620023f184828501620022f9565b60408301525060606200240784828501620022f9565b606083015250608082015167ffffffffffffffff8111156200242e576200242d620022dd565b5b6200243c848285016200235b565b60808301525092915050565b60006020828403121562002461576200246062001753565b5b600082015167ffffffffffffffff81111562002482576200248162001758565b5b62002490848285016200238e565b91505092915050565b600081519050620024aa81620021df565b92915050565b600067ffffffffffffffff821115620024ce57620024cd62001d6d565b5b602082029050602081019050919050565b6000620024f6620024f084620024b0565b62001dd2565b905080838252602082019050602084028301858111156200251c576200251b6200200b565b5b835b818110156200256a57805167ffffffffffffffff81111562002545576200254462001d63565b5b8086016200255489826200238e565b855260208501945050506020810190506200251e565b5050509392505050565b600082601f8301126200258c576200258b62001d63565b5b81516200259e848260208601620024df565b91505092915050565b60006101c08284031215620025c157620025c0620022d8565b5b620025ce6101c062001dd2565b9050600082015167ffffffffffffffff811115620025f157620025f0620022dd565b5b620025ff848285016200235b565b60008301525060206200261584828501620022e2565b602083015250604082015167ffffffffffffffff8111156200263c576200263b620022dd565b5b6200264a848285016200235b565b60408301525060606200266084828501620022e2565b606083015250608082015167ffffffffffffffff811115620026875762002686620022dd565b5b62002695848285016200235b565b60808301525060a082015167ffffffffffffffff811115620026bc57620026bb620022dd565b5b620026ca848285016200235b565b60a08301525060c082015167ffffffffffffffff811115620026f157620026f0620022dd565b5b620026ff848285016200235b565b60c08301525060e06200271584828501620022e2565b60e08301525061010082015167ffffffffffffffff8111156200273d576200273c620022dd565b5b6200274b848285016200235b565b6101008301525061012082015167ffffffffffffffff811115620027745762002773620022dd565b5b62002782848285016200235b565b610120830152506101406200279a8482850162002499565b61014083015250610160620027b284828501620022e2565b61016083015250610180620027ca84828501620022e2565b610180830152506101a082015167ffffffffffffffff811115620027f357620027f2620022dd565b5b620028018482850162002574565b6101a08301525092915050565b60006020828403121562002827576200282662001753565b5b600082015167ffffffffffffffff81111562002848576200284762001758565b5b6200285684828501620025a7565b91505092915050565b6200286a8162001f1a565b81146200287657600080fd5b50565b6000815190506200288a816200285f565b92915050565b600060208284031215620028a957620028a862001753565b5b6000620028b98482850162002879565b91505092915050565b7f4e487b7100000000000000000000000000000000000000000000000000000000600052601160045260246000fd5b6000620028fe826200188e565b91506200290b836200188e565b9250828201905080821115620029265762002925620028c2565b5b92915050565b600060a08301600083015162002946600086018262001898565b5060208301516200295b602086018262001898565b506040830151620029706040860182620018f0565b506060830151620029856060860182620018f0565b50608083015184820360808601526200299f82826200184d565b9150508091505092915050565b60006020820190508181036000830152620029c881846200292c565b905092915050565b600060208284031215620029e957620029e862001753565b5b6000620029f984828501620022f9565b91505092915050565b600081519050919050565b600082825260208201905092915050565b6000819050602082019050919050565b600062002a3c838362001898565b60208301905092915050565b6000602082019050919050565b600062002a628262002a02565b62002a6e818562002a0d565b935062002a7b8362002a1e565b8060005b8381101562002ab257815162002a96888262002a2e565b975062002aa38362002a48565b92505060018101905062002a7f565b5085935050505092915050565b600081519050919050565b600082825260208201905092915050565b6000819050602082019050919050565b600062002af983836200184d565b905092915050565b6000602082019050919050565b600062002b1b8262002abf565b62002b27818562002aca565b93508360208202850162002b3b8562002adb565b8060005b8581101562002b7d578484038952815162002b5b858262002aeb565b945062002b688362002b01565b925060208a0199505060018101905062002b3f565b50829750879550505050505092915050565b62002b9a81620018a9565b82525050565b6000606082019050818103600083015262002bbc818662002a55565b9050818103602083015262002bd2818562002b0e565b905062002be3604083018462002b8f565b949350505050565b7f4e487b7100000000000000000000000000000000000000000000000000000000600052603260045260246000fd5b62002c25816200188e565b82525050565b600060608201905062002c42600083018662002c1a565b62002c516020830185620022aa565b818103604083015262002c65818462001a25565b9050949350505050565b600062002c7c826200188e565b915062002c89836200188e565b925082820390508181111562002ca45762002ca3620028c2565b5b92915050565b7f4e487b7100000000000000000000000000000000000000000000000000000000600052603160045260246000fd5b600062002ce6826200188e565b91507fffffffffffffffffffffffffffffffffffffffffffffffffffffffffffffffff820362002d1b5762002d1a620028c2565b5b600182019050919050565b6000819050919050565b62002d4562002d3f826200188e565b62002d26565b82525050565b60008160601b9050919050565b600062002d658262002d4b565b9050919050565b600062002d798262002d58565b9050919050565b62002d9562002d8f826200177d565b62002d6c565b82525050565b600062002da9828662002d30565b60208201915062002dbb828562002d30565b60208201915062002dcd828462002d80565b60148201915081905094935050505056fe60806040523480156200001157600080fd5b506040516200230638038062002306833981810160405281019062000037919062000651565b816000815181106200004e576200004d620006eb565b5b6020026020010151600260000190816200006991906200095b565b5081600181518110620000815762000080620006eb565b5b60200260200101516002800190816200009b91906200095b565b5081600281518110620000b357620000b2620006eb565b5b602002602001015160026004019081620000ce91906200095b565b5081600381518110620000e657620000e5620006eb565b5b6020026020010151600260050190816200010191906200095b565b5081600481518110620001195762000118620006eb565b5b6020026020010151600260060190816200013491906200095b565b50816005815181106200014c576200014b620006eb565b5b6020026020010151600260080190816200016791906200095b565b50816006815181106200017f576200017e620006eb565b5b6020026020010151600260090190816200019a91906200095b565b5082600081518110620001b257620001b1620006eb565b5b602002602001015160026001018190555082600181518110620001da57620001d9620006eb565b5b602002602001015160026003018190555082600281518110620002025762000201620006eb565b5b6020026020010151600260070181905550826003815181106200022a5762000229620006eb565b5b60200260200101516002600b018190555082600481518110620002525762000251620006eb565b5b60200260200101516002600c0181905550806002600a018190555050505062000a42565b6000604051905090565b600080fd5b600080fd5b600080fd5b6000601f19601f8301169050919050565b7f4e487b7100000000000000000000000000000000000000000000000000000000600052604160045260246000fd5b620002da826200028f565b810181811067ffffffffffffffff82111715620002fc57620002fb620002a0565b5b80604052505050565b60006200031162000276565b90506200031f8282620002cf565b919050565b600067ffffffffffffffff821115620003425762000341620002a0565b5b602082029050602081019050919050565b600080fd5b6000819050919050565b6200036d8162000358565b81146200037957600080fd5b50565b6000815190506200038d8162000362565b92915050565b6000620003aa620003a48462000324565b62000305565b90508083825260208201905060208402830185811115620003d057620003cf62000353565b5b835b81811015620003fd5780620003e888826200037c565b845260208401935050602081019050620003d2565b5050509392505050565b600082601f8301126200041f576200041e6200028a565b5b81516200043184826020860162000393565b91505092915050565b600067ffffffffffffffff821115620004585762000457620002a0565b5b602082029050602081019050919050565b600080fd5b600067ffffffffffffffff8211156200048c576200048b620002a0565b5b62000497826200028f565b9050602081019050919050565b60005b83811015620004c4578082015181840152602081019050620004a7565b60008484015250505050565b6000620004e7620004e1846200046e565b62000305565b90508281526020810184848401111562000506576200050562000469565b5b62000513848285620004a4565b509392505050565b600082601f8301126200053357620005326200028a565b5b815162000545848260208601620004d0565b91505092915050565b6000620005656200055f846200043a565b62000305565b905080838252602082019050602084028301858111156200058b576200058a62000353565b5b835b81811015620005d957805167ffffffffffffffff811115620005b457620005b36200028a565b5b808601620005c389826200051b565b855260208501945050506020810190506200058d565b5050509392505050565b600082601f830112620005fb57620005fa6200028a565b5b81516200060d8482602086016200054e565b91505092915050565b6000819050919050565b6200062b8162000616565b81146200063757600080fd5b50565b6000815190506200064b8162000620565b92915050565b6000806000606084860312156200066d576200066c62000280565b5b600084015167ffffffffffffffff8111156200068e576200068d62000285565b5b6200069c8682870162000407565b935050602084015167ffffffffffffffff811115620006c057620006bf62000285565b5b620006ce86828701620005e3565b9250506040620006e1868287016200063a565b9150509250925092565b7f4e487b7100000000000000000000000000000000000000000000000000000000600052603260045260246000fd5b600081519050919050565b7f4e487b7100000000000000000000000000000000000000000000000000000000600052602260045260246000fd5b600060028204905060018216806200076d57607f821691505b60208210810362000783576200078262000725565b5b50919050565b60008190508160005260206000209050919050565b60006020601f8301049050919050565b600082821b905092915050565b600060088302620007ed7fffffffffffffffffffffffffffffffffffffffffffffffffffffffffffffffff82620007ae565b620007f98683620007ae565b95508019841693508086168417925050509392505050565b6000819050919050565b60006200083c62000836620008308462000358565b62000811565b62000358565b9050919050565b6000819050919050565b62000858836200081b565b62000870620008678262000843565b848454620007bb565b825550505050565b600090565b6200088762000878565b620008948184846200084d565b505050565b5b81811015620008bc57620008b06000826200087d565b6001810190506200089a565b5050565b601f8211156200090b57620008d58162000789565b620008e0846200079e565b81016020851015620008f0578190505b62000908620008ff856200079e565b83018262000899565b50505b505050565b600082821c905092915050565b6000620009306000198460080262000910565b1980831691505092915050565b60006200094b83836200091d565b9150826002028217905092915050565b62000966826200071a565b67ffffffffffffffff811115620009825762000981620002a0565b5b6200098e825462000754565b6200099b828285620008c0565b600060209050601f831160018114620009d35760008415620009be578287015190505b620009ca85826200093d565b86555062000a3a565b601f198416620009e38662000789565b60005b8281101562000a0d57848901518255600182019150602085019450602081019050620009e6565b8683101562000a2d578489015162000a29601f8916826200091d565b8355505b6001600288020188555050505b505050505050565b6118b48062000a526000396000f3fe608060405234801561001057600080fd5b506004361061009e5760003560e01c806390321988116100665780639032198814610123578063bcd404fa1461013f578063d08145e414610149578063f5c92cda14610167578063f5d19755146101715761009e565b80635426177e146100a3578063651c5d2d146100c15780636d678f52146100df5780637a7d1566146100fb578063856c71dd14610105575b600080fd5b6100ab61018f565b6040516100b8919061112b565b60405180910390f35b6100c9610795565b6040516100d6919061115c565b60405180910390f35b6100f960048036038101906100f491906111b7565b6107bf565b005b610103610886565b005b61010d6108a3565b60405161011a91906111ff565b60405180910390f35b61013d6004803603810190610138919061142d565b6108ba565b005b6101476109a6565b005b610151610adb565b60405161015e91906114ec565b60405180910390f35b61016f610c7e565b005b610179610c9b565b604051610186919061115c565b60405180910390f35b610197610cc4565b6002604051806101c00160405290816000820180546101b59061153d565b80601f01602080910402602001604051908101604052809291908181526020018280546101e19061153d565b801561022e5780601f106102035761010080835404028352916020019161022e565b820191906000526020600020905b81548152906001019060200180831161021157829003601f168201915b50505050508152602001600182015481526020016002820180546102519061153d565b80601f016020809104026020016040519081016040528092919081815260200182805461027d9061153d565b80156102ca5780601f1061029f576101008083540402835291602001916102ca565b820191906000526020600020905b8154815290600101906020018083116102ad57829003601f168201915b50505050508152602001600382015481526020016004820180546102ed9061153d565b80601f01602080910402602001604051908101604052809291908181526020018280546103199061153d565b80156103665780601f1061033b57610100808354040283529160200191610366565b820191906000526020600020905b81548152906001019060200180831161034957829003601f168201915b5050505050815260200160058201805461037f9061153d565b80601f01602080910402602001604051908101604052809291908181526020018280546103ab9061153d565b80156103f85780601f106103cd576101008083540402835291602001916103f8565b820191906000526020600020905b8154815290600101906020018083116103db57829003601f168201915b505050505081526020016006820180546104119061153d565b80601f016020809104026020016040519081016040528092919081815260200182805461043d9061153d565b801561048a5780601f1061045f5761010080835404028352916020019161048a565b820191906000526020600020905b81548152906001019060200180831161046d57829003601f168201915b50505050508152602001600782015481526020016008820180546104ad9061153d565b80601f01602080910402602001604051908101604052809291908181526020018280546104d99061153d565b80156105265780601f106104fb57610100808354040283529160200191610526565b820191906000526020600020905b81548152906001019060200180831161050957829003601f168201915b5050505050815260200160098201805461053f9061153d565b80601f016020809104026020016040519081016040528092919081815260200182805461056b9061153d565b80156105b85780601f1061058d576101008083540402835291602001916105b8565b820191906000526020600020905b81548152906001019060200180831161059b57829003601f168201915b50505050508152602001600a8201548152602001600b8201548152602001600c8201548152602001600d8201805480602002602001604051908101604052809291908181526020016000905b8282101561078857838290600052602060002090600502016040518060a001604052908160008201548152602001600182015481526020016002820160009054906101000a900473ffffffffffffffffffffffffffffffffffffffff1673ffffffffffffffffffffffffffffffffffffffff1673ffffffffffffffffffffffffffffffffffffffff1681526020016003820160009054906101000a900473ffffffffffffffffffffffffffffffffffffffff1673ffffffffffffffffffffffffffffffffffffffff1673ffffffffffffffffffffffffffffffffffffffff1681526020016004820180546106f79061153d565b80601f01602080910402602001604051908101604052809291908181526020018280546107239061153d565b80156107705780601f1061074557610100808354040283529160200191610770565b820191906000526020600020905b81548152906001019060200180831161075357829003601f168201915b50505050508152505081526020019060010190610604565b5050505081525050905090565b6000600160009054906101000a900473ffffffffffffffffffffffffffffffffffffffff16905090565b6107c7610adb565b6060015173ffffffffffffffffffffffffffffffffffffffff163373ffffffffffffffffffffffffffffffffffffffff161461080257600080fd5b33600160006101000a81548173ffffffffffffffffffffffffffffffffffffffff021916908373ffffffffffffffffffffffffffffffffffffffff160217905550806000806101000a81548173ffffffffffffffffffffffffffffffffffffffff021916908373ffffffffffffffffffffffffffffffffffffffff16021790555050565b6001601060006101000a81548160ff021916908315150217905550565b6000601060009054906101000a900460ff16905090565b6002600d01819080600181540180825580915050600190039060005260206000209060050201600090919091909150600082015181600001556020820151816001015560408201518160020160006101000a81548173ffffffffffffffffffffffffffffffffffffffff021916908373ffffffffffffffffffffffffffffffffffffffff16021790555060608201518160030160006101000a81548173ffffffffffffffffffffffffffffffffffffffff021916908373ffffffffffffffffffffffffffffffffffffffff16021790555060808201518160040190816109a0919061171a565b50505050565b3373ffffffffffffffffffffffffffffffffffffffff16600160009054906101000a900473ffffffffffffffffffffffffffffffffffffffff1673ffffffffffffffffffffffffffffffffffffffff161480610a4d57503373ffffffffffffffffffffffffffffffffffffffff1660008054906101000a900473ffffffffffffffffffffffffffffffffffffffff1673ffffffffffffffffffffffffffffffffffffffff16145b610a5657600080fd5b6000600160006101000a81548173ffffffffffffffffffffffffffffffffffffffff021916908373ffffffffffffffffffffffffffffffffffffffff16021790555060008060006101000a81548173ffffffffffffffffffffffffffffffffffffffff021916908373ffffffffffffffffffffffffffffffffffffffff160217905550565b610ae3610d36565b6002600d0160016002600d0180549050610afd919061181b565b81548110610b0e57610b0d61184f565b5b90600052602060002090600502016040518060a001604052908160008201548152602001600182015481526020016002820160009054906101000a900473ffffffffffffffffffffffffffffffffffffffff1673ffffffffffffffffffffffffffffffffffffffff1673ffffffffffffffffffffffffffffffffffffffff1681526020016003820160009054906101000a900473ffffffffffffffffffffffffffffffffffffffff1673ffffffffffffffffffffffffffffffffffffffff1673ffffffffffffffffffffffffffffffffffffffff168152602001600482018054610bf79061153d565b80601f0160208091040260200160405190810160405280929190818152602001828054610c239061153d565b8015610c705780601f10610c4557610100808354040283529160200191610c70565b820191906000526020600020905b815481529060010190602001808311610c5357829003601f168201915b505050505081525050905090565b6000601060006101000a81548160ff021916908315150217905550565b60008060009054906101000a900473ffffffffffffffffffffffffffffffffffffffff16905090565b604051806101c0016040528060608152602001600081526020016060815260200160008152602001606081526020016060815260200160608152602001600081526020016060815260200160608152602001600080191681526020016000815260200160008152602001606081525090565b6040518060a001604052806000815260200160008152602001600073ffffffffffffffffffffffffffffffffffffffff168152602001600073ffffffffffffffffffffffffffffffffffffffff168152602001606081525090565b600081519050919050565b600082825260208201905092915050565b60005b83811015610dcb578082015181840152602081019050610db0565b60008484015250505050565b6000601f19601f8301169050919050565b6000610df382610d91565b610dfd8185610d9c565b9350610e0d818560208601610dad565b610e1681610dd7565b840191505092915050565b6000819050919050565b610e3481610e21565b82525050565b6000819050919050565b610e4d81610e3a565b82525050565b600081519050919050565b600082825260208201905092915050565b6000819050602082019050919050565b600073ffffffffffffffffffffffffffffffffffffffff82169050919050565b6000610eaa82610e7f565b9050919050565b610eba81610e9f565b82525050565b600060a083016000830151610ed86000860182610e2b565b506020830151610eeb6020860182610e2b565b506040830151610efe6040860182610eb1565b506060830151610f116060860182610eb1565b5060808301518482036080860152610f298282610de8565b9150508091505092915050565b6000610f428383610ec0565b905092915050565b6000602082019050919050565b6000610f6282610e53565b610f6c8185610e5e565b935083602082028501610f7e85610e6f565b8060005b85811015610fba5784840389528151610f9b8582610f36565b9450610fa683610f4a565b925060208a01995050600181019050610f82565b50829750879550505050505092915050565b60006101c0830160008301518482036000860152610fea8282610de8565b9150506020830151610fff6020860182610e2b565b50604083015184820360408601526110178282610de8565b915050606083015161102c6060860182610e2b565b50608083015184820360808601526110448282610de8565b91505060a083015184820360a086015261105e8282610de8565b91505060c083015184820360c08601526110788282610de8565b91505060e083015161108d60e0860182610e2b565b506101008301518482036101008601526110a78282610de8565b9150506101208301518482036101208601526110c38282610de8565b9150506101408301516110da610140860182610e44565b506101608301516110ef610160860182610e2b565b50610180830151611104610180860182610e2b565b506101a08301518482036101a086015261111e8282610f57565b9150508091505092915050565b600060208201905081810360008301526111458184610fcc565b905092915050565b61115681610e9f565b82525050565b6000602082019050611171600083018461114d565b92915050565b6000604051905090565b600080fd5b600080fd5b61119481610e9f565b811461119f57600080fd5b50565b6000813590506111b18161118b565b92915050565b6000602082840312156111cd576111cc611181565b5b60006111db848285016111a2565b91505092915050565b60008115159050919050565b6111f9816111e4565b82525050565b600060208201905061121460008301846111f0565b92915050565b600080fd5b7f4e487b7100000000000000000000000000000000000000000000000000000000600052604160045260246000fd5b61125782610dd7565b810181811067ffffffffffffffff821117156112765761127561121f565b5b80604052505050565b6000611289611177565b9050611295828261124e565b919050565b600080fd5b6112a881610e21565b81146112b357600080fd5b50565b6000813590506112c58161129f565b92915050565b600080fd5b600080fd5b600067ffffffffffffffff8211156112f0576112ef61121f565b5b6112f982610dd7565b9050602081019050919050565b82818337600083830152505050565b6000611328611323846112d5565b61127f565b905082815260208101848484011115611344576113436112d0565b5b61134f848285611306565b509392505050565b600082601f83011261136c5761136b6112cb565b5b813561137c848260208601611315565b91505092915050565b600060a0828403121561139b5761139a61121a565b5b6113a560a061127f565b905060006113b5848285016112b6565b60008301525060206113c9848285016112b6565b60208301525060406113dd848285016111a2565b60408301525060606113f1848285016111a2565b606083015250608082013567ffffffffffffffff8111156114155761141461129a565b5b61142184828501611357565b60808301525092915050565b60006020828403121561144357611442611181565b5b600082013567ffffffffffffffff81111561146157611460611186565b5b61146d84828501611385565b91505092915050565b600060a08301600083015161148e6000860182610e2b565b5060208301516114a16020860182610e2b565b5060408301516114b46040860182610eb1565b5060608301516114c76060860182610eb1565b50608083015184820360808601526114df8282610de8565b9150508091505092915050565b600060208201905081810360008301526115068184611476565b905092915050565b7f4e487b7100000000000000000000000000000000000000000000000000000000600052602260045260246000fd5b6000600282049050600182168061155557607f821691505b6020821081036115685761156761150e565b5b50919050565b60008190508160005260206000209050919050565b60006020601f8301049050919050565b600082821b905092915050565b6000600883026115d07fffffffffffffffffffffffffffffffffffffffffffffffffffffffffffffffff82611593565b6115da8683611593565b95508019841693508086168417925050509392505050565b6000819050919050565b600061161761161261160d84610e21565b6115f2565b610e21565b9050919050565b6000819050919050565b611631836115fc565b61164561163d8261161e565b8484546115a0565b825550505050565b600090565b61165a61164d565b611665818484611628565b505050565b5b818110156116895761167e600082611652565b60018101905061166b565b5050565b601f8211156116ce5761169f8161156e565b6116a884611583565b810160208510156116b7578190505b6116cb6116c385611583565b83018261166a565b50505b505050565b600082821c905092915050565b60006116f1600019846008026116d3565b1980831691505092915050565b600061170a83836116e0565b9150826002028217905092915050565b61172382610d91565b67ffffffffffffffff81111561173c5761173b61121f565b5b611746825461153d565b61175182828561168d565b600060209050601f8311600181146117845760008415611772578287015190505b61177c85826116fe565b8655506117e4565b601f1984166117928661156e565b60005b828110156117ba57848901518255600182019150602085019450602081019050611795565b868310156117d757848901516117d3601f8916826116e0565b8355505b6001600288020188555050505b505050505050565b7f4e487b7100000000000000000000000000000000000000000000000000000000600052601160045260246000fd5b600061182682610e21565b915061183183610e21565b9250828203905081811115611849576118486117ec565b5b92915050565b7f4e487b7100000000000000000000000000000000000000000000000000000000600052603260045260246000fdfea2646970667358221220d2bf8354329127f9fb0e5a1d3b3574d53c101c395115af43a5f0e3dfdcb3642764736f6c63430008110033a26469706673582212208d39e15a054f15327420bdcf349fbc2cdaac9399cb4b6364cbc45f891a8afe3164736f6c63430008110033",
  "immutableReferences": {},
  "source": "// SPDX-License-Identifier: MIT\n\npragma solidity ^0.8.17;\n\nimport \"./form.sol\";\n\n// This is a special contract that generates Form contracts, that have their own methods to generate and update their\n// attributes, while keeping track of all the forms in the blockchain.\n\ncontract FormFactory {\n    // Events are a way for contract to communicate that something happened on the blockchain to your app front-end,\n    // which can be 'listening' for certain events and take action when they happen.\n\n    // newForm: Event to be emitted when a new form is created.\n    // NOTE: If more fields are needed, change the emit in createForm.\n    event newForm(uint caseNumber, address caseAddress, FormData data);\n    event formFound(address caseAddress, FormData data);\n\n    // Mapping to store the forms for the evidence of the cases.\n    mapping(address => Form) private addressToForm;\n    // Mapping to store the addresses of the forms currently in charge of every user.\n    mapping(address => address[]) private userToFormAddresses;\n    // Array to store the addresses of the forms for the evidence of the cases.\n    address[] private listFormAddress; // TODO: private?\n\n    /**\n     *   @dev Function to create a new form for the evidence of the case.\n     *\n     *   @param _numbers All numerical information in the form\n     *   @param _strings All textual information in the form\n     *   @param _hashValue Hash value of the evidence\n     */\n    function createForm(\n        uint[] memory _numbers,\n        string[] memory _strings,\n        bytes32 _hashValue\n    ) public returns (address) {\n        // Generation of new address for the form.\n        address entityAddress = createAddress();\n        // Creation of the new Form directly in the mapping object\n        addressToForm[entityAddress] = new Form(_numbers, _strings, _hashValue);\n        addressToForm[entityAddress].pushLog(\n            Log(0, block.timestamp, msg.sender, msg.sender, \"Form created\")\n        );\n        userToFormAddresses[msg.sender].push(entityAddress);\n        // Emit the event newForm.\n        emit newForm(\n            _numbers[0],\n            entityAddress,\n            readFormAddress(entityAddress)\n        );\n        return entityAddress;\n    }\n\n    /**\n     *   @dev Function to get a form from its address.\n     *\n     *   @param _caseAddress address of the case\n     *\n     *   @return Form form required\n     */\n    function findForm(address _caseAddress) public view returns (Form) {\n        return addressToForm[_caseAddress];\n    }\n\n    /**\n     *   @dev Function to get form data from itself.\n     *\n     *   @param _form form which data is required\n     *\n     *   @return FormData Struct that contains the data of the form\n     */\n    function readForm(Form _form) public view returns (FormData memory) {\n        return _form.readForm();\n    }\n\n    /**\n     *   @dev Function to get form data from an address.\n     *\n     *   @param _caseAddress address of the case\n     *\n     *   @return FormData Struct that contains the data of the form required\n     */\n    function readFormAddress(\n        address _caseAddress\n    ) public view returns (FormData memory) {\n        return readForm(findForm(_caseAddress));\n    }\n\n    /**\n     *   @dev Function that compute a random address.\n     *\n     *   @return address randomly generated\n     */\n    function createAddress() private view returns (address) {\n        return\n            address(\n                uint160(\n                    uint(\n                        keccak256(\n                            abi.encodePacked(\n                                block.timestamp,\n                                block.difficulty,\n                                msg.sender\n                            )\n                        )\n                    )\n                )\n            );\n    }\n\n    /**\n     *   @dev Function that returns the forms in charge of an user.\n     *\n     *   @return address array with addresses of forms in charge of an user\n     */\n    function getUserFormAddresses(\n        address _userAddress\n    ) public view returns (address[] memory) {\n        return userToFormAddresses[_userAddress];\n    }\n\n    /**\n     *   @dev Function that makes msg.sender the new owner of a free form.\n     *\n     *   @param _formAddress address of the form\n     *\n     *   @param _reason reason for taking the form (necessary in the chain of custody)\n     *\n     */\n    function getForm(address _formAddress, string memory _reason) public {\n        require(findForm(_formAddress).isAvailable()); // the form must be available in order to be taken\n        findForm(_formAddress).pushLog(\n            Log( // push of a new log in the chain of custody\n                findForm(_formAddress).lastLog().trackingNumber + 1,\n                block.timestamp,\n                findForm(_formAddress).lastLog().receivedBy,\n                msg.sender,\n                _reason\n            )\n        );\n        userToFormAddresses[msg.sender].push(_formAddress); // the form is now added to msg.sender owned forms\n        findForm(_formAddress).setTaken(); // and is marked as not available, no one could take it now\n    }\n\n    /**\n     *   @dev Function that makes a form available, if msg.sender is the current owner.\n     *\n     *   @param _formAddress address of the form to free\n     *\n     */\n    function releaseForm(address _formAddress) public {\n        require(findForm(_formAddress).lastLog().receivedBy == msg.sender); // run only if current owner is msg.sender\n        findForm(_formAddress).setAvailable(); // form is now marked as available\n        removeAddressInAUserList(msg.sender, _formAddress); // and its address is removed from msg.sender list\n    }\n\n    /**\n     *   @dev Function that makes a form available for a given user, if msg.sender is the current owner.\n     *\n     *   @param _formAddress address of the form to give to a user\n     *\n     *   @param _taker address of the future owner of the form\n     */\n    function giveForm(address _formAddress, address _taker) public {\n        require(findForm(_formAddress).lastLog().receivedBy == msg.sender); // run only if current owner is msg.sender\n        findForm(_formAddress).setGiverTaker(_taker);\n        // mandare un evento??\n    }\n\n    /**\n     *   @dev Function that accept a form that has been sent to them.\n     *\n     *   @param _formAddress address of the form to accept\n     *\n     *   @param _reason reason to accept the form\n     */\n    function acceptForm(address _formAddress, string memory _reason) public {\n        require(findForm(_formAddress).getTaker() == msg.sender); // run only if current owner is msg.sender\n        userToFormAddresses[msg.sender].push(_formAddress); // the form is now added to msg.sender owned forms\n        findForm(_formAddress).pushLog(\n            Log( // push of a new log in the chain of custody\n                findForm(_formAddress).lastLog().trackingNumber + 1,\n                block.timestamp,\n                findForm(_formAddress).lastLog().receivedBy,\n                msg.sender,\n                _reason\n            )\n        );\n        removeAddressInAUserList(\n            findForm(_formAddress).getGiver(),\n            _formAddress\n        );\n        findForm(_formAddress).resetGiverTaker();\n    }\n\n    /**\n     *   @dev Function that rejects a form that has been sent to them.\n     *\n     *   @param _formAddress form to reject\n     */\n    function rejectForm(address _formAddress) public {\n        require(findForm(_formAddress).getTaker() == msg.sender);\n        findForm(_formAddress).resetGiverTaker();\n    }\n\n    /**\n     *   @dev Function that removes a certain address of a certain user.\n     *\n     *   @param _userAddress address of the user we want to take the evidence from\n     *\n     *   @param _formAddress address of the form we want to remove from _userAddress\n     */\n    function removeAddressInAUserList(\n        address _userAddress,\n        address _formAddress\n    ) private {\n        require(userToFormAddresses[_userAddress].length > 0);\n\n        uint userAddressesLength = userToFormAddresses[_userAddress].length;\n\n        for (uint i = 0; i < userAddressesLength; i++) {\n            // look into the addresses linked to _userAddress\n            if (userToFormAddresses[_userAddress][i] == _formAddress) {\n                // copy the last element in the index we want to remove\n                userToFormAddresses[_userAddress][i] = userToFormAddresses[\n                    _userAddress\n                ][userAddressesLength - 1];\n                userToFormAddresses[_userAddress].pop(); // remove the last element\n            }\n        }\n    }\n\n    function isAFormAvailable(address _formAddress) public view returns (bool) {\n        return findForm(_formAddress).isAvailable();\n    }\n}\n",
  "sourcePath": "/Users/lorenzocrespan/Documents/Workspace/University/90748 - Blockchain and Cryptocurrencies/BlueWoodchuck/project/blockchain/contracts/contracts/formFactory.sol",
  "compiler": {
    "name": "solc",
    "version": "0.8.17+commit.8df45f5f.Emscripten.clang"
  },
  "schemaVersion": "3.4.12",
  "updatedAt": "2023-03-08T22:04:04.198Z",
  "networkType": "ethereum",
  "devdoc": {
    "kind": "dev",
    "methods": {
      "acceptForm(address,string)": {
        "details": "Function that accept a form that has been sent to them.",
        "params": {
          "_formAddress": "address of the form to accept",
          "_reason": "reason to accept the form"
        }
      },
      "createForm(uint256[],string[],bytes32)": {
        "details": "Function to create a new form for the evidence of the case.",
        "params": {
          "_hashValue": "Hash value of the evidence",
          "_numbers": "All numerical information in the form",
          "_strings": "All textual information in the form"
        }
      },
      "findForm(address)": {
        "details": "Function to get a form from its address.",
        "params": {
          "_caseAddress": "address of the case"
        },
        "returns": {
          "_0": "Form form required"
        }
      },
      "getForm(address,string)": {
        "details": "Function that makes msg.sender the new owner of a free form.",
        "params": {
          "_formAddress": "address of the form",
          "_reason": "reason for taking the form (necessary in the chain of custody)"
        }
      },
      "getUserFormAddresses(address)": {
        "details": "Function that returns the forms in charge of an user.",
        "returns": {
          "_0": "address array with addresses of forms in charge of an user"
        }
      },
      "giveForm(address,address)": {
        "details": "Function that makes a form available for a given user, if msg.sender is the current owner.",
        "params": {
          "_formAddress": "address of the form to give to a user",
          "_taker": "address of the future owner of the form"
        }
      },
      "readForm(address)": {
        "details": "Function to get form data from itself.",
        "params": {
          "_form": "form which data is required"
        },
        "returns": {
          "_0": "FormData Struct that contains the data of the form"
        }
      },
      "readFormAddress(address)": {
        "details": "Function to get form data from an address.",
        "params": {
          "_caseAddress": "address of the case"
        },
        "returns": {
          "_0": "FormData Struct that contains the data of the form required"
        }
      },
      "rejectForm(address)": {
        "details": "Function that rejects a form that has been sent to them.",
        "params": {
          "_formAddress": "form to reject"
        }
      },
      "releaseForm(address)": {
        "details": "Function that makes a form available, if msg.sender is the current owner.",
        "params": {
          "_formAddress": "address of the form to free"
        }
      }
    },
    "version": 1
  },
  "userdoc": {
    "kind": "user",
    "methods": {},
    "version": 1
  }
}