{
  "contractName": "Form",
  "abi": [
    {
      "inputs": [
        {
          "internalType": "uint256[]",
          "name": "_numbers",
          "type": "uint256[]"
        },
        {
          "internalType": "string[]",
          "name": "_strings",
          "type": "string[]"
        },
        {
          "internalType": "bytes32",
          "name": "_hashValue",
          "type": "bytes32"
        }
      ],
      "stateMutability": "nonpayable",
      "type": "constructor"
    },
    {
      "anonymous": false,
      "inputs": [
        {
          "indexed": false,
          "internalType": "address",
          "name": "giver",
          "type": "address"
        },
        {
          "indexed": false,
          "internalType": "address",
          "name": "taker",
          "type": "address"
        }
      ],
      "name": "giverTakerSet",
      "type": "event"
    },
    {
      "anonymous": false,
      "inputs": [
        {
          "indexed": false,
          "internalType": "address",
          "name": "giver",
          "type": "address"
        },
        {
          "indexed": false,
          "internalType": "address",
          "name": "taker",
          "type": "address"
        }
      ],
      "name": "resetDone",
      "type": "event"
    },
    {
      "inputs": [],
      "name": "readForm",
      "outputs": [
        {
          "components": [
            {
              "internalType": "string",
              "name": "caseName",
              "type": "string"
            },
            {
              "internalType": "uint256",
              "name": "caseNumber",
              "type": "uint256"
            },
            {
              "internalType": "string",
              "name": "reasonObtained",
              "type": "string"
            },
            {
              "internalType": "uint256",
              "name": "itemNumber",
              "type": "uint256"
            },
            {
              "internalType": "string",
              "name": "evidenceTypeManufacturer",
              "type": "string"
            },
            {
              "internalType": "string",
              "name": "owner",
              "type": "string"
            },
            {
              "internalType": "string",
              "name": "contentDescription",
              "type": "string"
            },
            {
              "internalType": "uint256",
              "name": "contentOwnerContactInformation",
              "type": "uint256"
            },
            {
              "internalType": "string",
              "name": "forensicAgent",
              "type": "string"
            },
            {
              "internalType": "bytes32",
              "name": "hashValue",
              "type": "bytes32"
            },
            {
              "internalType": "uint256",
              "name": "date",
              "type": "uint256"
            },
            {
              "internalType": "uint256",
              "name": "forensicAgentContactInformation",
              "type": "uint256"
            },
            {
              "components": [
                {
                  "internalType": "uint256",
                  "name": "trackingNumber",
                  "type": "uint256"
                },
                {
                  "internalType": "uint256",
                  "name": "timestamp",
                  "type": "uint256"
                },
                {
                  "internalType": "address",
                  "name": "releasedBy",
                  "type": "address"
                },
                {
                  "internalType": "address",
                  "name": "receivedBy",
                  "type": "address"
                },
                {
                  "internalType": "string",
                  "name": "reasonForChange",
                  "type": "string"
                }
              ],
              "internalType": "struct Log[]",
              "name": "chainOfCustody",
              "type": "tuple[]"
            }
          ],
          "internalType": "struct FormData",
          "name": "",
          "type": "tuple"
        }
      ],
      "stateMutability": "view",
      "type": "function"
    },
    {
      "inputs": [
        {
          "components": [
            {
              "internalType": "uint256",
              "name": "trackingNumber",
              "type": "uint256"
            },
            {
              "internalType": "uint256",
              "name": "timestamp",
              "type": "uint256"
            },
            {
              "internalType": "address",
              "name": "releasedBy",
              "type": "address"
            },
            {
              "internalType": "address",
              "name": "receivedBy",
              "type": "address"
            },
            {
              "internalType": "string",
              "name": "reasonForChange",
              "type": "string"
            }
          ],
          "internalType": "struct Log",
          "name": "_log",
          "type": "tuple"
        }
      ],
      "name": "pushLog",
      "outputs": [],
      "stateMutability": "nonpayable",
      "type": "function"
    },
    {
      "inputs": [],
      "name": "lastLog",
      "outputs": [
        {
          "components": [
            {
              "internalType": "uint256",
              "name": "trackingNumber",
              "type": "uint256"
            },
            {
              "internalType": "uint256",
              "name": "timestamp",
              "type": "uint256"
            },
            {
              "internalType": "address",
              "name": "releasedBy",
              "type": "address"
            },
            {
              "internalType": "address",
              "name": "receivedBy",
              "type": "address"
            },
            {
              "internalType": "string",
              "name": "reasonForChange",
              "type": "string"
            }
          ],
          "internalType": "struct Log",
          "name": "",
          "type": "tuple"
        }
      ],
      "stateMutability": "view",
      "type": "function"
    },
    {
      "inputs": [],
      "name": "isAvailable",
      "outputs": [
        {
          "internalType": "bool",
          "name": "",
          "type": "bool"
        }
      ],
      "stateMutability": "view",
      "type": "function"
    },
    {
      "inputs": [],
      "name": "setAvailable",
      "outputs": [],
      "stateMutability": "nonpayable",
      "type": "function"
    },
    {
      "inputs": [],
      "name": "setTaken",
      "outputs": [],
      "stateMutability": "nonpayable",
      "type": "function"
    },
    {
      "inputs": [
        {
          "internalType": "address",
          "name": "_giver",
          "type": "address"
        },
        {
          "internalType": "address",
          "name": "_taker",
          "type": "address"
        }
      ],
      "name": "setGiverTaker",
      "outputs": [
        {
          "internalType": "bool",
          "name": "",
          "type": "bool"
        }
      ],
      "stateMutability": "nonpayable",
      "type": "function"
    },
    {
      "inputs": [],
      "name": "resetGiverTaker",
      "outputs": [],
      "stateMutability": "nonpayable",
      "type": "function"
    },
    {
      "inputs": [],
      "name": "getTaker",
      "outputs": [
        {
          "internalType": "address",
          "name": "",
          "type": "address"
        }
      ],
      "stateMutability": "view",
      "type": "function"
    },
    {
      "inputs": [],
      "name": "getGiver",
      "outputs": [
        {
          "internalType": "address",
          "name": "",
          "type": "address"
        }
      ],
      "stateMutability": "view",
      "type": "function"
    }
  ],
  "bytecode": "0x60806040523480156200001157600080fd5b506040516200227a3803806200227a83398181016040528101906200003791906200061e565b816000815181106200004e576200004d620006b8565b5b60200260200101516002600001908162000069919062000928565b5081600181518110620000815762000080620006b8565b5b60200260200101516002800190816200009b919062000928565b5081600281518110620000b357620000b2620006b8565b5b602002602001015160026004019081620000ce919062000928565b5081600381518110620000e657620000e5620006b8565b5b60200260200101516002600501908162000101919062000928565b5081600481518110620001195762000118620006b8565b5b60200260200101516002600601908162000134919062000928565b50816005815181106200014c576200014b620006b8565b5b60200260200101516002600801908162000167919062000928565b50826000815181106200017f576200017e620006b8565b5b602002602001015160026001018190555082600181518110620001a757620001a6620006b8565b5b602002602001015160026003018190555082600281518110620001cf57620001ce620006b8565b5b602002602001015160026007018190555082600381518110620001f757620001f6620006b8565b5b60200260200101516002600a0181905550826004815181106200021f576200021e620006b8565b5b60200260200101516002600b01819055508060026009018190555050505062000a0f565b6000604051905090565b600080fd5b600080fd5b600080fd5b6000601f19601f8301169050919050565b7f4e487b7100000000000000000000000000000000000000000000000000000000600052604160045260246000fd5b620002a7826200025c565b810181811067ffffffffffffffff82111715620002c957620002c86200026d565b5b80604052505050565b6000620002de62000243565b9050620002ec82826200029c565b919050565b600067ffffffffffffffff8211156200030f576200030e6200026d565b5b602082029050602081019050919050565b600080fd5b6000819050919050565b6200033a8162000325565b81146200034657600080fd5b50565b6000815190506200035a816200032f565b92915050565b6000620003776200037184620002f1565b620002d2565b905080838252602082019050602084028301858111156200039d576200039c62000320565b5b835b81811015620003ca5780620003b5888262000349565b8452602084019350506020810190506200039f565b5050509392505050565b600082601f830112620003ec57620003eb62000257565b5b8151620003fe84826020860162000360565b91505092915050565b600067ffffffffffffffff8211156200042557620004246200026d565b5b602082029050602081019050919050565b600080fd5b600067ffffffffffffffff8211156200045957620004586200026d565b5b62000464826200025c565b9050602081019050919050565b60005b838110156200049157808201518184015260208101905062000474565b60008484015250505050565b6000620004b4620004ae846200043b565b620002d2565b905082815260208101848484011115620004d357620004d262000436565b5b620004e084828562000471565b509392505050565b600082601f8301126200050057620004ff62000257565b5b8151620005128482602086016200049d565b91505092915050565b6000620005326200052c8462000407565b620002d2565b9050808382526020820190506020840283018581111562000558576200055762000320565b5b835b81811015620005a657805167ffffffffffffffff81111562000581576200058062000257565b5b808601620005908982620004e8565b855260208501945050506020810190506200055a565b5050509392505050565b600082601f830112620005c857620005c762000257565b5b8151620005da8482602086016200051b565b91505092915050565b6000819050919050565b620005f881620005e3565b81146200060457600080fd5b50565b6000815190506200061881620005ed565b92915050565b6000806000606084860312156200063a57620006396200024d565b5b600084015167ffffffffffffffff8111156200065b576200065a62000252565b5b6200066986828701620003d4565b935050602084015167ffffffffffffffff8111156200068d576200068c62000252565b5b6200069b86828701620005b0565b9250506040620006ae8682870162000607565b9150509250925092565b7f4e487b7100000000000000000000000000000000000000000000000000000000600052603260045260246000fd5b600081519050919050565b7f4e487b7100000000000000000000000000000000000000000000000000000000600052602260045260246000fd5b600060028204905060018216806200073a57607f821691505b60208210810362000750576200074f620006f2565b5b50919050565b60008190508160005260206000209050919050565b60006020601f8301049050919050565b600082821b905092915050565b600060088302620007ba7fffffffffffffffffffffffffffffffffffffffffffffffffffffffffffffffff826200077b565b620007c686836200077b565b95508019841693508086168417925050509392505050565b6000819050919050565b60006200080962000803620007fd8462000325565b620007de565b62000325565b9050919050565b6000819050919050565b6200082583620007e8565b6200083d620008348262000810565b84845462000788565b825550505050565b600090565b6200085462000845565b620008618184846200081a565b505050565b5b8181101562000889576200087d6000826200084a565b60018101905062000867565b5050565b601f821115620008d857620008a28162000756565b620008ad846200076b565b81016020851015620008bd578190505b620008d5620008cc856200076b565b83018262000866565b50505b505050565b600082821c905092915050565b6000620008fd60001984600802620008dd565b1980831691505092915050565b6000620009188383620008ea565b9150826002028217905092915050565b6200093382620006e7565b67ffffffffffffffff8111156200094f576200094e6200026d565b5b6200095b825462000721565b620009688282856200088d565b600060209050601f831160018114620009a057600084156200098b578287015190505b6200099785826200090a565b86555062000a07565b601f198416620009b08662000756565b60005b82811015620009da57848901518255600182019150602085019450602081019050620009b3565b86831015620009fa5784890151620009f6601f891682620008ea565b8355505b6001600288020188555050505b505050505050565b61185b8062000a1f6000396000f3fe608060405234801561001057600080fd5b506004361061009e5760003560e01c806390321988116100665780639032198814610137578063bcd404fa14610153578063d08145e41461015d578063f5c92cda1461017b578063f5d19755146101855761009e565b8063144610d6146100a35780635426177e146100d3578063651c5d2d146100f15780637a7d15661461010f578063856c71dd14610119575b600080fd5b6100bd60048036038101906100b89190610d8a565b6101a3565b6040516100ca9190610de5565b60405180910390f35b6100db6102ab565b6040516100e8919061114c565b60405180910390f35b6100f961081f565b604051610106919061117d565b60405180910390f35b610117610849565b005b610121610866565b60405161012e9190610de5565b60405180910390f35b610151600480360381019061014c91906113ab565b61087d565b005b61015b610969565b005b610165610a69565b604051610172919061146a565b60405180910390f35b610183610c0c565b005b61018d610c29565b60405161019a919061117d565b60405180910390f35b600082600160006101000a81548173ffffffffffffffffffffffffffffffffffffffff021916908373ffffffffffffffffffffffffffffffffffffffff160217905550816000806101000a81548173ffffffffffffffffffffffffffffffffffffffff021916908373ffffffffffffffffffffffffffffffffffffffff1602179055507f22026653417e6fbbc2650a9b4cef7b576c347eb94e0a4f4345886e6acdd824f2600160009054906101000a900473ffffffffffffffffffffffffffffffffffffffff1660008054906101000a900473ffffffffffffffffffffffffffffffffffffffff1660405161029992919061148c565b60405180910390a16001905092915050565b6102b3610c52565b6002604051806101a00160405290816000820180546102d1906114e4565b80601f01602080910402602001604051908101604052809291908181526020018280546102fd906114e4565b801561034a5780601f1061031f5761010080835404028352916020019161034a565b820191906000526020600020905b81548152906001019060200180831161032d57829003601f168201915b505050505081526020016001820154815260200160028201805461036d906114e4565b80601f0160208091040260200160405190810160405280929190818152602001828054610399906114e4565b80156103e65780601f106103bb576101008083540402835291602001916103e6565b820191906000526020600020905b8154815290600101906020018083116103c957829003601f168201915b5050505050815260200160038201548152602001600482018054610409906114e4565b80601f0160208091040260200160405190810160405280929190818152602001828054610435906114e4565b80156104825780601f1061045757610100808354040283529160200191610482565b820191906000526020600020905b81548152906001019060200180831161046557829003601f168201915b5050505050815260200160058201805461049b906114e4565b80601f01602080910402602001604051908101604052809291908181526020018280546104c7906114e4565b80156105145780601f106104e957610100808354040283529160200191610514565b820191906000526020600020905b8154815290600101906020018083116104f757829003601f168201915b5050505050815260200160068201805461052d906114e4565b80601f0160208091040260200160405190810160405280929190818152602001828054610559906114e4565b80156105a65780601f1061057b576101008083540402835291602001916105a6565b820191906000526020600020905b81548152906001019060200180831161058957829003601f168201915b50505050508152602001600782015481526020016008820180546105c9906114e4565b80601f01602080910402602001604051908101604052809291908181526020018280546105f5906114e4565b80156106425780601f1061061757610100808354040283529160200191610642565b820191906000526020600020905b81548152906001019060200180831161062557829003601f168201915b5050505050815260200160098201548152602001600a8201548152602001600b8201548152602001600c8201805480602002602001604051908101604052809291908181526020016000905b8282101561081257838290600052602060002090600502016040518060a001604052908160008201548152602001600182015481526020016002820160009054906101000a900473ffffffffffffffffffffffffffffffffffffffff1673ffffffffffffffffffffffffffffffffffffffff1673ffffffffffffffffffffffffffffffffffffffff1681526020016003820160009054906101000a900473ffffffffffffffffffffffffffffffffffffffff1673ffffffffffffffffffffffffffffffffffffffff1673ffffffffffffffffffffffffffffffffffffffff168152602001600482018054610781906114e4565b80601f01602080910402602001604051908101604052809291908181526020018280546107ad906114e4565b80156107fa5780601f106107cf576101008083540402835291602001916107fa565b820191906000526020600020905b8154815290600101906020018083116107dd57829003601f168201915b5050505050815250508152602001906001019061068e565b5050505081525050905090565b6000600160009054906101000a900473ffffffffffffffffffffffffffffffffffffffff16905090565b6001600f60006101000a81548160ff021916908315150217905550565b6000600f60009054906101000a900460ff16905090565b6002600c01819080600181540180825580915050600190039060005260206000209060050201600090919091909150600082015181600001556020820151816001015560408201518160020160006101000a81548173ffffffffffffffffffffffffffffffffffffffff021916908373ffffffffffffffffffffffffffffffffffffffff16021790555060608201518160030160006101000a81548173ffffffffffffffffffffffffffffffffffffffff021916908373ffffffffffffffffffffffffffffffffffffffff160217905550608082015181600401908161096391906116c1565b50505050565b6000600160006101000a81548173ffffffffffffffffffffffffffffffffffffffff021916908373ffffffffffffffffffffffffffffffffffffffff16021790555060008060006101000a81548173ffffffffffffffffffffffffffffffffffffffff021916908373ffffffffffffffffffffffffffffffffffffffff1602179055507f27f5f16bf3c2ec0bedcb00fd7ff054996a34b397ff24da30f34dbe9c2fc385af600160009054906101000a900473ffffffffffffffffffffffffffffffffffffffff1660008054906101000a900473ffffffffffffffffffffffffffffffffffffffff16604051610a5f92919061148c565b60405180910390a1565b610a71610cbd565b6002600c0160016002600c0180549050610a8b91906117c2565b81548110610a9c57610a9b6117f6565b5b90600052602060002090600502016040518060a001604052908160008201548152602001600182015481526020016002820160009054906101000a900473ffffffffffffffffffffffffffffffffffffffff1673ffffffffffffffffffffffffffffffffffffffff1673ffffffffffffffffffffffffffffffffffffffff1681526020016003820160009054906101000a900473ffffffffffffffffffffffffffffffffffffffff1673ffffffffffffffffffffffffffffffffffffffff1673ffffffffffffffffffffffffffffffffffffffff168152602001600482018054610b85906114e4565b80601f0160208091040260200160405190810160405280929190818152602001828054610bb1906114e4565b8015610bfe5780601f10610bd357610100808354040283529160200191610bfe565b820191906000526020600020905b815481529060010190602001808311610be157829003601f168201915b505050505081525050905090565b6000600f60006101000a81548160ff021916908315150217905550565b60008060009054906101000a900473ffffffffffffffffffffffffffffffffffffffff16905090565b604051806101a00160405280606081526020016000815260200160608152602001600081526020016060815260200160608152602001606081526020016000815260200160608152602001600080191681526020016000815260200160008152602001606081525090565b6040518060a001604052806000815260200160008152602001600073ffffffffffffffffffffffffffffffffffffffff168152602001600073ffffffffffffffffffffffffffffffffffffffff168152602001606081525090565b6000604051905090565b600080fd5b600080fd5b600073ffffffffffffffffffffffffffffffffffffffff82169050919050565b6000610d5782610d2c565b9050919050565b610d6781610d4c565b8114610d7257600080fd5b50565b600081359050610d8481610d5e565b92915050565b60008060408385031215610da157610da0610d22565b5b6000610daf85828601610d75565b9250506020610dc085828601610d75565b9150509250929050565b60008115159050919050565b610ddf81610dca565b82525050565b6000602082019050610dfa6000830184610dd6565b92915050565b600081519050919050565b600082825260208201905092915050565b60005b83811015610e3a578082015181840152602081019050610e1f565b60008484015250505050565b6000601f19601f8301169050919050565b6000610e6282610e00565b610e6c8185610e0b565b9350610e7c818560208601610e1c565b610e8581610e46565b840191505092915050565b6000819050919050565b610ea381610e90565b82525050565b6000819050919050565b610ebc81610ea9565b82525050565b600081519050919050565b600082825260208201905092915050565b6000819050602082019050919050565b610ef781610d4c565b82525050565b600060a083016000830151610f156000860182610e9a565b506020830151610f286020860182610e9a565b506040830151610f3b6040860182610eee565b506060830151610f4e6060860182610eee565b5060808301518482036080860152610f668282610e57565b9150508091505092915050565b6000610f7f8383610efd565b905092915050565b6000602082019050919050565b6000610f9f82610ec2565b610fa98185610ecd565b935083602082028501610fbb85610ede565b8060005b85811015610ff75784840389528151610fd88582610f73565b9450610fe383610f87565b925060208a01995050600181019050610fbf565b50829750879550505050505092915050565b60006101a08301600083015184820360008601526110278282610e57565b915050602083015161103c6020860182610e9a565b50604083015184820360408601526110548282610e57565b91505060608301516110696060860182610e9a565b50608083015184820360808601526110818282610e57565b91505060a083015184820360a086015261109b8282610e57565b91505060c083015184820360c08601526110b58282610e57565b91505060e08301516110ca60e0860182610e9a565b506101008301518482036101008601526110e48282610e57565b9150506101208301516110fb610120860182610eb3565b50610140830151611110610140860182610e9a565b50610160830151611125610160860182610e9a565b5061018083015184820361018086015261113f8282610f94565b9150508091505092915050565b600060208201905081810360008301526111668184611009565b905092915050565b61117781610d4c565b82525050565b6000602082019050611192600083018461116e565b92915050565b600080fd5b7f4e487b7100000000000000000000000000000000000000000000000000000000600052604160045260246000fd5b6111d582610e46565b810181811067ffffffffffffffff821117156111f4576111f361119d565b5b80604052505050565b6000611207610d18565b905061121382826111cc565b919050565b600080fd5b61122681610e90565b811461123157600080fd5b50565b6000813590506112438161121d565b92915050565b600080fd5b600080fd5b600067ffffffffffffffff82111561126e5761126d61119d565b5b61127782610e46565b9050602081019050919050565b82818337600083830152505050565b60006112a66112a184611253565b6111fd565b9050828152602081018484840111156112c2576112c161124e565b5b6112cd848285611284565b509392505050565b600082601f8301126112ea576112e9611249565b5b81356112fa848260208601611293565b91505092915050565b600060a0828403121561131957611318611198565b5b61132360a06111fd565b9050600061133384828501611234565b600083015250602061134784828501611234565b602083015250604061135b84828501610d75565b604083015250606061136f84828501610d75565b606083015250608082013567ffffffffffffffff81111561139357611392611218565b5b61139f848285016112d5565b60808301525092915050565b6000602082840312156113c1576113c0610d22565b5b600082013567ffffffffffffffff8111156113df576113de610d27565b5b6113eb84828501611303565b91505092915050565b600060a08301600083015161140c6000860182610e9a565b50602083015161141f6020860182610e9a565b5060408301516114326040860182610eee565b5060608301516114456060860182610eee565b506080830151848203608086015261145d8282610e57565b9150508091505092915050565b6000602082019050818103600083015261148481846113f4565b905092915050565b60006040820190506114a1600083018561116e565b6114ae602083018461116e565b9392505050565b7f4e487b7100000000000000000000000000000000000000000000000000000000600052602260045260246000fd5b600060028204905060018216806114fc57607f821691505b60208210810361150f5761150e6114b5565b5b50919050565b60008190508160005260206000209050919050565b60006020601f8301049050919050565b600082821b905092915050565b6000600883026115777fffffffffffffffffffffffffffffffffffffffffffffffffffffffffffffffff8261153a565b611581868361153a565b95508019841693508086168417925050509392505050565b6000819050919050565b60006115be6115b96115b484610e90565b611599565b610e90565b9050919050565b6000819050919050565b6115d8836115a3565b6115ec6115e4826115c5565b848454611547565b825550505050565b600090565b6116016115f4565b61160c8184846115cf565b505050565b5b81811015611630576116256000826115f9565b600181019050611612565b5050565b601f8211156116755761164681611515565b61164f8461152a565b8101602085101561165e578190505b61167261166a8561152a565b830182611611565b50505b505050565b600082821c905092915050565b60006116986000198460080261167a565b1980831691505092915050565b60006116b18383611687565b9150826002028217905092915050565b6116ca82610e00565b67ffffffffffffffff8111156116e3576116e261119d565b5b6116ed82546114e4565b6116f8828285611634565b600060209050601f83116001811461172b5760008415611719578287015190505b61172385826116a5565b86555061178b565b601f19841661173986611515565b60005b828110156117615784890151825560018201915060208501945060208101905061173c565b8683101561177e578489015161177a601f891682611687565b8355505b6001600288020188555050505b505050505050565b7f4e487b7100000000000000000000000000000000000000000000000000000000600052601160045260246000fd5b60006117cd82610e90565b91506117d883610e90565b92508282039050818111156117f0576117ef611793565b5b92915050565b7f4e487b7100000000000000000000000000000000000000000000000000000000600052603260045260246000fdfea26469706673582212206ddda598f0f3edb1f03ca82155bda73b5996844d16ac8b56c06608b780c99b3e64736f6c63430008110033",
  "immutableReferences": {},
  "source": "// SPDX-License-Identifier: MIT\n\n// Pragma indicates the version of Solidity compiler to be used for compilation.\n// In truffle, the version of Solidity compiler is specified in truffle-config.js,\n// if not specified, the default version is 0.5.16.\n\npragma solidity ^0.8.17;\n\n// Contract is a collection of functions and data (its state) that resides at a specific address on the Ethereum blockchain.\n// The following contract is used to create a form for the evidence.\n\n// Struct to store the information of the chain of custody.\n    struct Log {\n        uint trackingNumber;        // Tracking number of the form\n        uint timestamp;             // Epoch time of the change\n        address releasedBy;         // Address of the entity that released the form\n        address receivedBy;         // Address of the entity that received the form\n        string reasonForChange;     // Reason for the change\n    }\n\n// Struct to store the information of the form.\n    struct FormData {\n        string caseName;                        // Name of the case\n        uint caseNumber;                        // Number of the case\n        string reasonObtained;                  // Reason for obtaining the evidence\n        uint itemNumber;                        // Number of the item\n        string evidenceTypeManufacturer;        // Type of the evidence and manufacturer\n        string owner;                           // Name of the owner of the evidence\n\n        string contentDescription;              // Description of the evidence\n        uint contentOwnerContactInformation;    // Contact information of the owner of the evidence\n        string forensicAgent;                   // Name of the forensic agent\n\n        bytes32 hashValue;                      // Hash value of the evidence\n        uint date;                              // Date of the evidence\n        uint forensicAgentContactInformation;   // Contact information of the forensic agent\n\n        Log[] chainOfCustody;                   // Chain of custody of the evidence\n    }\n\ncontract Form {\n    address private taker;\n    address private giver;\n    FormData private data;\n    bool private available;\n\n    constructor (uint[] memory _numbers, string[] memory _strings, bytes32 _hashValue) {\n        // _numbers = [_caseNumber, _itemNumber, _contentOwnerContactInformation, _date,\n        //             _forensicAgentContactInformation]\n        // _strings = [_caseName, _reasonObtained, _evidenceTypeManufacturer, _owner, _contentDescription,\n        //             _forensicAgent]\n        data.caseName = _strings[0];\n        data.reasonObtained = _strings[1];\n        data.evidenceTypeManufacturer = _strings[2];\n        data.owner = _strings[3];\n        data.contentDescription = _strings[4];\n        data.forensicAgent = _strings[5];\n\n        data.caseNumber = _numbers[0];\n        data.itemNumber = _numbers[1];\n        data.contentOwnerContactInformation = _numbers[2];\n        data.date = _numbers[3];\n        data.forensicAgentContactInformation = _numbers[4];\n\n        data.hashValue = _hashValue;\n    }\n\n    /**\n    *   @dev Function to read the form data.\n    *\n    *   @return FormData Struct containing the information of the form\n    */\n    function readForm() public view returns (FormData memory) {\n        return data;\n    }\n\n    function pushLog(Log memory _log) public {\n        data.chainOfCustody.push(_log);\n    }\n\n    function lastLog() public view returns (Log memory) {\n        return data.chainOfCustody[data.chainOfCustody.length - 1];\n    }\n\n    function isAvailable() public view returns(bool) {\n        return available;\n    }\n\n    function setAvailable() public {\n        available = true;\n    }\n\n    function setTaken() public {\n        available = false;\n    }\n\n    event giverTakerSet(address giver, address taker);\n    function setGiverTaker(address _giver, address _taker) public returns(bool) {\n        giver = _giver;\n        taker = _taker;\n        emit giverTakerSet(giver, taker);\n        return true;\n    }\n\n    event resetDone(address giver, address taker);\n    function resetGiverTaker() public {\n        // require(giver == msg.sender || taker == msg.sender);\n        // reset giver and taker\n        giver = address(0);\n        taker = address(0);\n        emit resetDone(giver, taker);\n    }\n\n    function getTaker() view public returns(address){\n        return taker;\n    }\n\n    function getGiver() view public returns(address){\n        return giver;\n    }\n}",
  "sourcePath": "/Users/lorenzocrespan/Documents/Workspace/University/90748 - Blockchain and Cryptocurrencies/BlueWoodchuck/project/blockchain/contracts/contracts/form.sol",
  "compiler": {
    "name": "solc",
    "version": "0.8.17+commit.8df45f5f.Emscripten.clang"
  },
  "schemaVersion": "3.4.12",
  "updatedAt": "2023-03-16T18:36:34.012Z",
  "devdoc": {
    "kind": "dev",
    "methods": {
      "readForm()": {
        "details": "Function to read the form data.",
        "returns": {
          "_0": "FormData Struct containing the information of the form"
        }
      }
    },
    "version": 1
  },
  "userdoc": {
    "kind": "user",
    "methods": {},
    "version": 1
  }
}