{
  "contractName": "Form",
  "abi": [
    {
      "inputs": [
        {
          "internalType": "uint256[]",
          "name": "_numbers",
          "type": "uint256[]"
        },
        {
          "internalType": "string[]",
          "name": "_strings",
          "type": "string[]"
        },
        {
          "internalType": "bytes32",
          "name": "_hashValue",
          "type": "bytes32"
        }
      ],
      "stateMutability": "nonpayable",
      "type": "constructor"
    },
    {
      "inputs": [],
      "name": "created",
      "outputs": [
        {
          "internalType": "uint256",
          "name": "",
          "type": "uint256"
        }
      ],
      "stateMutability": "view",
      "type": "function"
    },
    {
      "inputs": [],
      "name": "readForm",
      "outputs": [
        {
          "components": [
            {
              "internalType": "string",
              "name": "caseName",
              "type": "string"
            },
            {
              "internalType": "uint256",
              "name": "caseNumber",
              "type": "uint256"
            },
            {
              "internalType": "string",
              "name": "reasonObtained",
              "type": "string"
            },
            {
              "internalType": "uint256",
              "name": "itemNumber",
              "type": "uint256"
            },
            {
              "internalType": "string",
              "name": "evidenceTypeManufacturer",
              "type": "string"
            },
            {
              "internalType": "string",
              "name": "owner",
              "type": "string"
            },
            {
              "internalType": "string",
              "name": "contentDescription",
              "type": "string"
            },
            {
              "internalType": "uint256",
              "name": "contentOwnerContactInformation",
              "type": "uint256"
            },
            {
              "internalType": "string",
              "name": "forensicAgent",
              "type": "string"
            },
            {
              "internalType": "string",
              "name": "creationMethod",
              "type": "string"
            },
            {
              "internalType": "bytes32",
              "name": "hashValue",
              "type": "bytes32"
            },
            {
              "internalType": "uint256",
              "name": "date",
              "type": "uint256"
            },
            {
              "internalType": "uint256",
              "name": "forensicAgentContactInformation",
              "type": "uint256"
            },
            {
              "components": [
                {
                  "internalType": "uint256",
                  "name": "trackingNumber",
                  "type": "uint256"
                },
                {
                  "internalType": "uint256",
                  "name": "timestamp",
                  "type": "uint256"
                },
                {
                  "internalType": "address",
                  "name": "releasedBy",
                  "type": "address"
                },
                {
                  "internalType": "address",
                  "name": "receivedBy",
                  "type": "address"
                },
                {
                  "internalType": "string",
                  "name": "reasonForChange",
                  "type": "string"
                }
              ],
              "internalType": "struct Log[]",
              "name": "chainOfCustody",
              "type": "tuple[]"
            }
          ],
          "internalType": "struct FormData",
          "name": "",
          "type": "tuple"
        }
      ],
      "stateMutability": "view",
      "type": "function"
    },
    {
      "inputs": [
        {
          "components": [
            {
              "internalType": "uint256",
              "name": "trackingNumber",
              "type": "uint256"
            },
            {
              "internalType": "uint256",
              "name": "timestamp",
              "type": "uint256"
            },
            {
              "internalType": "address",
              "name": "releasedBy",
              "type": "address"
            },
            {
              "internalType": "address",
              "name": "receivedBy",
              "type": "address"
            },
            {
              "internalType": "string",
              "name": "reasonForChange",
              "type": "string"
            }
          ],
          "internalType": "struct Log",
          "name": "_log",
          "type": "tuple"
        }
      ],
      "name": "pushLog",
      "outputs": [],
      "stateMutability": "nonpayable",
      "type": "function"
    }
  ],
  "bytecode": "0x60806040526000600e553480156200001657600080fd5b5060405162001bfd38038062001bfd83398181016040528101906200003c91906200065e565b81600081518110620000535762000052620006f8565b5b60200260200101516000800190816200006d919062000968565b5081600181518110620000855762000084620006f8565b5b602002602001015160006002019081620000a0919062000968565b5081600281518110620000b857620000b7620006f8565b5b602002602001015160006004019081620000d3919062000968565b5081600381518110620000eb57620000ea620006f8565b5b60200260200101516000600501908162000106919062000968565b50816004815181106200011e576200011d620006f8565b5b60200260200101516000600601908162000139919062000968565b5081600581518110620001515762000150620006f8565b5b6020026020010151600060080190816200016c919062000968565b5081600681518110620001845762000183620006f8565b5b6020026020010151600060090190816200019f919062000968565b5082600081518110620001b757620001b6620006f8565b5b602002602001015160006001018190555082600181518110620001df57620001de620006f8565b5b602002602001015160006003018190555082600281518110620002075762000206620006f8565b5b6020026020010151600060070181905550826003815181106200022f576200022e620006f8565b5b60200260200101516000600b018190555082600481518110620002575762000256620006f8565b5b60200260200101516000600c0181905550806000600a01819055506001600e8190555050505062000a4f565b6000604051905090565b600080fd5b600080fd5b600080fd5b6000601f19601f8301169050919050565b7f4e487b7100000000000000000000000000000000000000000000000000000000600052604160045260246000fd5b620002e7826200029c565b810181811067ffffffffffffffff82111715620003095762000308620002ad565b5b80604052505050565b60006200031e62000283565b90506200032c8282620002dc565b919050565b600067ffffffffffffffff8211156200034f576200034e620002ad565b5b602082029050602081019050919050565b600080fd5b6000819050919050565b6200037a8162000365565b81146200038657600080fd5b50565b6000815190506200039a816200036f565b92915050565b6000620003b7620003b18462000331565b62000312565b90508083825260208201905060208402830185811115620003dd57620003dc62000360565b5b835b818110156200040a5780620003f5888262000389565b845260208401935050602081019050620003df565b5050509392505050565b600082601f8301126200042c576200042b62000297565b5b81516200043e848260208601620003a0565b91505092915050565b600067ffffffffffffffff821115620004655762000464620002ad565b5b602082029050602081019050919050565b600080fd5b600067ffffffffffffffff821115620004995762000498620002ad565b5b620004a4826200029c565b9050602081019050919050565b60005b83811015620004d1578082015181840152602081019050620004b4565b60008484015250505050565b6000620004f4620004ee846200047b565b62000312565b90508281526020810184848401111562000513576200051262000476565b5b62000520848285620004b1565b509392505050565b600082601f83011262000540576200053f62000297565b5b815162000552848260208601620004dd565b91505092915050565b6000620005726200056c8462000447565b62000312565b9050808382526020820190506020840283018581111562000598576200059762000360565b5b835b81811015620005e657805167ffffffffffffffff811115620005c157620005c062000297565b5b808601620005d0898262000528565b855260208501945050506020810190506200059a565b5050509392505050565b600082601f83011262000608576200060762000297565b5b81516200061a8482602086016200055b565b91505092915050565b6000819050919050565b620006388162000623565b81146200064457600080fd5b50565b60008151905062000658816200062d565b92915050565b6000806000606084860312156200067a57620006796200028d565b5b600084015167ffffffffffffffff8111156200069b576200069a62000292565b5b620006a98682870162000414565b935050602084015167ffffffffffffffff811115620006cd57620006cc62000292565b5b620006db86828701620005f0565b9250506040620006ee8682870162000647565b9150509250925092565b7f4e487b7100000000000000000000000000000000000000000000000000000000600052603260045260246000fd5b600081519050919050565b7f4e487b7100000000000000000000000000000000000000000000000000000000600052602260045260246000fd5b600060028204905060018216806200077a57607f821691505b60208210810362000790576200078f62000732565b5b50919050565b60008190508160005260206000209050919050565b60006020601f8301049050919050565b600082821b905092915050565b600060088302620007fa7fffffffffffffffffffffffffffffffffffffffffffffffffffffffffffffffff82620007bb565b620008068683620007bb565b95508019841693508086168417925050509392505050565b6000819050919050565b600062000849620008436200083d8462000365565b6200081e565b62000365565b9050919050565b6000819050919050565b620008658362000828565b6200087d620008748262000850565b848454620007c8565b825550505050565b600090565b6200089462000885565b620008a18184846200085a565b505050565b5b81811015620008c957620008bd6000826200088a565b600181019050620008a7565b5050565b601f8211156200091857620008e28162000796565b620008ed84620007ab565b81016020851015620008fd578190505b620009156200090c85620007ab565b830182620008a6565b50505b505050565b600082821c905092915050565b60006200093d600019846008026200091d565b1980831691505092915050565b60006200095883836200092a565b9150826002028217905092915050565b620009738262000727565b67ffffffffffffffff8111156200098f576200098e620002ad565b5b6200099b825462000761565b620009a8828285620008cd565b600060209050601f831160018114620009e05760008415620009cb578287015190505b620009d785826200094a565b86555062000a47565b601f198416620009f08662000796565b60005b8281101562000a1a57848901518255600182019150602085019450602081019050620009f3565b8683101562000a3a578489015162000a36601f8916826200092a565b8355505b6001600288020188555050505b505050505050565b61119e8062000a5f6000396000f3fe608060405234801561001057600080fd5b50600436106100415760003560e01c8063325a19f1146100465780635426177e146100645780639032198814610082575b600080fd5b61004e61009e565b60405161005b9190610821565b60405180910390f35b61006c6100a4565b6040516100799190610bcc565b60405180910390f35b61009c60048036038101906100979190610e41565b6106aa565b005b600e5481565b6100ac610796565b6000604051806101c00160405290816000820180546100ca90610eb9565b80601f01602080910402602001604051908101604052809291908181526020018280546100f690610eb9565b80156101435780601f1061011857610100808354040283529160200191610143565b820191906000526020600020905b81548152906001019060200180831161012657829003601f168201915b505050505081526020016001820154815260200160028201805461016690610eb9565b80601f016020809104026020016040519081016040528092919081815260200182805461019290610eb9565b80156101df5780601f106101b4576101008083540402835291602001916101df565b820191906000526020600020905b8154815290600101906020018083116101c257829003601f168201915b505050505081526020016003820154815260200160048201805461020290610eb9565b80601f016020809104026020016040519081016040528092919081815260200182805461022e90610eb9565b801561027b5780601f106102505761010080835404028352916020019161027b565b820191906000526020600020905b81548152906001019060200180831161025e57829003601f168201915b5050505050815260200160058201805461029490610eb9565b80601f01602080910402602001604051908101604052809291908181526020018280546102c090610eb9565b801561030d5780601f106102e25761010080835404028352916020019161030d565b820191906000526020600020905b8154815290600101906020018083116102f057829003601f168201915b5050505050815260200160068201805461032690610eb9565b80601f016020809104026020016040519081016040528092919081815260200182805461035290610eb9565b801561039f5780601f106103745761010080835404028352916020019161039f565b820191906000526020600020905b81548152906001019060200180831161038257829003601f168201915b50505050508152602001600782015481526020016008820180546103c290610eb9565b80601f01602080910402602001604051908101604052809291908181526020018280546103ee90610eb9565b801561043b5780601f106104105761010080835404028352916020019161043b565b820191906000526020600020905b81548152906001019060200180831161041e57829003601f168201915b5050505050815260200160098201805461045490610eb9565b80601f016020809104026020016040519081016040528092919081815260200182805461048090610eb9565b80156104cd5780601f106104a2576101008083540402835291602001916104cd565b820191906000526020600020905b8154815290600101906020018083116104b057829003601f168201915b50505050508152602001600a8201548152602001600b8201548152602001600c8201548152602001600d8201805480602002602001604051908101604052809291908181526020016000905b8282101561069d57838290600052602060002090600502016040518060a001604052908160008201548152602001600182015481526020016002820160009054906101000a900473ffffffffffffffffffffffffffffffffffffffff1673ffffffffffffffffffffffffffffffffffffffff1673ffffffffffffffffffffffffffffffffffffffff1681526020016003820160009054906101000a900473ffffffffffffffffffffffffffffffffffffffff1673ffffffffffffffffffffffffffffffffffffffff1673ffffffffffffffffffffffffffffffffffffffff16815260200160048201805461060c90610eb9565b80601f016020809104026020016040519081016040528092919081815260200182805461063890610eb9565b80156106855780601f1061065a57610100808354040283529160200191610685565b820191906000526020600020905b81548152906001019060200180831161066857829003601f168201915b50505050508152505081526020019060010190610519565b5050505081525050905090565b6000600d01819080600181540180825580915050600190039060005260206000209060050201600090919091909150600082015181600001556020820151816001015560408201518160020160006101000a81548173ffffffffffffffffffffffffffffffffffffffff021916908373ffffffffffffffffffffffffffffffffffffffff16021790555060608201518160030160006101000a81548173ffffffffffffffffffffffffffffffffffffffff021916908373ffffffffffffffffffffffffffffffffffffffff16021790555060808201518160040190816107909190611096565b50505050565b604051806101c0016040528060608152602001600081526020016060815260200160008152602001606081526020016060815260200160608152602001600081526020016060815260200160608152602001600080191681526020016000815260200160008152602001606081525090565b6000819050919050565b61081b81610808565b82525050565b60006020820190506108366000830184610812565b92915050565b600081519050919050565b600082825260208201905092915050565b60005b8381101561087657808201518184015260208101905061085b565b60008484015250505050565b6000601f19601f8301169050919050565b600061089e8261083c565b6108a88185610847565b93506108b8818560208601610858565b6108c181610882565b840191505092915050565b6108d581610808565b82525050565b6000819050919050565b6108ee816108db565b82525050565b600081519050919050565b600082825260208201905092915050565b6000819050602082019050919050565b600073ffffffffffffffffffffffffffffffffffffffff82169050919050565b600061094b82610920565b9050919050565b61095b81610940565b82525050565b600060a08301600083015161097960008601826108cc565b50602083015161098c60208601826108cc565b50604083015161099f6040860182610952565b5060608301516109b26060860182610952565b50608083015184820360808601526109ca8282610893565b9150508091505092915050565b60006109e38383610961565b905092915050565b6000602082019050919050565b6000610a03826108f4565b610a0d81856108ff565b935083602082028501610a1f85610910565b8060005b85811015610a5b5784840389528151610a3c85826109d7565b9450610a47836109eb565b925060208a01995050600181019050610a23565b50829750879550505050505092915050565b60006101c0830160008301518482036000860152610a8b8282610893565b9150506020830151610aa060208601826108cc565b5060408301518482036040860152610ab88282610893565b9150506060830151610acd60608601826108cc565b5060808301518482036080860152610ae58282610893565b91505060a083015184820360a0860152610aff8282610893565b91505060c083015184820360c0860152610b198282610893565b91505060e0830151610b2e60e08601826108cc565b50610100830151848203610100860152610b488282610893565b915050610120830151848203610120860152610b648282610893565b915050610140830151610b7b6101408601826108e5565b50610160830151610b906101608601826108cc565b50610180830151610ba56101808601826108cc565b506101a08301518482036101a0860152610bbf82826109f8565b9150508091505092915050565b60006020820190508181036000830152610be68184610a6d565b905092915050565b6000604051905090565b600080fd5b600080fd5b600080fd5b7f4e487b7100000000000000000000000000000000000000000000000000000000600052604160045260246000fd5b610c3f82610882565b810181811067ffffffffffffffff82111715610c5e57610c5d610c07565b5b80604052505050565b6000610c71610bee565b9050610c7d8282610c36565b919050565b600080fd5b610c9081610808565b8114610c9b57600080fd5b50565b600081359050610cad81610c87565b92915050565b610cbc81610940565b8114610cc757600080fd5b50565b600081359050610cd981610cb3565b92915050565b600080fd5b600080fd5b600067ffffffffffffffff821115610d0457610d03610c07565b5b610d0d82610882565b9050602081019050919050565b82818337600083830152505050565b6000610d3c610d3784610ce9565b610c67565b905082815260208101848484011115610d5857610d57610ce4565b5b610d63848285610d1a565b509392505050565b600082601f830112610d8057610d7f610cdf565b5b8135610d90848260208601610d29565b91505092915050565b600060a08284031215610daf57610dae610c02565b5b610db960a0610c67565b90506000610dc984828501610c9e565b6000830152506020610ddd84828501610c9e565b6020830152506040610df184828501610cca565b6040830152506060610e0584828501610cca565b606083015250608082013567ffffffffffffffff811115610e2957610e28610c82565b5b610e3584828501610d6b565b60808301525092915050565b600060208284031215610e5757610e56610bf8565b5b600082013567ffffffffffffffff811115610e7557610e74610bfd565b5b610e8184828501610d99565b91505092915050565b7f4e487b7100000000000000000000000000000000000000000000000000000000600052602260045260246000fd5b60006002820490506001821680610ed157607f821691505b602082108103610ee457610ee3610e8a565b5b50919050565b60008190508160005260206000209050919050565b60006020601f8301049050919050565b600082821b905092915050565b600060088302610f4c7fffffffffffffffffffffffffffffffffffffffffffffffffffffffffffffffff82610f0f565b610f568683610f0f565b95508019841693508086168417925050509392505050565b6000819050919050565b6000610f93610f8e610f8984610808565b610f6e565b610808565b9050919050565b6000819050919050565b610fad83610f78565b610fc1610fb982610f9a565b848454610f1c565b825550505050565b600090565b610fd6610fc9565b610fe1818484610fa4565b505050565b5b8181101561100557610ffa600082610fce565b600181019050610fe7565b5050565b601f82111561104a5761101b81610eea565b61102484610eff565b81016020851015611033578190505b61104761103f85610eff565b830182610fe6565b50505b505050565b600082821c905092915050565b600061106d6000198460080261104f565b1980831691505092915050565b6000611086838361105c565b9150826002028217905092915050565b61109f8261083c565b67ffffffffffffffff8111156110b8576110b7610c07565b5b6110c28254610eb9565b6110cd828285611009565b600060209050601f83116001811461110057600084156110ee578287015190505b6110f8858261107a565b865550611160565b601f19841661110e86610eea565b60005b8281101561113657848901518255600182019150602085019450602081019050611111565b86831015611153578489015161114f601f89168261105c565b8355505b6001600288020188555050505b50505050505056fea264697066735822122098b9298bf8dc13dbad816495cfadda5e178274b0b0de47cac9a2d4fa0991ff2964736f6c63430008120033",
  "immutableReferences": {},
  "source": "// SPDX-License-Identifier: MIT\r\n\r\n// Pragma indicates the version of Solidity compiler to be used for compilation.\r\n// In truffle, the version of Solidity compiler is specified in truffle-config.js,\r\n// if not specified, the default version is 0.5.16.\r\n\r\npragma solidity ^0.8.17;\r\n\r\n// Contract is a collection of functions and data (its state) that resides at a specific address on the Ethereum blockchain.\r\n// The following contract is used to create a form for the evidence.\r\n\r\n// Struct to store the information of the chain of custody.\r\n    struct Log {\r\n        uint trackingNumber;        // Tracking number of the form\r\n        uint timestamp;             // Epoch time of the change\r\n        address releasedBy;         // Address of the entity that released the form\r\n        address receivedBy;         // Address of the entity that received the form\r\n        string reasonForChange;     // Reason for the change\r\n    }\r\n\r\n// Struct to store the information of the form.\r\n    struct FormData {\r\n        string caseName;                        // Name of the case\r\n        uint caseNumber;                        // Number of the case\r\n        string reasonObtained;                  // Reason for obtaining the evidence (?)\r\n        uint itemNumber;                        // Number of the item\r\n        string evidenceTypeManufacturer;        // Type of the evidence and manufacturer\r\n        string owner;                           // Name of the owner of the evidence\r\n\r\n        string contentDescription;              // Description of the evidence\r\n        uint contentOwnerContactInformation;    // Contact information of the owner of the evidence\r\n        string forensicAgent;                     // Name of the forensic agent\r\n        string creationMethod;                    // Method of creation of the evidence\r\n\r\n        bytes32 hashValue;                      // Hash value of the evidence\r\n        uint date;                              // Date of the evidence\r\n        uint forensicAgentContactInformation;   // Contact information of the forensic agent\r\n\r\n        Log[] chainOfCustody;                   // Chain of custody of the evidence\r\n    }\r\n\r\ncontract Form {\r\n    FormData private data;\r\n    uint public created = 0; // this will be changed to 1 after definition. Used to check if an address is used or not.\r\n\r\n    constructor (uint[] memory _numbers, string[] memory _strings, bytes32 _hashValue) {\r\n        // _numbers = [_caseNumber, _itemNumber, _contentOwnerContactInformation, _date,\r\n        //             _forensicAgentContactInformation]\r\n        // _strings = [_caseName, _reasonObtained, _evidenceTypeManufacturer, _owner, _contentDescription,\r\n        //             _forensicAgent, _creationMethod]\r\n        data.caseName = _strings[0];\r\n        data.reasonObtained = _strings[1];\r\n        data.evidenceTypeManufacturer = _strings[2];\r\n        data.owner = _strings[3];\r\n        data.contentDescription = _strings[4];\r\n        data.forensicAgent = _strings[5];\r\n        data.creationMethod = _strings[6];\r\n\r\n        data.caseNumber = _numbers[0];\r\n        data.itemNumber = _numbers[1];\r\n        data.contentOwnerContactInformation = _numbers[2];\r\n        data.date = _numbers[3];\r\n        data.forensicAgentContactInformation = _numbers[4];\r\n\r\n        data.hashValue = _hashValue;\r\n\r\n        created = 1;\r\n    }\r\n\r\n    /**\r\n    *   @dev Function to read the form data.\r\n    *\r\n    *   @return FormData Struct containing the information of the form\r\n    */\r\n\r\n    function readForm() public view returns (FormData memory) {\r\n        return data;\r\n    }\r\n\r\n    function pushLog(Log memory _log) public {\r\n        data.chainOfCustody.push(_log);\r\n    }\r\n}",
  "sourcePath": "C:\\Users\\alegt\\IdeaProjects\\BlueWoodchuck\\project\\blockchain\\contracts\\contracts\\form.sol",
  "compiler": {
    "name": "solc",
    "version": "0.8.18+commit.87f61d96.Emscripten.clang"
  },
  "schemaVersion": "3.4.11",
  "updatedAt": "2023-02-02T09:52:16.678Z",
  "devdoc": {
    "kind": "dev",
    "methods": {
      "readForm()": {
        "details": "Function to read the form data.",
        "returns": {
          "_0": "FormData Struct containing the information of the form"
        }
      }
    },
    "version": 1
  },
  "userdoc": {
    "kind": "user",
    "methods": {},
    "version": 1
  }
}