{
  "contractName": "FormFactory",
  "abi": [
    {
      "anonymous": false,
      "inputs": [
        {
          "indexed": false,
          "internalType": "address",
          "name": "caseAddress",
          "type": "address"
        },
        {
          "components": [
            {
              "internalType": "string",
              "name": "caseName",
              "type": "string"
            },
            {
              "internalType": "uint256",
              "name": "caseNumber",
              "type": "uint256"
            },
            {
              "internalType": "string",
              "name": "reasonObtained",
              "type": "string"
            },
            {
              "internalType": "uint256",
              "name": "itemNumber",
              "type": "uint256"
            },
            {
              "internalType": "string",
              "name": "evidenceTypeManufacturer",
              "type": "string"
            },
            {
              "internalType": "string",
              "name": "owner",
              "type": "string"
            },
            {
              "internalType": "string",
              "name": "contentDescription",
              "type": "string"
            },
            {
              "internalType": "uint256",
              "name": "contentOwnerContactInformation",
              "type": "uint256"
            },
            {
              "internalType": "string",
              "name": "forensicAgent",
              "type": "string"
            },
            {
              "internalType": "string",
              "name": "creationMethod",
              "type": "string"
            },
            {
              "internalType": "bytes32",
              "name": "hashValue",
              "type": "bytes32"
            },
            {
              "internalType": "uint256",
              "name": "date",
              "type": "uint256"
            },
            {
              "internalType": "uint256",
              "name": "forensicAgentContactInformation",
              "type": "uint256"
            },
            {
              "components": [
                {
                  "internalType": "uint256",
                  "name": "trackingNumber",
                  "type": "uint256"
                },
                {
                  "internalType": "uint256",
                  "name": "timestamp",
                  "type": "uint256"
                },
                {
                  "internalType": "address",
                  "name": "releasedBy",
                  "type": "address"
                },
                {
                  "internalType": "address",
                  "name": "receivedBy",
                  "type": "address"
                },
                {
                  "internalType": "string",
                  "name": "reasonForChange",
                  "type": "string"
                }
              ],
              "internalType": "struct Log[]",
              "name": "chainOfCustody",
              "type": "tuple[]"
            }
          ],
          "indexed": false,
          "internalType": "struct FormData",
          "name": "data",
          "type": "tuple"
        }
      ],
      "name": "formFound",
      "type": "event"
    },
    {
      "anonymous": false,
      "inputs": [
        {
          "indexed": false,
          "internalType": "uint256",
          "name": "caseNumber",
          "type": "uint256"
        },
        {
          "indexed": false,
          "internalType": "address",
          "name": "caseAddress",
          "type": "address"
        },
        {
          "components": [
            {
              "internalType": "string",
              "name": "caseName",
              "type": "string"
            },
            {
              "internalType": "uint256",
              "name": "caseNumber",
              "type": "uint256"
            },
            {
              "internalType": "string",
              "name": "reasonObtained",
              "type": "string"
            },
            {
              "internalType": "uint256",
              "name": "itemNumber",
              "type": "uint256"
            },
            {
              "internalType": "string",
              "name": "evidenceTypeManufacturer",
              "type": "string"
            },
            {
              "internalType": "string",
              "name": "owner",
              "type": "string"
            },
            {
              "internalType": "string",
              "name": "contentDescription",
              "type": "string"
            },
            {
              "internalType": "uint256",
              "name": "contentOwnerContactInformation",
              "type": "uint256"
            },
            {
              "internalType": "string",
              "name": "forensicAgent",
              "type": "string"
            },
            {
              "internalType": "string",
              "name": "creationMethod",
              "type": "string"
            },
            {
              "internalType": "bytes32",
              "name": "hashValue",
              "type": "bytes32"
            },
            {
              "internalType": "uint256",
              "name": "date",
              "type": "uint256"
            },
            {
              "internalType": "uint256",
              "name": "forensicAgentContactInformation",
              "type": "uint256"
            },
            {
              "components": [
                {
                  "internalType": "uint256",
                  "name": "trackingNumber",
                  "type": "uint256"
                },
                {
                  "internalType": "uint256",
                  "name": "timestamp",
                  "type": "uint256"
                },
                {
                  "internalType": "address",
                  "name": "releasedBy",
                  "type": "address"
                },
                {
                  "internalType": "address",
                  "name": "receivedBy",
                  "type": "address"
                },
                {
                  "internalType": "string",
                  "name": "reasonForChange",
                  "type": "string"
                }
              ],
              "internalType": "struct Log[]",
              "name": "chainOfCustody",
              "type": "tuple[]"
            }
          ],
          "indexed": false,
          "internalType": "struct FormData",
          "name": "data",
          "type": "tuple"
        }
      ],
      "name": "newForm",
      "type": "event"
    },
    {
      "inputs": [
        {
          "internalType": "uint256[]",
          "name": "_numbers",
          "type": "uint256[]"
        },
        {
          "internalType": "string[]",
          "name": "_strings",
          "type": "string[]"
        },
        {
          "internalType": "bytes32",
          "name": "_hashValue",
          "type": "bytes32"
        }
      ],
      "name": "createForm",
      "outputs": [
        {
          "internalType": "address",
          "name": "",
          "type": "address"
        }
      ],
      "stateMutability": "nonpayable",
      "type": "function"
    },
    {
      "inputs": [
        {
          "internalType": "address",
          "name": "_caseAddress",
          "type": "address"
        }
      ],
      "name": "findForm",
      "outputs": [
        {
          "internalType": "contract Form",
          "name": "",
          "type": "address"
        }
      ],
      "stateMutability": "view",
      "type": "function",
      "constant": true
    },
    {
      "inputs": [
        {
          "internalType": "contract Form",
          "name": "_form",
          "type": "address"
        }
      ],
      "name": "readForm",
      "outputs": [
        {
          "components": [
            {
              "internalType": "string",
              "name": "caseName",
              "type": "string"
            },
            {
              "internalType": "uint256",
              "name": "caseNumber",
              "type": "uint256"
            },
            {
              "internalType": "string",
              "name": "reasonObtained",
              "type": "string"
            },
            {
              "internalType": "uint256",
              "name": "itemNumber",
              "type": "uint256"
            },
            {
              "internalType": "string",
              "name": "evidenceTypeManufacturer",
              "type": "string"
            },
            {
              "internalType": "string",
              "name": "owner",
              "type": "string"
            },
            {
              "internalType": "string",
              "name": "contentDescription",
              "type": "string"
            },
            {
              "internalType": "uint256",
              "name": "contentOwnerContactInformation",
              "type": "uint256"
            },
            {
              "internalType": "string",
              "name": "forensicAgent",
              "type": "string"
            },
            {
              "internalType": "string",
              "name": "creationMethod",
              "type": "string"
            },
            {
              "internalType": "bytes32",
              "name": "hashValue",
              "type": "bytes32"
            },
            {
              "internalType": "uint256",
              "name": "date",
              "type": "uint256"
            },
            {
              "internalType": "uint256",
              "name": "forensicAgentContactInformation",
              "type": "uint256"
            },
            {
              "components": [
                {
                  "internalType": "uint256",
                  "name": "trackingNumber",
                  "type": "uint256"
                },
                {
                  "internalType": "uint256",
                  "name": "timestamp",
                  "type": "uint256"
                },
                {
                  "internalType": "address",
                  "name": "releasedBy",
                  "type": "address"
                },
                {
                  "internalType": "address",
                  "name": "receivedBy",
                  "type": "address"
                },
                {
                  "internalType": "string",
                  "name": "reasonForChange",
                  "type": "string"
                }
              ],
              "internalType": "struct Log[]",
              "name": "chainOfCustody",
              "type": "tuple[]"
            }
          ],
          "internalType": "struct FormData",
          "name": "",
          "type": "tuple"
        }
      ],
      "stateMutability": "view",
      "type": "function",
      "constant": true
    },
    {
      "inputs": [
        {
          "internalType": "address",
          "name": "_caseAddress",
          "type": "address"
        }
      ],
      "name": "readFormAddress",
      "outputs": [
        {
          "components": [
            {
              "internalType": "string",
              "name": "caseName",
              "type": "string"
            },
            {
              "internalType": "uint256",
              "name": "caseNumber",
              "type": "uint256"
            },
            {
              "internalType": "string",
              "name": "reasonObtained",
              "type": "string"
            },
            {
              "internalType": "uint256",
              "name": "itemNumber",
              "type": "uint256"
            },
            {
              "internalType": "string",
              "name": "evidenceTypeManufacturer",
              "type": "string"
            },
            {
              "internalType": "string",
              "name": "owner",
              "type": "string"
            },
            {
              "internalType": "string",
              "name": "contentDescription",
              "type": "string"
            },
            {
              "internalType": "uint256",
              "name": "contentOwnerContactInformation",
              "type": "uint256"
            },
            {
              "internalType": "string",
              "name": "forensicAgent",
              "type": "string"
            },
            {
              "internalType": "string",
              "name": "creationMethod",
              "type": "string"
            },
            {
              "internalType": "bytes32",
              "name": "hashValue",
              "type": "bytes32"
            },
            {
              "internalType": "uint256",
              "name": "date",
              "type": "uint256"
            },
            {
              "internalType": "uint256",
              "name": "forensicAgentContactInformation",
              "type": "uint256"
            },
            {
              "components": [
                {
                  "internalType": "uint256",
                  "name": "trackingNumber",
                  "type": "uint256"
                },
                {
                  "internalType": "uint256",
                  "name": "timestamp",
                  "type": "uint256"
                },
                {
                  "internalType": "address",
                  "name": "releasedBy",
                  "type": "address"
                },
                {
                  "internalType": "address",
                  "name": "receivedBy",
                  "type": "address"
                },
                {
                  "internalType": "string",
                  "name": "reasonForChange",
                  "type": "string"
                }
              ],
              "internalType": "struct Log[]",
              "name": "chainOfCustody",
              "type": "tuple[]"
            }
          ],
          "internalType": "struct FormData",
          "name": "",
          "type": "tuple"
        }
      ],
      "stateMutability": "view",
      "type": "function",
      "constant": true
    },
    {
      "inputs": [
        {
          "internalType": "address",
          "name": "_userAddress",
          "type": "address"
        }
      ],
      "name": "getUserFormAddresses",
      "outputs": [
        {
          "internalType": "address[]",
          "name": "",
          "type": "address[]"
        }
      ],
      "stateMutability": "view",
      "type": "function",
      "constant": true
    },
    {
      "inputs": [
        {
          "internalType": "address",
          "name": "_formAddress",
          "type": "address"
        },
        {
          "internalType": "string",
          "name": "_reason",
          "type": "string"
        }
      ],
      "name": "getForm",
      "outputs": [],
      "stateMutability": "nonpayable",
      "type": "function"
    },
    {
      "inputs": [
        {
          "internalType": "uint256",
          "name": "_caseNumber",
          "type": "uint256"
        }
      ],
      "name": "searchCaseNumber",
      "outputs": [
        {
          "internalType": "contract Form",
          "name": "",
          "type": "address"
        }
      ],
      "stateMutability": "nonpayable",
      "type": "function"
    }
  ],
  "bytecode": "0x608060405234801561001057600080fd5b5061453e806100206000396000f3fe60806040523480156200001157600080fd5b5060043610620000885760003560e01c8063737ab47f1162000063578063737ab47f146200012f57806374de047a1462000165578063ca8e697f1462000185578063edef556a14620001bb5762000088565b8063057b0110146200008d578063494d8d3314620000c35780634b194bf014620000f9575b600080fd5b620000ab6004803603810190620000a5919062001031565b620001f1565b604051620000ba91906200140f565b60405180910390f35b620000e16004803603810190620000db919062001031565b62000217565b604051620000f09190620014f0565b60405180910390f35b62000117600480360381019062000111919062001559565b620002e6565b6040516200012691906200140f565b60405180910390f35b6200014d6004803603810190620001479190620015bc565b6200036e565b6040516200015c919062001659565b60405180910390f35b6200018360048036038101906200017d9190620017c7565b620005b3565b005b620001a360048036038101906200019d919062001031565b6200084a565b604051620001b2919062001659565b60405180910390f35b620001d96004803603810190620001d3919062001a30565b620008b2565b604051620001e8919062001adb565b60405180910390f35b620001fb62000f38565b620002106200020a836200084a565b620002e6565b9050919050565b6060600160008373ffffffffffffffffffffffffffffffffffffffff1673ffffffffffffffffffffffffffffffffffffffff168152602001908152602001600020805480602002602001604051908101604052809291908181526020018280548015620002da57602002820191906000526020600020905b8160009054906101000a900473ffffffffffffffffffffffffffffffffffffffff1673ffffffffffffffffffffffffffffffffffffffff16815260200190600101908083116200028f575b50505050509050919050565b620002f062000f38565b8173ffffffffffffffffffffffffffffffffffffffff16635426177e6040518163ffffffff1660e01b8152600401600060405180830381865afa1580156200033c573d6000803e3d6000fd5b505050506040513d6000823e3d601f19601f8201168201806040525081019062000367919062001fdd565b9050919050565b600080600280549050116200038257600080fd5b60005b600280549050811015620005705782620003e060028381548110620003af57620003ae6200202e565b5b9060005260206000200160009054906101000a900473ffffffffffffffffffffffffffffffffffffffff16620001f1565b60200151036200055a577fd7ad6d2ae4b7210969cb5bb7c047c09a12303d3a42234f49ad8d1284b83b9172600282815481106200042257620004216200202e565b5b9060005260206000200160009054906101000a900473ffffffffffffffffffffffffffffffffffffffff1662000499600284815481106200046857620004676200202e565b5b9060005260206000200160009054906101000a900473ffffffffffffffffffffffffffffffffffffffff16620001f1565b604051620004a99291906200205d565b60405180910390a160008060028381548110620004cb57620004ca6200202e565b5b9060005260206000200160009054906101000a900473ffffffffffffffffffffffffffffffffffffffff1673ffffffffffffffffffffffffffffffffffffffff1673ffffffffffffffffffffffffffffffffffffffff16815260200190815260200160002060009054906101000a900473ffffffffffffffffffffffffffffffffffffffff16915050620005ae565b80806200056790620020c0565b91505062000385565b506040517f08c379a0000000000000000000000000000000000000000000000000000000008152600401620005a5906200216e565b60405180910390fd5b919050565b6000620005c0836200084a565b73ffffffffffffffffffffffffffffffffffffffff1663d08145e46040518163ffffffff1660e01b8152600401600060405180830381865afa1580156200060b573d6000803e3d6000fd5b505050506040513d6000823e3d601f19601f8201168201806040525081019062000636919062002190565b60600151905062000647836200084a565b73ffffffffffffffffffffffffffffffffffffffff1663903219886040518060a0016040528060016200067a886200084a565b73ffffffffffffffffffffffffffffffffffffffff1663d08145e46040518163ffffffff1660e01b8152600401600060405180830381865afa158015620006c5573d6000803e3d6000fd5b505050506040513d6000823e3d601f19601f82011682018060405250810190620006f0919062002190565b60000151620007009190620021e1565b81526020014281526020018473ffffffffffffffffffffffffffffffffffffffff1681526020013373ffffffffffffffffffffffffffffffffffffffff168152602001858152506040518263ffffffff1660e01b81526004016200076591906200229c565b600060405180830381600087803b1580156200078057600080fd5b505af115801562000795573d6000803e3d6000fd5b50505050600160003373ffffffffffffffffffffffffffffffffffffffff1673ffffffffffffffffffffffffffffffffffffffff168152602001908152602001600020839080600181540180825580915050600190039060005260206000200160009091909190916101000a81548173ffffffffffffffffffffffffffffffffffffffff021916908373ffffffffffffffffffffffffffffffffffffffff16021790555062000845818462000bdf565b505050565b60008060008373ffffffffffffffffffffffffffffffffffffffff1673ffffffffffffffffffffffffffffffffffffffff16815260200190815260200160002060009054906101000a900473ffffffffffffffffffffffffffffffffffffffff169050919050565b600080620008bf62000f01565b9050848484604051620008d29062000faa565b620008e0939291906200245e565b604051809103906000f080158015620008fd573d6000803e3d6000fd5b506000808373ffffffffffffffffffffffffffffffffffffffff1673ffffffffffffffffffffffffffffffffffffffff16815260200190815260200160002060006101000a81548173ffffffffffffffffffffffffffffffffffffffff021916908373ffffffffffffffffffffffffffffffffffffffff1602179055506000808273ffffffffffffffffffffffffffffffffffffffff1673ffffffffffffffffffffffffffffffffffffffff16815260200190815260200160002060009054906101000a900473ffffffffffffffffffffffffffffffffffffffff1673ffffffffffffffffffffffffffffffffffffffff1663903219886040518060a00160405280600081526020014281526020013373ffffffffffffffffffffffffffffffffffffffff1681526020013373ffffffffffffffffffffffffffffffffffffffff1681526020016040518060400160405280600c81526020017f466f726d206372656174656400000000000000000000000000000000000000008152508152506040518263ffffffff1660e01b815260040162000a9b91906200229c565b600060405180830381600087803b15801562000ab657600080fd5b505af115801562000acb573d6000803e3d6000fd5b50505050600160003373ffffffffffffffffffffffffffffffffffffffff1673ffffffffffffffffffffffffffffffffffffffff168152602001908152602001600020819080600181540180825580915050600190039060005260206000200160009091909190916101000a81548173ffffffffffffffffffffffffffffffffffffffff021916908373ffffffffffffffffffffffffffffffffffffffff1602179055507fa32121da9500249d8880fce97dd8f5f3f0f54bfedc91bdb545438f69d79d89178560008151811062000ba75762000ba66200202e565b5b60200260200101518262000bbb84620001f1565b60405162000bcc93929190620024ba565b60405180910390a1809150509392505050565b6000600160008473ffffffffffffffffffffffffffffffffffffffff1673ffffffffffffffffffffffffffffffffffffffff168152602001908152602001600020805490501162000c2f57600080fd5b6000600160008473ffffffffffffffffffffffffffffffffffffffff1673ffffffffffffffffffffffffffffffffffffffff16815260200190815260200160002080549050905060005b8181101562000efb578273ffffffffffffffffffffffffffffffffffffffff16600160008673ffffffffffffffffffffffffffffffffffffffff1673ffffffffffffffffffffffffffffffffffffffff168152602001908152602001600020828154811062000ced5762000cec6200202e565b5b9060005260206000200160009054906101000a900473ffffffffffffffffffffffffffffffffffffffff1673ffffffffffffffffffffffffffffffffffffffff160362000ee557600160008573ffffffffffffffffffffffffffffffffffffffff1673ffffffffffffffffffffffffffffffffffffffff16815260200190815260200160002060018362000d829190620024fe565b8154811062000d965762000d956200202e565b5b9060005260206000200160009054906101000a900473ffffffffffffffffffffffffffffffffffffffff16600160008673ffffffffffffffffffffffffffffffffffffffff1673ffffffffffffffffffffffffffffffffffffffff168152602001908152602001600020828154811062000e155762000e146200202e565b5b9060005260206000200160006101000a81548173ffffffffffffffffffffffffffffffffffffffff021916908373ffffffffffffffffffffffffffffffffffffffff160217905550600160008573ffffffffffffffffffffffffffffffffffffffff1673ffffffffffffffffffffffffffffffffffffffff16815260200190815260200160002080548062000eaf5762000eae62002539565b5b6001900381819060005260206000200160006101000a81549073ffffffffffffffffffffffffffffffffffffffff021916905590555b808062000ef290620020c0565b91505062000c79565b50505050565b600042443360405160200162000f1a93929190620025dd565b6040516020818303038152906040528051906020012060001c905090565b604051806101c0016040528060608152602001600081526020016060815260200160008152602001606081526020016060815260200160608152602001600081526020016060815260200160608152602001600080191681526020016000815260200160008152602001606081525090565b611ee8806200262183390190565b6000604051905090565b600080fd5b600080fd5b600073ffffffffffffffffffffffffffffffffffffffff82169050919050565b600062000ff98262000fcc565b9050919050565b6200100b8162000fec565b81146200101757600080fd5b50565b6000813590506200102b8162001000565b92915050565b6000602082840312156200104a576200104962000fc2565b5b60006200105a848285016200101a565b91505092915050565b600081519050919050565b600082825260208201905092915050565b60005b838110156200109f57808201518184015260208101905062001082565b60008484015250505050565b6000601f19601f8301169050919050565b6000620010c98262001063565b620010d581856200106e565b9350620010e78185602086016200107f565b620010f281620010ab565b840191505092915050565b6000819050919050565b6200111281620010fd565b82525050565b6000819050919050565b6200112d8162001118565b82525050565b600081519050919050565b600082825260208201905092915050565b6000819050602082019050919050565b6200116a8162000fec565b82525050565b600060a0830160008301516200118a600086018262001107565b5060208301516200119f602086018262001107565b506040830151620011b460408601826200115f565b506060830151620011c960608601826200115f565b5060808301518482036080860152620011e38282620010bc565b9150508091505092915050565b6000620011fe838362001170565b905092915050565b6000602082019050919050565b6000620012208262001133565b6200122c81856200113e565b93508360208202850162001240856200114f565b8060005b85811015620012825784840389528151620012608582620011f0565b94506200126d8362001206565b925060208a0199505060018101905062001244565b50829750879550505050505092915050565b60006101c0830160008301518482036000860152620012b48282620010bc565b9150506020830151620012cb602086018262001107565b5060408301518482036040860152620012e58282620010bc565b9150506060830151620012fc606086018262001107565b5060808301518482036080860152620013168282620010bc565b91505060a083015184820360a0860152620013328282620010bc565b91505060c083015184820360c08601526200134e8282620010bc565b91505060e08301516200136560e086018262001107565b50610100830151848203610100860152620013818282620010bc565b9150506101208301518482036101208601526200139f8282620010bc565b915050610140830151620013b861014086018262001122565b50610160830151620013cf61016086018262001107565b50610180830151620013e661018086018262001107565b506101a08301518482036101a086015262001402828262001213565b9150508091505092915050565b600060208201905081810360008301526200142b818462001294565b905092915050565b600081519050919050565b600082825260208201905092915050565b6000819050602082019050919050565b60006200146d83836200115f565b60208301905092915050565b6000602082019050919050565b6000620014938262001433565b6200149f81856200143e565b9350620014ac836200144f565b8060005b83811015620014e3578151620014c788826200145f565b9750620014d48362001479565b925050600181019050620014b0565b5085935050505092915050565b600060208201905081810360008301526200150c818462001486565b905092915050565b6000620015218262000fec565b9050919050565b620015338162001514565b81146200153f57600080fd5b50565b600081359050620015538162001528565b92915050565b60006020828403121562001572576200157162000fc2565b5b6000620015828482850162001542565b91505092915050565b6200159681620010fd565b8114620015a257600080fd5b50565b600081359050620015b6816200158b565b92915050565b600060208284031215620015d557620015d462000fc2565b5b6000620015e584828501620015a5565b91505092915050565b6000819050919050565b600062001619620016136200160d8462000fcc565b620015ee565b62000fcc565b9050919050565b60006200162d82620015f8565b9050919050565b6000620016418262001620565b9050919050565b620016538162001634565b82525050565b600060208201905062001670600083018462001648565b92915050565b600080fd5b600080fd5b7f4e487b7100000000000000000000000000000000000000000000000000000000600052604160045260246000fd5b620016ba82620010ab565b810181811067ffffffffffffffff82111715620016dc57620016db62001680565b5b80604052505050565b6000620016f162000fb8565b9050620016ff8282620016af565b919050565b600067ffffffffffffffff82111562001722576200172162001680565b5b6200172d82620010ab565b9050602081019050919050565b82818337600083830152505050565b6000620017606200175a8462001704565b620016e5565b9050828152602081018484840111156200177f576200177e6200167b565b5b6200178c8482856200173a565b509392505050565b600082601f830112620017ac57620017ab62001676565b5b8135620017be84826020860162001749565b91505092915050565b60008060408385031215620017e157620017e062000fc2565b5b6000620017f1858286016200101a565b925050602083013567ffffffffffffffff81111562001815576200181462000fc7565b5b620018238582860162001794565b9150509250929050565b600067ffffffffffffffff8211156200184b576200184a62001680565b5b602082029050602081019050919050565b600080fd5b60006200187862001872846200182d565b620016e5565b905080838252602082019050602084028301858111156200189e576200189d6200185c565b5b835b81811015620018cb5780620018b68882620015a5565b845260208401935050602081019050620018a0565b5050509392505050565b600082601f830112620018ed57620018ec62001676565b5b8135620018ff84826020860162001861565b91505092915050565b600067ffffffffffffffff82111562001926576200192562001680565b5b602082029050602081019050919050565b60006200194e620019488462001908565b620016e5565b905080838252602082019050602084028301858111156200197457620019736200185c565b5b835b81811015620019c257803567ffffffffffffffff8111156200199d576200199c62001676565b5b808601620019ac898262001794565b8552602085019450505060208101905062001976565b5050509392505050565b600082601f830112620019e457620019e362001676565b5b8135620019f684826020860162001937565b91505092915050565b62001a0a8162001118565b811462001a1657600080fd5b50565b60008135905062001a2a81620019ff565b92915050565b60008060006060848603121562001a4c5762001a4b62000fc2565b5b600084013567ffffffffffffffff81111562001a6d5762001a6c62000fc7565b5b62001a7b86828701620018d5565b935050602084013567ffffffffffffffff81111562001a9f5762001a9e62000fc7565b5b62001aad86828701620019cc565b925050604062001ac08682870162001a19565b9150509250925092565b62001ad58162000fec565b82525050565b600060208201905062001af2600083018462001aca565b92915050565b600080fd5b600080fd5b600062001b1962001b138462001704565b620016e5565b90508281526020810184848401111562001b385762001b376200167b565b5b62001b458482856200107f565b509392505050565b600082601f83011262001b655762001b6462001676565b5b815162001b7784826020860162001b02565b91505092915050565b60008151905062001b91816200158b565b92915050565b60008151905062001ba881620019ff565b92915050565b600067ffffffffffffffff82111562001bcc5762001bcb62001680565b5b602082029050602081019050919050565b60008151905062001bee8162001000565b92915050565b600060a0828403121562001c0d5762001c0c62001af8565b5b62001c1960a0620016e5565b9050600062001c2b8482850162001b80565b600083015250602062001c418482850162001b80565b602083015250604062001c578482850162001bdd565b604083015250606062001c6d8482850162001bdd565b606083015250608082015167ffffffffffffffff81111562001c945762001c9362001afd565b5b62001ca28482850162001b4d565b60808301525092915050565b600062001cc562001cbf8462001bae565b620016e5565b9050808382526020820190506020840283018581111562001ceb5762001cea6200185c565b5b835b8181101562001d3957805167ffffffffffffffff81111562001d145762001d1362001676565b5b80860162001d23898262001bf4565b8552602085019450505060208101905062001ced565b5050509392505050565b600082601f83011262001d5b5762001d5a62001676565b5b815162001d6d84826020860162001cae565b91505092915050565b60006101c0828403121562001d905762001d8f62001af8565b5b62001d9d6101c0620016e5565b9050600082015167ffffffffffffffff81111562001dc05762001dbf62001afd565b5b62001dce8482850162001b4d565b600083015250602062001de48482850162001b80565b602083015250604082015167ffffffffffffffff81111562001e0b5762001e0a62001afd565b5b62001e198482850162001b4d565b604083015250606062001e2f8482850162001b80565b606083015250608082015167ffffffffffffffff81111562001e565762001e5562001afd565b5b62001e648482850162001b4d565b60808301525060a082015167ffffffffffffffff81111562001e8b5762001e8a62001afd565b5b62001e998482850162001b4d565b60a08301525060c082015167ffffffffffffffff81111562001ec05762001ebf62001afd565b5b62001ece8482850162001b4d565b60c08301525060e062001ee48482850162001b80565b60e08301525061010082015167ffffffffffffffff81111562001f0c5762001f0b62001afd565b5b62001f1a8482850162001b4d565b6101008301525061012082015167ffffffffffffffff81111562001f435762001f4262001afd565b5b62001f518482850162001b4d565b6101208301525061014062001f698482850162001b97565b6101408301525061016062001f818482850162001b80565b6101608301525061018062001f998482850162001b80565b610180830152506101a082015167ffffffffffffffff81111562001fc25762001fc162001afd565b5b62001fd08482850162001d43565b6101a08301525092915050565b60006020828403121562001ff65762001ff562000fc2565b5b600082015167ffffffffffffffff81111562002017576200201662000fc7565b5b620020258482850162001d76565b91505092915050565b7f4e487b7100000000000000000000000000000000000000000000000000000000600052603260045260246000fd5b600060408201905062002074600083018562001aca565b818103602083015262002088818462001294565b90509392505050565b7f4e487b7100000000000000000000000000000000000000000000000000000000600052601160045260246000fd5b6000620020cd82620010fd565b91507fffffffffffffffffffffffffffffffffffffffffffffffffffffffffffffffff820362002102576200210162002091565b5b600182019050919050565b600082825260208201905092915050565b7f4e6f6e206578697374656e740000000000000000000000000000000000000000600082015250565b600062002156600c836200210d565b915062002163826200211e565b602082019050919050565b60006020820190508181036000830152620021898162002147565b9050919050565b600060208284031215620021a957620021a862000fc2565b5b600082015167ffffffffffffffff811115620021ca57620021c962000fc7565b5b620021d88482850162001bf4565b91505092915050565b6000620021ee82620010fd565b9150620021fb83620010fd565b925082820190508082111562002216576200221562002091565b5b92915050565b600060a08301600083015162002236600086018262001107565b5060208301516200224b602086018262001107565b5060408301516200226060408601826200115f565b5060608301516200227560608601826200115f565b50608083015184820360808601526200228f8282620010bc565b9150508091505092915050565b60006020820190508181036000830152620022b881846200221c565b905092915050565b600081519050919050565b600082825260208201905092915050565b6000819050602082019050919050565b6000620022fa838362001107565b60208301905092915050565b6000602082019050919050565b60006200232082620022c0565b6200232c8185620022cb565b93506200233983620022dc565b8060005b8381101562002370578151620023548882620022ec565b9750620023618362002306565b9250506001810190506200233d565b5085935050505092915050565b600081519050919050565b600082825260208201905092915050565b6000819050602082019050919050565b6000620023b78383620010bc565b905092915050565b6000602082019050919050565b6000620023d9826200237d565b620023e5818562002388565b935083602082028501620023f98562002399565b8060005b858110156200243b5784840389528151620024198582620023a9565b94506200242683620023bf565b925060208a01995050600181019050620023fd565b50829750879550505050505092915050565b620024588162001118565b82525050565b600060608201905081810360008301526200247a818662002313565b90508181036020830152620024908185620023cc565b9050620024a160408301846200244d565b949350505050565b620024b481620010fd565b82525050565b6000606082019050620024d16000830186620024a9565b620024e0602083018562001aca565b8181036040830152620024f4818462001294565b9050949350505050565b60006200250b82620010fd565b91506200251883620010fd565b925082820390508181111562002533576200253262002091565b5b92915050565b7f4e487b7100000000000000000000000000000000000000000000000000000000600052603160045260246000fd5b6000819050919050565b620025876200258182620010fd565b62002568565b82525050565b60008160601b9050919050565b6000620025a7826200258d565b9050919050565b6000620025bb826200259a565b9050919050565b620025d7620025d18262000fec565b620025ae565b82525050565b6000620025eb828662002572565b602082019150620025fd828562002572565b6020820191506200260f8284620025c2565b60148201915081905094935050505056fe60806040523480156200001157600080fd5b5060405162001ee838038062001ee8833981810160405281019062000037919062000651565b816000815181106200004e576200004d620006eb565b5b60200260200101516000800190816200006891906200095b565b508160018151811062000080576200007f620006eb565b5b6020026020010151600060020190816200009b91906200095b565b5081600281518110620000b357620000b2620006eb565b5b602002602001015160006004019081620000ce91906200095b565b5081600381518110620000e657620000e5620006eb565b5b6020026020010151600060050190816200010191906200095b565b5081600481518110620001195762000118620006eb565b5b6020026020010151600060060190816200013491906200095b565b50816005815181106200014c576200014b620006eb565b5b6020026020010151600060080190816200016791906200095b565b50816006815181106200017f576200017e620006eb565b5b6020026020010151600060090190816200019a91906200095b565b5082600081518110620001b257620001b1620006eb565b5b602002602001015160006001018190555082600181518110620001da57620001d9620006eb565b5b602002602001015160006003018190555082600281518110620002025762000201620006eb565b5b6020026020010151600060070181905550826003815181106200022a5762000229620006eb565b5b60200260200101516000600b018190555082600481518110620002525762000251620006eb565b5b60200260200101516000600c0181905550806000600a018190555050505062000a42565b6000604051905090565b600080fd5b600080fd5b600080fd5b6000601f19601f8301169050919050565b7f4e487b7100000000000000000000000000000000000000000000000000000000600052604160045260246000fd5b620002da826200028f565b810181811067ffffffffffffffff82111715620002fc57620002fb620002a0565b5b80604052505050565b60006200031162000276565b90506200031f8282620002cf565b919050565b600067ffffffffffffffff821115620003425762000341620002a0565b5b602082029050602081019050919050565b600080fd5b6000819050919050565b6200036d8162000358565b81146200037957600080fd5b50565b6000815190506200038d8162000362565b92915050565b6000620003aa620003a48462000324565b62000305565b90508083825260208201905060208402830185811115620003d057620003cf62000353565b5b835b81811015620003fd5780620003e888826200037c565b845260208401935050602081019050620003d2565b5050509392505050565b600082601f8301126200041f576200041e6200028a565b5b81516200043184826020860162000393565b91505092915050565b600067ffffffffffffffff821115620004585762000457620002a0565b5b602082029050602081019050919050565b600080fd5b600067ffffffffffffffff8211156200048c576200048b620002a0565b5b62000497826200028f565b9050602081019050919050565b60005b83811015620004c4578082015181840152602081019050620004a7565b60008484015250505050565b6000620004e7620004e1846200046e565b62000305565b90508281526020810184848401111562000506576200050562000469565b5b62000513848285620004a4565b509392505050565b600082601f8301126200053357620005326200028a565b5b815162000545848260208601620004d0565b91505092915050565b6000620005656200055f846200043a565b62000305565b905080838252602082019050602084028301858111156200058b576200058a62000353565b5b835b81811015620005d957805167ffffffffffffffff811115620005b457620005b36200028a565b5b808601620005c389826200051b565b855260208501945050506020810190506200058d565b5050509392505050565b600082601f830112620005fb57620005fa6200028a565b5b81516200060d8482602086016200054e565b91505092915050565b6000819050919050565b6200062b8162000616565b81146200063757600080fd5b50565b6000815190506200064b8162000620565b92915050565b6000806000606084860312156200066d576200066c62000280565b5b600084015167ffffffffffffffff8111156200068e576200068d62000285565b5b6200069c8682870162000407565b935050602084015167ffffffffffffffff811115620006c057620006bf62000285565b5b620006ce86828701620005e3565b9250506040620006e1868287016200063a565b9150509250925092565b7f4e487b7100000000000000000000000000000000000000000000000000000000600052603260045260246000fd5b600081519050919050565b7f4e487b7100000000000000000000000000000000000000000000000000000000600052602260045260246000fd5b600060028204905060018216806200076d57607f821691505b60208210810362000783576200078262000725565b5b50919050565b60008190508160005260206000209050919050565b60006020601f8301049050919050565b600082821b905092915050565b600060088302620007ed7fffffffffffffffffffffffffffffffffffffffffffffffffffffffffffffffff82620007ae565b620007f98683620007ae565b95508019841693508086168417925050509392505050565b6000819050919050565b60006200083c62000836620008308462000358565b62000811565b62000358565b9050919050565b6000819050919050565b62000858836200081b565b62000870620008678262000843565b848454620007bb565b825550505050565b600090565b6200088762000878565b620008948184846200084d565b505050565b5b81811015620008bc57620008b06000826200087d565b6001810190506200089a565b5050565b601f8211156200090b57620008d58162000789565b620008e0846200079e565b81016020851015620008f0578190505b62000908620008ff856200079e565b83018262000899565b50505b505050565b600082821c905092915050565b6000620009306000198460080262000910565b1980831691505092915050565b60006200094b83836200091d565b9150826002028217905092915050565b62000966826200071a565b67ffffffffffffffff811115620009825762000981620002a0565b5b6200098e825462000754565b6200099b828285620008c0565b600060209050601f831160018114620009d35760008415620009be578287015190505b620009ca85826200093d565b86555062000a3a565b601f198416620009e38662000789565b60005b8281101562000a0d57848901518255600182019150602085019450602081019050620009e6565b8683101562000a2d578489015162000a29601f8916826200091d565b8355505b6001600288020188555050505b505050505050565b6114968062000a526000396000f3fe608060405234801561001057600080fd5b50600436106100415760003560e01c80635426177e146100465780639032198814610064578063d08145e414610080575b600080fd5b61004e61009e565b60405161005b9190610d9a565b60405180910390f35b61007e6004803603810190610079919061100f565b6106a4565b005b610088610790565b60405161009591906110ce565b60405180910390f35b6100a6610933565b6000604051806101c00160405290816000820180546100c49061111f565b80601f01602080910402602001604051908101604052809291908181526020018280546100f09061111f565b801561013d5780601f106101125761010080835404028352916020019161013d565b820191906000526020600020905b81548152906001019060200180831161012057829003601f168201915b50505050508152602001600182015481526020016002820180546101609061111f565b80601f016020809104026020016040519081016040528092919081815260200182805461018c9061111f565b80156101d95780601f106101ae576101008083540402835291602001916101d9565b820191906000526020600020905b8154815290600101906020018083116101bc57829003601f168201915b50505050508152602001600382015481526020016004820180546101fc9061111f565b80601f01602080910402602001604051908101604052809291908181526020018280546102289061111f565b80156102755780601f1061024a57610100808354040283529160200191610275565b820191906000526020600020905b81548152906001019060200180831161025857829003601f168201915b5050505050815260200160058201805461028e9061111f565b80601f01602080910402602001604051908101604052809291908181526020018280546102ba9061111f565b80156103075780601f106102dc57610100808354040283529160200191610307565b820191906000526020600020905b8154815290600101906020018083116102ea57829003601f168201915b505050505081526020016006820180546103209061111f565b80601f016020809104026020016040519081016040528092919081815260200182805461034c9061111f565b80156103995780601f1061036e57610100808354040283529160200191610399565b820191906000526020600020905b81548152906001019060200180831161037c57829003601f168201915b50505050508152602001600782015481526020016008820180546103bc9061111f565b80601f01602080910402602001604051908101604052809291908181526020018280546103e89061111f565b80156104355780601f1061040a57610100808354040283529160200191610435565b820191906000526020600020905b81548152906001019060200180831161041857829003601f168201915b5050505050815260200160098201805461044e9061111f565b80601f016020809104026020016040519081016040528092919081815260200182805461047a9061111f565b80156104c75780601f1061049c576101008083540402835291602001916104c7565b820191906000526020600020905b8154815290600101906020018083116104aa57829003601f168201915b50505050508152602001600a8201548152602001600b8201548152602001600c8201548152602001600d8201805480602002602001604051908101604052809291908181526020016000905b8282101561069757838290600052602060002090600502016040518060a001604052908160008201548152602001600182015481526020016002820160009054906101000a900473ffffffffffffffffffffffffffffffffffffffff1673ffffffffffffffffffffffffffffffffffffffff1673ffffffffffffffffffffffffffffffffffffffff1681526020016003820160009054906101000a900473ffffffffffffffffffffffffffffffffffffffff1673ffffffffffffffffffffffffffffffffffffffff1673ffffffffffffffffffffffffffffffffffffffff1681526020016004820180546106069061111f565b80601f01602080910402602001604051908101604052809291908181526020018280546106329061111f565b801561067f5780601f106106545761010080835404028352916020019161067f565b820191906000526020600020905b81548152906001019060200180831161066257829003601f168201915b50505050508152505081526020019060010190610513565b5050505081525050905090565b6000600d01819080600181540180825580915050600190039060005260206000209060050201600090919091909150600082015181600001556020820151816001015560408201518160020160006101000a81548173ffffffffffffffffffffffffffffffffffffffff021916908373ffffffffffffffffffffffffffffffffffffffff16021790555060608201518160030160006101000a81548173ffffffffffffffffffffffffffffffffffffffff021916908373ffffffffffffffffffffffffffffffffffffffff160217905550608082015181600401908161078a91906112fc565b50505050565b6107986109a5565b6000600d0160016000600d01805490506107b291906113fd565b815481106107c3576107c2611431565b5b90600052602060002090600502016040518060a001604052908160008201548152602001600182015481526020016002820160009054906101000a900473ffffffffffffffffffffffffffffffffffffffff1673ffffffffffffffffffffffffffffffffffffffff1673ffffffffffffffffffffffffffffffffffffffff1681526020016003820160009054906101000a900473ffffffffffffffffffffffffffffffffffffffff1673ffffffffffffffffffffffffffffffffffffffff1673ffffffffffffffffffffffffffffffffffffffff1681526020016004820180546108ac9061111f565b80601f01602080910402602001604051908101604052809291908181526020018280546108d89061111f565b80156109255780601f106108fa57610100808354040283529160200191610925565b820191906000526020600020905b81548152906001019060200180831161090857829003601f168201915b505050505081525050905090565b604051806101c0016040528060608152602001600081526020016060815260200160008152602001606081526020016060815260200160608152602001600081526020016060815260200160608152602001600080191681526020016000815260200160008152602001606081525090565b6040518060a001604052806000815260200160008152602001600073ffffffffffffffffffffffffffffffffffffffff168152602001600073ffffffffffffffffffffffffffffffffffffffff168152602001606081525090565b600081519050919050565b600082825260208201905092915050565b60005b83811015610a3a578082015181840152602081019050610a1f565b60008484015250505050565b6000601f19601f8301169050919050565b6000610a6282610a00565b610a6c8185610a0b565b9350610a7c818560208601610a1c565b610a8581610a46565b840191505092915050565b6000819050919050565b610aa381610a90565b82525050565b6000819050919050565b610abc81610aa9565b82525050565b600081519050919050565b600082825260208201905092915050565b6000819050602082019050919050565b600073ffffffffffffffffffffffffffffffffffffffff82169050919050565b6000610b1982610aee565b9050919050565b610b2981610b0e565b82525050565b600060a083016000830151610b476000860182610a9a565b506020830151610b5a6020860182610a9a565b506040830151610b6d6040860182610b20565b506060830151610b806060860182610b20565b5060808301518482036080860152610b988282610a57565b9150508091505092915050565b6000610bb18383610b2f565b905092915050565b6000602082019050919050565b6000610bd182610ac2565b610bdb8185610acd565b935083602082028501610bed85610ade565b8060005b85811015610c295784840389528151610c0a8582610ba5565b9450610c1583610bb9565b925060208a01995050600181019050610bf1565b50829750879550505050505092915050565b60006101c0830160008301518482036000860152610c598282610a57565b9150506020830151610c6e6020860182610a9a565b5060408301518482036040860152610c868282610a57565b9150506060830151610c9b6060860182610a9a565b5060808301518482036080860152610cb38282610a57565b91505060a083015184820360a0860152610ccd8282610a57565b91505060c083015184820360c0860152610ce78282610a57565b91505060e0830151610cfc60e0860182610a9a565b50610100830151848203610100860152610d168282610a57565b915050610120830151848203610120860152610d328282610a57565b915050610140830151610d49610140860182610ab3565b50610160830151610d5e610160860182610a9a565b50610180830151610d73610180860182610a9a565b506101a08301518482036101a0860152610d8d8282610bc6565b9150508091505092915050565b60006020820190508181036000830152610db48184610c3b565b905092915050565b6000604051905090565b600080fd5b600080fd5b600080fd5b7f4e487b7100000000000000000000000000000000000000000000000000000000600052604160045260246000fd5b610e0d82610a46565b810181811067ffffffffffffffff82111715610e2c57610e2b610dd5565b5b80604052505050565b6000610e3f610dbc565b9050610e4b8282610e04565b919050565b600080fd5b610e5e81610a90565b8114610e6957600080fd5b50565b600081359050610e7b81610e55565b92915050565b610e8a81610b0e565b8114610e9557600080fd5b50565b600081359050610ea781610e81565b92915050565b600080fd5b600080fd5b600067ffffffffffffffff821115610ed257610ed1610dd5565b5b610edb82610a46565b9050602081019050919050565b82818337600083830152505050565b6000610f0a610f0584610eb7565b610e35565b905082815260208101848484011115610f2657610f25610eb2565b5b610f31848285610ee8565b509392505050565b600082601f830112610f4e57610f4d610ead565b5b8135610f5e848260208601610ef7565b91505092915050565b600060a08284031215610f7d57610f7c610dd0565b5b610f8760a0610e35565b90506000610f9784828501610e6c565b6000830152506020610fab84828501610e6c565b6020830152506040610fbf84828501610e98565b6040830152506060610fd384828501610e98565b606083015250608082013567ffffffffffffffff811115610ff757610ff6610e50565b5b61100384828501610f39565b60808301525092915050565b60006020828403121561102557611024610dc6565b5b600082013567ffffffffffffffff81111561104357611042610dcb565b5b61104f84828501610f67565b91505092915050565b600060a0830160008301516110706000860182610a9a565b5060208301516110836020860182610a9a565b5060408301516110966040860182610b20565b5060608301516110a96060860182610b20565b50608083015184820360808601526110c18282610a57565b9150508091505092915050565b600060208201905081810360008301526110e88184611058565b905092915050565b7f4e487b7100000000000000000000000000000000000000000000000000000000600052602260045260246000fd5b6000600282049050600182168061113757607f821691505b60208210810361114a576111496110f0565b5b50919050565b60008190508160005260206000209050919050565b60006020601f8301049050919050565b600082821b905092915050565b6000600883026111b27fffffffffffffffffffffffffffffffffffffffffffffffffffffffffffffffff82611175565b6111bc8683611175565b95508019841693508086168417925050509392505050565b6000819050919050565b60006111f96111f46111ef84610a90565b6111d4565b610a90565b9050919050565b6000819050919050565b611213836111de565b61122761121f82611200565b848454611182565b825550505050565b600090565b61123c61122f565b61124781848461120a565b505050565b5b8181101561126b57611260600082611234565b60018101905061124d565b5050565b601f8211156112b05761128181611150565b61128a84611165565b81016020851015611299578190505b6112ad6112a585611165565b83018261124c565b50505b505050565b600082821c905092915050565b60006112d3600019846008026112b5565b1980831691505092915050565b60006112ec83836112c2565b9150826002028217905092915050565b61130582610a00565b67ffffffffffffffff81111561131e5761131d610dd5565b5b611328825461111f565b61133382828561126f565b600060209050601f8311600181146113665760008415611354578287015190505b61135e85826112e0565b8655506113c6565b601f19841661137486611150565b60005b8281101561139c57848901518255600182019150602085019450602081019050611377565b868310156113b957848901516113b5601f8916826112c2565b8355505b6001600288020188555050505b505050505050565b7f4e487b7100000000000000000000000000000000000000000000000000000000600052601160045260246000fd5b600061140882610a90565b915061141383610a90565b925082820390508181111561142b5761142a6113ce565b5b92915050565b7f4e487b7100000000000000000000000000000000000000000000000000000000600052603260045260246000fdfea264697066735822122055ee912185eb88bc578c41e070a11f0505c7bbf54264daa04bd03e1371d00eea64736f6c63430008110033a2646970667358221220d65df2e944a626e78f520756b453ce30693624bb0e7ea5004a88d2348cb4c28364736f6c63430008110033",
  "immutableReferences": {},
  "source": "// SPDX-License-Identifier: MIT\n\npragma solidity ^0.8.17;\n\nimport \"./form.sol\";\n\n// This is a special contract that generates Form contracts, that have their own methods to generate and update their\n// attributes, while keeping track of all the forms in the blockchain.\n\ncontract FormFactory {\n    // Events are a way for contract to communicate that something happened on the blockchain to your app front-end,\n    // which can be 'listening' for certain events and take action when they happen.\n\n    // newForm: Event to be emitted when a new form is created.\n    // NOTE: If more fields are needed, change the emit in createForm.\n    event newForm(uint caseNumber, address caseAddress, FormData data);\n    event formFound(address caseAddress, FormData data);\n\n\n    // Mapping to store the forms for the evidence of the cases.\n    mapping(address => Form) private addressToForm;\n    // Mapping to store the addresses of the forms currently in charge of every user.\n    mapping(address => address[]) private userToFormAddresses;\n    // Array to store the addresses of the forms for the evidence of the cases.\n    address[] private listFormAddress; // TODO: private?\n\n    /**\n    *   @dev Function to create a new form for the evidence of the case.\n    *\n    *   @param _numbers All numerical information in the form\n    *   @param _strings All textual information in the form\n    *   @param _hashValue Hash value of the evidence\n    */\n    function createForm(uint[] memory _numbers, string[] memory _strings, bytes32 _hashValue) public returns (address) {\n        // Generation of new address for the form.\n        address entityAddress = createAddress();\n        // Creation of the new Form directly in the mapping object\n        addressToForm[entityAddress] = new Form(_numbers, _strings, _hashValue);\n        addressToForm[entityAddress].pushLog(Log(0, block.timestamp, msg.sender, msg.sender, \"Form created\"));\n        userToFormAddresses[msg.sender].push(entityAddress);\n        // Emit the event newForm.\n        emit newForm(_numbers[0], entityAddress, readFormAddress(entityAddress));\n        return entityAddress;\n    }\n\n    /**\n    *   @dev Function to get a form from its address.\n    *\n    *   @param _caseAddress address of the case\n    *\n    *   @return Form form required\n    */\n    function findForm(address _caseAddress) public view returns (Form) {\n        return addressToForm[_caseAddress];\n    }\n\n    /**\n    *   @dev Function to get form data from itself.\n    *\n    *   @param _form form which data is required\n    *\n    *   @return FormData Struct that contains the data of the form\n    */\n    function readForm(Form _form) public view returns (FormData memory) {\n        return _form.readForm();\n    }\n\n    /**\n    *   @dev Function to get form data from an address.\n    *\n    *   @param _caseAddress address of the case\n    *\n    *   @return FormData Struct that contains the data of the form required\n    */\n    function readFormAddress(address _caseAddress) public view returns (FormData memory) {\n        return readForm(findForm(_caseAddress));\n    }\n\n    /**\n    *   @dev Function that compute a random address.\n    *\n    *   @return address randomly generated\n    */\n    function createAddress() private view returns (address) {\n        return address(uint160(uint(keccak256(abi.encodePacked(block.timestamp, block.difficulty, msg.sender)))));\n    }\n\n    /**\n    *   @dev Function that returns the forms in charge of an user.\n    *\n    *   @return address array with addresses of forms in charge of an user\n    */\n    function getUserFormAddresses(address _userAddress) public view returns (address[] memory) {\n        return userToFormAddresses[_userAddress];\n    }\n\n    function getForm(address _formAddress, string memory _reason) public {\n        address previousUser = findForm(_formAddress).lastLog().receivedBy;\n        findForm(_formAddress).pushLog(Log(\n                findForm(_formAddress).lastLog().trackingNumber + 1,\n                block.timestamp,\n                previousUser,\n                msg.sender,\n                _reason)\n        );\n        userToFormAddresses[msg.sender].push(_formAddress);\n        removeAddressInAUserList(previousUser, _formAddress);\n    }\n\n    /**\n    *   @dev Function that search for a form with a certain case number.\n    *\n    *   @param _caseNumber number of the case\n    *\n    *   @return Form requested\n    */\n    function searchCaseNumber(uint _caseNumber) public returns (Form) {\n        require(listFormAddress.length > 0);\n        for (uint i = 0; i < listFormAddress.length; i++) {\n            if (readFormAddress(listFormAddress[i]).caseNumber == _caseNumber) {\n                emit formFound(listFormAddress[i], readFormAddress(listFormAddress[i]));\n                return addressToForm[listFormAddress[i]];\n            }\n        }\n        revert(\"Non existent\");\n    }\n\n    /**\n    *   @dev Function that removes a certain address of a certain user.\n    *\n    *   @param _userAddress address of the user we want to take the evidence from\n    *\n    *   @param _formAddress address of the form we want to remove from _userAddress\n    */\n    function removeAddressInAUserList(address _userAddress, address _formAddress) private {\n        require(userToFormAddresses[_userAddress].length > 0);\n\n        uint userAddressesLength = userToFormAddresses[_userAddress].length;\n\n        for (uint i = 0; i < userAddressesLength; i++) {// look into the addresses linked to _userAddress\n            if (userToFormAddresses[_userAddress][i] == _formAddress) {\n                // copy the last element in the index we want to remove\n                userToFormAddresses[_userAddress][i] = userToFormAddresses[_userAddress][userAddressesLength - 1];\n                userToFormAddresses[_userAddress].pop();  // remove the last element\n            }\n        }\n    }\n}",
  "sourcePath": "/Users/lorenzocrespan/Documents/Workspace/University/90748 - Blockchain and Cryptocurrencies/BlueWoodchuck/project/blockchain/contracts/contracts/formFactory.sol",
  "compiler": {
    "name": "solc",
    "version": "0.8.17+commit.8df45f5f.Emscripten.clang"
  },
  "schemaVersion": "3.4.10",
  "updatedAt": "2023-02-08T21:01:22.568Z",
  "networkType": "ethereum",
  "devdoc": {
    "kind": "dev",
    "methods": {
      "createForm(uint256[],string[],bytes32)": {
        "details": "Function to create a new form for the evidence of the case.",
        "params": {
          "_hashValue": "Hash value of the evidence",
          "_numbers": "All numerical information in the form",
          "_strings": "All textual information in the form"
        }
      },
      "findForm(address)": {
        "details": "Function to get a form from its address.",
        "params": {
          "_caseAddress": "address of the case"
        },
        "returns": {
          "_0": "Form form required"
        }
      },
      "getUserFormAddresses(address)": {
        "details": "Function that returns the forms in charge of an user.",
        "returns": {
          "_0": "address array with addresses of forms in charge of an user"
        }
      },
      "readForm(address)": {
        "details": "Function to get form data from itself.",
        "params": {
          "_form": "form which data is required"
        },
        "returns": {
          "_0": "FormData Struct that contains the data of the form"
        }
      },
      "readFormAddress(address)": {
        "details": "Function to get form data from an address.",
        "params": {
          "_caseAddress": "address of the case"
        },
        "returns": {
          "_0": "FormData Struct that contains the data of the form required"
        }
      },
      "searchCaseNumber(uint256)": {
        "details": "Function that search for a form with a certain case number.",
        "params": {
          "_caseNumber": "number of the case"
        },
        "returns": {
          "_0": "Form requested"
        }
      }
    },
    "version": 1
  },
  "userdoc": {
    "kind": "user",
    "methods": {},
    "version": 1
  }
}