{
  "contractName": "FormFactory",
  "abi": [
    {
      "anonymous": false,
      "inputs": [
        {
          "indexed": false,
          "internalType": "address",
          "name": "caseAddress",
          "type": "address"
        },
        {
          "components": [
            {
              "internalType": "string",
              "name": "caseName",
              "type": "string"
            },
            {
              "internalType": "uint256",
              "name": "caseNumber",
              "type": "uint256"
            },
            {
              "internalType": "string",
              "name": "reasonObtained",
              "type": "string"
            },
            {
              "internalType": "uint256",
              "name": "itemNumber",
              "type": "uint256"
            },
            {
              "internalType": "string",
              "name": "evidenceTypeManufacturer",
              "type": "string"
            },
            {
              "internalType": "string",
              "name": "owner",
              "type": "string"
            },
            {
              "internalType": "string",
              "name": "contentDescription",
              "type": "string"
            },
            {
              "internalType": "uint256",
              "name": "contentOwnerContactInformation",
              "type": "uint256"
            },
            {
              "internalType": "string",
              "name": "forensicAgent",
              "type": "string"
            },
            {
              "internalType": "string",
              "name": "creationMethod",
              "type": "string"
            },
            {
              "internalType": "bytes32",
              "name": "hashValue",
              "type": "bytes32"
            },
            {
              "internalType": "uint256",
              "name": "date",
              "type": "uint256"
            },
            {
              "internalType": "uint256",
              "name": "forensicAgentContactInformation",
              "type": "uint256"
            },
            {
              "components": [
                {
                  "internalType": "uint256",
                  "name": "trackingNumber",
                  "type": "uint256"
                },
                {
                  "internalType": "uint256",
                  "name": "timestamp",
                  "type": "uint256"
                },
                {
                  "internalType": "address",
                  "name": "releasedBy",
                  "type": "address"
                },
                {
                  "internalType": "address",
                  "name": "receivedBy",
                  "type": "address"
                },
                {
                  "internalType": "string",
                  "name": "reasonForChange",
                  "type": "string"
                }
              ],
              "internalType": "struct Log[]",
              "name": "chainOfCustody",
              "type": "tuple[]"
            }
          ],
          "indexed": false,
          "internalType": "struct FormData",
          "name": "data",
          "type": "tuple"
        }
      ],
      "name": "formFound",
      "type": "event"
    },
    {
      "anonymous": false,
      "inputs": [
        {
          "indexed": false,
          "internalType": "uint256",
          "name": "caseNumber",
          "type": "uint256"
        },
        {
          "indexed": false,
          "internalType": "address",
          "name": "caseAddress",
          "type": "address"
        },
        {
          "components": [
            {
              "internalType": "string",
              "name": "caseName",
              "type": "string"
            },
            {
              "internalType": "uint256",
              "name": "caseNumber",
              "type": "uint256"
            },
            {
              "internalType": "string",
              "name": "reasonObtained",
              "type": "string"
            },
            {
              "internalType": "uint256",
              "name": "itemNumber",
              "type": "uint256"
            },
            {
              "internalType": "string",
              "name": "evidenceTypeManufacturer",
              "type": "string"
            },
            {
              "internalType": "string",
              "name": "owner",
              "type": "string"
            },
            {
              "internalType": "string",
              "name": "contentDescription",
              "type": "string"
            },
            {
              "internalType": "uint256",
              "name": "contentOwnerContactInformation",
              "type": "uint256"
            },
            {
              "internalType": "string",
              "name": "forensicAgent",
              "type": "string"
            },
            {
              "internalType": "string",
              "name": "creationMethod",
              "type": "string"
            },
            {
              "internalType": "bytes32",
              "name": "hashValue",
              "type": "bytes32"
            },
            {
              "internalType": "uint256",
              "name": "date",
              "type": "uint256"
            },
            {
              "internalType": "uint256",
              "name": "forensicAgentContactInformation",
              "type": "uint256"
            },
            {
              "components": [
                {
                  "internalType": "uint256",
                  "name": "trackingNumber",
                  "type": "uint256"
                },
                {
                  "internalType": "uint256",
                  "name": "timestamp",
                  "type": "uint256"
                },
                {
                  "internalType": "address",
                  "name": "releasedBy",
                  "type": "address"
                },
                {
                  "internalType": "address",
                  "name": "receivedBy",
                  "type": "address"
                },
                {
                  "internalType": "string",
                  "name": "reasonForChange",
                  "type": "string"
                }
              ],
              "internalType": "struct Log[]",
              "name": "chainOfCustody",
              "type": "tuple[]"
            }
          ],
          "indexed": false,
          "internalType": "struct FormData",
          "name": "data",
          "type": "tuple"
        }
      ],
      "name": "newForm",
      "type": "event"
    },
    {
      "inputs": [
        {
          "internalType": "uint256[]",
          "name": "_numbers",
          "type": "uint256[]"
        },
        {
          "internalType": "string[]",
          "name": "_strings",
          "type": "string[]"
        },
        {
          "internalType": "bytes32",
          "name": "_hashValue",
          "type": "bytes32"
        }
      ],
      "name": "createForm",
      "outputs": [
        {
          "internalType": "address",
          "name": "",
          "type": "address"
        }
      ],
      "stateMutability": "nonpayable",
      "type": "function"
    },
    {
      "inputs": [
        {
          "internalType": "address",
          "name": "_caseAddress",
          "type": "address"
        }
      ],
      "name": "findForm",
      "outputs": [
        {
          "internalType": "contract Form",
          "name": "",
          "type": "address"
        }
      ],
      "stateMutability": "view",
      "type": "function",
      "constant": true
    },
    {
      "inputs": [
        {
          "internalType": "contract Form",
          "name": "_form",
          "type": "address"
        }
      ],
      "name": "readForm",
      "outputs": [
        {
          "components": [
            {
              "internalType": "string",
              "name": "caseName",
              "type": "string"
            },
            {
              "internalType": "uint256",
              "name": "caseNumber",
              "type": "uint256"
            },
            {
              "internalType": "string",
              "name": "reasonObtained",
              "type": "string"
            },
            {
              "internalType": "uint256",
              "name": "itemNumber",
              "type": "uint256"
            },
            {
              "internalType": "string",
              "name": "evidenceTypeManufacturer",
              "type": "string"
            },
            {
              "internalType": "string",
              "name": "owner",
              "type": "string"
            },
            {
              "internalType": "string",
              "name": "contentDescription",
              "type": "string"
            },
            {
              "internalType": "uint256",
              "name": "contentOwnerContactInformation",
              "type": "uint256"
            },
            {
              "internalType": "string",
              "name": "forensicAgent",
              "type": "string"
            },
            {
              "internalType": "string",
              "name": "creationMethod",
              "type": "string"
            },
            {
              "internalType": "bytes32",
              "name": "hashValue",
              "type": "bytes32"
            },
            {
              "internalType": "uint256",
              "name": "date",
              "type": "uint256"
            },
            {
              "internalType": "uint256",
              "name": "forensicAgentContactInformation",
              "type": "uint256"
            },
            {
              "components": [
                {
                  "internalType": "uint256",
                  "name": "trackingNumber",
                  "type": "uint256"
                },
                {
                  "internalType": "uint256",
                  "name": "timestamp",
                  "type": "uint256"
                },
                {
                  "internalType": "address",
                  "name": "releasedBy",
                  "type": "address"
                },
                {
                  "internalType": "address",
                  "name": "receivedBy",
                  "type": "address"
                },
                {
                  "internalType": "string",
                  "name": "reasonForChange",
                  "type": "string"
                }
              ],
              "internalType": "struct Log[]",
              "name": "chainOfCustody",
              "type": "tuple[]"
            }
          ],
          "internalType": "struct FormData",
          "name": "",
          "type": "tuple"
        }
      ],
      "stateMutability": "view",
      "type": "function",
      "constant": true
    },
    {
      "inputs": [
        {
          "internalType": "address",
          "name": "_caseAddress",
          "type": "address"
        }
      ],
      "name": "readFormAddress",
      "outputs": [
        {
          "components": [
            {
              "internalType": "string",
              "name": "caseName",
              "type": "string"
            },
            {
              "internalType": "uint256",
              "name": "caseNumber",
              "type": "uint256"
            },
            {
              "internalType": "string",
              "name": "reasonObtained",
              "type": "string"
            },
            {
              "internalType": "uint256",
              "name": "itemNumber",
              "type": "uint256"
            },
            {
              "internalType": "string",
              "name": "evidenceTypeManufacturer",
              "type": "string"
            },
            {
              "internalType": "string",
              "name": "owner",
              "type": "string"
            },
            {
              "internalType": "string",
              "name": "contentDescription",
              "type": "string"
            },
            {
              "internalType": "uint256",
              "name": "contentOwnerContactInformation",
              "type": "uint256"
            },
            {
              "internalType": "string",
              "name": "forensicAgent",
              "type": "string"
            },
            {
              "internalType": "string",
              "name": "creationMethod",
              "type": "string"
            },
            {
              "internalType": "bytes32",
              "name": "hashValue",
              "type": "bytes32"
            },
            {
              "internalType": "uint256",
              "name": "date",
              "type": "uint256"
            },
            {
              "internalType": "uint256",
              "name": "forensicAgentContactInformation",
              "type": "uint256"
            },
            {
              "components": [
                {
                  "internalType": "uint256",
                  "name": "trackingNumber",
                  "type": "uint256"
                },
                {
                  "internalType": "uint256",
                  "name": "timestamp",
                  "type": "uint256"
                },
                {
                  "internalType": "address",
                  "name": "releasedBy",
                  "type": "address"
                },
                {
                  "internalType": "address",
                  "name": "receivedBy",
                  "type": "address"
                },
                {
                  "internalType": "string",
                  "name": "reasonForChange",
                  "type": "string"
                }
              ],
              "internalType": "struct Log[]",
              "name": "chainOfCustody",
              "type": "tuple[]"
            }
          ],
          "internalType": "struct FormData",
          "name": "",
          "type": "tuple"
        }
      ],
      "stateMutability": "view",
      "type": "function",
      "constant": true
    },
    {
      "inputs": [
        {
          "internalType": "address",
          "name": "_formAddress",
          "type": "address"
        },
        {
          "internalType": "string",
          "name": "_reason",
          "type": "string"
        }
      ],
      "name": "getForm",
      "outputs": [],
      "stateMutability": "nonpayable",
      "type": "function"
    },
    {
      "inputs": [
        {
          "internalType": "uint256",
          "name": "_caseNumber",
          "type": "uint256"
        }
      ],
      "name": "searchCaseNumber",
      "outputs": [
        {
          "internalType": "contract Form",
          "name": "",
          "type": "address"
        }
      ],
      "stateMutability": "nonpayable",
      "type": "function"
    }
  ],
  "bytecode": "0x608060405234801561001057600080fd5b50613f35806100206000396000f3fe60806040523480156200001157600080fd5b50600436106200006a5760003560e01c8063057b0110146200006f5780634b194bf014620000a5578063737ab47f14620000db57806374de047a1462000111578063ca8e697f1462000131578063edef556a1462000167575b600080fd5b6200008d600480360381019062000087919062000eab565b6200019d565b6040516200009c919062001289565b60405180910390f35b620000c36004803603810190620000bd9190620012f2565b620001c3565b604051620000d2919062001289565b60405180910390f35b620000f96004803603810190620000f3919062001355565b6200024b565b604051620001089190620013f2565b60405180910390f35b6200012f600480360381019062000129919062001560565b62000490565b005b6200014f600480360381019062000149919062000eab565b620006b7565b6040516200015e9190620013f2565b60405180910390f35b6200018560048036038101906200017f9190620017c9565b6200071f565b60405162000194919062001874565b60405180910390f35b620001a762000db2565b620001bc620001b683620006b7565b620001c3565b9050919050565b620001cd62000db2565b8173ffffffffffffffffffffffffffffffffffffffff16635426177e6040518163ffffffff1660e01b8152600401600060405180830381865afa15801562000219573d6000803e3d6000fd5b505050506040513d6000823e3d601f19601f8201168201806040525081019062000244919062001d76565b9050919050565b600080600280549050116200025f57600080fd5b60005b6002805490508110156200044d5782620002bd600283815481106200028c576200028b62001dc7565b5b9060005260206000200160009054906101000a900473ffffffffffffffffffffffffffffffffffffffff166200019d565b602001510362000437577fd7ad6d2ae4b7210969cb5bb7c047c09a12303d3a42234f49ad8d1284b83b917260028281548110620002ff57620002fe62001dc7565b5b9060005260206000200160009054906101000a900473ffffffffffffffffffffffffffffffffffffffff16620003766002848154811062000345576200034462001dc7565b5b9060005260206000200160009054906101000a900473ffffffffffffffffffffffffffffffffffffffff166200019d565b6040516200038692919062001df6565b60405180910390a160008060028381548110620003a857620003a762001dc7565b5b9060005260206000200160009054906101000a900473ffffffffffffffffffffffffffffffffffffffff1673ffffffffffffffffffffffffffffffffffffffff1673ffffffffffffffffffffffffffffffffffffffff16815260200190815260200160002060009054906101000a900473ffffffffffffffffffffffffffffffffffffffff169150506200048b565b8080620004449062001e59565b91505062000262565b506040517f08c379a0000000000000000000000000000000000000000000000000000000008152600401620004829062001f07565b60405180910390fd5b919050565b60006200049d836200019d565b6101a001515190506000620004b2846200019d565b6101a00151600183620004c6919062001f29565b81518110620004da57620004d962001dc7565b5b60200260200101516060015190506000620004f5856200019d565b6101a0015160018462000509919062001f29565b815181106200051d576200051c62001dc7565b5b60200260200101516000015190506200053685620006b7565b73ffffffffffffffffffffffffffffffffffffffff1663903219886040518060a001604052806001856200056b919062001f64565b81526020014281526020018573ffffffffffffffffffffffffffffffffffffffff1681526020013373ffffffffffffffffffffffffffffffffffffffff168152602001878152506040518263ffffffff1660e01b8152600401620005d091906200201f565b600060405180830381600087803b158015620005eb57600080fd5b505af115801562000600573d6000803e3d6000fd5b50505050600160003373ffffffffffffffffffffffffffffffffffffffff1673ffffffffffffffffffffffffffffffffffffffff168152602001908152602001600020859080600181540180825580915050600190039060005260206000200160009091909190916101000a81548173ffffffffffffffffffffffffffffffffffffffff021916908373ffffffffffffffffffffffffffffffffffffffff160217905550620006b0828662000a59565b5050505050565b60008060008373ffffffffffffffffffffffffffffffffffffffff1673ffffffffffffffffffffffffffffffffffffffff16815260200190815260200160002060009054906101000a900473ffffffffffffffffffffffffffffffffffffffff169050919050565b6000806200072c62000d7b565b90508484846040516200073f9062000e24565b6200074d93929190620021e1565b604051809103906000f0801580156200076a573d6000803e3d6000fd5b506000808373ffffffffffffffffffffffffffffffffffffffff1673ffffffffffffffffffffffffffffffffffffffff16815260200190815260200160002060006101000a81548173ffffffffffffffffffffffffffffffffffffffff021916908373ffffffffffffffffffffffffffffffffffffffff1602179055506000808273ffffffffffffffffffffffffffffffffffffffff1673ffffffffffffffffffffffffffffffffffffffff16815260200190815260200160002060009054906101000a900473ffffffffffffffffffffffffffffffffffffffff1673ffffffffffffffffffffffffffffffffffffffff1663903219886040518060a00160405280600081526020014281526020013373ffffffffffffffffffffffffffffffffffffffff1681526020013373ffffffffffffffffffffffffffffffffffffffff1681526020016040518060400160405280600c81526020017f466f726d206372656174656400000000000000000000000000000000000000008152508152506040518263ffffffff1660e01b81526004016200090891906200201f565b600060405180830381600087803b1580156200092357600080fd5b505af115801562000938573d6000803e3d6000fd5b50505050600160003373ffffffffffffffffffffffffffffffffffffffff1673ffffffffffffffffffffffffffffffffffffffff168152602001908152602001600020819080600181540180825580915050600190039060005260206000200160009091909190916101000a81548173ffffffffffffffffffffffffffffffffffffffff021916908373ffffffffffffffffffffffffffffffffffffffff160217905550620009e8600a6200024b565b507fa32121da9500249d8880fce97dd8f5f3f0f54bfedc91bdb545438f69d79d89178560008151811062000a215762000a2062001dc7565b5b60200260200101518262000a35846200019d565b60405162000a46939291906200223d565b60405180910390a1809150509392505050565b6000600160008473ffffffffffffffffffffffffffffffffffffffff1673ffffffffffffffffffffffffffffffffffffffff168152602001908152602001600020805490501162000aa957600080fd5b6000600160008473ffffffffffffffffffffffffffffffffffffffff1673ffffffffffffffffffffffffffffffffffffffff16815260200190815260200160002080549050905060005b8181101562000d75578273ffffffffffffffffffffffffffffffffffffffff16600160008673ffffffffffffffffffffffffffffffffffffffff1673ffffffffffffffffffffffffffffffffffffffff168152602001908152602001600020828154811062000b675762000b6662001dc7565b5b9060005260206000200160009054906101000a900473ffffffffffffffffffffffffffffffffffffffff1673ffffffffffffffffffffffffffffffffffffffff160362000d5f57600160008573ffffffffffffffffffffffffffffffffffffffff1673ffffffffffffffffffffffffffffffffffffffff16815260200190815260200160002060018362000bfc919062001f29565b8154811062000c105762000c0f62001dc7565b5b9060005260206000200160009054906101000a900473ffffffffffffffffffffffffffffffffffffffff16600160008673ffffffffffffffffffffffffffffffffffffffff1673ffffffffffffffffffffffffffffffffffffffff168152602001908152602001600020828154811062000c8f5762000c8e62001dc7565b5b9060005260206000200160006101000a81548173ffffffffffffffffffffffffffffffffffffffff021916908373ffffffffffffffffffffffffffffffffffffffff160217905550600160008573ffffffffffffffffffffffffffffffffffffffff1673ffffffffffffffffffffffffffffffffffffffff16815260200190815260200160002080548062000d295762000d2862002281565b5b6001900381819060005260206000200160006101000a81549073ffffffffffffffffffffffffffffffffffffffff021916905590555b808062000d6c9062001e59565b91505062000af3565b50505050565b600042443360405160200162000d949392919062002325565b6040516020818303038152906040528051906020012060001c905090565b604051806101c0016040528060608152602001600081526020016060815260200160008152602001606081526020016060815260200160608152602001600081526020016060815260200160608152602001600080191681526020016000815260200160008152602001606081525090565b611b97806200236983390190565b6000604051905090565b600080fd5b600080fd5b600073ffffffffffffffffffffffffffffffffffffffff82169050919050565b600062000e738262000e46565b9050919050565b62000e858162000e66565b811462000e9157600080fd5b50565b60008135905062000ea58162000e7a565b92915050565b60006020828403121562000ec45762000ec362000e3c565b5b600062000ed48482850162000e94565b91505092915050565b600081519050919050565b600082825260208201905092915050565b60005b8381101562000f1957808201518184015260208101905062000efc565b60008484015250505050565b6000601f19601f8301169050919050565b600062000f438262000edd565b62000f4f818562000ee8565b935062000f6181856020860162000ef9565b62000f6c8162000f25565b840191505092915050565b6000819050919050565b62000f8c8162000f77565b82525050565b6000819050919050565b62000fa78162000f92565b82525050565b600081519050919050565b600082825260208201905092915050565b6000819050602082019050919050565b62000fe48162000e66565b82525050565b600060a08301600083015162001004600086018262000f81565b50602083015162001019602086018262000f81565b5060408301516200102e604086018262000fd9565b50606083015162001043606086018262000fd9565b50608083015184820360808601526200105d828262000f36565b9150508091505092915050565b600062001078838362000fea565b905092915050565b6000602082019050919050565b60006200109a8262000fad565b620010a6818562000fb8565b935083602082028501620010ba8562000fc9565b8060005b85811015620010fc5784840389528151620010da85826200106a565b9450620010e78362001080565b925060208a01995050600181019050620010be565b50829750879550505050505092915050565b60006101c08301600083015184820360008601526200112e828262000f36565b915050602083015162001145602086018262000f81565b50604083015184820360408601526200115f828262000f36565b915050606083015162001176606086018262000f81565b506080830151848203608086015262001190828262000f36565b91505060a083015184820360a0860152620011ac828262000f36565b91505060c083015184820360c0860152620011c8828262000f36565b91505060e0830151620011df60e086018262000f81565b50610100830151848203610100860152620011fb828262000f36565b91505061012083015184820361012086015262001219828262000f36565b9150506101408301516200123261014086018262000f9c565b506101608301516200124961016086018262000f81565b506101808301516200126061018086018262000f81565b506101a08301518482036101a08601526200127c82826200108d565b9150508091505092915050565b60006020820190508181036000830152620012a581846200110e565b905092915050565b6000620012ba8262000e66565b9050919050565b620012cc81620012ad565b8114620012d857600080fd5b50565b600081359050620012ec81620012c1565b92915050565b6000602082840312156200130b576200130a62000e3c565b5b60006200131b84828501620012db565b91505092915050565b6200132f8162000f77565b81146200133b57600080fd5b50565b6000813590506200134f8162001324565b92915050565b6000602082840312156200136e576200136d62000e3c565b5b60006200137e848285016200133e565b91505092915050565b6000819050919050565b6000620013b2620013ac620013a68462000e46565b62001387565b62000e46565b9050919050565b6000620013c68262001391565b9050919050565b6000620013da82620013b9565b9050919050565b620013ec81620013cd565b82525050565b6000602082019050620014096000830184620013e1565b92915050565b600080fd5b600080fd5b7f4e487b7100000000000000000000000000000000000000000000000000000000600052604160045260246000fd5b620014538262000f25565b810181811067ffffffffffffffff8211171562001475576200147462001419565b5b80604052505050565b60006200148a62000e32565b905062001498828262001448565b919050565b600067ffffffffffffffff821115620014bb57620014ba62001419565b5b620014c68262000f25565b9050602081019050919050565b82818337600083830152505050565b6000620014f9620014f3846200149d565b6200147e565b90508281526020810184848401111562001518576200151762001414565b5b62001525848285620014d3565b509392505050565b600082601f8301126200154557620015446200140f565b5b813562001557848260208601620014e2565b91505092915050565b600080604083850312156200157a576200157962000e3c565b5b60006200158a8582860162000e94565b925050602083013567ffffffffffffffff811115620015ae57620015ad62000e41565b5b620015bc858286016200152d565b9150509250929050565b600067ffffffffffffffff821115620015e457620015e362001419565b5b602082029050602081019050919050565b600080fd5b6000620016116200160b84620015c6565b6200147e565b90508083825260208201905060208402830185811115620016375762001636620015f5565b5b835b818110156200166457806200164f88826200133e565b84526020840193505060208101905062001639565b5050509392505050565b600082601f8301126200168657620016856200140f565b5b813562001698848260208601620015fa565b91505092915050565b600067ffffffffffffffff821115620016bf57620016be62001419565b5b602082029050602081019050919050565b6000620016e7620016e184620016a1565b6200147e565b905080838252602082019050602084028301858111156200170d576200170c620015f5565b5b835b818110156200175b57803567ffffffffffffffff8111156200173657620017356200140f565b5b8086016200174589826200152d565b855260208501945050506020810190506200170f565b5050509392505050565b600082601f8301126200177d576200177c6200140f565b5b81356200178f848260208601620016d0565b91505092915050565b620017a38162000f92565b8114620017af57600080fd5b50565b600081359050620017c38162001798565b92915050565b600080600060608486031215620017e557620017e462000e3c565b5b600084013567ffffffffffffffff81111562001806576200180562000e41565b5b62001814868287016200166e565b935050602084013567ffffffffffffffff81111562001838576200183762000e41565b5b620018468682870162001765565b92505060406200185986828701620017b2565b9150509250925092565b6200186e8162000e66565b82525050565b60006020820190506200188b600083018462001863565b92915050565b600080fd5b600080fd5b6000620018b2620018ac846200149d565b6200147e565b905082815260208101848484011115620018d157620018d062001414565b5b620018de84828562000ef9565b509392505050565b600082601f830112620018fe57620018fd6200140f565b5b8151620019108482602086016200189b565b91505092915050565b6000815190506200192a8162001324565b92915050565b600081519050620019418162001798565b92915050565b600067ffffffffffffffff82111562001965576200196462001419565b5b602082029050602081019050919050565b600081519050620019878162000e7a565b92915050565b600060a08284031215620019a657620019a562001891565b5b620019b260a06200147e565b90506000620019c48482850162001919565b6000830152506020620019da8482850162001919565b6020830152506040620019f08482850162001976565b604083015250606062001a068482850162001976565b606083015250608082015167ffffffffffffffff81111562001a2d5762001a2c62001896565b5b62001a3b84828501620018e6565b60808301525092915050565b600062001a5e62001a588462001947565b6200147e565b9050808382526020820190506020840283018581111562001a845762001a83620015f5565b5b835b8181101562001ad257805167ffffffffffffffff81111562001aad5762001aac6200140f565b5b80860162001abc89826200198d565b8552602085019450505060208101905062001a86565b5050509392505050565b600082601f83011262001af45762001af36200140f565b5b815162001b0684826020860162001a47565b91505092915050565b60006101c0828403121562001b295762001b2862001891565b5b62001b366101c06200147e565b9050600082015167ffffffffffffffff81111562001b595762001b5862001896565b5b62001b6784828501620018e6565b600083015250602062001b7d8482850162001919565b602083015250604082015167ffffffffffffffff81111562001ba45762001ba362001896565b5b62001bb284828501620018e6565b604083015250606062001bc88482850162001919565b606083015250608082015167ffffffffffffffff81111562001bef5762001bee62001896565b5b62001bfd84828501620018e6565b60808301525060a082015167ffffffffffffffff81111562001c245762001c2362001896565b5b62001c3284828501620018e6565b60a08301525060c082015167ffffffffffffffff81111562001c595762001c5862001896565b5b62001c6784828501620018e6565b60c08301525060e062001c7d8482850162001919565b60e08301525061010082015167ffffffffffffffff81111562001ca55762001ca462001896565b5b62001cb384828501620018e6565b6101008301525061012082015167ffffffffffffffff81111562001cdc5762001cdb62001896565b5b62001cea84828501620018e6565b6101208301525061014062001d028482850162001930565b6101408301525061016062001d1a8482850162001919565b6101608301525061018062001d328482850162001919565b610180830152506101a082015167ffffffffffffffff81111562001d5b5762001d5a62001896565b5b62001d698482850162001adc565b6101a08301525092915050565b60006020828403121562001d8f5762001d8e62000e3c565b5b600082015167ffffffffffffffff81111562001db05762001daf62000e41565b5b62001dbe8482850162001b0f565b91505092915050565b7f4e487b7100000000000000000000000000000000000000000000000000000000600052603260045260246000fd5b600060408201905062001e0d600083018562001863565b818103602083015262001e2181846200110e565b90509392505050565b7f4e487b7100000000000000000000000000000000000000000000000000000000600052601160045260246000fd5b600062001e668262000f77565b91507fffffffffffffffffffffffffffffffffffffffffffffffffffffffffffffffff820362001e9b5762001e9a62001e2a565b5b600182019050919050565b600082825260208201905092915050565b7f4e6f6e206578697374656e740000000000000000000000000000000000000000600082015250565b600062001eef600c8362001ea6565b915062001efc8262001eb7565b602082019050919050565b6000602082019050818103600083015262001f228162001ee0565b9050919050565b600062001f368262000f77565b915062001f438362000f77565b925082820390508181111562001f5e5762001f5d62001e2a565b5b92915050565b600062001f718262000f77565b915062001f7e8362000f77565b925082820190508082111562001f995762001f9862001e2a565b5b92915050565b600060a08301600083015162001fb9600086018262000f81565b50602083015162001fce602086018262000f81565b50604083015162001fe3604086018262000fd9565b50606083015162001ff8606086018262000fd9565b506080830151848203608086015262002012828262000f36565b9150508091505092915050565b600060208201905081810360008301526200203b818462001f9f565b905092915050565b600081519050919050565b600082825260208201905092915050565b6000819050602082019050919050565b60006200207d838362000f81565b60208301905092915050565b6000602082019050919050565b6000620020a38262002043565b620020af81856200204e565b9350620020bc836200205f565b8060005b83811015620020f3578151620020d788826200206f565b9750620020e48362002089565b925050600181019050620020c0565b5085935050505092915050565b600081519050919050565b600082825260208201905092915050565b6000819050602082019050919050565b60006200213a838362000f36565b905092915050565b6000602082019050919050565b60006200215c8262002100565b6200216881856200210b565b9350836020820285016200217c856200211c565b8060005b85811015620021be57848403895281516200219c85826200212c565b9450620021a98362002142565b925060208a0199505060018101905062002180565b50829750879550505050505092915050565b620021db8162000f92565b82525050565b60006060820190508181036000830152620021fd818662002096565b905081810360208301526200221381856200214f565b9050620022246040830184620021d0565b949350505050565b620022378162000f77565b82525050565b60006060820190506200225460008301866200222c565b62002263602083018562001863565b81810360408301526200227781846200110e565b9050949350505050565b7f4e487b7100000000000000000000000000000000000000000000000000000000600052603160045260246000fd5b6000819050919050565b620022cf620022c98262000f77565b620022b0565b82525050565b60008160601b9050919050565b6000620022ef82620022d5565b9050919050565b60006200230382620022e2565b9050919050565b6200231f620023198262000e66565b620022f6565b82525050565b6000620023338286620022ba565b602082019150620023458285620022ba565b6020820191506200235782846200230a565b60148201915081905094935050505056fe60806040523480156200001157600080fd5b5060405162001b9738038062001b97833981810160405281019062000037919062000651565b816000815181106200004e576200004d620006eb565b5b60200260200101516000800190816200006891906200095b565b508160018151811062000080576200007f620006eb565b5b6020026020010151600060020190816200009b91906200095b565b5081600281518110620000b357620000b2620006eb565b5b602002602001015160006004019081620000ce91906200095b565b5081600381518110620000e657620000e5620006eb565b5b6020026020010151600060050190816200010191906200095b565b5081600481518110620001195762000118620006eb565b5b6020026020010151600060060190816200013491906200095b565b50816005815181106200014c576200014b620006eb565b5b6020026020010151600060080190816200016791906200095b565b50816006815181106200017f576200017e620006eb565b5b6020026020010151600060090190816200019a91906200095b565b5082600081518110620001b257620001b1620006eb565b5b602002602001015160006001018190555082600181518110620001da57620001d9620006eb565b5b602002602001015160006003018190555082600281518110620002025762000201620006eb565b5b6020026020010151600060070181905550826003815181106200022a5762000229620006eb565b5b60200260200101516000600b018190555082600481518110620002525762000251620006eb565b5b60200260200101516000600c0181905550806000600a018190555050505062000a42565b6000604051905090565b600080fd5b600080fd5b600080fd5b6000601f19601f8301169050919050565b7f4e487b7100000000000000000000000000000000000000000000000000000000600052604160045260246000fd5b620002da826200028f565b810181811067ffffffffffffffff82111715620002fc57620002fb620002a0565b5b80604052505050565b60006200031162000276565b90506200031f8282620002cf565b919050565b600067ffffffffffffffff821115620003425762000341620002a0565b5b602082029050602081019050919050565b600080fd5b6000819050919050565b6200036d8162000358565b81146200037957600080fd5b50565b6000815190506200038d8162000362565b92915050565b6000620003aa620003a48462000324565b62000305565b90508083825260208201905060208402830185811115620003d057620003cf62000353565b5b835b81811015620003fd5780620003e888826200037c565b845260208401935050602081019050620003d2565b5050509392505050565b600082601f8301126200041f576200041e6200028a565b5b81516200043184826020860162000393565b91505092915050565b600067ffffffffffffffff821115620004585762000457620002a0565b5b602082029050602081019050919050565b600080fd5b600067ffffffffffffffff8211156200048c576200048b620002a0565b5b62000497826200028f565b9050602081019050919050565b60005b83811015620004c4578082015181840152602081019050620004a7565b60008484015250505050565b6000620004e7620004e1846200046e565b62000305565b90508281526020810184848401111562000506576200050562000469565b5b62000513848285620004a4565b509392505050565b600082601f8301126200053357620005326200028a565b5b815162000545848260208601620004d0565b91505092915050565b6000620005656200055f846200043a565b62000305565b905080838252602082019050602084028301858111156200058b576200058a62000353565b5b835b81811015620005d957805167ffffffffffffffff811115620005b457620005b36200028a565b5b808601620005c389826200051b565b855260208501945050506020810190506200058d565b5050509392505050565b600082601f830112620005fb57620005fa6200028a565b5b81516200060d8482602086016200054e565b91505092915050565b6000819050919050565b6200062b8162000616565b81146200063757600080fd5b50565b6000815190506200064b8162000620565b92915050565b6000806000606084860312156200066d576200066c62000280565b5b600084015167ffffffffffffffff8111156200068e576200068d62000285565b5b6200069c8682870162000407565b935050602084015167ffffffffffffffff811115620006c057620006bf62000285565b5b620006ce86828701620005e3565b9250506040620006e1868287016200063a565b9150509250925092565b7f4e487b7100000000000000000000000000000000000000000000000000000000600052603260045260246000fd5b600081519050919050565b7f4e487b7100000000000000000000000000000000000000000000000000000000600052602260045260246000fd5b600060028204905060018216806200076d57607f821691505b60208210810362000783576200078262000725565b5b50919050565b60008190508160005260206000209050919050565b60006020601f8301049050919050565b600082821b905092915050565b600060088302620007ed7fffffffffffffffffffffffffffffffffffffffffffffffffffffffffffffffff82620007ae565b620007f98683620007ae565b95508019841693508086168417925050509392505050565b6000819050919050565b60006200083c62000836620008308462000358565b62000811565b62000358565b9050919050565b6000819050919050565b62000858836200081b565b62000870620008678262000843565b848454620007bb565b825550505050565b600090565b6200088762000878565b620008948184846200084d565b505050565b5b81811015620008bc57620008b06000826200087d565b6001810190506200089a565b5050565b601f8211156200090b57620008d58162000789565b620008e0846200079e565b81016020851015620008f0578190505b62000908620008ff856200079e565b83018262000899565b50505b505050565b600082821c905092915050565b6000620009306000198460080262000910565b1980831691505092915050565b60006200094b83836200091d565b9150826002028217905092915050565b62000966826200071a565b67ffffffffffffffff811115620009825762000981620002a0565b5b6200098e825462000754565b6200099b828285620008c0565b600060209050601f831160018114620009d35760008415620009be578287015190505b620009ca85826200093d565b86555062000a3a565b601f198416620009e38662000789565b60005b8281101562000a0d57848901518255600182019150602085019450602081019050620009e6565b8683101562000a2d578489015162000a29601f8916826200091d565b8355505b6001600288020188555050505b505050505050565b6111458062000a526000396000f3fe608060405234801561001057600080fd5b50600436106100365760003560e01c80635426177e1461003b5780639032198814610059575b600080fd5b610043610075565b6040516100509190610b73565b60405180910390f35b610073600480360381019061006e9190610de8565b61067b565b005b61007d610767565b6000604051806101c001604052908160008201805461009b90610e60565b80601f01602080910402602001604051908101604052809291908181526020018280546100c790610e60565b80156101145780601f106100e957610100808354040283529160200191610114565b820191906000526020600020905b8154815290600101906020018083116100f757829003601f168201915b505050505081526020016001820154815260200160028201805461013790610e60565b80601f016020809104026020016040519081016040528092919081815260200182805461016390610e60565b80156101b05780601f10610185576101008083540402835291602001916101b0565b820191906000526020600020905b81548152906001019060200180831161019357829003601f168201915b50505050508152602001600382015481526020016004820180546101d390610e60565b80601f01602080910402602001604051908101604052809291908181526020018280546101ff90610e60565b801561024c5780601f106102215761010080835404028352916020019161024c565b820191906000526020600020905b81548152906001019060200180831161022f57829003601f168201915b5050505050815260200160058201805461026590610e60565b80601f016020809104026020016040519081016040528092919081815260200182805461029190610e60565b80156102de5780601f106102b3576101008083540402835291602001916102de565b820191906000526020600020905b8154815290600101906020018083116102c157829003601f168201915b505050505081526020016006820180546102f790610e60565b80601f016020809104026020016040519081016040528092919081815260200182805461032390610e60565b80156103705780601f1061034557610100808354040283529160200191610370565b820191906000526020600020905b81548152906001019060200180831161035357829003601f168201915b505050505081526020016007820154815260200160088201805461039390610e60565b80601f01602080910402602001604051908101604052809291908181526020018280546103bf90610e60565b801561040c5780601f106103e15761010080835404028352916020019161040c565b820191906000526020600020905b8154815290600101906020018083116103ef57829003601f168201915b5050505050815260200160098201805461042590610e60565b80601f016020809104026020016040519081016040528092919081815260200182805461045190610e60565b801561049e5780601f106104735761010080835404028352916020019161049e565b820191906000526020600020905b81548152906001019060200180831161048157829003601f168201915b50505050508152602001600a8201548152602001600b8201548152602001600c8201548152602001600d8201805480602002602001604051908101604052809291908181526020016000905b8282101561066e57838290600052602060002090600502016040518060a001604052908160008201548152602001600182015481526020016002820160009054906101000a900473ffffffffffffffffffffffffffffffffffffffff1673ffffffffffffffffffffffffffffffffffffffff1673ffffffffffffffffffffffffffffffffffffffff1681526020016003820160009054906101000a900473ffffffffffffffffffffffffffffffffffffffff1673ffffffffffffffffffffffffffffffffffffffff1673ffffffffffffffffffffffffffffffffffffffff1681526020016004820180546105dd90610e60565b80601f016020809104026020016040519081016040528092919081815260200182805461060990610e60565b80156106565780601f1061062b57610100808354040283529160200191610656565b820191906000526020600020905b81548152906001019060200180831161063957829003601f168201915b505050505081525050815260200190600101906104ea565b5050505081525050905090565b6000600d01819080600181540180825580915050600190039060005260206000209060050201600090919091909150600082015181600001556020820151816001015560408201518160020160006101000a81548173ffffffffffffffffffffffffffffffffffffffff021916908373ffffffffffffffffffffffffffffffffffffffff16021790555060608201518160030160006101000a81548173ffffffffffffffffffffffffffffffffffffffff021916908373ffffffffffffffffffffffffffffffffffffffff1602179055506080820151816004019081610761919061103d565b50505050565b604051806101c0016040528060608152602001600081526020016060815260200160008152602001606081526020016060815260200160608152602001600081526020016060815260200160608152602001600080191681526020016000815260200160008152602001606081525090565b600081519050919050565b600082825260208201905092915050565b60005b838110156108135780820151818401526020810190506107f8565b60008484015250505050565b6000601f19601f8301169050919050565b600061083b826107d9565b61084581856107e4565b93506108558185602086016107f5565b61085e8161081f565b840191505092915050565b6000819050919050565b61087c81610869565b82525050565b6000819050919050565b61089581610882565b82525050565b600081519050919050565b600082825260208201905092915050565b6000819050602082019050919050565b600073ffffffffffffffffffffffffffffffffffffffff82169050919050565b60006108f2826108c7565b9050919050565b610902816108e7565b82525050565b600060a0830160008301516109206000860182610873565b5060208301516109336020860182610873565b50604083015161094660408601826108f9565b50606083015161095960608601826108f9565b50608083015184820360808601526109718282610830565b9150508091505092915050565b600061098a8383610908565b905092915050565b6000602082019050919050565b60006109aa8261089b565b6109b481856108a6565b9350836020820285016109c6856108b7565b8060005b85811015610a0257848403895281516109e3858261097e565b94506109ee83610992565b925060208a019950506001810190506109ca565b50829750879550505050505092915050565b60006101c0830160008301518482036000860152610a328282610830565b9150506020830151610a476020860182610873565b5060408301518482036040860152610a5f8282610830565b9150506060830151610a746060860182610873565b5060808301518482036080860152610a8c8282610830565b91505060a083015184820360a0860152610aa68282610830565b91505060c083015184820360c0860152610ac08282610830565b91505060e0830151610ad560e0860182610873565b50610100830151848203610100860152610aef8282610830565b915050610120830151848203610120860152610b0b8282610830565b915050610140830151610b2261014086018261088c565b50610160830151610b37610160860182610873565b50610180830151610b4c610180860182610873565b506101a08301518482036101a0860152610b66828261099f565b9150508091505092915050565b60006020820190508181036000830152610b8d8184610a14565b905092915050565b6000604051905090565b600080fd5b600080fd5b600080fd5b7f4e487b7100000000000000000000000000000000000000000000000000000000600052604160045260246000fd5b610be68261081f565b810181811067ffffffffffffffff82111715610c0557610c04610bae565b5b80604052505050565b6000610c18610b95565b9050610c248282610bdd565b919050565b600080fd5b610c3781610869565b8114610c4257600080fd5b50565b600081359050610c5481610c2e565b92915050565b610c63816108e7565b8114610c6e57600080fd5b50565b600081359050610c8081610c5a565b92915050565b600080fd5b600080fd5b600067ffffffffffffffff821115610cab57610caa610bae565b5b610cb48261081f565b9050602081019050919050565b82818337600083830152505050565b6000610ce3610cde84610c90565b610c0e565b905082815260208101848484011115610cff57610cfe610c8b565b5b610d0a848285610cc1565b509392505050565b600082601f830112610d2757610d26610c86565b5b8135610d37848260208601610cd0565b91505092915050565b600060a08284031215610d5657610d55610ba9565b5b610d6060a0610c0e565b90506000610d7084828501610c45565b6000830152506020610d8484828501610c45565b6020830152506040610d9884828501610c71565b6040830152506060610dac84828501610c71565b606083015250608082013567ffffffffffffffff811115610dd057610dcf610c29565b5b610ddc84828501610d12565b60808301525092915050565b600060208284031215610dfe57610dfd610b9f565b5b600082013567ffffffffffffffff811115610e1c57610e1b610ba4565b5b610e2884828501610d40565b91505092915050565b7f4e487b7100000000000000000000000000000000000000000000000000000000600052602260045260246000fd5b60006002820490506001821680610e7857607f821691505b602082108103610e8b57610e8a610e31565b5b50919050565b60008190508160005260206000209050919050565b60006020601f8301049050919050565b600082821b905092915050565b600060088302610ef37fffffffffffffffffffffffffffffffffffffffffffffffffffffffffffffffff82610eb6565b610efd8683610eb6565b95508019841693508086168417925050509392505050565b6000819050919050565b6000610f3a610f35610f3084610869565b610f15565b610869565b9050919050565b6000819050919050565b610f5483610f1f565b610f68610f6082610f41565b848454610ec3565b825550505050565b600090565b610f7d610f70565b610f88818484610f4b565b505050565b5b81811015610fac57610fa1600082610f75565b600181019050610f8e565b5050565b601f821115610ff157610fc281610e91565b610fcb84610ea6565b81016020851015610fda578190505b610fee610fe685610ea6565b830182610f8d565b50505b505050565b600082821c905092915050565b600061101460001984600802610ff6565b1980831691505092915050565b600061102d8383611003565b9150826002028217905092915050565b611046826107d9565b67ffffffffffffffff81111561105f5761105e610bae565b5b6110698254610e60565b611074828285610fb0565b600060209050601f8311600181146110a75760008415611095578287015190505b61109f8582611021565b865550611107565b601f1984166110b586610e91565b60005b828110156110dd578489015182556001820191506020850194506020810190506110b8565b868310156110fa57848901516110f6601f891682611003565b8355505b6001600288020188555050505b50505050505056fea2646970667358221220e8797f3556e788e77efb91da5a7b8660ee1d88b3b30eb8eed9e13c13c56ca94b64736f6c63430008110033a264697066735822122053902e57f3591a530b5000dab0e05368e5eb0d7df3f2229f75e4c65f7877406a64736f6c63430008110033",
  "immutableReferences": {},
  "source": "// SPDX-License-Identifier: MIT\n\npragma solidity ^0.8.17;\n\nimport \"./form.sol\";\n\n// This is a special contract that generates Form contracts, that have their own methods to generate and update their\n// attributes, while keeping track of all the forms in the blockchain.\n\ncontract FormFactory {\n    // Events are a way for contract to communicate that something happened on the blockchain to your app front-end,\n    // which can be 'listening' for certain events and take action when they happen.\n\n    // newForm: Event to be emitted when a new form is created.\n    // NOTE: If more fields are needed, change the emit in createForm.\n    event newForm(uint caseNumber, address caseAddress, FormData data);\n    event formFound(address caseAddress, FormData data);\n\n\n    // Mapping to store the forms for the evidence of the cases.\n    mapping(address => Form) private addressToForm;\n    // Mapping to store the addresses of the forms currently in charge of every user.\n    mapping(address => address[]) private userToFormAddresses;\n    // Array to store the addresses of the forms for the evidence of the cases.\n    address[] private listFormAddress; // TODO: private?\n\n    /**\n    *   @dev Function to create a new form for the evidence of the case.\n    *\n    *   @param _numbers All numerical information in the form\n    *   @param _strings All textual information in the form\n    *   @param _hashValue Hash value of the evidence\n    */\n    function createForm(uint[] memory _numbers, string[] memory _strings, bytes32 _hashValue) public returns (address) {\n        // Generation of new address for the form.\n        address entityAddress = createAddress();\n        // Creation of the new Form directly in the mapping object\n        addressToForm[entityAddress] = new Form(_numbers, _strings, _hashValue);\n        addressToForm[entityAddress].pushLog(Log(0, block.timestamp, msg.sender, msg.sender, \"Form created\"));\n        userToFormAddresses[msg.sender].push(entityAddress);\n        searchCaseNumber(uint(10));\n        // Emit the event newForm.\n        emit newForm(_numbers[0], entityAddress, readFormAddress(entityAddress));\n        return entityAddress;\n    }\n\n    /**\n    *   @dev Function to get a form from its address.\n    *\n    *   @param _caseAddress address of the case\n    *\n    *   @return Form form required\n    */\n    function findForm(address _caseAddress) public view returns (Form) {\n        return addressToForm[_caseAddress];\n    }\n\n    /**\n    *   @dev Function to get form data from itself.\n    *\n    *   @param _form form which data is required\n    *\n    *   @return FormData Struct that contains the data of the form\n    */\n    function readForm(Form _form) public view returns (FormData memory) {\n        return _form.readForm();\n    }\n\n    /**\n    *   @dev Function to get form data from an address.\n    *\n    *   @param _caseAddress address of the case\n    *\n    *   @return FormData Struct that contains the data of the form required\n    */\n    function readFormAddress(address _caseAddress) public view returns (FormData memory) {\n        return readForm(findForm(_caseAddress));\n    }\n\n    /**\n    *   @dev Function that compute a random address.\n    *\n    *   @return address randomly generated\n    */\n    function createAddress() private view returns (address) {\n        return address(uint160(uint(keccak256(abi.encodePacked(block.timestamp, block.difficulty, msg.sender)))));\n    }\n\n    function getForm(address _formAddress, string memory _reason) public {\n        uint chainLength = readFormAddress(_formAddress).chainOfCustody.length;\n        address previousUser = readFormAddress(_formAddress).chainOfCustody[chainLength - 1].receivedBy;\n        uint previousNumber = readFormAddress(_formAddress).chainOfCustody[chainLength - 1].trackingNumber;\n        findForm(_formAddress).pushLog(Log(previousNumber + 1, block.timestamp, previousUser, msg.sender, _reason));\n        userToFormAddresses[msg.sender].push(_formAddress);\n        removeAddressInAUserList(previousUser, _formAddress);\n    }\n\n    /**\n    *   @dev Function that search for a form with a certain case number.\n    *\n    *   @param _caseNumber number of the case\n    *\n    *   @return Form requested\n    */\n    function searchCaseNumber(uint _caseNumber) public returns (Form) {\n        require(listFormAddress.length > 0);\n        for (uint i = 0; i < listFormAddress.length; i++) {\n            if (readFormAddress(listFormAddress[i]).caseNumber == _caseNumber) {\n                emit formFound(listFormAddress[i], readFormAddress(listFormAddress[i]));\n                return addressToForm[listFormAddress[i]];\n            }\n        }\n        revert(\"Non existent\");\n    }\n\n    /**\n    *   @dev Function that removes a certain address of a certain user.\n    *\n    *   @param _userAddress address of the user we want to take the evidence from\n    *\n    *   @param _formAddress address of the form we want to remove from _userAddress\n    */\n    function removeAddressInAUserList(address _userAddress, address _formAddress) private {\n        require(userToFormAddresses[_userAddress].length > 0);\n\n        uint userAddressesLength = userToFormAddresses[_userAddress].length;\n\n        for (uint i = 0; i < userAddressesLength; i++) {// look into the addresses linked to _userAddress\n            if (userToFormAddresses[_userAddress][i] == _formAddress) {\n                userToFormAddresses[_userAddress][i] = userToFormAddresses[_userAddress][userAddressesLength - 1];\n                // copy the last element in the index we want to remove\n                userToFormAddresses[_userAddress].pop(); // remove the last element\n            }\n        }\n    }\n}",
  "sourcePath": "/Users/lorenzocrespan/Documents/Workspace/University/90748 - Blockchain and Cryptocurrencies/BlueWoodchuck/project/blockchain/contracts/contracts/formFactory.sol",
  "compiler": {
    "name": "solc",
    "version": "0.8.17+commit.8df45f5f.Emscripten.clang"
  },
  "schemaVersion": "3.4.10",
  "updatedAt": "2023-02-07T23:05:16.458Z",
  "networkType": "ethereum",
  "devdoc": {
    "kind": "dev",
    "methods": {
      "createForm(uint256[],string[],bytes32)": {
        "details": "Function to create a new form for the evidence of the case.",
        "params": {
          "_hashValue": "Hash value of the evidence",
          "_numbers": "All numerical information in the form",
          "_strings": "All textual information in the form"
        }
      },
      "findForm(address)": {
        "details": "Function to get a form from its address.",
        "params": {
          "_caseAddress": "address of the case"
        },
        "returns": {
          "_0": "Form form required"
        }
      },
      "readForm(address)": {
        "details": "Function to get form data from itself.",
        "params": {
          "_form": "form which data is required"
        },
        "returns": {
          "_0": "FormData Struct that contains the data of the form"
        }
      },
      "readFormAddress(address)": {
        "details": "Function to get form data from an address.",
        "params": {
          "_caseAddress": "address of the case"
        },
        "returns": {
          "_0": "FormData Struct that contains the data of the form required"
        }
      },
      "searchCaseNumber(uint256)": {
        "details": "Function that search for a form with a certain case number.",
        "params": {
          "_caseNumber": "number of the case"
        },
        "returns": {
          "_0": "Form requested"
        }
      }
    },
    "version": 1
  },
  "userdoc": {
    "kind": "user",
    "methods": {},
    "version": 1
  }
}